{
	"gist-e259420aec8d85ea2219e4154536ad35/contracts/RedelegationReward.sol": {
		"RedelegationReward": {
			"abi": [
				{
					"inputs": [
						{
							"internalType": "address",
							"name": "rewardsToken_",
							"type": "address"
						},
						{
							"internalType": "uint256",
							"name": "duration",
							"type": "uint256"
						}
					],
					"stateMutability": "nonpayable",
					"type": "constructor"
				},
				{
					"inputs": [],
					"name": "FailedToWithdrawStaking",
					"type": "error"
				},
				{
					"inputs": [],
					"name": "TooHighReward",
					"type": "error"
				},
				{
					"inputs": [],
					"name": "WaitToFinish",
					"type": "error"
				},
				{
					"inputs": [],
					"name": "ZeroAmount",
					"type": "error"
				},
				{
					"anonymous": false,
					"inputs": [
						{
							"indexed": true,
							"internalType": "address",
							"name": "account",
							"type": "address"
						},
						{
							"indexed": false,
							"internalType": "uint256",
							"name": "amount",
							"type": "uint256"
						}
					],
					"name": "CancelRedelegate",
					"type": "event"
				},
				{
					"anonymous": false,
					"inputs": [
						{
							"indexed": true,
							"internalType": "address",
							"name": "account",
							"type": "address"
						},
						{
							"indexed": false,
							"internalType": "uint256",
							"name": "amount",
							"type": "uint256"
						}
					],
					"name": "Claimed",
					"type": "event"
				},
				{
					"anonymous": false,
					"inputs": [
						{
							"indexed": false,
							"internalType": "uint256",
							"name": "amount",
							"type": "uint256"
						}
					],
					"name": "Funded",
					"type": "event"
				},
				{
					"anonymous": false,
					"inputs": [
						{
							"indexed": true,
							"internalType": "address",
							"name": "previousOwner",
							"type": "address"
						},
						{
							"indexed": true,
							"internalType": "address",
							"name": "newOwner",
							"type": "address"
						}
					],
					"name": "OwnershipTransferred",
					"type": "event"
				},
				{
					"anonymous": false,
					"inputs": [
						{
							"indexed": false,
							"internalType": "address",
							"name": "account",
							"type": "address"
						}
					],
					"name": "Paused",
					"type": "event"
				},
				{
					"anonymous": false,
					"inputs": [
						{
							"indexed": false,
							"internalType": "address",
							"name": "token",
							"type": "address"
						},
						{
							"indexed": false,
							"internalType": "uint256",
							"name": "amount",
							"type": "uint256"
						}
					],
					"name": "Recovered",
					"type": "event"
				},
				{
					"anonymous": false,
					"inputs": [
						{
							"indexed": true,
							"internalType": "address",
							"name": "account",
							"type": "address"
						},
						{
							"indexed": false,
							"internalType": "uint256",
							"name": "amount",
							"type": "uint256"
						}
					],
					"name": "Redelegate",
					"type": "event"
				},
				{
					"anonymous": false,
					"inputs": [
						{
							"indexed": false,
							"internalType": "uint256",
							"name": "duration",
							"type": "uint256"
						}
					],
					"name": "RewardsDurationUpdated",
					"type": "event"
				},
				{
					"anonymous": false,
					"inputs": [
						{
							"indexed": false,
							"internalType": "address",
							"name": "account",
							"type": "address"
						}
					],
					"name": "Unpaused",
					"type": "event"
				},
				{
					"inputs": [],
					"name": "approveRequiredMethods",
					"outputs": [],
					"stateMutability": "nonpayable",
					"type": "function"
				},
				{
					"inputs": [
						{
							"internalType": "address",
							"name": "account",
							"type": "address"
						}
					],
					"name": "balanceOf",
					"outputs": [
						{
							"internalType": "uint256",
							"name": "",
							"type": "uint256"
						}
					],
					"stateMutability": "view",
					"type": "function"
				},
				{
					"inputs": [],
					"name": "claim",
					"outputs": [],
					"stateMutability": "nonpayable",
					"type": "function"
				},
				{
					"inputs": [
						{
							"internalType": "address",
							"name": "account",
							"type": "address"
						}
					],
					"name": "earned",
					"outputs": [
						{
							"internalType": "uint256",
							"name": "",
							"type": "uint256"
						}
					],
					"stateMutability": "view",
					"type": "function"
				},
				{
					"inputs": [
						{
							"internalType": "uint256",
							"name": "reward",
							"type": "uint256"
						}
					],
					"name": "fund",
					"outputs": [],
					"stateMutability": "nonpayable",
					"type": "function"
				},
				{
					"inputs": [],
					"name": "getRewardForDuration",
					"outputs": [
						{
							"internalType": "uint256",
							"name": "",
							"type": "uint256"
						}
					],
					"stateMutability": "view",
					"type": "function"
				},
				{
					"inputs": [
						{
							"internalType": "address",
							"name": "_user",
							"type": "address"
						}
					],
					"name": "isUserApproved",
					"outputs": [
						{
							"internalType": "bool",
							"name": "",
							"type": "bool"
						}
					],
					"stateMutability": "view",
					"type": "function"
				},
				{
					"inputs": [],
					"name": "lastTimeRewardApplicable",
					"outputs": [
						{
							"internalType": "uint256",
							"name": "",
							"type": "uint256"
						}
					],
					"stateMutability": "view",
					"type": "function"
				},
				{
					"inputs": [],
					"name": "lastUpdateTime",
					"outputs": [
						{
							"internalType": "uint256",
							"name": "",
							"type": "uint256"
						}
					],
					"stateMutability": "view",
					"type": "function"
				},
				{
					"inputs": [],
					"name": "owner",
					"outputs": [
						{
							"internalType": "address",
							"name": "",
							"type": "address"
						}
					],
					"stateMutability": "view",
					"type": "function"
				},
				{
					"inputs": [],
					"name": "paused",
					"outputs": [
						{
							"internalType": "bool",
							"name": "",
							"type": "bool"
						}
					],
					"stateMutability": "view",
					"type": "function"
				},
				{
					"inputs": [],
					"name": "periodFinish",
					"outputs": [
						{
							"internalType": "uint256",
							"name": "",
							"type": "uint256"
						}
					],
					"stateMutability": "view",
					"type": "function"
				},
				{
					"inputs": [
						{
							"internalType": "address",
							"name": "tokenAddress",
							"type": "address"
						},
						{
							"internalType": "uint256",
							"name": "tokenAmount",
							"type": "uint256"
						}
					],
					"name": "recoverERC20",
					"outputs": [],
					"stateMutability": "nonpayable",
					"type": "function"
				},
				{
					"inputs": [
						{
							"internalType": "string",
							"name": "_srcValidatorAddr",
							"type": "string"
						},
						{
							"internalType": "string",
							"name": "_dstValidatorAddr",
							"type": "string"
						},
						{
							"internalType": "uint256",
							"name": "_amount",
							"type": "uint256"
						}
					],
					"name": "redelegateTokens",
					"outputs": [
						{
							"internalType": "int64",
							"name": "",
							"type": "int64"
						}
					],
					"stateMutability": "nonpayable",
					"type": "function"
				},
				{
					"inputs": [
						{
							"internalType": "string[]",
							"name": "_srcValidatorAddrs",
							"type": "string[]"
						},
						{
							"internalType": "string[]",
							"name": "_dstValidatorAddrs",
							"type": "string[]"
						},
						{
							"internalType": "uint256[]",
							"name": "_amounts",
							"type": "uint256[]"
						}
					],
					"name": "redelegateTokensMultiple",
					"outputs": [],
					"stateMutability": "nonpayable",
					"type": "function"
				},
				{
					"inputs": [],
					"name": "renounceOwnership",
					"outputs": [],
					"stateMutability": "nonpayable",
					"type": "function"
				},
				{
					"inputs": [],
					"name": "rewardPerToken",
					"outputs": [
						{
							"internalType": "uint256",
							"name": "",
							"type": "uint256"
						}
					],
					"stateMutability": "view",
					"type": "function"
				},
				{
					"inputs": [],
					"name": "rewardPerTokenStored",
					"outputs": [
						{
							"internalType": "uint256",
							"name": "",
							"type": "uint256"
						}
					],
					"stateMutability": "view",
					"type": "function"
				},
				{
					"inputs": [],
					"name": "rewardRate",
					"outputs": [
						{
							"internalType": "uint256",
							"name": "",
							"type": "uint256"
						}
					],
					"stateMutability": "view",
					"type": "function"
				},
				{
					"inputs": [
						{
							"internalType": "address",
							"name": "",
							"type": "address"
						}
					],
					"name": "rewards",
					"outputs": [
						{
							"internalType": "uint256",
							"name": "",
							"type": "uint256"
						}
					],
					"stateMutability": "view",
					"type": "function"
				},
				{
					"inputs": [],
					"name": "rewardsDuration",
					"outputs": [
						{
							"internalType": "uint256",
							"name": "",
							"type": "uint256"
						}
					],
					"stateMutability": "view",
					"type": "function"
				},
				{
					"inputs": [],
					"name": "rewardsToken",
					"outputs": [
						{
							"internalType": "contract IERC20",
							"name": "",
							"type": "address"
						}
					],
					"stateMutability": "view",
					"type": "function"
				},
				{
					"inputs": [
						{
							"internalType": "uint256",
							"name": "duration",
							"type": "uint256"
						}
					],
					"name": "setRewardsDuration",
					"outputs": [],
					"stateMutability": "nonpayable",
					"type": "function"
				},
				{
					"inputs": [],
					"name": "stakingToken",
					"outputs": [
						{
							"internalType": "contract IERC20",
							"name": "",
							"type": "address"
						}
					],
					"stateMutability": "view",
					"type": "function"
				},
				{
					"inputs": [],
					"name": "totalSupplyLocked",
					"outputs": [
						{
							"internalType": "uint256",
							"name": "",
							"type": "uint256"
						}
					],
					"stateMutability": "view",
					"type": "function"
				},
				{
					"inputs": [
						{
							"internalType": "address",
							"name": "newOwner",
							"type": "address"
						}
					],
					"name": "transferOwnership",
					"outputs": [],
					"stateMutability": "nonpayable",
					"type": "function"
				},
				{
					"inputs": [
						{
							"internalType": "address",
							"name": "",
							"type": "address"
						}
					],
					"name": "userRewardPerTokenPaid",
					"outputs": [
						{
							"internalType": "uint256",
							"name": "",
							"type": "uint256"
						}
					],
					"stateMutability": "view",
					"type": "function"
				}
			],
			"devdoc": {
				"events": {
					"Paused(address)": {
						"details": "Emitted when the pause is triggered by `account`."
					},
					"Unpaused(address)": {
						"details": "Emitted when the pause is lifted by `account`."
					}
				},
				"kind": "dev",
				"methods": {
					"approveRequiredMethods()": {
						"details": "Approves the required transactions for delegation and withdrawal of staking rewards transactions.This creates a Cosmos Authorization Grants for the given methods.This emits an Approval event."
					},
					"balanceOf(address)": {
						"params": {
							"account": "User address"
						},
						"returns": {
							"_0": "Returns balance of staked amount per user."
						}
					},
					"claim()": {
						"details": "Callable only when unpaused"
					},
					"constructor": {
						"details": "Constructor",
						"params": {
							"duration": "Reward duration in seconds",
							"rewardsToken_": "Address to rewards ERC20 token"
						}
					},
					"earned(address)": {
						"params": {
							"account": "User address"
						},
						"returns": {
							"_0": "Returns earned rewards per user."
						}
					},
					"fund(uint256)": {
						"details": "Callable only when unpaused and by owner",
						"params": {
							"reward": "Funding rewards token amount"
						}
					},
					"getRewardForDuration()": {
						"returns": {
							"_0": "Returns total rewards amount for current duration."
						}
					},
					"isUserApproved(address)": {
						"details": "Checks if a user has executed the approveRequiredMethods function.",
						"params": {
							"_user": "The address of the user to check."
						},
						"returns": {
							"_0": "A boolean indicating if the user is approved."
						}
					},
					"lastTimeRewardApplicable()": {
						"returns": {
							"_0": "Returns last time to calculate rewards. If now is less than the last time, returns now."
						}
					},
					"owner()": {
						"details": "Returns the address of the current owner."
					},
					"paused()": {
						"details": "Returns true if the contract is paused, and false otherwise."
					},
					"recoverERC20(address,uint256)": {
						"details": "Callable by owner",
						"params": {
							"tokenAddress": "Recovering token address",
							"tokenAmount": "Recovering token amount"
						}
					},
					"redelegateTokens(string,string,uint256)": {
						"details": "Redelegate the staked tokens from one validator to another",
						"params": {
							"_amount": "The amount of tokens to redelegate",
							"_dstValidatorAddr": "The address of the destination validator",
							"_srcValidatorAddr": "The address of the source validator"
						}
					},
					"redelegateTokensMultiple(string[],string[],uint256[])": {
						"details": "Redelegate the staked tokens from multiple validators to others",
						"params": {
							"_amounts": "The amounts of tokens to redelegate",
							"_dstValidatorAddrs": "The addresses of the destination validators",
							"_srcValidatorAddrs": "The addresses of the source validators"
						}
					},
					"renounceOwnership()": {
						"details": "Leaves the contract without owner. It will not be possible to call `onlyOwner` functions. Can only be called by the current owner. NOTE: Renouncing ownership will leave the contract without an owner, thereby disabling any functionality that is only available to the owner."
					},
					"rewardPerToken()": {
						"returns": {
							"_0": "Returns total amount of calculated rewards."
						}
					},
					"setRewardsDuration(uint256)": {
						"details": "Callable by owner",
						"params": {
							"duration": "New rewards duration"
						}
					},
					"totalSupplyLocked()": {
						"returns": {
							"_0": "Returns totalSupplyLocked"
						}
					},
					"transferOwnership(address)": {
						"details": "Transfers ownership of the contract to a new account (`newOwner`). Can only be called by the current owner."
					}
				},
				"version": 1
			},
			"evm": {
				"assembly": "    /* \"gist-e259420aec8d85ea2219e4154536ad35/contracts/RedelegationReward.sol\":862:11700  contract RedelegationReward is IRedelegationReward, Ownable, Pausable, ReentrancyGuard {... */\n  mstore(0x40, 0x80)\n    /* \"gist-e259420aec8d85ea2219e4154536ad35/contracts/RedelegationReward.sol\":955:1005  string[] private stakingMethods = [MSG_REDELEGATE] */\n  mload(0x40)\n  dup1\n  0x20\n  add\n  0x40\n  mstore\n  dup1\n    /* \"gist-e259420aec8d85ea2219e4154536ad35/contracts/RedelegationReward.sol\":990:1004  MSG_REDELEGATE */\n  mload(0x40)\n  dup1\n  0x60\n  add\n  0x40\n  mstore\n  dup1\n  0x2a\n  dup2\n  mstore\n  0x20\n  add\n  data_017e571b15ba8f3567be32b8c9b4c10b5aee7936471accdc36d1737426796a31\n  0x2a\n  swap2\n  codecopy\n    /* \"gist-e259420aec8d85ea2219e4154536ad35/contracts/RedelegationReward.sol\":955:1005  string[] private stakingMethods = [MSG_REDELEGATE] */\n  dup2\n  mstore\n  pop\n  0x02\n  swap1\n  0x01\n  tag_1\n  swap3\n  swap2\n  swap1\n  tag_2\n  jump\t// in\ntag_1:\n  pop\n    /* \"gist-e259420aec8d85ea2219e4154536ad35/contracts/RedelegationReward.sol\":2006:2012  2 days */\n  0x02a300\n    /* \"gist-e259420aec8d85ea2219e4154536ad35/contracts/RedelegationReward.sol\":1973:2012  uint256 public rewardsDuration = 2 days */\n  0x08\n  sstore\n    /* \"gist-e259420aec8d85ea2219e4154536ad35/contracts/RedelegationReward.sol\":4534:4746  constructor(address rewardsToken_, uint256 duration) {... */\n  callvalue\n  dup1\n  iszero\n  tag_3\n  jumpi\n  0x00\n  dup1\n  revert\ntag_3:\n  pop\n  mload(0x40)\n  sub(codesize, bytecodeSize)\n  dup1\n  bytecodeSize\n  dup4\n  codecopy\n  dup2\n  dup2\n  add\n  0x40\n  mstore\n  dup2\n  add\n  swap1\n  tag_4\n  swap2\n  swap1\n  tag_5\n  jump\t// in\ntag_4:\n    /* \"@openzeppelin/contracts/access/Ownable.sol\":936:968  _transferOwnership(_msgSender()) */\n  tag_11\n    /* \"@openzeppelin/contracts/access/Ownable.sol\":955:967  _msgSender() */\n  tag_12\n    /* \"@openzeppelin/contracts/access/Ownable.sol\":955:965  _msgSender */\n  shl(0x20, tag_13)\n    /* \"@openzeppelin/contracts/access/Ownable.sol\":955:967  _msgSender() */\n  0x20\n  shr\n  jump\t// in\ntag_12:\n    /* \"@openzeppelin/contracts/access/Ownable.sol\":936:954  _transferOwnership */\n  shl(0x20, tag_14)\n    /* \"@openzeppelin/contracts/access/Ownable.sol\":936:968  _transferOwnership(_msgSender()) */\n  0x20\n  shr\n  jump\t// in\ntag_11:\n    /* \"@openzeppelin/contracts/security/Pausable.sol\":1006:1011  false */\n  0x00\n    /* \"@openzeppelin/contracts/security/Pausable.sol\":996:1003  _paused */\n  dup1\n  0x14\n    /* \"@openzeppelin/contracts/security/Pausable.sol\":996:1011  _paused = false */\n  0x0100\n  exp\n  dup2\n  sload\n  dup2\n  0xff\n  mul\n  not\n  and\n  swap1\n  dup4\n  iszero\n  iszero\n  mul\n  or\n  swap1\n  sstore\n  pop\n    /* \"@openzeppelin/contracts/security/ReentrancyGuard.sol\":1716:1717  1 */\n  0x01\n    /* \"@openzeppelin/contracts/security/ReentrancyGuard.sol\":1821:1828  _status */\n  dup1\n    /* \"@openzeppelin/contracts/security/ReentrancyGuard.sol\":1821:1843  _status = _NOT_ENTERED */\n  dup2\n  swap1\n  sstore\n  pop\n    /* \"gist-e259420aec8d85ea2219e4154536ad35/contracts/RedelegationReward.sol\":4615:4628  rewardsToken_ */\n  dup2\n    /* \"gist-e259420aec8d85ea2219e4154536ad35/contracts/RedelegationReward.sol\":4593:4605  rewardsToken */\n  0x05\n  0x00\n    /* \"gist-e259420aec8d85ea2219e4154536ad35/contracts/RedelegationReward.sol\":4593:4629  rewardsToken = IERC20(rewardsToken_) */\n  0x0100\n  exp\n  dup2\n  sload\n  dup2\n  0xffffffffffffffffffffffffffffffffffffffff\n  mul\n  not\n  and\n  swap1\n  dup4\n  0xffffffffffffffffffffffffffffffffffffffff\n  and\n  mul\n  or\n  swap1\n  sstore\n  pop\n    /* \"gist-e259420aec8d85ea2219e4154536ad35/contracts/RedelegationReward.sol\":4665:4707  0xBeFe898407483f0f2fF605971FBD8Cf8FbD8B160 */\n  0xbefe898407483f0f2ff605971fbd8cf8fbd8b160\n    /* \"gist-e259420aec8d85ea2219e4154536ad35/contracts/RedelegationReward.sol\":4635:4647  stakingToken */\n  0x04\n  0x00\n    /* \"gist-e259420aec8d85ea2219e4154536ad35/contracts/RedelegationReward.sol\":4635:4709  stakingToken = IERC20(address(0xBeFe898407483f0f2fF605971FBD8Cf8FbD8B160)) */\n  0x0100\n  exp\n  dup2\n  sload\n  dup2\n  0xffffffffffffffffffffffffffffffffffffffff\n  mul\n  not\n  and\n  swap1\n  dup4\n  0xffffffffffffffffffffffffffffffffffffffff\n  and\n  mul\n  or\n  swap1\n  sstore\n  pop\n    /* \"gist-e259420aec8d85ea2219e4154536ad35/contracts/RedelegationReward.sol\":4733:4741  duration */\n  dup1\n    /* \"gist-e259420aec8d85ea2219e4154536ad35/contracts/RedelegationReward.sol\":4715:4730  rewardsDuration */\n  0x08\n    /* \"gist-e259420aec8d85ea2219e4154536ad35/contracts/RedelegationReward.sol\":4715:4741  rewardsDuration = duration */\n  dup2\n  swap1\n  sstore\n  pop\n    /* \"gist-e259420aec8d85ea2219e4154536ad35/contracts/RedelegationReward.sol\":4534:4746  constructor(address rewardsToken_, uint256 duration) {... */\n  pop\n  pop\n    /* \"gist-e259420aec8d85ea2219e4154536ad35/contracts/RedelegationReward.sol\":862:11700  contract RedelegationReward is IRedelegationReward, Ownable, Pausable, ReentrancyGuard {... */\n  jump(tag_18)\n    /* \"@openzeppelin/contracts/utils/Context.sol\":640:736  function _msgSender() internal view virtual returns (address) {... */\ntag_13:\n    /* \"@openzeppelin/contracts/utils/Context.sol\":693:700  address */\n  0x00\n    /* \"@openzeppelin/contracts/utils/Context.sol\":719:729  msg.sender */\n  caller\n    /* \"@openzeppelin/contracts/utils/Context.sol\":712:729  return msg.sender */\n  swap1\n  pop\n    /* \"@openzeppelin/contracts/utils/Context.sol\":640:736  function _msgSender() internal view virtual returns (address) {... */\n  swap1\n  jump\t// out\n    /* \"@openzeppelin/contracts/access/Ownable.sol\":2426:2613  function _transferOwnership(address newOwner) internal virtual {... */\ntag_14:\n    /* \"@openzeppelin/contracts/access/Ownable.sol\":2499:2515  address oldOwner */\n  0x00\n    /* \"@openzeppelin/contracts/access/Ownable.sol\":2518:2524  _owner */\n  dup1\n  0x00\n  swap1\n  sload\n  swap1\n  0x0100\n  exp\n  swap1\n  div\n  0xffffffffffffffffffffffffffffffffffffffff\n  and\n    /* \"@openzeppelin/contracts/access/Ownable.sol\":2499:2524  address oldOwner = _owner */\n  swap1\n  pop\n    /* \"@openzeppelin/contracts/access/Ownable.sol\":2543:2551  newOwner */\n  dup2\n    /* \"@openzeppelin/contracts/access/Ownable.sol\":2534:2540  _owner */\n  0x00\n  dup1\n    /* \"@openzeppelin/contracts/access/Ownable.sol\":2534:2551  _owner = newOwner */\n  0x0100\n  exp\n  dup2\n  sload\n  dup2\n  0xffffffffffffffffffffffffffffffffffffffff\n  mul\n  not\n  and\n  swap1\n  dup4\n  0xffffffffffffffffffffffffffffffffffffffff\n  and\n  mul\n  or\n  swap1\n  sstore\n  pop\n    /* \"@openzeppelin/contracts/access/Ownable.sol\":2597:2605  newOwner */\n  dup2\n    /* \"@openzeppelin/contracts/access/Ownable.sol\":2566:2606  OwnershipTransferred(oldOwner, newOwner) */\n  0xffffffffffffffffffffffffffffffffffffffff\n  and\n    /* \"@openzeppelin/contracts/access/Ownable.sol\":2587:2595  oldOwner */\n  dup2\n    /* \"@openzeppelin/contracts/access/Ownable.sol\":2566:2606  OwnershipTransferred(oldOwner, newOwner) */\n  0xffffffffffffffffffffffffffffffffffffffff\n  and\n  0x8be0079c531659141344cd1fd0a4f28419497f9722a3daafe3b4186f6b6457e0\n  mload(0x40)\n  mload(0x40)\n  dup1\n  swap2\n  sub\n  swap1\n  log3\n    /* \"@openzeppelin/contracts/access/Ownable.sol\":2489:2613  {... */\n  pop\n    /* \"@openzeppelin/contracts/access/Ownable.sol\":2426:2613  function _transferOwnership(address newOwner) internal virtual {... */\n  pop\n  jump\t// out\n    /* \"gist-e259420aec8d85ea2219e4154536ad35/contracts/RedelegationReward.sol\":862:11700  contract RedelegationReward is IRedelegationReward, Ownable, Pausable, ReentrancyGuard {... */\ntag_2:\n  dup3\n  dup1\n  sload\n  dup3\n  dup3\n  sstore\n  swap1\n  0x00\n  mstore\n  keccak256(0x00, 0x20)\n  swap1\n  dup2\n  add\n  swap3\n  dup3\n  iszero\n  tag_21\n  jumpi\n  swap2\n  0x20\n  mul\n  dup3\n  add\ntag_22:\n  dup3\n  dup2\n  gt\n  iszero\n  tag_23\n  jumpi\n  dup3\n  mload\n  dup3\n  swap1\n  dup2\n  tag_24\n  swap2\n  swap1\n  tag_25\n  jump\t// in\ntag_24:\n  pop\n  swap2\n  0x20\n  add\n  swap2\n  swap1\n  0x01\n  add\n  swap1\n  jump(tag_22)\ntag_23:\ntag_21:\n  pop\n  swap1\n  pop\n  tag_26\n  swap2\n  swap1\n  tag_27\n  jump\t// in\ntag_26:\n  pop\n  swap1\n  jump\t// out\ntag_27:\ntag_28:\n  dup1\n  dup3\n  gt\n  iszero\n  tag_29\n  jumpi\n  0x00\n  dup2\n  dup2\n  tag_30\n  swap2\n  swap1\n  tag_31\n  jump\t// in\ntag_30:\n  pop\n  0x01\n  add\n  jump(tag_28)\ntag_29:\n  pop\n  swap1\n  jump\t// out\ntag_31:\n  pop\n  dup1\n  sload\n  tag_32\n  swap1\n  tag_33\n  jump\t// in\ntag_32:\n  0x00\n  dup3\n  sstore\n  dup1\n  0x1f\n  lt\n  tag_35\n  jumpi\n  pop\n  jump(tag_34)\ntag_35:\n  0x1f\n  add\n  0x20\n  swap1\n  div\n  swap1\n  0x00\n  mstore\n  keccak256(0x00, 0x20)\n  swap1\n  dup2\n  add\n  swap1\n  tag_36\n  swap2\n  swap1\n  tag_37\n  jump\t// in\ntag_36:\ntag_34:\n  pop\n  jump\t// out\ntag_37:\ntag_38:\n  dup1\n  dup3\n  gt\n  iszero\n  tag_39\n  jumpi\n  0x00\n  dup2\n  0x00\n  swap1\n  sstore\n  pop\n  0x01\n  add\n  jump(tag_38)\ntag_39:\n  pop\n  swap1\n  jump\t// out\n    /* \"#utility.yul\":88:205   */\ntag_41:\n    /* \"#utility.yul\":197:198   */\n  0x00\n    /* \"#utility.yul\":194:195   */\n  dup1\n    /* \"#utility.yul\":187:199   */\n  revert\n    /* \"#utility.yul\":334:460   */\ntag_43:\n    /* \"#utility.yul\":371:378   */\n  0x00\n    /* \"#utility.yul\":411:453   */\n  0xffffffffffffffffffffffffffffffffffffffff\n    /* \"#utility.yul\":404:409   */\n  dup3\n    /* \"#utility.yul\":400:454   */\n  and\n    /* \"#utility.yul\":389:454   */\n  swap1\n  pop\n    /* \"#utility.yul\":334:460   */\n  swap2\n  swap1\n  pop\n  jump\t// out\n    /* \"#utility.yul\":466:562   */\ntag_44:\n    /* \"#utility.yul\":503:510   */\n  0x00\n    /* \"#utility.yul\":532:556   */\n  tag_74\n    /* \"#utility.yul\":550:555   */\n  dup3\n    /* \"#utility.yul\":532:556   */\n  tag_43\n  jump\t// in\ntag_74:\n    /* \"#utility.yul\":521:556   */\n  swap1\n  pop\n    /* \"#utility.yul\":466:562   */\n  swap2\n  swap1\n  pop\n  jump\t// out\n    /* \"#utility.yul\":568:690   */\ntag_45:\n    /* \"#utility.yul\":641:665   */\n  tag_76\n    /* \"#utility.yul\":659:664   */\n  dup2\n    /* \"#utility.yul\":641:665   */\n  tag_44\n  jump\t// in\ntag_76:\n    /* \"#utility.yul\":634:639   */\n  dup2\n    /* \"#utility.yul\":631:666   */\n  eq\n    /* \"#utility.yul\":621:684   */\n  tag_77\n  jumpi\n    /* \"#utility.yul\":680:681   */\n  0x00\n    /* \"#utility.yul\":677:678   */\n  dup1\n    /* \"#utility.yul\":670:682   */\n  revert\n    /* \"#utility.yul\":621:684   */\ntag_77:\n    /* \"#utility.yul\":568:690   */\n  pop\n  jump\t// out\n    /* \"#utility.yul\":696:839   */\ntag_46:\n    /* \"#utility.yul\":753:758   */\n  0x00\n    /* \"#utility.yul\":784:790   */\n  dup2\n    /* \"#utility.yul\":778:791   */\n  mload\n    /* \"#utility.yul\":769:791   */\n  swap1\n  pop\n    /* \"#utility.yul\":800:833   */\n  tag_79\n    /* \"#utility.yul\":827:832   */\n  dup2\n    /* \"#utility.yul\":800:833   */\n  tag_45\n  jump\t// in\ntag_79:\n    /* \"#utility.yul\":696:839   */\n  swap3\n  swap2\n  pop\n  pop\n  jump\t// out\n    /* \"#utility.yul\":845:922   */\ntag_47:\n    /* \"#utility.yul\":882:889   */\n  0x00\n    /* \"#utility.yul\":911:916   */\n  dup2\n    /* \"#utility.yul\":900:916   */\n  swap1\n  pop\n    /* \"#utility.yul\":845:922   */\n  swap2\n  swap1\n  pop\n  jump\t// out\n    /* \"#utility.yul\":928:1050   */\ntag_48:\n    /* \"#utility.yul\":1001:1025   */\n  tag_82\n    /* \"#utility.yul\":1019:1024   */\n  dup2\n    /* \"#utility.yul\":1001:1025   */\n  tag_47\n  jump\t// in\ntag_82:\n    /* \"#utility.yul\":994:999   */\n  dup2\n    /* \"#utility.yul\":991:1026   */\n  eq\n    /* \"#utility.yul\":981:1044   */\n  tag_83\n  jumpi\n    /* \"#utility.yul\":1040:1041   */\n  0x00\n    /* \"#utility.yul\":1037:1038   */\n  dup1\n    /* \"#utility.yul\":1030:1042   */\n  revert\n    /* \"#utility.yul\":981:1044   */\ntag_83:\n    /* \"#utility.yul\":928:1050   */\n  pop\n  jump\t// out\n    /* \"#utility.yul\":1056:1199   */\ntag_49:\n    /* \"#utility.yul\":1113:1118   */\n  0x00\n    /* \"#utility.yul\":1144:1150   */\n  dup2\n    /* \"#utility.yul\":1138:1151   */\n  mload\n    /* \"#utility.yul\":1129:1151   */\n  swap1\n  pop\n    /* \"#utility.yul\":1160:1193   */\n  tag_85\n    /* \"#utility.yul\":1187:1192   */\n  dup2\n    /* \"#utility.yul\":1160:1193   */\n  tag_48\n  jump\t// in\ntag_85:\n    /* \"#utility.yul\":1056:1199   */\n  swap3\n  swap2\n  pop\n  pop\n  jump\t// out\n    /* \"#utility.yul\":1205:1712   */\ntag_5:\n    /* \"#utility.yul\":1284:1290   */\n  0x00\n    /* \"#utility.yul\":1292:1298   */\n  dup1\n    /* \"#utility.yul\":1341:1343   */\n  0x40\n    /* \"#utility.yul\":1329:1338   */\n  dup4\n    /* \"#utility.yul\":1320:1327   */\n  dup6\n    /* \"#utility.yul\":1316:1339   */\n  sub\n    /* \"#utility.yul\":1312:1344   */\n  slt\n    /* \"#utility.yul\":1309:1428   */\n  iszero\n  tag_87\n  jumpi\n    /* \"#utility.yul\":1347:1426   */\n  tag_88\n  tag_41\n  jump\t// in\ntag_88:\n    /* \"#utility.yul\":1309:1428   */\ntag_87:\n    /* \"#utility.yul\":1467:1468   */\n  0x00\n    /* \"#utility.yul\":1492:1556   */\n  tag_89\n    /* \"#utility.yul\":1548:1555   */\n  dup6\n    /* \"#utility.yul\":1539:1545   */\n  dup3\n    /* \"#utility.yul\":1528:1537   */\n  dup7\n    /* \"#utility.yul\":1524:1546   */\n  add\n    /* \"#utility.yul\":1492:1556   */\n  tag_46\n  jump\t// in\ntag_89:\n    /* \"#utility.yul\":1482:1556   */\n  swap3\n  pop\n    /* \"#utility.yul\":1438:1566   */\n  pop\n    /* \"#utility.yul\":1605:1607   */\n  0x20\n    /* \"#utility.yul\":1631:1695   */\n  tag_90\n    /* \"#utility.yul\":1687:1694   */\n  dup6\n    /* \"#utility.yul\":1678:1684   */\n  dup3\n    /* \"#utility.yul\":1667:1676   */\n  dup7\n    /* \"#utility.yul\":1663:1685   */\n  add\n    /* \"#utility.yul\":1631:1695   */\n  tag_49\n  jump\t// in\ntag_90:\n    /* \"#utility.yul\":1621:1695   */\n  swap2\n  pop\n    /* \"#utility.yul\":1576:1705   */\n  pop\n    /* \"#utility.yul\":1205:1712   */\n  swap3\n  pop\n  swap3\n  swap1\n  pop\n  jump\t// out\n    /* \"#utility.yul\":1718:1817   */\ntag_50:\n    /* \"#utility.yul\":1770:1776   */\n  0x00\n    /* \"#utility.yul\":1804:1809   */\n  dup2\n    /* \"#utility.yul\":1798:1810   */\n  mload\n    /* \"#utility.yul\":1788:1810   */\n  swap1\n  pop\n    /* \"#utility.yul\":1718:1817   */\n  swap2\n  swap1\n  pop\n  jump\t// out\n    /* \"#utility.yul\":1823:2003   */\ntag_51:\n    /* \"#utility.yul\":1871:1948   */\n  0x4e487b7100000000000000000000000000000000000000000000000000000000\n    /* \"#utility.yul\":1868:1869   */\n  0x00\n    /* \"#utility.yul\":1861:1949   */\n  mstore\n    /* \"#utility.yul\":1968:1972   */\n  0x41\n    /* \"#utility.yul\":1965:1966   */\n  0x04\n    /* \"#utility.yul\":1958:1973   */\n  mstore\n    /* \"#utility.yul\":1992:1996   */\n  0x24\n    /* \"#utility.yul\":1989:1990   */\n  0x00\n    /* \"#utility.yul\":1982:1997   */\n  revert\n    /* \"#utility.yul\":2009:2189   */\ntag_52:\n    /* \"#utility.yul\":2057:2134   */\n  0x4e487b7100000000000000000000000000000000000000000000000000000000\n    /* \"#utility.yul\":2054:2055   */\n  0x00\n    /* \"#utility.yul\":2047:2135   */\n  mstore\n    /* \"#utility.yul\":2154:2158   */\n  0x22\n    /* \"#utility.yul\":2151:2152   */\n  0x04\n    /* \"#utility.yul\":2144:2159   */\n  mstore\n    /* \"#utility.yul\":2178:2182   */\n  0x24\n    /* \"#utility.yul\":2175:2176   */\n  0x00\n    /* \"#utility.yul\":2168:2183   */\n  revert\n    /* \"#utility.yul\":2195:2515   */\ntag_33:\n    /* \"#utility.yul\":2239:2245   */\n  0x00\n    /* \"#utility.yul\":2276:2277   */\n  0x02\n    /* \"#utility.yul\":2270:2274   */\n  dup3\n    /* \"#utility.yul\":2266:2278   */\n  div\n    /* \"#utility.yul\":2256:2278   */\n  swap1\n  pop\n    /* \"#utility.yul\":2323:2324   */\n  0x01\n    /* \"#utility.yul\":2317:2321   */\n  dup3\n    /* \"#utility.yul\":2313:2325   */\n  and\n    /* \"#utility.yul\":2344:2362   */\n  dup1\n    /* \"#utility.yul\":2334:2415   */\n  tag_95\n  jumpi\n    /* \"#utility.yul\":2400:2404   */\n  0x7f\n    /* \"#utility.yul\":2392:2398   */\n  dup3\n    /* \"#utility.yul\":2388:2405   */\n  and\n    /* \"#utility.yul\":2378:2405   */\n  swap2\n  pop\n    /* \"#utility.yul\":2334:2415   */\ntag_95:\n    /* \"#utility.yul\":2462:2464   */\n  0x20\n    /* \"#utility.yul\":2454:2460   */\n  dup3\n    /* \"#utility.yul\":2451:2465   */\n  lt\n    /* \"#utility.yul\":2431:2449   */\n  dup2\n    /* \"#utility.yul\":2428:2466   */\n  sub\n    /* \"#utility.yul\":2425:2509   */\n  tag_96\n  jumpi\n    /* \"#utility.yul\":2481:2499   */\n  tag_97\n  tag_52\n  jump\t// in\ntag_97:\n    /* \"#utility.yul\":2425:2509   */\ntag_96:\n    /* \"#utility.yul\":2246:2515   */\n  pop\n    /* \"#utility.yul\":2195:2515   */\n  swap2\n  swap1\n  pop\n  jump\t// out\n    /* \"#utility.yul\":2521:2662   */\ntag_53:\n    /* \"#utility.yul\":2570:2574   */\n  0x00\n    /* \"#utility.yul\":2593:2596   */\n  dup2\n    /* \"#utility.yul\":2585:2596   */\n  swap1\n  pop\n    /* \"#utility.yul\":2616:2619   */\n  dup2\n    /* \"#utility.yul\":2613:2614   */\n  0x00\n    /* \"#utility.yul\":2606:2620   */\n  mstore\n    /* \"#utility.yul\":2650:2654   */\n  0x20\n    /* \"#utility.yul\":2647:2648   */\n  0x00\n    /* \"#utility.yul\":2637:2655   */\n  keccak256\n    /* \"#utility.yul\":2629:2655   */\n  swap1\n  pop\n    /* \"#utility.yul\":2521:2662   */\n  swap2\n  swap1\n  pop\n  jump\t// out\n    /* \"#utility.yul\":2668:2761   */\ntag_54:\n    /* \"#utility.yul\":2705:2711   */\n  0x00\n    /* \"#utility.yul\":2752:2754   */\n  0x20\n    /* \"#utility.yul\":2747:2749   */\n  0x1f\n    /* \"#utility.yul\":2740:2745   */\n  dup4\n    /* \"#utility.yul\":2736:2750   */\n  add\n    /* \"#utility.yul\":2732:2755   */\n  div\n    /* \"#utility.yul\":2722:2755   */\n  swap1\n  pop\n    /* \"#utility.yul\":2668:2761   */\n  swap2\n  swap1\n  pop\n  jump\t// out\n    /* \"#utility.yul\":2767:2874   */\ntag_55:\n    /* \"#utility.yul\":2811:2819   */\n  0x00\n    /* \"#utility.yul\":2861:2866   */\n  dup3\n    /* \"#utility.yul\":2855:2859   */\n  dup3\n    /* \"#utility.yul\":2851:2867   */\n  shl\n    /* \"#utility.yul\":2830:2867   */\n  swap1\n  pop\n    /* \"#utility.yul\":2767:2874   */\n  swap3\n  swap2\n  pop\n  pop\n  jump\t// out\n    /* \"#utility.yul\":2880:3273   */\ntag_56:\n    /* \"#utility.yul\":2949:2955   */\n  0x00\n    /* \"#utility.yul\":2999:3000   */\n  0x08\n    /* \"#utility.yul\":2987:2997   */\n  dup4\n    /* \"#utility.yul\":2983:3001   */\n  mul\n    /* \"#utility.yul\":3022:3119   */\n  tag_102\n    /* \"#utility.yul\":3052:3118   */\n  0xffffffffffffffffffffffffffffffffffffffffffffffffffffffffffffffff\n    /* \"#utility.yul\":3041:3050   */\n  dup3\n    /* \"#utility.yul\":3022:3119   */\n  tag_55\n  jump\t// in\ntag_102:\n    /* \"#utility.yul\":3140:3179   */\n  tag_103\n    /* \"#utility.yul\":3170:3178   */\n  dup7\n    /* \"#utility.yul\":3159:3168   */\n  dup4\n    /* \"#utility.yul\":3140:3179   */\n  tag_55\n  jump\t// in\ntag_103:\n    /* \"#utility.yul\":3128:3179   */\n  swap6\n  pop\n    /* \"#utility.yul\":3212:3216   */\n  dup1\n    /* \"#utility.yul\":3208:3217   */\n  not\n    /* \"#utility.yul\":3201:3206   */\n  dup5\n    /* \"#utility.yul\":3197:3218   */\n  and\n    /* \"#utility.yul\":3188:3218   */\n  swap4\n  pop\n    /* \"#utility.yul\":3261:3265   */\n  dup1\n    /* \"#utility.yul\":3251:3259   */\n  dup7\n    /* \"#utility.yul\":3247:3266   */\n  and\n    /* \"#utility.yul\":3240:3245   */\n  dup5\n    /* \"#utility.yul\":3237:3267   */\n  or\n    /* \"#utility.yul\":3227:3267   */\n  swap3\n  pop\n    /* \"#utility.yul\":2956:3273   */\n  pop\n  pop\n    /* \"#utility.yul\":2880:3273   */\n  swap4\n  swap3\n  pop\n  pop\n  pop\n  jump\t// out\n    /* \"#utility.yul\":3279:3339   */\ntag_57:\n    /* \"#utility.yul\":3307:3310   */\n  0x00\n    /* \"#utility.yul\":3328:3333   */\n  dup2\n    /* \"#utility.yul\":3321:3333   */\n  swap1\n  pop\n    /* \"#utility.yul\":3279:3339   */\n  swap2\n  swap1\n  pop\n  jump\t// out\n    /* \"#utility.yul\":3345:3487   */\ntag_58:\n    /* \"#utility.yul\":3395:3404   */\n  0x00\n    /* \"#utility.yul\":3428:3481   */\n  tag_106\n    /* \"#utility.yul\":3446:3480   */\n  tag_107\n    /* \"#utility.yul\":3455:3479   */\n  tag_108\n    /* \"#utility.yul\":3473:3478   */\n  dup5\n    /* \"#utility.yul\":3455:3479   */\n  tag_47\n  jump\t// in\ntag_108:\n    /* \"#utility.yul\":3446:3480   */\n  tag_57\n  jump\t// in\ntag_107:\n    /* \"#utility.yul\":3428:3481   */\n  tag_47\n  jump\t// in\ntag_106:\n    /* \"#utility.yul\":3415:3481   */\n  swap1\n  pop\n    /* \"#utility.yul\":3345:3487   */\n  swap2\n  swap1\n  pop\n  jump\t// out\n    /* \"#utility.yul\":3493:3568   */\ntag_59:\n    /* \"#utility.yul\":3536:3539   */\n  0x00\n    /* \"#utility.yul\":3557:3562   */\n  dup2\n    /* \"#utility.yul\":3550:3562   */\n  swap1\n  pop\n    /* \"#utility.yul\":3493:3568   */\n  swap2\n  swap1\n  pop\n  jump\t// out\n    /* \"#utility.yul\":3574:3843   */\ntag_60:\n    /* \"#utility.yul\":3684:3723   */\n  tag_111\n    /* \"#utility.yul\":3715:3722   */\n  dup4\n    /* \"#utility.yul\":3684:3723   */\n  tag_58\n  jump\t// in\ntag_111:\n    /* \"#utility.yul\":3745:3836   */\n  tag_112\n    /* \"#utility.yul\":3794:3835   */\n  tag_113\n    /* \"#utility.yul\":3818:3834   */\n  dup3\n    /* \"#utility.yul\":3794:3835   */\n  tag_59\n  jump\t// in\ntag_113:\n    /* \"#utility.yul\":3786:3792   */\n  dup5\n    /* \"#utility.yul\":3779:3783   */\n  dup5\n    /* \"#utility.yul\":3773:3784   */\n  sload\n    /* \"#utility.yul\":3745:3836   */\n  tag_56\n  jump\t// in\ntag_112:\n    /* \"#utility.yul\":3739:3743   */\n  dup3\n    /* \"#utility.yul\":3732:3837   */\n  sstore\n    /* \"#utility.yul\":3650:3843   */\n  pop\n    /* \"#utility.yul\":3574:3843   */\n  pop\n  pop\n  pop\n  jump\t// out\n    /* \"#utility.yul\":3849:3922   */\ntag_61:\n    /* \"#utility.yul\":3894:3897   */\n  0x00\n    /* \"#utility.yul\":3849:3922   */\n  swap1\n  jump\t// out\n    /* \"#utility.yul\":3928:4117   */\ntag_62:\n    /* \"#utility.yul\":4005:4037   */\n  tag_116\n  tag_61\n  jump\t// in\ntag_116:\n    /* \"#utility.yul\":4046:4111   */\n  tag_117\n    /* \"#utility.yul\":4104:4110   */\n  dup2\n    /* \"#utility.yul\":4096:4102   */\n  dup5\n    /* \"#utility.yul\":4090:4094   */\n  dup5\n    /* \"#utility.yul\":4046:4111   */\n  tag_60\n  jump\t// in\ntag_117:\n    /* \"#utility.yul\":3981:4117   */\n  pop\n    /* \"#utility.yul\":3928:4117   */\n  pop\n  pop\n  jump\t// out\n    /* \"#utility.yul\":4123:4309   */\ntag_63:\n    /* \"#utility.yul\":4183:4303   */\ntag_119:\n    /* \"#utility.yul\":4200:4203   */\n  dup2\n    /* \"#utility.yul\":4193:4198   */\n  dup2\n    /* \"#utility.yul\":4190:4204   */\n  lt\n    /* \"#utility.yul\":4183:4303   */\n  iszero\n  tag_121\n  jumpi\n    /* \"#utility.yul\":4254:4293   */\n  tag_122\n    /* \"#utility.yul\":4291:4292   */\n  0x00\n    /* \"#utility.yul\":4284:4289   */\n  dup3\n    /* \"#utility.yul\":4254:4293   */\n  tag_62\n  jump\t// in\ntag_122:\n    /* \"#utility.yul\":4227:4228   */\n  0x01\n    /* \"#utility.yul\":4220:4225   */\n  dup2\n    /* \"#utility.yul\":4216:4229   */\n  add\n    /* \"#utility.yul\":4207:4229   */\n  swap1\n  pop\n    /* \"#utility.yul\":4183:4303   */\n  jump(tag_119)\ntag_121:\n    /* \"#utility.yul\":4123:4309   */\n  pop\n  pop\n  jump\t// out\n    /* \"#utility.yul\":4315:4858   */\ntag_64:\n    /* \"#utility.yul\":4416:4418   */\n  0x1f\n    /* \"#utility.yul\":4411:4414   */\n  dup3\n    /* \"#utility.yul\":4408:4419   */\n  gt\n    /* \"#utility.yul\":4405:4851   */\n  iszero\n  tag_124\n  jumpi\n    /* \"#utility.yul\":4450:4488   */\n  tag_125\n    /* \"#utility.yul\":4482:4487   */\n  dup2\n    /* \"#utility.yul\":4450:4488   */\n  tag_53\n  jump\t// in\ntag_125:\n    /* \"#utility.yul\":4534:4563   */\n  tag_126\n    /* \"#utility.yul\":4552:4562   */\n  dup5\n    /* \"#utility.yul\":4534:4563   */\n  tag_54\n  jump\t// in\ntag_126:\n    /* \"#utility.yul\":4524:4532   */\n  dup2\n    /* \"#utility.yul\":4520:4564   */\n  add\n    /* \"#utility.yul\":4717:4719   */\n  0x20\n    /* \"#utility.yul\":4705:4715   */\n  dup6\n    /* \"#utility.yul\":4702:4720   */\n  lt\n    /* \"#utility.yul\":4699:4748   */\n  iszero\n  tag_127\n  jumpi\n    /* \"#utility.yul\":4738:4746   */\n  dup2\n    /* \"#utility.yul\":4723:4746   */\n  swap1\n  pop\n    /* \"#utility.yul\":4699:4748   */\ntag_127:\n    /* \"#utility.yul\":4761:4841   */\n  tag_128\n    /* \"#utility.yul\":4817:4839   */\n  tag_129\n    /* \"#utility.yul\":4835:4838   */\n  dup6\n    /* \"#utility.yul\":4817:4839   */\n  tag_54\n  jump\t// in\ntag_129:\n    /* \"#utility.yul\":4807:4815   */\n  dup4\n    /* \"#utility.yul\":4803:4840   */\n  add\n    /* \"#utility.yul\":4790:4801   */\n  dup3\n    /* \"#utility.yul\":4761:4841   */\n  tag_63\n  jump\t// in\ntag_128:\n    /* \"#utility.yul\":4420:4851   */\n  pop\n  pop\n    /* \"#utility.yul\":4405:4851   */\ntag_124:\n    /* \"#utility.yul\":4315:4858   */\n  pop\n  pop\n  pop\n  jump\t// out\n    /* \"#utility.yul\":4864:4981   */\ntag_65:\n    /* \"#utility.yul\":4918:4926   */\n  0x00\n    /* \"#utility.yul\":4968:4973   */\n  dup3\n    /* \"#utility.yul\":4962:4966   */\n  dup3\n    /* \"#utility.yul\":4958:4974   */\n  shr\n    /* \"#utility.yul\":4937:4974   */\n  swap1\n  pop\n    /* \"#utility.yul\":4864:4981   */\n  swap3\n  swap2\n  pop\n  pop\n  jump\t// out\n    /* \"#utility.yul\":4987:5156   */\ntag_66:\n    /* \"#utility.yul\":5031:5037   */\n  0x00\n    /* \"#utility.yul\":5064:5115   */\n  tag_132\n    /* \"#utility.yul\":5112:5113   */\n  0x00\n    /* \"#utility.yul\":5108:5114   */\n  not\n    /* \"#utility.yul\":5100:5105   */\n  dup5\n    /* \"#utility.yul\":5097:5098   */\n  0x08\n    /* \"#utility.yul\":5093:5106   */\n  mul\n    /* \"#utility.yul\":5064:5115   */\n  tag_65\n  jump\t// in\ntag_132:\n    /* \"#utility.yul\":5060:5116   */\n  not\n    /* \"#utility.yul\":5145:5149   */\n  dup1\n    /* \"#utility.yul\":5139:5143   */\n  dup4\n    /* \"#utility.yul\":5135:5150   */\n  and\n    /* \"#utility.yul\":5125:5150   */\n  swap2\n  pop\n    /* \"#utility.yul\":5038:5156   */\n  pop\n    /* \"#utility.yul\":4987:5156   */\n  swap3\n  swap2\n  pop\n  pop\n  jump\t// out\n    /* \"#utility.yul\":5161:5456   */\ntag_67:\n    /* \"#utility.yul\":5237:5241   */\n  0x00\n    /* \"#utility.yul\":5383:5412   */\n  tag_134\n    /* \"#utility.yul\":5408:5411   */\n  dup4\n    /* \"#utility.yul\":5402:5406   */\n  dup4\n    /* \"#utility.yul\":5383:5412   */\n  tag_66\n  jump\t// in\ntag_134:\n    /* \"#utility.yul\":5375:5412   */\n  swap2\n  pop\n    /* \"#utility.yul\":5445:5448   */\n  dup3\n    /* \"#utility.yul\":5442:5443   */\n  0x02\n    /* \"#utility.yul\":5438:5449   */\n  mul\n    /* \"#utility.yul\":5432:5436   */\n  dup3\n    /* \"#utility.yul\":5429:5450   */\n  or\n    /* \"#utility.yul\":5421:5450   */\n  swap1\n  pop\n    /* \"#utility.yul\":5161:5456   */\n  swap3\n  swap2\n  pop\n  pop\n  jump\t// out\n    /* \"#utility.yul\":5461:6856   */\ntag_25:\n    /* \"#utility.yul\":5578:5615   */\n  tag_136\n    /* \"#utility.yul\":5611:5614   */\n  dup3\n    /* \"#utility.yul\":5578:5615   */\n  tag_50\n  jump\t// in\ntag_136:\n    /* \"#utility.yul\":5680:5698   */\n  0xffffffffffffffff\n    /* \"#utility.yul\":5672:5678   */\n  dup2\n    /* \"#utility.yul\":5669:5699   */\n  gt\n    /* \"#utility.yul\":5666:5722   */\n  iszero\n  tag_137\n  jumpi\n    /* \"#utility.yul\":5702:5720   */\n  tag_138\n  tag_51\n  jump\t// in\ntag_138:\n    /* \"#utility.yul\":5666:5722   */\ntag_137:\n    /* \"#utility.yul\":5746:5784   */\n  tag_139\n    /* \"#utility.yul\":5778:5782   */\n  dup3\n    /* \"#utility.yul\":5772:5783   */\n  sload\n    /* \"#utility.yul\":5746:5784   */\n  tag_33\n  jump\t// in\ntag_139:\n    /* \"#utility.yul\":5831:5898   */\n  tag_140\n    /* \"#utility.yul\":5891:5897   */\n  dup3\n    /* \"#utility.yul\":5883:5889   */\n  dup3\n    /* \"#utility.yul\":5877:5881   */\n  dup6\n    /* \"#utility.yul\":5831:5898   */\n  tag_64\n  jump\t// in\ntag_140:\n    /* \"#utility.yul\":5925:5926   */\n  0x00\n    /* \"#utility.yul\":5949:5953   */\n  0x20\n    /* \"#utility.yul\":5936:5953   */\n  swap1\n  pop\n    /* \"#utility.yul\":5981:5983   */\n  0x1f\n    /* \"#utility.yul\":5973:5979   */\n  dup4\n    /* \"#utility.yul\":5970:5984   */\n  gt\n    /* \"#utility.yul\":5998:5999   */\n  0x01\n    /* \"#utility.yul\":5993:6611   */\n  dup2\n  eq\n  tag_142\n  jumpi\n    /* \"#utility.yul\":6655:6656   */\n  0x00\n    /* \"#utility.yul\":6672:6678   */\n  dup5\n    /* \"#utility.yul\":6669:6746   */\n  iszero\n  tag_143\n  jumpi\n    /* \"#utility.yul\":6721:6730   */\n  dup3\n    /* \"#utility.yul\":6716:6719   */\n  dup8\n    /* \"#utility.yul\":6712:6731   */\n  add\n    /* \"#utility.yul\":6706:6732   */\n  mload\n    /* \"#utility.yul\":6697:6732   */\n  swap1\n  pop\n    /* \"#utility.yul\":6669:6746   */\ntag_143:\n    /* \"#utility.yul\":6772:6839   */\n  tag_144\n    /* \"#utility.yul\":6832:6838   */\n  dup6\n    /* \"#utility.yul\":6825:6830   */\n  dup3\n    /* \"#utility.yul\":6772:6839   */\n  tag_67\n  jump\t// in\ntag_144:\n    /* \"#utility.yul\":6766:6770   */\n  dup7\n    /* \"#utility.yul\":6759:6840   */\n  sstore\n    /* \"#utility.yul\":6628:6850   */\n  pop\n    /* \"#utility.yul\":5963:6850   */\n  jump(tag_141)\n    /* \"#utility.yul\":5993:6611   */\ntag_142:\n    /* \"#utility.yul\":6045:6049   */\n  0x1f\n    /* \"#utility.yul\":6041:6050   */\n  not\n    /* \"#utility.yul\":6033:6039   */\n  dup5\n    /* \"#utility.yul\":6029:6051   */\n  and\n    /* \"#utility.yul\":6079:6116   */\n  tag_145\n    /* \"#utility.yul\":6111:6115   */\n  dup7\n    /* \"#utility.yul\":6079:6116   */\n  tag_53\n  jump\t// in\ntag_145:\n    /* \"#utility.yul\":6138:6139   */\n  0x00\n    /* \"#utility.yul\":6152:6360   */\ntag_146:\n    /* \"#utility.yul\":6166:6173   */\n  dup3\n    /* \"#utility.yul\":6163:6164   */\n  dup2\n    /* \"#utility.yul\":6160:6174   */\n  lt\n    /* \"#utility.yul\":6152:6360   */\n  iszero\n  tag_148\n  jumpi\n    /* \"#utility.yul\":6245:6254   */\n  dup5\n    /* \"#utility.yul\":6240:6243   */\n  dup10\n    /* \"#utility.yul\":6236:6255   */\n  add\n    /* \"#utility.yul\":6230:6256   */\n  mload\n    /* \"#utility.yul\":6222:6228   */\n  dup3\n    /* \"#utility.yul\":6215:6257   */\n  sstore\n    /* \"#utility.yul\":6296:6297   */\n  0x01\n    /* \"#utility.yul\":6288:6294   */\n  dup3\n    /* \"#utility.yul\":6284:6298   */\n  add\n    /* \"#utility.yul\":6274:6298   */\n  swap2\n  pop\n    /* \"#utility.yul\":6343:6345   */\n  0x20\n    /* \"#utility.yul\":6332:6341   */\n  dup6\n    /* \"#utility.yul\":6328:6346   */\n  add\n    /* \"#utility.yul\":6315:6346   */\n  swap5\n  pop\n    /* \"#utility.yul\":6189:6193   */\n  0x20\n    /* \"#utility.yul\":6186:6187   */\n  dup2\n    /* \"#utility.yul\":6182:6194   */\n  add\n    /* \"#utility.yul\":6177:6194   */\n  swap1\n  pop\n    /* \"#utility.yul\":6152:6360   */\n  jump(tag_146)\ntag_148:\n    /* \"#utility.yul\":6388:6394   */\n  dup7\n    /* \"#utility.yul\":6379:6386   */\n  dup4\n    /* \"#utility.yul\":6376:6395   */\n  lt\n    /* \"#utility.yul\":6373:6552   */\n  iszero\n  tag_149\n  jumpi\n    /* \"#utility.yul\":6446:6455   */\n  dup5\n    /* \"#utility.yul\":6441:6444   */\n  dup10\n    /* \"#utility.yul\":6437:6456   */\n  add\n    /* \"#utility.yul\":6431:6457   */\n  mload\n    /* \"#utility.yul\":6489:6537   */\n  tag_150\n    /* \"#utility.yul\":6531:6535   */\n  0x1f\n    /* \"#utility.yul\":6523:6529   */\n  dup10\n    /* \"#utility.yul\":6519:6536   */\n  and\n    /* \"#utility.yul\":6508:6517   */\n  dup3\n    /* \"#utility.yul\":6489:6537   */\n  tag_66\n  jump\t// in\ntag_150:\n    /* \"#utility.yul\":6481:6487   */\n  dup4\n    /* \"#utility.yul\":6474:6538   */\n  sstore\n    /* \"#utility.yul\":6396:6552   */\n  pop\n    /* \"#utility.yul\":6373:6552   */\ntag_149:\n    /* \"#utility.yul\":6598:6599   */\n  0x01\n    /* \"#utility.yul\":6594:6595   */\n  0x02\n    /* \"#utility.yul\":6586:6592   */\n  dup9\n    /* \"#utility.yul\":6582:6596   */\n  mul\n    /* \"#utility.yul\":6578:6600   */\n  add\n    /* \"#utility.yul\":6572:6576   */\n  dup9\n    /* \"#utility.yul\":6565:6601   */\n  sstore\n    /* \"#utility.yul\":6000:6611   */\n  pop\n  pop\n  pop\n    /* \"#utility.yul\":5963:6850   */\ntag_141:\n  pop\n    /* \"#utility.yul\":5553:6856   */\n  pop\n  pop\n  pop\n    /* \"#utility.yul\":5461:6856   */\n  pop\n  pop\n  jump\t// out\n    /* \"gist-e259420aec8d85ea2219e4154536ad35/contracts/RedelegationReward.sol\":862:11700  contract RedelegationReward is IRedelegationReward, Ownable, Pausable, ReentrancyGuard {... */\ntag_18:\n  dataSize(sub_0)\n  dup1\n  dataOffset(sub_0)\n  0x00\n  codecopy\n  0x00\n  return\nstop\ndata_017e571b15ba8f3567be32b8c9b4c10b5aee7936471accdc36d1737426796a31 2f636f736d6f732e7374616b696e672e763162657461312e4d7367426567696e526564656c6567617465\n\nsub_0: assembly {\n        /* \"gist-e259420aec8d85ea2219e4154536ad35/contracts/RedelegationReward.sol\":862:11700  contract RedelegationReward is IRedelegationReward, Ownable, Pausable, ReentrancyGuard {... */\n      mstore(0x40, 0x80)\n      callvalue\n      dup1\n      iszero\n      tag_1\n      jumpi\n      0x00\n      dup1\n      revert\n    tag_1:\n      pop\n      jumpi(tag_2, lt(calldatasize, 0x04))\n      shr(0xe0, calldataload(0x00))\n      dup1\n      0x80faa57d\n      gt\n      tag_30\n      jumpi\n      dup1\n      0xca1d209d\n      gt\n      tag_31\n      jumpi\n      dup1\n      0xd1af0c7d\n      gt\n      tag_32\n      jumpi\n      dup1\n      0xd1af0c7d\n      eq\n      tag_26\n      jumpi\n      dup1\n      0xdf136d65\n      eq\n      tag_27\n      jumpi\n      dup1\n      0xebe2b12b\n      eq\n      tag_28\n      jumpi\n      dup1\n      0xf2fde38b\n      eq\n      tag_29\n      jumpi\n      jump(tag_2)\n    tag_32:\n      dup1\n      0xca1d209d\n      eq\n      tag_23\n      jumpi\n      dup1\n      0xcc1a378f\n      eq\n      tag_24\n      jumpi\n      dup1\n      0xcd3daf9d\n      eq\n      tag_25\n      jumpi\n      jump(tag_2)\n    tag_31:\n      dup1\n      0x8b876347\n      gt\n      tag_33\n      jumpi\n      dup1\n      0x8b876347\n      eq\n      tag_19\n      jumpi\n      dup1\n      0x8da5cb5b\n      eq\n      tag_20\n      jumpi\n      dup1\n      0xc6e79b91\n      eq\n      tag_21\n      jumpi\n      dup1\n      0xc8f33c91\n      eq\n      tag_22\n      jumpi\n      jump(tag_2)\n    tag_33:\n      dup1\n      0x80faa57d\n      eq\n      tag_16\n      jumpi\n      dup1\n      0x880b0e43\n      eq\n      tag_17\n      jumpi\n      dup1\n      0x8980f11f\n      eq\n      tag_18\n      jumpi\n      jump(tag_2)\n    tag_30:\n      dup1\n      0x58341922\n      gt\n      tag_34\n      jumpi\n      dup1\n      0x70a08231\n      gt\n      tag_35\n      jumpi\n      dup1\n      0x70a08231\n      eq\n      tag_12\n      jumpi\n      dup1\n      0x715018a6\n      eq\n      tag_13\n      jumpi\n      dup1\n      0x72f702f3\n      eq\n      tag_14\n      jumpi\n      dup1\n      0x7b0a47ee\n      eq\n      tag_15\n      jumpi\n      jump(tag_2)\n    tag_35:\n      dup1\n      0x58341922\n      eq\n      tag_9\n      jumpi\n      dup1\n      0x5c975abb\n      eq\n      tag_10\n      jumpi\n      dup1\n      0x6c11fe9b\n      eq\n      tag_11\n      jumpi\n      jump(tag_2)\n    tag_34:\n      dup1\n      0x8cc262\n      eq\n      tag_3\n      jumpi\n      dup1\n      0x0700037d\n      eq\n      tag_4\n      jumpi\n      dup1\n      0x1c1f78eb\n      eq\n      tag_5\n      jumpi\n      dup1\n      0x386a9525\n      eq\n      tag_6\n      jumpi\n      dup1\n      0x4e71d92d\n      eq\n      tag_7\n      jumpi\n      dup1\n      0x529d6ccf\n      eq\n      tag_8\n      jumpi\n    tag_2:\n      0x00\n      dup1\n      revert\n        /* \"gist-e259420aec8d85ea2219e4154536ad35/contracts/RedelegationReward.sol\":11095:11194  function earned(address account) external view returns (uint256) {... */\n    tag_3:\n      tag_36\n      0x04\n      dup1\n      calldatasize\n      sub\n      dup2\n      add\n      swap1\n      tag_37\n      swap2\n      swap1\n      tag_38\n      jump\t// in\n    tag_37:\n      tag_39\n      jump\t// in\n    tag_36:\n      mload(0x40)\n      tag_40\n      swap2\n      swap1\n      tag_41\n      jump\t// in\n    tag_40:\n      mload(0x40)\n      dup1\n      swap2\n      sub\n      swap1\n      return\n        /* \"gist-e259420aec8d85ea2219e4154536ad35/contracts/RedelegationReward.sol\":2365:2407  mapping(address => uint256) public rewards */\n    tag_4:\n      tag_42\n      0x04\n      dup1\n      calldatasize\n      sub\n      dup2\n      add\n      swap1\n      tag_43\n      swap2\n      swap1\n      tag_38\n      jump\t// in\n    tag_43:\n      tag_44\n      jump\t// in\n    tag_42:\n      mload(0x40)\n      tag_45\n      swap2\n      swap1\n      tag_41\n      jump\t// in\n    tag_45:\n      mload(0x40)\n      dup1\n      swap2\n      sub\n      swap1\n      return\n        /* \"gist-e259420aec8d85ea2219e4154536ad35/contracts/RedelegationReward.sol\":11274:11384  function getRewardForDuration() external view returns (uint256) {... */\n    tag_5:\n      tag_46\n      tag_47\n      jump\t// in\n    tag_46:\n      mload(0x40)\n      tag_48\n      swap2\n      swap1\n      tag_41\n      jump\t// in\n    tag_48:\n      mload(0x40)\n      dup1\n      swap2\n      sub\n      swap1\n      return\n        /* \"gist-e259420aec8d85ea2219e4154536ad35/contracts/RedelegationReward.sol\":1973:2012  uint256 public rewardsDuration = 2 days */\n    tag_6:\n      tag_49\n      tag_50\n      jump\t// in\n    tag_49:\n      mload(0x40)\n      tag_51\n      swap2\n      swap1\n      tag_41\n      jump\t// in\n    tag_51:\n      mload(0x40)\n      dup1\n      swap2\n      sub\n      swap1\n      return\n        /* \"gist-e259420aec8d85ea2219e4154536ad35/contracts/RedelegationReward.sol\":6964:7239  function claim() public nonReentrant whenNotPaused updateReward(msg.sender) {... */\n    tag_7:\n      tag_52\n      tag_53\n      jump\t// in\n    tag_52:\n      stop\n        /* \"gist-e259420aec8d85ea2219e4154536ad35/contracts/RedelegationReward.sol\":11587:11697  function isUserApproved(address _user) public view returns (bool) {... */\n    tag_8:\n      tag_54\n      0x04\n      dup1\n      calldatasize\n      sub\n      dup2\n      add\n      swap1\n      tag_55\n      swap2\n      swap1\n      tag_38\n      jump\t// in\n    tag_55:\n      tag_56\n      jump\t// in\n    tag_54:\n      mload(0x40)\n      tag_57\n      swap2\n      swap1\n      tag_58\n      jump\t// in\n    tag_57:\n      mload(0x40)\n      dup1\n      swap2\n      sub\n      swap1\n      return\n        /* \"gist-e259420aec8d85ea2219e4154536ad35/contracts/RedelegationReward.sol\":10302:10392  function totalSupplyLocked() external view returns (uint256) {... */\n    tag_9:\n      tag_59\n      tag_60\n      jump\t// in\n    tag_59:\n      mload(0x40)\n      tag_61\n      swap2\n      swap1\n      tag_41\n      jump\t// in\n    tag_61:\n      mload(0x40)\n      dup1\n      swap2\n      sub\n      swap1\n      return\n        /* \"@openzeppelin/contracts/security/Pausable.sol\":1615:1699  function paused() public view virtual returns (bool) {... */\n    tag_10:\n      tag_62\n      tag_63\n      jump\t// in\n    tag_62:\n      mload(0x40)\n      tag_64\n      swap2\n      swap1\n      tag_58\n      jump\t// in\n    tag_64:\n      mload(0x40)\n      dup1\n      swap2\n      sub\n      swap1\n      return\n        /* \"gist-e259420aec8d85ea2219e4154536ad35/contracts/RedelegationReward.sol\":6291:6845  function redelegateTokensMultiple(... */\n    tag_11:\n      tag_65\n      0x04\n      dup1\n      calldatasize\n      sub\n      dup2\n      add\n      swap1\n      tag_66\n      swap2\n      swap1\n      tag_67\n      jump\t// in\n    tag_66:\n      tag_68\n      jump\t// in\n    tag_65:\n      stop\n        /* \"gist-e259420aec8d85ea2219e4154536ad35/contracts/RedelegationReward.sol\":10496:10599  function balanceOf(address account) external view returns (uint256) {... */\n    tag_12:\n      tag_69\n      0x04\n      dup1\n      calldatasize\n      sub\n      dup2\n      add\n      swap1\n      tag_70\n      swap2\n      swap1\n      tag_38\n      jump\t// in\n    tag_70:\n      tag_71\n      jump\t// in\n    tag_69:\n      mload(0x40)\n      tag_72\n      swap2\n      swap1\n      tag_41\n      jump\t// in\n    tag_72:\n      mload(0x40)\n      dup1\n      swap2\n      sub\n      swap1\n      return\n        /* \"@openzeppelin/contracts/access/Ownable.sol\":1824:1925  function renounceOwnership() public virtual onlyOwner {... */\n    tag_13:\n      tag_73\n      tag_74\n      jump\t// in\n    tag_73:\n      stop\n        /* \"gist-e259420aec8d85ea2219e4154536ad35/contracts/RedelegationReward.sol\":1701:1727  IERC20 public stakingToken */\n    tag_14:\n      tag_75\n      tag_76\n      jump\t// in\n    tag_75:\n      mload(0x40)\n      tag_77\n      swap2\n      swap1\n      tag_78\n      jump\t// in\n    tag_77:\n      mload(0x40)\n      dup1\n      swap2\n      sub\n      swap1\n      return\n        /* \"gist-e259420aec8d85ea2219e4154536ad35/contracts/RedelegationReward.sol\":1907:1932  uint256 public rewardRate */\n    tag_15:\n      tag_79\n      tag_80\n      jump\t// in\n    tag_79:\n      mload(0x40)\n      tag_81\n      swap2\n      swap1\n      tag_41\n      jump\t// in\n    tag_81:\n      mload(0x40)\n      dup1\n      swap2\n      sub\n      swap1\n      return\n        /* \"gist-e259420aec8d85ea2219e4154536ad35/contracts/RedelegationReward.sol\":10721:10834  function lastTimeRewardApplicable() external view returns (uint256) {... */\n    tag_16:\n      tag_82\n      tag_83\n      jump\t// in\n    tag_82:\n      mload(0x40)\n      tag_84\n      swap2\n      swap1\n      tag_41\n      jump\t// in\n    tag_84:\n      mload(0x40)\n      dup1\n      swap2\n      sub\n      swap1\n      return\n        /* \"gist-e259420aec8d85ea2219e4154536ad35/contracts/RedelegationReward.sol\":5437:5998  function redelegateTokens(... */\n    tag_17:\n      tag_85\n      0x04\n      dup1\n      calldatasize\n      sub\n      dup2\n      add\n      swap1\n      tag_86\n      swap2\n      swap1\n      tag_87\n      jump\t// in\n    tag_86:\n      tag_88\n      jump\t// in\n    tag_85:\n      mload(0x40)\n      tag_89\n      swap2\n      swap1\n      tag_90\n      jump\t// in\n    tag_89:\n      mload(0x40)\n      dup1\n      swap2\n      sub\n      swap1\n      return\n        /* \"gist-e259420aec8d85ea2219e4154536ad35/contracts/RedelegationReward.sol\":8801:9105  function recoverERC20(... */\n    tag_18:\n      tag_91\n      0x04\n      dup1\n      calldatasize\n      sub\n      dup2\n      add\n      swap1\n      tag_92\n      swap2\n      swap1\n      tag_93\n      jump\t// in\n    tag_92:\n      tag_94\n      jump\t// in\n    tag_91:\n      stop\n        /* \"gist-e259420aec8d85ea2219e4154536ad35/contracts/RedelegationReward.sol\":2236:2293  mapping(address => uint256) public userRewardPerTokenPaid */\n    tag_19:\n      tag_95\n      0x04\n      dup1\n      calldatasize\n      sub\n      dup2\n      add\n      swap1\n      tag_96\n      swap2\n      swap1\n      tag_38\n      jump\t// in\n    tag_96:\n      tag_97\n      jump\t// in\n    tag_95:\n      mload(0x40)\n      tag_98\n      swap2\n      swap1\n      tag_41\n      jump\t// in\n    tag_98:\n      mload(0x40)\n      dup1\n      swap2\n      sub\n      swap1\n      return\n        /* \"@openzeppelin/contracts/access/Ownable.sol\":1201:1286  function owner() public view virtual returns (address) {... */\n    tag_20:\n      tag_99\n      tag_100\n      jump\t// in\n    tag_99:\n      mload(0x40)\n      tag_101\n      swap2\n      swap1\n      tag_102\n      jump\t// in\n    tag_101:\n      mload(0x40)\n      dup1\n      swap2\n      sub\n      swap1\n      return\n        /* \"gist-e259420aec8d85ea2219e4154536ad35/contracts/RedelegationReward.sol\":1297:1623  function approveRequiredMethods() public {... */\n    tag_21:\n      tag_103\n      tag_104\n      jump\t// in\n    tag_103:\n      stop\n        /* \"gist-e259420aec8d85ea2219e4154536ad35/contracts/RedelegationReward.sol\":2062:2091  uint256 public lastUpdateTime */\n    tag_22:\n      tag_105\n      tag_106\n      jump\t// in\n    tag_105:\n      mload(0x40)\n      tag_107\n      swap2\n      swap1\n      tag_41\n      jump\t// in\n    tag_107:\n      mload(0x40)\n      dup1\n      swap2\n      sub\n      swap1\n      return\n        /* \"gist-e259420aec8d85ea2219e4154536ad35/contracts/RedelegationReward.sol\":7531:8560  function fund(... */\n    tag_23:\n      tag_108\n      0x04\n      dup1\n      calldatasize\n      sub\n      dup2\n      add\n      swap1\n      tag_109\n      swap2\n      swap1\n      tag_110\n      jump\t// in\n    tag_109:\n      tag_111\n      jump\t// in\n    tag_108:\n      stop\n        /* \"gist-e259420aec8d85ea2219e4154536ad35/contracts/RedelegationReward.sol\":4935:5157  function setRewardsDuration(uint256 duration) external onlyOwner {... */\n    tag_24:\n      tag_112\n      0x04\n      dup1\n      calldatasize\n      sub\n      dup2\n      add\n      swap1\n      tag_113\n      swap2\n      swap1\n      tag_110\n      jump\t// in\n    tag_113:\n      tag_114\n      jump\t// in\n    tag_112:\n      stop\n        /* \"gist-e259420aec8d85ea2219e4154536ad35/contracts/RedelegationReward.sol\":10907:11000  function rewardPerToken() external view returns (uint256) {... */\n    tag_25:\n      tag_115\n      tag_116\n      jump\t// in\n    tag_115:\n      mload(0x40)\n      tag_117\n      swap2\n      swap1\n      tag_41\n      jump\t// in\n    tag_117:\n      mload(0x40)\n      dup1\n      swap2\n      sub\n      swap1\n      return\n        /* \"gist-e259420aec8d85ea2219e4154536ad35/contracts/RedelegationReward.sol\":1771:1797  IERC20 public rewardsToken */\n    tag_26:\n      tag_118\n      tag_119\n      jump\t// in\n    tag_118:\n      mload(0x40)\n      tag_120\n      swap2\n      swap1\n      tag_78\n      jump\t// in\n    tag_120:\n      mload(0x40)\n      dup1\n      swap2\n      sub\n      swap1\n      return\n        /* \"gist-e259420aec8d85ea2219e4154536ad35/contracts/RedelegationReward.sol\":2130:2165  uint256 public rewardPerTokenStored */\n    tag_27:\n      tag_121\n      tag_122\n      jump\t// in\n    tag_121:\n      mload(0x40)\n      tag_123\n      swap2\n      swap1\n      tag_41\n      jump\t// in\n    tag_123:\n      mload(0x40)\n      dup1\n      swap2\n      sub\n      swap1\n      return\n        /* \"gist-e259420aec8d85ea2219e4154536ad35/contracts/RedelegationReward.sol\":1855:1882  uint256 public periodFinish */\n    tag_28:\n      tag_124\n      tag_125\n      jump\t// in\n    tag_124:\n      mload(0x40)\n      tag_126\n      swap2\n      swap1\n      tag_41\n      jump\t// in\n    tag_126:\n      mload(0x40)\n      dup1\n      swap2\n      sub\n      swap1\n      return\n        /* \"@openzeppelin/contracts/access/Ownable.sol\":2074:2272  function transferOwnership(address newOwner) public virtual onlyOwner {... */\n    tag_29:\n      tag_127\n      0x04\n      dup1\n      calldatasize\n      sub\n      dup2\n      add\n      swap1\n      tag_128\n      swap2\n      swap1\n      tag_38\n      jump\t// in\n    tag_128:\n      tag_129\n      jump\t// in\n    tag_127:\n      stop\n        /* \"gist-e259420aec8d85ea2219e4154536ad35/contracts/RedelegationReward.sol\":11095:11194  function earned(address account) external view returns (uint256) {... */\n    tag_39:\n        /* \"gist-e259420aec8d85ea2219e4154536ad35/contracts/RedelegationReward.sol\":11151:11158  uint256 */\n      0x00\n        /* \"gist-e259420aec8d85ea2219e4154536ad35/contracts/RedelegationReward.sol\":11173:11189  _earned(account) */\n      tag_131\n        /* \"gist-e259420aec8d85ea2219e4154536ad35/contracts/RedelegationReward.sol\":11181:11188  account */\n      dup3\n        /* \"gist-e259420aec8d85ea2219e4154536ad35/contracts/RedelegationReward.sol\":11173:11180  _earned */\n      tag_132\n        /* \"gist-e259420aec8d85ea2219e4154536ad35/contracts/RedelegationReward.sol\":11173:11189  _earned(account) */\n      jump\t// in\n    tag_131:\n        /* \"gist-e259420aec8d85ea2219e4154536ad35/contracts/RedelegationReward.sol\":11166:11189  return _earned(account) */\n      swap1\n      pop\n        /* \"gist-e259420aec8d85ea2219e4154536ad35/contracts/RedelegationReward.sol\":11095:11194  function earned(address account) external view returns (uint256) {... */\n      swap2\n      swap1\n      pop\n      jump\t// out\n        /* \"gist-e259420aec8d85ea2219e4154536ad35/contracts/RedelegationReward.sol\":2365:2407  mapping(address => uint256) public rewards */\n    tag_44:\n      mstore(0x20, 0x0c)\n      dup1\n      0x00\n      mstore\n      keccak256(0x00, 0x40)\n      0x00\n      swap2\n      pop\n      swap1\n      pop\n      sload\n      dup2\n      jump\t// out\n        /* \"gist-e259420aec8d85ea2219e4154536ad35/contracts/RedelegationReward.sol\":11274:11384  function getRewardForDuration() external view returns (uint256) {... */\n    tag_47:\n        /* \"gist-e259420aec8d85ea2219e4154536ad35/contracts/RedelegationReward.sol\":11329:11336  uint256 */\n      0x00\n        /* \"gist-e259420aec8d85ea2219e4154536ad35/contracts/RedelegationReward.sol\":11364:11379  rewardsDuration */\n      sload(0x08)\n        /* \"gist-e259420aec8d85ea2219e4154536ad35/contracts/RedelegationReward.sol\":11351:11361  rewardRate */\n      sload(0x07)\n        /* \"gist-e259420aec8d85ea2219e4154536ad35/contracts/RedelegationReward.sol\":11351:11379  rewardRate * rewardsDuration */\n      tag_134\n      swap2\n      swap1\n      tag_135\n      jump\t// in\n    tag_134:\n        /* \"gist-e259420aec8d85ea2219e4154536ad35/contracts/RedelegationReward.sol\":11344:11379  return rewardRate * rewardsDuration */\n      swap1\n      pop\n        /* \"gist-e259420aec8d85ea2219e4154536ad35/contracts/RedelegationReward.sol\":11274:11384  function getRewardForDuration() external view returns (uint256) {... */\n      swap1\n      jump\t// out\n        /* \"gist-e259420aec8d85ea2219e4154536ad35/contracts/RedelegationReward.sol\":1973:2012  uint256 public rewardsDuration = 2 days */\n    tag_50:\n      sload(0x08)\n      dup2\n      jump\t// out\n        /* \"gist-e259420aec8d85ea2219e4154536ad35/contracts/RedelegationReward.sol\":6964:7239  function claim() public nonReentrant whenNotPaused updateReward(msg.sender) {... */\n    tag_53:\n        /* \"@openzeppelin/contracts/security/ReentrancyGuard.sol\":2261:2282  _nonReentrantBefore() */\n      tag_137\n        /* \"@openzeppelin/contracts/security/ReentrancyGuard.sol\":2261:2280  _nonReentrantBefore */\n      tag_138\n        /* \"@openzeppelin/contracts/security/ReentrancyGuard.sol\":2261:2282  _nonReentrantBefore() */\n      jump\t// in\n    tag_137:\n        /* \"@openzeppelin/contracts/security/Pausable.sol\":1239:1258  _requireNotPaused() */\n      tag_140\n        /* \"@openzeppelin/contracts/security/Pausable.sol\":1239:1256  _requireNotPaused */\n      tag_141\n        /* \"@openzeppelin/contracts/security/Pausable.sol\":1239:1258  _requireNotPaused() */\n      jump\t// in\n    tag_140:\n        /* \"gist-e259420aec8d85ea2219e4154536ad35/contracts/RedelegationReward.sol\":7028:7038  msg.sender */\n      caller\n        /* \"gist-e259420aec8d85ea2219e4154536ad35/contracts/RedelegationReward.sol\":3912:3929  _rewardPerToken() */\n      tag_143\n        /* \"gist-e259420aec8d85ea2219e4154536ad35/contracts/RedelegationReward.sol\":3912:3927  _rewardPerToken */\n      tag_144\n        /* \"gist-e259420aec8d85ea2219e4154536ad35/contracts/RedelegationReward.sol\":3912:3929  _rewardPerToken() */\n      jump\t// in\n    tag_143:\n        /* \"gist-e259420aec8d85ea2219e4154536ad35/contracts/RedelegationReward.sol\":3889:3909  rewardPerTokenStored */\n      0x0a\n        /* \"gist-e259420aec8d85ea2219e4154536ad35/contracts/RedelegationReward.sol\":3889:3929  rewardPerTokenStored = _rewardPerToken() */\n      dup2\n      swap1\n      sstore\n      pop\n        /* \"gist-e259420aec8d85ea2219e4154536ad35/contracts/RedelegationReward.sol\":3952:3979  _lastTimeRewardApplicable() */\n      tag_145\n        /* \"gist-e259420aec8d85ea2219e4154536ad35/contracts/RedelegationReward.sol\":3952:3977  _lastTimeRewardApplicable */\n      tag_146\n        /* \"gist-e259420aec8d85ea2219e4154536ad35/contracts/RedelegationReward.sol\":3952:3979  _lastTimeRewardApplicable() */\n      jump\t// in\n    tag_145:\n        /* \"gist-e259420aec8d85ea2219e4154536ad35/contracts/RedelegationReward.sol\":3935:3949  lastUpdateTime */\n      0x09\n        /* \"gist-e259420aec8d85ea2219e4154536ad35/contracts/RedelegationReward.sol\":3935:3979  lastUpdateTime = _lastTimeRewardApplicable() */\n      dup2\n      swap1\n      sstore\n      pop\n        /* \"gist-e259420aec8d85ea2219e4154536ad35/contracts/RedelegationReward.sol\":4008:4009  0 */\n      0x00\n        /* \"gist-e259420aec8d85ea2219e4154536ad35/contracts/RedelegationReward.sol\":3989:4010  account != address(0) */\n      0xffffffffffffffffffffffffffffffffffffffff\n      and\n        /* \"gist-e259420aec8d85ea2219e4154536ad35/contracts/RedelegationReward.sol\":3989:3996  account */\n      dup2\n        /* \"gist-e259420aec8d85ea2219e4154536ad35/contracts/RedelegationReward.sol\":3989:4010  account != address(0) */\n      0xffffffffffffffffffffffffffffffffffffffff\n      and\n      eq\n        /* \"gist-e259420aec8d85ea2219e4154536ad35/contracts/RedelegationReward.sol\":3985:4128  if (account != address(0)) {... */\n      tag_147\n      jumpi\n        /* \"gist-e259420aec8d85ea2219e4154536ad35/contracts/RedelegationReward.sol\":4041:4057  _earned(account) */\n      tag_148\n        /* \"gist-e259420aec8d85ea2219e4154536ad35/contracts/RedelegationReward.sol\":4049:4056  account */\n      dup2\n        /* \"gist-e259420aec8d85ea2219e4154536ad35/contracts/RedelegationReward.sol\":4041:4048  _earned */\n      tag_132\n        /* \"gist-e259420aec8d85ea2219e4154536ad35/contracts/RedelegationReward.sol\":4041:4057  _earned(account) */\n      jump\t// in\n    tag_148:\n        /* \"gist-e259420aec8d85ea2219e4154536ad35/contracts/RedelegationReward.sol\":4022:4029  rewards */\n      0x0c\n        /* \"gist-e259420aec8d85ea2219e4154536ad35/contracts/RedelegationReward.sol\":4022:4038  rewards[account] */\n      0x00\n        /* \"gist-e259420aec8d85ea2219e4154536ad35/contracts/RedelegationReward.sol\":4030:4037  account */\n      dup4\n        /* \"gist-e259420aec8d85ea2219e4154536ad35/contracts/RedelegationReward.sol\":4022:4038  rewards[account] */\n      0xffffffffffffffffffffffffffffffffffffffff\n      and\n      0xffffffffffffffffffffffffffffffffffffffff\n      and\n      dup2\n      mstore\n      0x20\n      add\n      swap1\n      dup2\n      mstore\n      0x20\n      add\n      0x00\n      keccak256\n        /* \"gist-e259420aec8d85ea2219e4154536ad35/contracts/RedelegationReward.sol\":4022:4057  rewards[account] = _earned(account) */\n      dup2\n      swap1\n      sstore\n      pop\n        /* \"gist-e259420aec8d85ea2219e4154536ad35/contracts/RedelegationReward.sol\":4101:4121  rewardPerTokenStored */\n      sload(0x0a)\n        /* \"gist-e259420aec8d85ea2219e4154536ad35/contracts/RedelegationReward.sol\":4067:4089  userRewardPerTokenPaid */\n      0x0b\n        /* \"gist-e259420aec8d85ea2219e4154536ad35/contracts/RedelegationReward.sol\":4067:4098  userRewardPerTokenPaid[account] */\n      0x00\n        /* \"gist-e259420aec8d85ea2219e4154536ad35/contracts/RedelegationReward.sol\":4090:4097  account */\n      dup4\n        /* \"gist-e259420aec8d85ea2219e4154536ad35/contracts/RedelegationReward.sol\":4067:4098  userRewardPerTokenPaid[account] */\n      0xffffffffffffffffffffffffffffffffffffffff\n      and\n      0xffffffffffffffffffffffffffffffffffffffff\n      and\n      dup2\n      mstore\n      0x20\n      add\n      swap1\n      dup2\n      mstore\n      0x20\n      add\n      0x00\n      keccak256\n        /* \"gist-e259420aec8d85ea2219e4154536ad35/contracts/RedelegationReward.sol\":4067:4121  userRewardPerTokenPaid[account] = rewardPerTokenStored */\n      dup2\n      swap1\n      sstore\n      pop\n        /* \"gist-e259420aec8d85ea2219e4154536ad35/contracts/RedelegationReward.sol\":3985:4128  if (account != address(0)) {... */\n    tag_147:\n        /* \"gist-e259420aec8d85ea2219e4154536ad35/contracts/RedelegationReward.sol\":7046:7060  uint256 reward */\n      0x00\n        /* \"gist-e259420aec8d85ea2219e4154536ad35/contracts/RedelegationReward.sol\":7063:7070  rewards */\n      0x0c\n        /* \"gist-e259420aec8d85ea2219e4154536ad35/contracts/RedelegationReward.sol\":7063:7082  rewards[msg.sender] */\n      0x00\n        /* \"gist-e259420aec8d85ea2219e4154536ad35/contracts/RedelegationReward.sol\":7071:7081  msg.sender */\n      caller\n        /* \"gist-e259420aec8d85ea2219e4154536ad35/contracts/RedelegationReward.sol\":7063:7082  rewards[msg.sender] */\n      0xffffffffffffffffffffffffffffffffffffffff\n      and\n      0xffffffffffffffffffffffffffffffffffffffff\n      and\n      dup2\n      mstore\n      0x20\n      add\n      swap1\n      dup2\n      mstore\n      0x20\n      add\n      0x00\n      keccak256\n      sload\n        /* \"gist-e259420aec8d85ea2219e4154536ad35/contracts/RedelegationReward.sol\":7046:7082  uint256 reward = rewards[msg.sender] */\n      swap1\n      pop\n        /* \"gist-e259420aec8d85ea2219e4154536ad35/contracts/RedelegationReward.sol\":7101:7102  0 */\n      0x00\n        /* \"gist-e259420aec8d85ea2219e4154536ad35/contracts/RedelegationReward.sol\":7092:7098  reward */\n      dup2\n        /* \"gist-e259420aec8d85ea2219e4154536ad35/contracts/RedelegationReward.sol\":7092:7102  reward > 0 */\n      gt\n        /* \"gist-e259420aec8d85ea2219e4154536ad35/contracts/RedelegationReward.sol\":7088:7235  if (reward > 0) {... */\n      iszero\n      tag_150\n      jumpi\n        /* \"gist-e259420aec8d85ea2219e4154536ad35/contracts/RedelegationReward.sol\":7134:7135  0 */\n      0x00\n        /* \"gist-e259420aec8d85ea2219e4154536ad35/contracts/RedelegationReward.sol\":7112:7119  rewards */\n      0x0c\n        /* \"gist-e259420aec8d85ea2219e4154536ad35/contracts/RedelegationReward.sol\":7112:7131  rewards[msg.sender] */\n      0x00\n        /* \"gist-e259420aec8d85ea2219e4154536ad35/contracts/RedelegationReward.sol\":7120:7130  msg.sender */\n      caller\n        /* \"gist-e259420aec8d85ea2219e4154536ad35/contracts/RedelegationReward.sol\":7112:7131  rewards[msg.sender] */\n      0xffffffffffffffffffffffffffffffffffffffff\n      and\n      0xffffffffffffffffffffffffffffffffffffffff\n      and\n      dup2\n      mstore\n      0x20\n      add\n      swap1\n      dup2\n      mstore\n      0x20\n      add\n      0x00\n      keccak256\n        /* \"gist-e259420aec8d85ea2219e4154536ad35/contracts/RedelegationReward.sol\":7112:7135  rewards[msg.sender] = 0 */\n      dup2\n      swap1\n      sstore\n      pop\n        /* \"gist-e259420aec8d85ea2219e4154536ad35/contracts/RedelegationReward.sol\":7143:7188  rewardsToken.safeTransfer(msg.sender, reward) */\n      tag_151\n        /* \"gist-e259420aec8d85ea2219e4154536ad35/contracts/RedelegationReward.sol\":7169:7179  msg.sender */\n      caller\n        /* \"gist-e259420aec8d85ea2219e4154536ad35/contracts/RedelegationReward.sol\":7181:7187  reward */\n      dup3\n        /* \"gist-e259420aec8d85ea2219e4154536ad35/contracts/RedelegationReward.sol\":7143:7155  rewardsToken */\n      0x05\n      0x00\n      swap1\n      sload\n      swap1\n      0x0100\n      exp\n      swap1\n      div\n      0xffffffffffffffffffffffffffffffffffffffff\n      and\n        /* \"gist-e259420aec8d85ea2219e4154536ad35/contracts/RedelegationReward.sol\":7143:7168  rewardsToken.safeTransfer */\n      0xffffffffffffffffffffffffffffffffffffffff\n      and\n      tag_152\n      swap1\n        /* \"gist-e259420aec8d85ea2219e4154536ad35/contracts/RedelegationReward.sol\":7143:7188  rewardsToken.safeTransfer(msg.sender, reward) */\n      swap3\n      swap2\n      swap1\n      0xffffffff\n      and\n      jump\t// in\n    tag_151:\n        /* \"gist-e259420aec8d85ea2219e4154536ad35/contracts/RedelegationReward.sol\":7209:7219  msg.sender */\n      caller\n        /* \"gist-e259420aec8d85ea2219e4154536ad35/contracts/RedelegationReward.sol\":7201:7228  Claimed(msg.sender, reward) */\n      0xffffffffffffffffffffffffffffffffffffffff\n      and\n      0xd8138f8a3f377c5259ca548e70e4c2de94f129f5a11036a15b69513cba2b426a\n        /* \"gist-e259420aec8d85ea2219e4154536ad35/contracts/RedelegationReward.sol\":7221:7227  reward */\n      dup3\n        /* \"gist-e259420aec8d85ea2219e4154536ad35/contracts/RedelegationReward.sol\":7201:7228  Claimed(msg.sender, reward) */\n      mload(0x40)\n      tag_153\n      swap2\n      swap1\n      tag_41\n      jump\t// in\n    tag_153:\n      mload(0x40)\n      dup1\n      swap2\n      sub\n      swap1\n      log2\n        /* \"gist-e259420aec8d85ea2219e4154536ad35/contracts/RedelegationReward.sol\":7088:7235  if (reward > 0) {... */\n    tag_150:\n        /* \"gist-e259420aec8d85ea2219e4154536ad35/contracts/RedelegationReward.sol\":7040:7239  {... */\n      pop\n        /* \"@openzeppelin/contracts/security/Pausable.sol\":1268:1269  _ */\n      pop\n        /* \"@openzeppelin/contracts/security/ReentrancyGuard.sol\":2303:2323  _nonReentrantAfter() */\n      tag_154\n        /* \"@openzeppelin/contracts/security/ReentrancyGuard.sol\":2303:2321  _nonReentrantAfter */\n      tag_155\n        /* \"@openzeppelin/contracts/security/ReentrancyGuard.sol\":2303:2323  _nonReentrantAfter() */\n      jump\t// in\n    tag_154:\n        /* \"gist-e259420aec8d85ea2219e4154536ad35/contracts/RedelegationReward.sol\":6964:7239  function claim() public nonReentrant whenNotPaused updateReward(msg.sender) {... */\n      jump\t// out\n        /* \"gist-e259420aec8d85ea2219e4154536ad35/contracts/RedelegationReward.sol\":11587:11697  function isUserApproved(address _user) public view returns (bool) {... */\n    tag_56:\n        /* \"gist-e259420aec8d85ea2219e4154536ad35/contracts/RedelegationReward.sol\":11647:11651  bool */\n      0x00\n        /* \"gist-e259420aec8d85ea2219e4154536ad35/contracts/RedelegationReward.sol\":11670:11683  approvedUsers */\n      0x03\n        /* \"gist-e259420aec8d85ea2219e4154536ad35/contracts/RedelegationReward.sol\":11670:11690  approvedUsers[_user] */\n      0x00\n        /* \"gist-e259420aec8d85ea2219e4154536ad35/contracts/RedelegationReward.sol\":11684:11689  _user */\n      dup4\n        /* \"gist-e259420aec8d85ea2219e4154536ad35/contracts/RedelegationReward.sol\":11670:11690  approvedUsers[_user] */\n      0xffffffffffffffffffffffffffffffffffffffff\n      and\n      0xffffffffffffffffffffffffffffffffffffffff\n      and\n      dup2\n      mstore\n      0x20\n      add\n      swap1\n      dup2\n      mstore\n      0x20\n      add\n      0x00\n      keccak256\n      0x00\n      swap1\n      sload\n      swap1\n      0x0100\n      exp\n      swap1\n      div\n      0xff\n      and\n        /* \"gist-e259420aec8d85ea2219e4154536ad35/contracts/RedelegationReward.sol\":11663:11690  return approvedUsers[_user] */\n      swap1\n      pop\n        /* \"gist-e259420aec8d85ea2219e4154536ad35/contracts/RedelegationReward.sol\":11587:11697  function isUserApproved(address _user) public view returns (bool) {... */\n      swap2\n      swap1\n      pop\n      jump\t// out\n        /* \"gist-e259420aec8d85ea2219e4154536ad35/contracts/RedelegationReward.sol\":10302:10392  function totalSupplyLocked() external view returns (uint256) {... */\n    tag_60:\n        /* \"gist-e259420aec8d85ea2219e4154536ad35/contracts/RedelegationReward.sol\":10354:10361  uint256 */\n      0x00\n        /* \"gist-e259420aec8d85ea2219e4154536ad35/contracts/RedelegationReward.sol\":10376:10387  totalSupply */\n      sload(0x0d)\n        /* \"gist-e259420aec8d85ea2219e4154536ad35/contracts/RedelegationReward.sol\":10369:10387  return totalSupply */\n      swap1\n      pop\n        /* \"gist-e259420aec8d85ea2219e4154536ad35/contracts/RedelegationReward.sol\":10302:10392  function totalSupplyLocked() external view returns (uint256) {... */\n      swap1\n      jump\t// out\n        /* \"@openzeppelin/contracts/security/Pausable.sol\":1615:1699  function paused() public view virtual returns (bool) {... */\n    tag_63:\n        /* \"@openzeppelin/contracts/security/Pausable.sol\":1662:1666  bool */\n      0x00\n        /* \"@openzeppelin/contracts/security/Pausable.sol\":1685:1692  _paused */\n      dup1\n      0x14\n      swap1\n      sload\n      swap1\n      0x0100\n      exp\n      swap1\n      div\n      0xff\n      and\n        /* \"@openzeppelin/contracts/security/Pausable.sol\":1678:1692  return _paused */\n      swap1\n      pop\n        /* \"@openzeppelin/contracts/security/Pausable.sol\":1615:1699  function paused() public view virtual returns (bool) {... */\n      swap1\n      jump\t// out\n        /* \"gist-e259420aec8d85ea2219e4154536ad35/contracts/RedelegationReward.sol\":6291:6845  function redelegateTokensMultiple(... */\n    tag_68:\n        /* \"@openzeppelin/contracts/security/Pausable.sol\":1239:1258  _requireNotPaused() */\n      tag_160\n        /* \"@openzeppelin/contracts/security/Pausable.sol\":1239:1256  _requireNotPaused */\n      tag_141\n        /* \"@openzeppelin/contracts/security/Pausable.sol\":1239:1258  _requireNotPaused() */\n      jump\t// in\n    tag_160:\n        /* \"gist-e259420aec8d85ea2219e4154536ad35/contracts/RedelegationReward.sol\":6534:6552  _dstValidatorAddrs */\n      dup2\n        /* \"gist-e259420aec8d85ea2219e4154536ad35/contracts/RedelegationReward.sol\":6534:6559  _dstValidatorAddrs.length */\n      mload\n        /* \"gist-e259420aec8d85ea2219e4154536ad35/contracts/RedelegationReward.sol\":6505:6523  _srcValidatorAddrs */\n      dup4\n        /* \"gist-e259420aec8d85ea2219e4154536ad35/contracts/RedelegationReward.sol\":6505:6530  _srcValidatorAddrs.length */\n      mload\n        /* \"gist-e259420aec8d85ea2219e4154536ad35/contracts/RedelegationReward.sol\":6505:6559  _srcValidatorAddrs.length == _dstValidatorAddrs.length */\n      eq\n        /* \"gist-e259420aec8d85ea2219e4154536ad35/contracts/RedelegationReward.sol\":6505:6619  _srcValidatorAddrs.length == _dstValidatorAddrs.length &&... */\n      dup1\n      iszero\n      tag_162\n      jumpi\n      pop\n        /* \"gist-e259420aec8d85ea2219e4154536ad35/contracts/RedelegationReward.sol\":6604:6612  _amounts */\n      dup1\n        /* \"gist-e259420aec8d85ea2219e4154536ad35/contracts/RedelegationReward.sol\":6604:6619  _amounts.length */\n      mload\n        /* \"gist-e259420aec8d85ea2219e4154536ad35/contracts/RedelegationReward.sol\":6575:6593  _dstValidatorAddrs */\n      dup3\n        /* \"gist-e259420aec8d85ea2219e4154536ad35/contracts/RedelegationReward.sol\":6575:6600  _dstValidatorAddrs.length */\n      mload\n        /* \"gist-e259420aec8d85ea2219e4154536ad35/contracts/RedelegationReward.sol\":6575:6619  _dstValidatorAddrs.length == _amounts.length */\n      eq\n        /* \"gist-e259420aec8d85ea2219e4154536ad35/contracts/RedelegationReward.sol\":6505:6619  _srcValidatorAddrs.length == _dstValidatorAddrs.length &&... */\n    tag_162:\n        /* \"gist-e259420aec8d85ea2219e4154536ad35/contracts/RedelegationReward.sol\":6484:6673  require(... */\n      tag_163\n      jumpi\n      mload(0x40)\n      0x08c379a000000000000000000000000000000000000000000000000000000000\n      dup2\n      mstore\n      0x04\n      add\n      tag_164\n      swap1\n      tag_165\n      jump\t// in\n    tag_164:\n      mload(0x40)\n      dup1\n      swap2\n      sub\n      swap1\n      revert\n    tag_163:\n        /* \"gist-e259420aec8d85ea2219e4154536ad35/contracts/RedelegationReward.sol\":6688:6697  uint256 i */\n      0x00\n        /* \"gist-e259420aec8d85ea2219e4154536ad35/contracts/RedelegationReward.sol\":6683:6839  for (uint256 i = 0; i < _srcValidatorAddrs.length; i++) {... */\n    tag_166:\n        /* \"gist-e259420aec8d85ea2219e4154536ad35/contracts/RedelegationReward.sol\":6707:6725  _srcValidatorAddrs */\n      dup4\n        /* \"gist-e259420aec8d85ea2219e4154536ad35/contracts/RedelegationReward.sol\":6707:6732  _srcValidatorAddrs.length */\n      mload\n        /* \"gist-e259420aec8d85ea2219e4154536ad35/contracts/RedelegationReward.sol\":6703:6704  i */\n      dup2\n        /* \"gist-e259420aec8d85ea2219e4154536ad35/contracts/RedelegationReward.sol\":6703:6732  i < _srcValidatorAddrs.length */\n      lt\n        /* \"gist-e259420aec8d85ea2219e4154536ad35/contracts/RedelegationReward.sol\":6683:6839  for (uint256 i = 0; i < _srcValidatorAddrs.length; i++) {... */\n      iszero\n      tag_167\n      jumpi\n        /* \"gist-e259420aec8d85ea2219e4154536ad35/contracts/RedelegationReward.sol\":6753:6828  redelegateTokens(_srcValidatorAddrs[i], _dstValidatorAddrs[i], _amounts[i]) */\n      tag_169\n        /* \"gist-e259420aec8d85ea2219e4154536ad35/contracts/RedelegationReward.sol\":6770:6788  _srcValidatorAddrs */\n      dup5\n        /* \"gist-e259420aec8d85ea2219e4154536ad35/contracts/RedelegationReward.sol\":6789:6790  i */\n      dup3\n        /* \"gist-e259420aec8d85ea2219e4154536ad35/contracts/RedelegationReward.sol\":6770:6791  _srcValidatorAddrs[i] */\n      dup2\n      mload\n      dup2\n      lt\n      tag_170\n      jumpi\n      tag_171\n      tag_172\n      jump\t// in\n    tag_171:\n    tag_170:\n      0x20\n      mul\n      0x20\n      add\n      add\n      mload\n        /* \"gist-e259420aec8d85ea2219e4154536ad35/contracts/RedelegationReward.sol\":6793:6811  _dstValidatorAddrs */\n      dup5\n        /* \"gist-e259420aec8d85ea2219e4154536ad35/contracts/RedelegationReward.sol\":6812:6813  i */\n      dup4\n        /* \"gist-e259420aec8d85ea2219e4154536ad35/contracts/RedelegationReward.sol\":6793:6814  _dstValidatorAddrs[i] */\n      dup2\n      mload\n      dup2\n      lt\n      tag_173\n      jumpi\n      tag_174\n      tag_172\n      jump\t// in\n    tag_174:\n    tag_173:\n      0x20\n      mul\n      0x20\n      add\n      add\n      mload\n        /* \"gist-e259420aec8d85ea2219e4154536ad35/contracts/RedelegationReward.sol\":6816:6824  _amounts */\n      dup5\n        /* \"gist-e259420aec8d85ea2219e4154536ad35/contracts/RedelegationReward.sol\":6825:6826  i */\n      dup5\n        /* \"gist-e259420aec8d85ea2219e4154536ad35/contracts/RedelegationReward.sol\":6816:6827  _amounts[i] */\n      dup2\n      mload\n      dup2\n      lt\n      tag_175\n      jumpi\n      tag_176\n      tag_172\n      jump\t// in\n    tag_176:\n    tag_175:\n      0x20\n      mul\n      0x20\n      add\n      add\n      mload\n        /* \"gist-e259420aec8d85ea2219e4154536ad35/contracts/RedelegationReward.sol\":6753:6769  redelegateTokens */\n      tag_88\n        /* \"gist-e259420aec8d85ea2219e4154536ad35/contracts/RedelegationReward.sol\":6753:6828  redelegateTokens(_srcValidatorAddrs[i], _dstValidatorAddrs[i], _amounts[i]) */\n      jump\t// in\n    tag_169:\n      pop\n        /* \"gist-e259420aec8d85ea2219e4154536ad35/contracts/RedelegationReward.sol\":6734:6737  i++ */\n      dup1\n      dup1\n      tag_177\n      swap1\n      tag_178\n      jump\t// in\n    tag_177:\n      swap2\n      pop\n      pop\n        /* \"gist-e259420aec8d85ea2219e4154536ad35/contracts/RedelegationReward.sol\":6683:6839  for (uint256 i = 0; i < _srcValidatorAddrs.length; i++) {... */\n      jump(tag_166)\n    tag_167:\n      pop\n        /* \"gist-e259420aec8d85ea2219e4154536ad35/contracts/RedelegationReward.sol\":6291:6845  function redelegateTokensMultiple(... */\n      pop\n      pop\n      pop\n      jump\t// out\n        /* \"gist-e259420aec8d85ea2219e4154536ad35/contracts/RedelegationReward.sol\":10496:10599  function balanceOf(address account) external view returns (uint256) {... */\n    tag_71:\n        /* \"gist-e259420aec8d85ea2219e4154536ad35/contracts/RedelegationReward.sol\":10555:10562  uint256 */\n      0x00\n        /* \"gist-e259420aec8d85ea2219e4154536ad35/contracts/RedelegationReward.sol\":10577:10585  balances */\n      0x0e\n        /* \"gist-e259420aec8d85ea2219e4154536ad35/contracts/RedelegationReward.sol\":10577:10594  balances[account] */\n      0x00\n        /* \"gist-e259420aec8d85ea2219e4154536ad35/contracts/RedelegationReward.sol\":10586:10593  account */\n      dup4\n        /* \"gist-e259420aec8d85ea2219e4154536ad35/contracts/RedelegationReward.sol\":10577:10594  balances[account] */\n      0xffffffffffffffffffffffffffffffffffffffff\n      and\n      0xffffffffffffffffffffffffffffffffffffffff\n      and\n      dup2\n      mstore\n      0x20\n      add\n      swap1\n      dup2\n      mstore\n      0x20\n      add\n      0x00\n      keccak256\n      sload\n        /* \"gist-e259420aec8d85ea2219e4154536ad35/contracts/RedelegationReward.sol\":10570:10594  return balances[account] */\n      swap1\n      pop\n        /* \"gist-e259420aec8d85ea2219e4154536ad35/contracts/RedelegationReward.sol\":10496:10599  function balanceOf(address account) external view returns (uint256) {... */\n      swap2\n      swap1\n      pop\n      jump\t// out\n        /* \"@openzeppelin/contracts/access/Ownable.sol\":1824:1925  function renounceOwnership() public virtual onlyOwner {... */\n    tag_74:\n        /* \"@openzeppelin/contracts/access/Ownable.sol\":1094:1107  _checkOwner() */\n      tag_181\n        /* \"@openzeppelin/contracts/access/Ownable.sol\":1094:1105  _checkOwner */\n      tag_182\n        /* \"@openzeppelin/contracts/access/Ownable.sol\":1094:1107  _checkOwner() */\n      jump\t// in\n    tag_181:\n        /* \"@openzeppelin/contracts/access/Ownable.sol\":1888:1918  _transferOwnership(address(0)) */\n      tag_184\n        /* \"@openzeppelin/contracts/access/Ownable.sol\":1915:1916  0 */\n      0x00\n        /* \"@openzeppelin/contracts/access/Ownable.sol\":1888:1906  _transferOwnership */\n      tag_185\n        /* \"@openzeppelin/contracts/access/Ownable.sol\":1888:1918  _transferOwnership(address(0)) */\n      jump\t// in\n    tag_184:\n        /* \"@openzeppelin/contracts/access/Ownable.sol\":1824:1925  function renounceOwnership() public virtual onlyOwner {... */\n      jump\t// out\n        /* \"gist-e259420aec8d85ea2219e4154536ad35/contracts/RedelegationReward.sol\":1701:1727  IERC20 public stakingToken */\n    tag_76:\n      0x04\n      0x00\n      swap1\n      sload\n      swap1\n      0x0100\n      exp\n      swap1\n      div\n      0xffffffffffffffffffffffffffffffffffffffff\n      and\n      dup2\n      jump\t// out\n        /* \"gist-e259420aec8d85ea2219e4154536ad35/contracts/RedelegationReward.sol\":1907:1932  uint256 public rewardRate */\n    tag_80:\n      sload(0x07)\n      dup2\n      jump\t// out\n        /* \"gist-e259420aec8d85ea2219e4154536ad35/contracts/RedelegationReward.sol\":10721:10834  function lastTimeRewardApplicable() external view returns (uint256) {... */\n    tag_83:\n        /* \"gist-e259420aec8d85ea2219e4154536ad35/contracts/RedelegationReward.sol\":10780:10787  uint256 */\n      0x00\n        /* \"gist-e259420aec8d85ea2219e4154536ad35/contracts/RedelegationReward.sol\":10802:10829  _lastTimeRewardApplicable() */\n      tag_187\n        /* \"gist-e259420aec8d85ea2219e4154536ad35/contracts/RedelegationReward.sol\":10802:10827  _lastTimeRewardApplicable */\n      tag_146\n        /* \"gist-e259420aec8d85ea2219e4154536ad35/contracts/RedelegationReward.sol\":10802:10829  _lastTimeRewardApplicable() */\n      jump\t// in\n    tag_187:\n        /* \"gist-e259420aec8d85ea2219e4154536ad35/contracts/RedelegationReward.sol\":10795:10829  return _lastTimeRewardApplicable() */\n      swap1\n      pop\n        /* \"gist-e259420aec8d85ea2219e4154536ad35/contracts/RedelegationReward.sol\":10721:10834  function lastTimeRewardApplicable() external view returns (uint256) {... */\n      swap1\n      jump\t// out\n        /* \"gist-e259420aec8d85ea2219e4154536ad35/contracts/RedelegationReward.sol\":5437:5998  function redelegateTokens(... */\n    tag_88:\n        /* \"gist-e259420aec8d85ea2219e4154536ad35/contracts/RedelegationReward.sol\":5631:5636  int64 */\n      0x00\n        /* \"@openzeppelin/contracts/security/Pausable.sol\":1239:1258  _requireNotPaused() */\n      tag_189\n        /* \"@openzeppelin/contracts/security/Pausable.sol\":1239:1256  _requireNotPaused */\n      tag_141\n        /* \"@openzeppelin/contracts/security/Pausable.sol\":1239:1258  _requireNotPaused() */\n      jump\t// in\n    tag_189:\n        /* \"gist-e259420aec8d85ea2219e4154536ad35/contracts/RedelegationReward.sol\":5610:5620  msg.sender */\n      caller\n        /* \"gist-e259420aec8d85ea2219e4154536ad35/contracts/RedelegationReward.sol\":3912:3929  _rewardPerToken() */\n      tag_191\n        /* \"gist-e259420aec8d85ea2219e4154536ad35/contracts/RedelegationReward.sol\":3912:3927  _rewardPerToken */\n      tag_144\n        /* \"gist-e259420aec8d85ea2219e4154536ad35/contracts/RedelegationReward.sol\":3912:3929  _rewardPerToken() */\n      jump\t// in\n    tag_191:\n        /* \"gist-e259420aec8d85ea2219e4154536ad35/contracts/RedelegationReward.sol\":3889:3909  rewardPerTokenStored */\n      0x0a\n        /* \"gist-e259420aec8d85ea2219e4154536ad35/contracts/RedelegationReward.sol\":3889:3929  rewardPerTokenStored = _rewardPerToken() */\n      dup2\n      swap1\n      sstore\n      pop\n        /* \"gist-e259420aec8d85ea2219e4154536ad35/contracts/RedelegationReward.sol\":3952:3979  _lastTimeRewardApplicable() */\n      tag_192\n        /* \"gist-e259420aec8d85ea2219e4154536ad35/contracts/RedelegationReward.sol\":3952:3977  _lastTimeRewardApplicable */\n      tag_146\n        /* \"gist-e259420aec8d85ea2219e4154536ad35/contracts/RedelegationReward.sol\":3952:3979  _lastTimeRewardApplicable() */\n      jump\t// in\n    tag_192:\n        /* \"gist-e259420aec8d85ea2219e4154536ad35/contracts/RedelegationReward.sol\":3935:3949  lastUpdateTime */\n      0x09\n        /* \"gist-e259420aec8d85ea2219e4154536ad35/contracts/RedelegationReward.sol\":3935:3979  lastUpdateTime = _lastTimeRewardApplicable() */\n      dup2\n      swap1\n      sstore\n      pop\n        /* \"gist-e259420aec8d85ea2219e4154536ad35/contracts/RedelegationReward.sol\":4008:4009  0 */\n      0x00\n        /* \"gist-e259420aec8d85ea2219e4154536ad35/contracts/RedelegationReward.sol\":3989:4010  account != address(0) */\n      0xffffffffffffffffffffffffffffffffffffffff\n      and\n        /* \"gist-e259420aec8d85ea2219e4154536ad35/contracts/RedelegationReward.sol\":3989:3996  account */\n      dup2\n        /* \"gist-e259420aec8d85ea2219e4154536ad35/contracts/RedelegationReward.sol\":3989:4010  account != address(0) */\n      0xffffffffffffffffffffffffffffffffffffffff\n      and\n      eq\n        /* \"gist-e259420aec8d85ea2219e4154536ad35/contracts/RedelegationReward.sol\":3985:4128  if (account != address(0)) {... */\n      tag_193\n      jumpi\n        /* \"gist-e259420aec8d85ea2219e4154536ad35/contracts/RedelegationReward.sol\":4041:4057  _earned(account) */\n      tag_194\n        /* \"gist-e259420aec8d85ea2219e4154536ad35/contracts/RedelegationReward.sol\":4049:4056  account */\n      dup2\n        /* \"gist-e259420aec8d85ea2219e4154536ad35/contracts/RedelegationReward.sol\":4041:4048  _earned */\n      tag_132\n        /* \"gist-e259420aec8d85ea2219e4154536ad35/contracts/RedelegationReward.sol\":4041:4057  _earned(account) */\n      jump\t// in\n    tag_194:\n        /* \"gist-e259420aec8d85ea2219e4154536ad35/contracts/RedelegationReward.sol\":4022:4029  rewards */\n      0x0c\n        /* \"gist-e259420aec8d85ea2219e4154536ad35/contracts/RedelegationReward.sol\":4022:4038  rewards[account] */\n      0x00\n        /* \"gist-e259420aec8d85ea2219e4154536ad35/contracts/RedelegationReward.sol\":4030:4037  account */\n      dup4\n        /* \"gist-e259420aec8d85ea2219e4154536ad35/contracts/RedelegationReward.sol\":4022:4038  rewards[account] */\n      0xffffffffffffffffffffffffffffffffffffffff\n      and\n      0xffffffffffffffffffffffffffffffffffffffff\n      and\n      dup2\n      mstore\n      0x20\n      add\n      swap1\n      dup2\n      mstore\n      0x20\n      add\n      0x00\n      keccak256\n        /* \"gist-e259420aec8d85ea2219e4154536ad35/contracts/RedelegationReward.sol\":4022:4057  rewards[account] = _earned(account) */\n      dup2\n      swap1\n      sstore\n      pop\n        /* \"gist-e259420aec8d85ea2219e4154536ad35/contracts/RedelegationReward.sol\":4101:4121  rewardPerTokenStored */\n      sload(0x0a)\n        /* \"gist-e259420aec8d85ea2219e4154536ad35/contracts/RedelegationReward.sol\":4067:4089  userRewardPerTokenPaid */\n      0x0b\n        /* \"gist-e259420aec8d85ea2219e4154536ad35/contracts/RedelegationReward.sol\":4067:4098  userRewardPerTokenPaid[account] */\n      0x00\n        /* \"gist-e259420aec8d85ea2219e4154536ad35/contracts/RedelegationReward.sol\":4090:4097  account */\n      dup4\n        /* \"gist-e259420aec8d85ea2219e4154536ad35/contracts/RedelegationReward.sol\":4067:4098  userRewardPerTokenPaid[account] */\n      0xffffffffffffffffffffffffffffffffffffffff\n      and\n      0xffffffffffffffffffffffffffffffffffffffff\n      and\n      dup2\n      mstore\n      0x20\n      add\n      swap1\n      dup2\n      mstore\n      0x20\n      add\n      0x00\n      keccak256\n        /* \"gist-e259420aec8d85ea2219e4154536ad35/contracts/RedelegationReward.sol\":4067:4121  userRewardPerTokenPaid[account] = rewardPerTokenStored */\n      dup2\n      swap1\n      sstore\n      pop\n        /* \"gist-e259420aec8d85ea2219e4154536ad35/contracts/RedelegationReward.sol\":3985:4128  if (account != address(0)) {... */\n    tag_193:\n        /* \"gist-e259420aec8d85ea2219e4154536ad35/contracts/RedelegationReward.sol\":5663:5664  0 */\n      0x00\n        /* \"gist-e259420aec8d85ea2219e4154536ad35/contracts/RedelegationReward.sol\":5652:5659  _amount */\n      dup4\n        /* \"gist-e259420aec8d85ea2219e4154536ad35/contracts/RedelegationReward.sol\":5652:5664  _amount <= 0 */\n      gt\n        /* \"gist-e259420aec8d85ea2219e4154536ad35/contracts/RedelegationReward.sol\":5648:5710  if (_amount <= 0) {... */\n      tag_196\n      jumpi\n        /* \"gist-e259420aec8d85ea2219e4154536ad35/contracts/RedelegationReward.sol\":5687:5699  ZeroAmount() */\n      mload(0x40)\n      0x1f2a200500000000000000000000000000000000000000000000000000000000\n      dup2\n      mstore\n      0x04\n      add\n      mload(0x40)\n      dup1\n      swap2\n      sub\n      swap1\n      revert\n        /* \"gist-e259420aec8d85ea2219e4154536ad35/contracts/RedelegationReward.sol\":5648:5710  if (_amount <= 0) {... */\n    tag_196:\n        /* \"gist-e259420aec8d85ea2219e4154536ad35/contracts/RedelegationReward.sol\":5719:5739  int64 completionTime */\n      0x00\n        /* \"gist-e259420aec8d85ea2219e4154536ad35/contracts/Staking.sol\":221:263  0x0000000000000000000000000000000000000800 */\n      0x0800\n        /* \"gist-e259420aec8d85ea2219e4154536ad35/contracts/RedelegationReward.sol\":5742:5769  STAKING_CONTRACT.redelegate */\n      0xffffffffffffffffffffffffffffffffffffffff\n      and\n      0x54b826f5\n        /* \"gist-e259420aec8d85ea2219e4154536ad35/contracts/RedelegationReward.sol\":5770:5780  msg.sender */\n      caller\n        /* \"gist-e259420aec8d85ea2219e4154536ad35/contracts/RedelegationReward.sol\":5782:5799  _srcValidatorAddr */\n      dup9\n        /* \"gist-e259420aec8d85ea2219e4154536ad35/contracts/RedelegationReward.sol\":5801:5818  _dstValidatorAddr */\n      dup9\n        /* \"gist-e259420aec8d85ea2219e4154536ad35/contracts/RedelegationReward.sol\":5820:5827  _amount */\n      dup9\n        /* \"gist-e259420aec8d85ea2219e4154536ad35/contracts/RedelegationReward.sol\":5742:5828  STAKING_CONTRACT.redelegate(msg.sender, _srcValidatorAddr, _dstValidatorAddr, _amount) */\n      mload(0x40)\n      dup6\n      0xffffffff\n      and\n      0xe0\n      shl\n      dup2\n      mstore\n      0x04\n      add\n      tag_197\n      swap5\n      swap4\n      swap3\n      swap2\n      swap1\n      tag_198\n      jump\t// in\n    tag_197:\n      0x20\n      mload(0x40)\n      dup1\n      dup4\n      sub\n      dup2\n      0x00\n      dup8\n      gas\n      call\n      iszero\n      dup1\n      iszero\n      tag_200\n      jumpi\n      returndatasize\n      0x00\n      dup1\n      returndatacopy\n      revert(0x00, returndatasize)\n    tag_200:\n      pop\n      pop\n      pop\n      pop\n      mload(0x40)\n      returndatasize\n      not(0x1f)\n      0x1f\n      dup3\n      add\n      and\n      dup3\n      add\n      dup1\n      0x40\n      mstore\n      pop\n      dup2\n      add\n      swap1\n      tag_201\n      swap2\n      swap1\n      tag_202\n      jump\t// in\n    tag_201:\n        /* \"gist-e259420aec8d85ea2219e4154536ad35/contracts/RedelegationReward.sol\":5719:5828  int64 completionTime = STAKING_CONTRACT.redelegate(msg.sender, _srcValidatorAddr, _dstValidatorAddr, _amount) */\n      swap1\n      pop\n        /* \"gist-e259420aec8d85ea2219e4154536ad35/contracts/RedelegationReward.sol\":5866:5873  _amount */\n      dup4\n        /* \"gist-e259420aec8d85ea2219e4154536ad35/contracts/RedelegationReward.sol\":5852:5863  totalSupply */\n      sload(0x0d)\n        /* \"gist-e259420aec8d85ea2219e4154536ad35/contracts/RedelegationReward.sol\":5852:5873  totalSupply + _amount */\n      tag_203\n      swap2\n      swap1\n      tag_204\n      jump\t// in\n    tag_203:\n        /* \"gist-e259420aec8d85ea2219e4154536ad35/contracts/RedelegationReward.sol\":5838:5849  totalSupply */\n      0x0d\n        /* \"gist-e259420aec8d85ea2219e4154536ad35/contracts/RedelegationReward.sol\":5838:5873  totalSupply = totalSupply + _amount */\n      dup2\n      swap1\n      sstore\n      pop\n        /* \"gist-e259420aec8d85ea2219e4154536ad35/contracts/RedelegationReward.sol\":5907:5914  _amount */\n      dup4\n        /* \"gist-e259420aec8d85ea2219e4154536ad35/contracts/RedelegationReward.sol\":5883:5891  balances */\n      0x0e\n        /* \"gist-e259420aec8d85ea2219e4154536ad35/contracts/RedelegationReward.sol\":5883:5903  balances[msg.sender] */\n      0x00\n        /* \"gist-e259420aec8d85ea2219e4154536ad35/contracts/RedelegationReward.sol\":5892:5902  msg.sender */\n      caller\n        /* \"gist-e259420aec8d85ea2219e4154536ad35/contracts/RedelegationReward.sol\":5883:5903  balances[msg.sender] */\n      0xffffffffffffffffffffffffffffffffffffffff\n      and\n      0xffffffffffffffffffffffffffffffffffffffff\n      and\n      dup2\n      mstore\n      0x20\n      add\n      swap1\n      dup2\n      mstore\n      0x20\n      add\n      0x00\n      keccak256\n      0x00\n        /* \"gist-e259420aec8d85ea2219e4154536ad35/contracts/RedelegationReward.sol\":5883:5914  balances[msg.sender] += _amount */\n      dup3\n      dup3\n      sload\n      tag_205\n      swap2\n      swap1\n      tag_204\n      jump\t// in\n    tag_205:\n      swap3\n      pop\n      pop\n      dup2\n      swap1\n      sstore\n      pop\n        /* \"gist-e259420aec8d85ea2219e4154536ad35/contracts/RedelegationReward.sol\":5940:5950  msg.sender */\n      caller\n        /* \"gist-e259420aec8d85ea2219e4154536ad35/contracts/RedelegationReward.sol\":5929:5960  Redelegate(msg.sender, _amount) */\n      0xffffffffffffffffffffffffffffffffffffffff\n      and\n      0x0da5c3d1021415bb27aa0917eaaafc6ee7c358a2a436d70208004073f6109ec0\n        /* \"gist-e259420aec8d85ea2219e4154536ad35/contracts/RedelegationReward.sol\":5952:5959  _amount */\n      dup6\n        /* \"gist-e259420aec8d85ea2219e4154536ad35/contracts/RedelegationReward.sol\":5929:5960  Redelegate(msg.sender, _amount) */\n      mload(0x40)\n      tag_206\n      swap2\n      swap1\n      tag_41\n      jump\t// in\n    tag_206:\n      mload(0x40)\n      dup1\n      swap2\n      sub\n      swap1\n      log2\n        /* \"gist-e259420aec8d85ea2219e4154536ad35/contracts/RedelegationReward.sol\":5977:5991  completionTime */\n      dup1\n        /* \"gist-e259420aec8d85ea2219e4154536ad35/contracts/RedelegationReward.sol\":5970:5991  return completionTime */\n      swap3\n      pop\n      pop\n        /* \"@openzeppelin/contracts/security/Pausable.sol\":1268:1269  _ */\n      pop\n        /* \"gist-e259420aec8d85ea2219e4154536ad35/contracts/RedelegationReward.sol\":5437:5998  function redelegateTokens(... */\n      swap4\n      swap3\n      pop\n      pop\n      pop\n      jump\t// out\n        /* \"gist-e259420aec8d85ea2219e4154536ad35/contracts/RedelegationReward.sol\":8801:9105  function recoverERC20(... */\n    tag_94:\n        /* \"@openzeppelin/contracts/access/Ownable.sol\":1094:1107  _checkOwner() */\n      tag_208\n        /* \"@openzeppelin/contracts/access/Ownable.sol\":1094:1105  _checkOwner */\n      tag_182\n        /* \"@openzeppelin/contracts/access/Ownable.sol\":1094:1107  _checkOwner() */\n      jump\t// in\n    tag_208:\n        /* \"gist-e259420aec8d85ea2219e4154536ad35/contracts/RedelegationReward.sol\":8931:8943  stakingToken */\n      0x04\n      0x00\n      swap1\n      sload\n      swap1\n      0x0100\n      exp\n      swap1\n      div\n      0xffffffffffffffffffffffffffffffffffffffff\n      and\n        /* \"gist-e259420aec8d85ea2219e4154536ad35/contracts/RedelegationReward.sol\":8907:8944  tokenAddress == address(stakingToken) */\n      0xffffffffffffffffffffffffffffffffffffffff\n      and\n        /* \"gist-e259420aec8d85ea2219e4154536ad35/contracts/RedelegationReward.sol\":8907:8919  tokenAddress */\n      dup3\n        /* \"gist-e259420aec8d85ea2219e4154536ad35/contracts/RedelegationReward.sol\":8907:8944  tokenAddress == address(stakingToken) */\n      0xffffffffffffffffffffffffffffffffffffffff\n      and\n      sub\n        /* \"gist-e259420aec8d85ea2219e4154536ad35/contracts/RedelegationReward.sol\":8903:8993  if (tokenAddress == address(stakingToken)) {... */\n      tag_210\n      jumpi\n        /* \"gist-e259420aec8d85ea2219e4154536ad35/contracts/RedelegationReward.sol\":8961:8986  FailedToWithdrawStaking() */\n      mload(0x40)\n      0x43fc58f100000000000000000000000000000000000000000000000000000000\n      dup2\n      mstore\n      0x04\n      add\n      mload(0x40)\n      dup1\n      swap2\n      sub\n      swap1\n      revert\n        /* \"gist-e259420aec8d85ea2219e4154536ad35/contracts/RedelegationReward.sol\":8903:8993  if (tokenAddress == address(stakingToken)) {... */\n    tag_210:\n        /* \"gist-e259420aec8d85ea2219e4154536ad35/contracts/RedelegationReward.sol\":8998:9053  IERC20(tokenAddress).safeTransfer(owner(), tokenAmount) */\n      tag_211\n        /* \"gist-e259420aec8d85ea2219e4154536ad35/contracts/RedelegationReward.sol\":9032:9039  owner() */\n      tag_212\n        /* \"gist-e259420aec8d85ea2219e4154536ad35/contracts/RedelegationReward.sol\":9032:9037  owner */\n      tag_100\n        /* \"gist-e259420aec8d85ea2219e4154536ad35/contracts/RedelegationReward.sol\":9032:9039  owner() */\n      jump\t// in\n    tag_212:\n        /* \"gist-e259420aec8d85ea2219e4154536ad35/contracts/RedelegationReward.sol\":9041:9052  tokenAmount */\n      dup3\n        /* \"gist-e259420aec8d85ea2219e4154536ad35/contracts/RedelegationReward.sol\":9005:9017  tokenAddress */\n      dup5\n        /* \"gist-e259420aec8d85ea2219e4154536ad35/contracts/RedelegationReward.sol\":8998:9031  IERC20(tokenAddress).safeTransfer */\n      0xffffffffffffffffffffffffffffffffffffffff\n      and\n      tag_152\n      swap1\n        /* \"gist-e259420aec8d85ea2219e4154536ad35/contracts/RedelegationReward.sol\":8998:9053  IERC20(tokenAddress).safeTransfer(owner(), tokenAmount) */\n      swap3\n      swap2\n      swap1\n      0xffffffff\n      and\n      jump\t// in\n    tag_211:\n        /* \"gist-e259420aec8d85ea2219e4154536ad35/contracts/RedelegationReward.sol\":9064:9100  Recovered(tokenAddress, tokenAmount) */\n      0x8c1256b8896378cd5044f80c202f9772b9d77dc85c8a6eb51967210b09bfaa28\n        /* \"gist-e259420aec8d85ea2219e4154536ad35/contracts/RedelegationReward.sol\":9074:9086  tokenAddress */\n      dup3\n        /* \"gist-e259420aec8d85ea2219e4154536ad35/contracts/RedelegationReward.sol\":9088:9099  tokenAmount */\n      dup3\n        /* \"gist-e259420aec8d85ea2219e4154536ad35/contracts/RedelegationReward.sol\":9064:9100  Recovered(tokenAddress, tokenAmount) */\n      mload(0x40)\n      tag_213\n      swap3\n      swap2\n      swap1\n      tag_214\n      jump\t// in\n    tag_213:\n      mload(0x40)\n      dup1\n      swap2\n      sub\n      swap1\n      log1\n        /* \"gist-e259420aec8d85ea2219e4154536ad35/contracts/RedelegationReward.sol\":8801:9105  function recoverERC20(... */\n      pop\n      pop\n      jump\t// out\n        /* \"gist-e259420aec8d85ea2219e4154536ad35/contracts/RedelegationReward.sol\":2236:2293  mapping(address => uint256) public userRewardPerTokenPaid */\n    tag_97:\n      mstore(0x20, 0x0b)\n      dup1\n      0x00\n      mstore\n      keccak256(0x00, 0x40)\n      0x00\n      swap2\n      pop\n      swap1\n      pop\n      sload\n      dup2\n      jump\t// out\n        /* \"@openzeppelin/contracts/access/Ownable.sol\":1201:1286  function owner() public view virtual returns (address) {... */\n    tag_100:\n        /* \"@openzeppelin/contracts/access/Ownable.sol\":1247:1254  address */\n      0x00\n        /* \"@openzeppelin/contracts/access/Ownable.sol\":1273:1279  _owner */\n      dup1\n      0x00\n      swap1\n      sload\n      swap1\n      0x0100\n      exp\n      swap1\n      div\n      0xffffffffffffffffffffffffffffffffffffffff\n      and\n        /* \"@openzeppelin/contracts/access/Ownable.sol\":1266:1279  return _owner */\n      swap1\n      pop\n        /* \"@openzeppelin/contracts/access/Ownable.sol\":1201:1286  function owner() public view virtual returns (address) {... */\n      swap1\n      jump\t// out\n        /* \"gist-e259420aec8d85ea2219e4154536ad35/contracts/RedelegationReward.sol\":1297:1623  function approveRequiredMethods() public {... */\n    tag_104:\n        /* \"gist-e259420aec8d85ea2219e4154536ad35/contracts/RedelegationReward.sol\":1348:1360  bool success */\n      0x00\n        /* \"gist-e259420aec8d85ea2219e4154536ad35/contracts/Staking.sol\":221:263  0x0000000000000000000000000000000000000800 */\n      0x0800\n        /* \"gist-e259420aec8d85ea2219e4154536ad35/contracts/RedelegationReward.sol\":1363:1387  STAKING_CONTRACT.approve */\n      0xffffffffffffffffffffffffffffffffffffffff\n      and\n      0xb6039895\n        /* \"gist-e259420aec8d85ea2219e4154536ad35/contracts/RedelegationReward.sol\":1401:1411  msg.sender */\n      caller\n        /* \"gist-e259420aec8d85ea2219e4154536ad35/contracts/RedelegationReward.sol\":1425:1442  type(uint256).max */\n      0xffffffffffffffffffffffffffffffffffffffffffffffffffffffffffffffff\n        /* \"gist-e259420aec8d85ea2219e4154536ad35/contracts/RedelegationReward.sol\":1456:1470  stakingMethods */\n      0x02\n        /* \"gist-e259420aec8d85ea2219e4154536ad35/contracts/RedelegationReward.sol\":1363:1480  STAKING_CONTRACT.approve(... */\n      mload(0x40)\n      dup5\n      0xffffffff\n      and\n      0xe0\n      shl\n      dup2\n      mstore\n      0x04\n      add\n      tag_217\n      swap4\n      swap3\n      swap2\n      swap1\n      tag_218\n      jump\t// in\n    tag_217:\n      0x20\n      mload(0x40)\n      dup1\n      dup4\n      sub\n      dup2\n      0x00\n      dup8\n      gas\n      call\n      iszero\n      dup1\n      iszero\n      tag_220\n      jumpi\n      returndatasize\n      0x00\n      dup1\n      returndatacopy\n      revert(0x00, returndatasize)\n    tag_220:\n      pop\n      pop\n      pop\n      pop\n      mload(0x40)\n      returndatasize\n      not(0x1f)\n      0x1f\n      dup3\n      add\n      and\n      dup3\n      add\n      dup1\n      0x40\n      mstore\n      pop\n      dup2\n      add\n      swap1\n      tag_221\n      swap2\n      swap1\n      tag_222\n      jump\t// in\n    tag_221:\n        /* \"gist-e259420aec8d85ea2219e4154536ad35/contracts/RedelegationReward.sol\":1348:1480  bool success = STAKING_CONTRACT.approve(... */\n      swap1\n      pop\n        /* \"gist-e259420aec8d85ea2219e4154536ad35/contracts/RedelegationReward.sol\":1498:1505  success */\n      dup1\n        /* \"gist-e259420aec8d85ea2219e4154536ad35/contracts/RedelegationReward.sol\":1490:1543  require(success, \"Failed to approve delegate method\") */\n      tag_223\n      jumpi\n      mload(0x40)\n      0x08c379a000000000000000000000000000000000000000000000000000000000\n      dup2\n      mstore\n      0x04\n      add\n      tag_224\n      swap1\n      tag_225\n      jump\t// in\n    tag_224:\n      mload(0x40)\n      dup1\n      swap2\n      sub\n      swap1\n      revert\n    tag_223:\n        /* \"gist-e259420aec8d85ea2219e4154536ad35/contracts/RedelegationReward.sol\":1581:1585  true */\n      0x01\n        /* \"gist-e259420aec8d85ea2219e4154536ad35/contracts/RedelegationReward.sol\":1553:1566  approvedUsers */\n      0x03\n        /* \"gist-e259420aec8d85ea2219e4154536ad35/contracts/RedelegationReward.sol\":1553:1578  approvedUsers[msg.sender] */\n      0x00\n        /* \"gist-e259420aec8d85ea2219e4154536ad35/contracts/RedelegationReward.sol\":1567:1577  msg.sender */\n      caller\n        /* \"gist-e259420aec8d85ea2219e4154536ad35/contracts/RedelegationReward.sol\":1553:1578  approvedUsers[msg.sender] */\n      0xffffffffffffffffffffffffffffffffffffffff\n      and\n      0xffffffffffffffffffffffffffffffffffffffff\n      and\n      dup2\n      mstore\n      0x20\n      add\n      swap1\n      dup2\n      mstore\n      0x20\n      add\n      0x00\n      keccak256\n      0x00\n        /* \"gist-e259420aec8d85ea2219e4154536ad35/contracts/RedelegationReward.sol\":1553:1585  approvedUsers[msg.sender] = true */\n      0x0100\n      exp\n      dup2\n      sload\n      dup2\n      0xff\n      mul\n      not\n      and\n      swap1\n      dup4\n      iszero\n      iszero\n      mul\n      or\n      swap1\n      sstore\n      pop\n        /* \"gist-e259420aec8d85ea2219e4154536ad35/contracts/RedelegationReward.sol\":1338:1623  {... */\n      pop\n        /* \"gist-e259420aec8d85ea2219e4154536ad35/contracts/RedelegationReward.sol\":1297:1623  function approveRequiredMethods() public {... */\n      jump\t// out\n        /* \"gist-e259420aec8d85ea2219e4154536ad35/contracts/RedelegationReward.sol\":2062:2091  uint256 public lastUpdateTime */\n    tag_106:\n      sload(0x09)\n      dup2\n      jump\t// out\n        /* \"gist-e259420aec8d85ea2219e4154536ad35/contracts/RedelegationReward.sol\":7531:8560  function fund(... */\n    tag_111:\n        /* \"@openzeppelin/contracts/access/Ownable.sol\":1094:1107  _checkOwner() */\n      tag_227\n        /* \"@openzeppelin/contracts/access/Ownable.sol\":1094:1105  _checkOwner */\n      tag_182\n        /* \"@openzeppelin/contracts/access/Ownable.sol\":1094:1107  _checkOwner() */\n      jump\t// in\n    tag_227:\n        /* \"@openzeppelin/contracts/security/Pausable.sol\":1239:1258  _requireNotPaused() */\n      tag_229\n        /* \"@openzeppelin/contracts/security/Pausable.sol\":1239:1256  _requireNotPaused */\n      tag_141\n        /* \"@openzeppelin/contracts/security/Pausable.sol\":1239:1258  _requireNotPaused() */\n      jump\t// in\n    tag_229:\n        /* \"gist-e259420aec8d85ea2219e4154536ad35/contracts/RedelegationReward.sol\":7621:7622  0 */\n      0x00\n        /* \"gist-e259420aec8d85ea2219e4154536ad35/contracts/RedelegationReward.sol\":3912:3929  _rewardPerToken() */\n      tag_231\n        /* \"gist-e259420aec8d85ea2219e4154536ad35/contracts/RedelegationReward.sol\":3912:3927  _rewardPerToken */\n      tag_144\n        /* \"gist-e259420aec8d85ea2219e4154536ad35/contracts/RedelegationReward.sol\":3912:3929  _rewardPerToken() */\n      jump\t// in\n    tag_231:\n        /* \"gist-e259420aec8d85ea2219e4154536ad35/contracts/RedelegationReward.sol\":3889:3909  rewardPerTokenStored */\n      0x0a\n        /* \"gist-e259420aec8d85ea2219e4154536ad35/contracts/RedelegationReward.sol\":3889:3929  rewardPerTokenStored = _rewardPerToken() */\n      dup2\n      swap1\n      sstore\n      pop\n        /* \"gist-e259420aec8d85ea2219e4154536ad35/contracts/RedelegationReward.sol\":3952:3979  _lastTimeRewardApplicable() */\n      tag_232\n        /* \"gist-e259420aec8d85ea2219e4154536ad35/contracts/RedelegationReward.sol\":3952:3977  _lastTimeRewardApplicable */\n      tag_146\n        /* \"gist-e259420aec8d85ea2219e4154536ad35/contracts/RedelegationReward.sol\":3952:3979  _lastTimeRewardApplicable() */\n      jump\t// in\n    tag_232:\n        /* \"gist-e259420aec8d85ea2219e4154536ad35/contracts/RedelegationReward.sol\":3935:3949  lastUpdateTime */\n      0x09\n        /* \"gist-e259420aec8d85ea2219e4154536ad35/contracts/RedelegationReward.sol\":3935:3979  lastUpdateTime = _lastTimeRewardApplicable() */\n      dup2\n      swap1\n      sstore\n      pop\n        /* \"gist-e259420aec8d85ea2219e4154536ad35/contracts/RedelegationReward.sol\":4008:4009  0 */\n      0x00\n        /* \"gist-e259420aec8d85ea2219e4154536ad35/contracts/RedelegationReward.sol\":3989:4010  account != address(0) */\n      0xffffffffffffffffffffffffffffffffffffffff\n      and\n        /* \"gist-e259420aec8d85ea2219e4154536ad35/contracts/RedelegationReward.sol\":3989:3996  account */\n      dup2\n        /* \"gist-e259420aec8d85ea2219e4154536ad35/contracts/RedelegationReward.sol\":3989:4010  account != address(0) */\n      0xffffffffffffffffffffffffffffffffffffffff\n      and\n      eq\n        /* \"gist-e259420aec8d85ea2219e4154536ad35/contracts/RedelegationReward.sol\":3985:4128  if (account != address(0)) {... */\n      tag_233\n      jumpi\n        /* \"gist-e259420aec8d85ea2219e4154536ad35/contracts/RedelegationReward.sol\":4041:4057  _earned(account) */\n      tag_234\n        /* \"gist-e259420aec8d85ea2219e4154536ad35/contracts/RedelegationReward.sol\":4049:4056  account */\n      dup2\n        /* \"gist-e259420aec8d85ea2219e4154536ad35/contracts/RedelegationReward.sol\":4041:4048  _earned */\n      tag_132\n        /* \"gist-e259420aec8d85ea2219e4154536ad35/contracts/RedelegationReward.sol\":4041:4057  _earned(account) */\n      jump\t// in\n    tag_234:\n        /* \"gist-e259420aec8d85ea2219e4154536ad35/contracts/RedelegationReward.sol\":4022:4029  rewards */\n      0x0c\n        /* \"gist-e259420aec8d85ea2219e4154536ad35/contracts/RedelegationReward.sol\":4022:4038  rewards[account] */\n      0x00\n        /* \"gist-e259420aec8d85ea2219e4154536ad35/contracts/RedelegationReward.sol\":4030:4037  account */\n      dup4\n        /* \"gist-e259420aec8d85ea2219e4154536ad35/contracts/RedelegationReward.sol\":4022:4038  rewards[account] */\n      0xffffffffffffffffffffffffffffffffffffffff\n      and\n      0xffffffffffffffffffffffffffffffffffffffff\n      and\n      dup2\n      mstore\n      0x20\n      add\n      swap1\n      dup2\n      mstore\n      0x20\n      add\n      0x00\n      keccak256\n        /* \"gist-e259420aec8d85ea2219e4154536ad35/contracts/RedelegationReward.sol\":4022:4057  rewards[account] = _earned(account) */\n      dup2\n      swap1\n      sstore\n      pop\n        /* \"gist-e259420aec8d85ea2219e4154536ad35/contracts/RedelegationReward.sol\":4101:4121  rewardPerTokenStored */\n      sload(0x0a)\n        /* \"gist-e259420aec8d85ea2219e4154536ad35/contracts/RedelegationReward.sol\":4067:4089  userRewardPerTokenPaid */\n      0x0b\n        /* \"gist-e259420aec8d85ea2219e4154536ad35/contracts/RedelegationReward.sol\":4067:4098  userRewardPerTokenPaid[account] */\n      0x00\n        /* \"gist-e259420aec8d85ea2219e4154536ad35/contracts/RedelegationReward.sol\":4090:4097  account */\n      dup4\n        /* \"gist-e259420aec8d85ea2219e4154536ad35/contracts/RedelegationReward.sol\":4067:4098  userRewardPerTokenPaid[account] */\n      0xffffffffffffffffffffffffffffffffffffffff\n      and\n      0xffffffffffffffffffffffffffffffffffffffff\n      and\n      dup2\n      mstore\n      0x20\n      add\n      swap1\n      dup2\n      mstore\n      0x20\n      add\n      0x00\n      keccak256\n        /* \"gist-e259420aec8d85ea2219e4154536ad35/contracts/RedelegationReward.sol\":4067:4121  userRewardPerTokenPaid[account] = rewardPerTokenStored */\n      dup2\n      swap1\n      sstore\n      pop\n        /* \"gist-e259420aec8d85ea2219e4154536ad35/contracts/RedelegationReward.sol\":3985:4128  if (account != address(0)) {... */\n    tag_233:\n        /* \"gist-e259420aec8d85ea2219e4154536ad35/contracts/RedelegationReward.sol\":7654:7666  periodFinish */\n      sload(0x06)\n        /* \"gist-e259420aec8d85ea2219e4154536ad35/contracts/RedelegationReward.sol\":7635:7650  block.timestamp */\n      timestamp\n        /* \"gist-e259420aec8d85ea2219e4154536ad35/contracts/RedelegationReward.sol\":7635:7666  block.timestamp >= periodFinish */\n      lt\n        /* \"gist-e259420aec8d85ea2219e4154536ad35/contracts/RedelegationReward.sol\":7631:7898  if (block.timestamp >= periodFinish) {... */\n      tag_236\n      jumpi\n        /* \"gist-e259420aec8d85ea2219e4154536ad35/contracts/RedelegationReward.sol\":7698:7713  rewardsDuration */\n      sload(0x08)\n        /* \"gist-e259420aec8d85ea2219e4154536ad35/contracts/RedelegationReward.sol\":7689:7695  reward */\n      dup3\n        /* \"gist-e259420aec8d85ea2219e4154536ad35/contracts/RedelegationReward.sol\":7689:7713  reward / rewardsDuration */\n      tag_237\n      swap2\n      swap1\n      tag_238\n      jump\t// in\n    tag_237:\n        /* \"gist-e259420aec8d85ea2219e4154536ad35/contracts/RedelegationReward.sol\":7676:7686  rewardRate */\n      0x07\n        /* \"gist-e259420aec8d85ea2219e4154536ad35/contracts/RedelegationReward.sol\":7676:7713  rewardRate = reward / rewardsDuration */\n      dup2\n      swap1\n      sstore\n      pop\n        /* \"gist-e259420aec8d85ea2219e4154536ad35/contracts/RedelegationReward.sol\":7631:7898  if (block.timestamp >= periodFinish) {... */\n      jump(tag_239)\n    tag_236:\n        /* \"gist-e259420aec8d85ea2219e4154536ad35/contracts/RedelegationReward.sol\":7734:7751  uint256 remaining */\n      0x00\n        /* \"gist-e259420aec8d85ea2219e4154536ad35/contracts/RedelegationReward.sol\":7769:7784  block.timestamp */\n      timestamp\n        /* \"gist-e259420aec8d85ea2219e4154536ad35/contracts/RedelegationReward.sol\":7754:7766  periodFinish */\n      sload(0x06)\n        /* \"gist-e259420aec8d85ea2219e4154536ad35/contracts/RedelegationReward.sol\":7754:7784  periodFinish - block.timestamp */\n      tag_240\n      swap2\n      swap1\n      tag_241\n      jump\t// in\n    tag_240:\n        /* \"gist-e259420aec8d85ea2219e4154536ad35/contracts/RedelegationReward.sol\":7734:7784  uint256 remaining = periodFinish - block.timestamp */\n      swap1\n      pop\n        /* \"gist-e259420aec8d85ea2219e4154536ad35/contracts/RedelegationReward.sol\":7792:7808  uint256 leftover */\n      0x00\n        /* \"gist-e259420aec8d85ea2219e4154536ad35/contracts/RedelegationReward.sol\":7823:7833  rewardRate */\n      sload(0x07)\n        /* \"gist-e259420aec8d85ea2219e4154536ad35/contracts/RedelegationReward.sol\":7811:7820  remaining */\n      dup3\n        /* \"gist-e259420aec8d85ea2219e4154536ad35/contracts/RedelegationReward.sol\":7811:7833  remaining * rewardRate */\n      tag_242\n      swap2\n      swap1\n      tag_135\n      jump\t// in\n    tag_242:\n        /* \"gist-e259420aec8d85ea2219e4154536ad35/contracts/RedelegationReward.sol\":7792:7833  uint256 leftover = remaining * rewardRate */\n      swap1\n      pop\n        /* \"gist-e259420aec8d85ea2219e4154536ad35/contracts/RedelegationReward.sol\":7876:7891  rewardsDuration */\n      sload(0x08)\n        /* \"gist-e259420aec8d85ea2219e4154536ad35/contracts/RedelegationReward.sol\":7864:7872  leftover */\n      dup2\n        /* \"gist-e259420aec8d85ea2219e4154536ad35/contracts/RedelegationReward.sol\":7855:7861  reward */\n      dup6\n        /* \"gist-e259420aec8d85ea2219e4154536ad35/contracts/RedelegationReward.sol\":7855:7872  reward + leftover */\n      tag_243\n      swap2\n      swap1\n      tag_204\n      jump\t// in\n    tag_243:\n        /* \"gist-e259420aec8d85ea2219e4154536ad35/contracts/RedelegationReward.sol\":7854:7891  (reward + leftover) / rewardsDuration */\n      tag_244\n      swap2\n      swap1\n      tag_238\n      jump\t// in\n    tag_244:\n        /* \"gist-e259420aec8d85ea2219e4154536ad35/contracts/RedelegationReward.sol\":7841:7851  rewardRate */\n      0x07\n        /* \"gist-e259420aec8d85ea2219e4154536ad35/contracts/RedelegationReward.sol\":7841:7891  rewardRate = (reward + leftover) / rewardsDuration */\n      dup2\n      swap1\n      sstore\n      pop\n        /* \"gist-e259420aec8d85ea2219e4154536ad35/contracts/RedelegationReward.sol\":7726:7898  {... */\n      pop\n      pop\n        /* \"gist-e259420aec8d85ea2219e4154536ad35/contracts/RedelegationReward.sol\":7631:7898  if (block.timestamp >= periodFinish) {... */\n    tag_239:\n        /* \"gist-e259420aec8d85ea2219e4154536ad35/contracts/RedelegationReward.sol\":8225:8289  rewardsToken.safeTransferFrom(msg.sender, address(this), reward) */\n      tag_245\n        /* \"gist-e259420aec8d85ea2219e4154536ad35/contracts/RedelegationReward.sol\":8255:8265  msg.sender */\n      caller\n        /* \"gist-e259420aec8d85ea2219e4154536ad35/contracts/RedelegationReward.sol\":8275:8279  this */\n      address\n        /* \"gist-e259420aec8d85ea2219e4154536ad35/contracts/RedelegationReward.sol\":8282:8288  reward */\n      dup5\n        /* \"gist-e259420aec8d85ea2219e4154536ad35/contracts/RedelegationReward.sol\":8225:8237  rewardsToken */\n      0x05\n      0x00\n      swap1\n      sload\n      swap1\n      0x0100\n      exp\n      swap1\n      div\n      0xffffffffffffffffffffffffffffffffffffffff\n      and\n        /* \"gist-e259420aec8d85ea2219e4154536ad35/contracts/RedelegationReward.sol\":8225:8254  rewardsToken.safeTransferFrom */\n      0xffffffffffffffffffffffffffffffffffffffff\n      and\n      tag_246\n      swap1\n        /* \"gist-e259420aec8d85ea2219e4154536ad35/contracts/RedelegationReward.sol\":8225:8289  rewardsToken.safeTransferFrom(msg.sender, address(this), reward) */\n      swap4\n      swap3\n      swap2\n      swap1\n      0xffffffff\n      and\n      jump\t// in\n    tag_245:\n        /* \"gist-e259420aec8d85ea2219e4154536ad35/contracts/RedelegationReward.sol\":8295:8310  uint256 balance */\n      0x00\n        /* \"gist-e259420aec8d85ea2219e4154536ad35/contracts/RedelegationReward.sol\":8313:8325  rewardsToken */\n      0x05\n      0x00\n      swap1\n      sload\n      swap1\n      0x0100\n      exp\n      swap1\n      div\n      0xffffffffffffffffffffffffffffffffffffffff\n      and\n        /* \"gist-e259420aec8d85ea2219e4154536ad35/contracts/RedelegationReward.sol\":8313:8335  rewardsToken.balanceOf */\n      0xffffffffffffffffffffffffffffffffffffffff\n      and\n      0x70a08231\n        /* \"gist-e259420aec8d85ea2219e4154536ad35/contracts/RedelegationReward.sol\":8344:8348  this */\n      address\n        /* \"gist-e259420aec8d85ea2219e4154536ad35/contracts/RedelegationReward.sol\":8313:8350  rewardsToken.balanceOf(address(this)) */\n      mload(0x40)\n      dup3\n      0xffffffff\n      and\n      0xe0\n      shl\n      dup2\n      mstore\n      0x04\n      add\n      tag_247\n      swap2\n      swap1\n      tag_102\n      jump\t// in\n    tag_247:\n      0x20\n      mload(0x40)\n      dup1\n      dup4\n      sub\n      dup2\n      dup7\n      gas\n      staticcall\n      iszero\n      dup1\n      iszero\n      tag_249\n      jumpi\n      returndatasize\n      0x00\n      dup1\n      returndatacopy\n      revert(0x00, returndatasize)\n    tag_249:\n      pop\n      pop\n      pop\n      pop\n      mload(0x40)\n      returndatasize\n      not(0x1f)\n      0x1f\n      dup3\n      add\n      and\n      dup3\n      add\n      dup1\n      0x40\n      mstore\n      pop\n      dup2\n      add\n      swap1\n      tag_250\n      swap2\n      swap1\n      tag_251\n      jump\t// in\n    tag_250:\n        /* \"gist-e259420aec8d85ea2219e4154536ad35/contracts/RedelegationReward.sol\":8295:8350  uint256 balance = rewardsToken.balanceOf(address(this)) */\n      swap1\n      pop\n        /* \"gist-e259420aec8d85ea2219e4154536ad35/contracts/RedelegationReward.sol\":8383:8398  rewardsDuration */\n      sload(0x08)\n        /* \"gist-e259420aec8d85ea2219e4154536ad35/contracts/RedelegationReward.sol\":8373:8380  balance */\n      dup2\n        /* \"gist-e259420aec8d85ea2219e4154536ad35/contracts/RedelegationReward.sol\":8373:8398  balance / rewardsDuration */\n      tag_252\n      swap2\n      swap1\n      tag_238\n      jump\t// in\n    tag_252:\n        /* \"gist-e259420aec8d85ea2219e4154536ad35/contracts/RedelegationReward.sol\":8360:8370  rewardRate */\n      sload(0x07)\n        /* \"gist-e259420aec8d85ea2219e4154536ad35/contracts/RedelegationReward.sol\":8360:8398  rewardRate > balance / rewardsDuration */\n      gt\n        /* \"gist-e259420aec8d85ea2219e4154536ad35/contracts/RedelegationReward.sol\":8356:8437  if (rewardRate > balance / rewardsDuration) {... */\n      iszero\n      tag_253\n      jumpi\n        /* \"gist-e259420aec8d85ea2219e4154536ad35/contracts/RedelegationReward.sol\":8415:8430  TooHighReward() */\n      mload(0x40)\n      0x7f5e85a600000000000000000000000000000000000000000000000000000000\n      dup2\n      mstore\n      0x04\n      add\n      mload(0x40)\n      dup1\n      swap2\n      sub\n      swap1\n      revert\n        /* \"gist-e259420aec8d85ea2219e4154536ad35/contracts/RedelegationReward.sol\":8356:8437  if (rewardRate > balance / rewardsDuration) {... */\n    tag_253:\n        /* \"gist-e259420aec8d85ea2219e4154536ad35/contracts/RedelegationReward.sol\":8460:8475  block.timestamp */\n      timestamp\n        /* \"gist-e259420aec8d85ea2219e4154536ad35/contracts/RedelegationReward.sol\":8443:8457  lastUpdateTime */\n      0x09\n        /* \"gist-e259420aec8d85ea2219e4154536ad35/contracts/RedelegationReward.sol\":8443:8475  lastUpdateTime = block.timestamp */\n      dup2\n      swap1\n      sstore\n      pop\n        /* \"gist-e259420aec8d85ea2219e4154536ad35/contracts/RedelegationReward.sol\":8514:8529  rewardsDuration */\n      sload(0x08)\n        /* \"gist-e259420aec8d85ea2219e4154536ad35/contracts/RedelegationReward.sol\":8496:8511  block.timestamp */\n      timestamp\n        /* \"gist-e259420aec8d85ea2219e4154536ad35/contracts/RedelegationReward.sol\":8496:8529  block.timestamp + rewardsDuration */\n      tag_254\n      swap2\n      swap1\n      tag_204\n      jump\t// in\n    tag_254:\n        /* \"gist-e259420aec8d85ea2219e4154536ad35/contracts/RedelegationReward.sol\":8481:8493  periodFinish */\n      0x06\n        /* \"gist-e259420aec8d85ea2219e4154536ad35/contracts/RedelegationReward.sol\":8481:8529  periodFinish = block.timestamp + rewardsDuration */\n      dup2\n      swap1\n      sstore\n      pop\n        /* \"gist-e259420aec8d85ea2219e4154536ad35/contracts/RedelegationReward.sol\":8541:8555  Funded(reward) */\n      0xc4c14883ae9fd8e26d5d59e3485ed29fd126d781d7e498a4ca5c54c8268e4936\n        /* \"gist-e259420aec8d85ea2219e4154536ad35/contracts/RedelegationReward.sol\":8548:8554  reward */\n      dup4\n        /* \"gist-e259420aec8d85ea2219e4154536ad35/contracts/RedelegationReward.sol\":8541:8555  Funded(reward) */\n      mload(0x40)\n      tag_255\n      swap2\n      swap1\n      tag_41\n      jump\t// in\n    tag_255:\n      mload(0x40)\n      dup1\n      swap2\n      sub\n      swap1\n      log1\n        /* \"gist-e259420aec8d85ea2219e4154536ad35/contracts/RedelegationReward.sol\":7625:8560  {... */\n      pop\n        /* \"@openzeppelin/contracts/security/Pausable.sol\":1268:1269  _ */\n      pop\n        /* \"gist-e259420aec8d85ea2219e4154536ad35/contracts/RedelegationReward.sol\":7531:8560  function fund(... */\n      pop\n      jump\t// out\n        /* \"gist-e259420aec8d85ea2219e4154536ad35/contracts/RedelegationReward.sol\":4935:5157  function setRewardsDuration(uint256 duration) external onlyOwner {... */\n    tag_114:\n        /* \"@openzeppelin/contracts/access/Ownable.sol\":1094:1107  _checkOwner() */\n      tag_257\n        /* \"@openzeppelin/contracts/access/Ownable.sol\":1094:1105  _checkOwner */\n      tag_182\n        /* \"@openzeppelin/contracts/access/Ownable.sol\":1094:1107  _checkOwner() */\n      jump\t// in\n    tag_257:\n        /* \"gist-e259420aec8d85ea2219e4154536ad35/contracts/RedelegationReward.sol\":5028:5040  periodFinish */\n      sload(0x06)\n        /* \"gist-e259420aec8d85ea2219e4154536ad35/contracts/RedelegationReward.sol\":5010:5025  block.timestamp */\n      timestamp\n        /* \"gist-e259420aec8d85ea2219e4154536ad35/contracts/RedelegationReward.sol\":5010:5040  block.timestamp < periodFinish */\n      lt\n        /* \"gist-e259420aec8d85ea2219e4154536ad35/contracts/RedelegationReward.sol\":5006:5078  if (block.timestamp < periodFinish) {... */\n      iszero\n      tag_259\n      jumpi\n        /* \"gist-e259420aec8d85ea2219e4154536ad35/contracts/RedelegationReward.sol\":5057:5071  WaitToFinish() */\n      mload(0x40)\n      0x38e3211200000000000000000000000000000000000000000000000000000000\n      dup2\n      mstore\n      0x04\n      add\n      mload(0x40)\n      dup1\n      swap2\n      sub\n      swap1\n      revert\n        /* \"gist-e259420aec8d85ea2219e4154536ad35/contracts/RedelegationReward.sol\":5006:5078  if (block.timestamp < periodFinish) {... */\n    tag_259:\n        /* \"gist-e259420aec8d85ea2219e4154536ad35/contracts/RedelegationReward.sol\":5101:5109  duration */\n      dup1\n        /* \"gist-e259420aec8d85ea2219e4154536ad35/contracts/RedelegationReward.sol\":5083:5098  rewardsDuration */\n      0x08\n        /* \"gist-e259420aec8d85ea2219e4154536ad35/contracts/RedelegationReward.sol\":5083:5109  rewardsDuration = duration */\n      dup2\n      swap1\n      sstore\n      pop\n        /* \"gist-e259420aec8d85ea2219e4154536ad35/contracts/RedelegationReward.sol\":5120:5152  RewardsDurationUpdated(duration) */\n      0xfb46ca5a5e06d4540d6387b930a7c978bce0db5f449ec6b3f5d07c6e1d44f2d3\n        /* \"gist-e259420aec8d85ea2219e4154536ad35/contracts/RedelegationReward.sol\":5143:5151  duration */\n      dup2\n        /* \"gist-e259420aec8d85ea2219e4154536ad35/contracts/RedelegationReward.sol\":5120:5152  RewardsDurationUpdated(duration) */\n      mload(0x40)\n      tag_260\n      swap2\n      swap1\n      tag_41\n      jump\t// in\n    tag_260:\n      mload(0x40)\n      dup1\n      swap2\n      sub\n      swap1\n      log1\n        /* \"gist-e259420aec8d85ea2219e4154536ad35/contracts/RedelegationReward.sol\":4935:5157  function setRewardsDuration(uint256 duration) external onlyOwner {... */\n      pop\n      jump\t// out\n        /* \"gist-e259420aec8d85ea2219e4154536ad35/contracts/RedelegationReward.sol\":10907:11000  function rewardPerToken() external view returns (uint256) {... */\n    tag_116:\n        /* \"gist-e259420aec8d85ea2219e4154536ad35/contracts/RedelegationReward.sol\":10956:10963  uint256 */\n      0x00\n        /* \"gist-e259420aec8d85ea2219e4154536ad35/contracts/RedelegationReward.sol\":10978:10995  _rewardPerToken() */\n      tag_262\n        /* \"gist-e259420aec8d85ea2219e4154536ad35/contracts/RedelegationReward.sol\":10978:10993  _rewardPerToken */\n      tag_144\n        /* \"gist-e259420aec8d85ea2219e4154536ad35/contracts/RedelegationReward.sol\":10978:10995  _rewardPerToken() */\n      jump\t// in\n    tag_262:\n        /* \"gist-e259420aec8d85ea2219e4154536ad35/contracts/RedelegationReward.sol\":10971:10995  return _rewardPerToken() */\n      swap1\n      pop\n        /* \"gist-e259420aec8d85ea2219e4154536ad35/contracts/RedelegationReward.sol\":10907:11000  function rewardPerToken() external view returns (uint256) {... */\n      swap1\n      jump\t// out\n        /* \"gist-e259420aec8d85ea2219e4154536ad35/contracts/RedelegationReward.sol\":1771:1797  IERC20 public rewardsToken */\n    tag_119:\n      0x05\n      0x00\n      swap1\n      sload\n      swap1\n      0x0100\n      exp\n      swap1\n      div\n      0xffffffffffffffffffffffffffffffffffffffff\n      and\n      dup2\n      jump\t// out\n        /* \"gist-e259420aec8d85ea2219e4154536ad35/contracts/RedelegationReward.sol\":2130:2165  uint256 public rewardPerTokenStored */\n    tag_122:\n      sload(0x0a)\n      dup2\n      jump\t// out\n        /* \"gist-e259420aec8d85ea2219e4154536ad35/contracts/RedelegationReward.sol\":1855:1882  uint256 public periodFinish */\n    tag_125:\n      sload(0x06)\n      dup2\n      jump\t// out\n        /* \"@openzeppelin/contracts/access/Ownable.sol\":2074:2272  function transferOwnership(address newOwner) public virtual onlyOwner {... */\n    tag_129:\n        /* \"@openzeppelin/contracts/access/Ownable.sol\":1094:1107  _checkOwner() */\n      tag_264\n        /* \"@openzeppelin/contracts/access/Ownable.sol\":1094:1105  _checkOwner */\n      tag_182\n        /* \"@openzeppelin/contracts/access/Ownable.sol\":1094:1107  _checkOwner() */\n      jump\t// in\n    tag_264:\n        /* \"@openzeppelin/contracts/access/Ownable.sol\":2182:2183  0 */\n      0x00\n        /* \"@openzeppelin/contracts/access/Ownable.sol\":2162:2184  newOwner != address(0) */\n      0xffffffffffffffffffffffffffffffffffffffff\n      and\n        /* \"@openzeppelin/contracts/access/Ownable.sol\":2162:2170  newOwner */\n      dup2\n        /* \"@openzeppelin/contracts/access/Ownable.sol\":2162:2184  newOwner != address(0) */\n      0xffffffffffffffffffffffffffffffffffffffff\n      and\n      sub\n        /* \"@openzeppelin/contracts/access/Ownable.sol\":2154:2227  require(newOwner != address(0), \"Ownable: new owner is the zero address\") */\n      tag_266\n      jumpi\n      mload(0x40)\n      0x08c379a000000000000000000000000000000000000000000000000000000000\n      dup2\n      mstore\n      0x04\n      add\n      tag_267\n      swap1\n      tag_268\n      jump\t// in\n    tag_267:\n      mload(0x40)\n      dup1\n      swap2\n      sub\n      swap1\n      revert\n    tag_266:\n        /* \"@openzeppelin/contracts/access/Ownable.sol\":2237:2265  _transferOwnership(newOwner) */\n      tag_269\n        /* \"@openzeppelin/contracts/access/Ownable.sol\":2256:2264  newOwner */\n      dup2\n        /* \"@openzeppelin/contracts/access/Ownable.sol\":2237:2255  _transferOwnership */\n      tag_185\n        /* \"@openzeppelin/contracts/access/Ownable.sol\":2237:2265  _transferOwnership(newOwner) */\n      jump\t// in\n    tag_269:\n        /* \"@openzeppelin/contracts/access/Ownable.sol\":2074:2272  function transferOwnership(address newOwner) public virtual onlyOwner {... */\n      pop\n      jump\t// out\n        /* \"gist-e259420aec8d85ea2219e4154536ad35/contracts/RedelegationReward.sol\":9786:9997  function _earned(address account) internal view returns (uint256) {... */\n    tag_132:\n        /* \"gist-e259420aec8d85ea2219e4154536ad35/contracts/RedelegationReward.sol\":9843:9850  uint256 */\n      0x00\n        /* \"gist-e259420aec8d85ea2219e4154536ad35/contracts/RedelegationReward.sol\":9976:9983  rewards */\n      0x0c\n        /* \"gist-e259420aec8d85ea2219e4154536ad35/contracts/RedelegationReward.sol\":9976:9992  rewards[account] */\n      0x00\n        /* \"gist-e259420aec8d85ea2219e4154536ad35/contracts/RedelegationReward.sol\":9984:9991  account */\n      dup4\n        /* \"gist-e259420aec8d85ea2219e4154536ad35/contracts/RedelegationReward.sol\":9976:9992  rewards[account] */\n      0xffffffffffffffffffffffffffffffffffffffff\n      and\n      0xffffffffffffffffffffffffffffffffffffffff\n      and\n      dup2\n      mstore\n      0x20\n      add\n      swap1\n      dup2\n      mstore\n      0x20\n      add\n      0x00\n      keccak256\n      sload\n        /* \"gist-e259420aec8d85ea2219e4154536ad35/contracts/RedelegationReward.sol\":9963:9967  1e18 */\n      0x0de0b6b3a7640000\n        /* \"gist-e259420aec8d85ea2219e4154536ad35/contracts/RedelegationReward.sol\":9921:9943  userRewardPerTokenPaid */\n      0x0b\n        /* \"gist-e259420aec8d85ea2219e4154536ad35/contracts/RedelegationReward.sol\":9921:9952  userRewardPerTokenPaid[account] */\n      0x00\n        /* \"gist-e259420aec8d85ea2219e4154536ad35/contracts/RedelegationReward.sol\":9944:9951  account */\n      dup6\n        /* \"gist-e259420aec8d85ea2219e4154536ad35/contracts/RedelegationReward.sol\":9921:9952  userRewardPerTokenPaid[account] */\n      0xffffffffffffffffffffffffffffffffffffffff\n      and\n      0xffffffffffffffffffffffffffffffffffffffff\n      and\n      dup2\n      mstore\n      0x20\n      add\n      swap1\n      dup2\n      mstore\n      0x20\n      add\n      0x00\n      keccak256\n      sload\n        /* \"gist-e259420aec8d85ea2219e4154536ad35/contracts/RedelegationReward.sol\":9901:9918  _rewardPerToken() */\n      tag_271\n        /* \"gist-e259420aec8d85ea2219e4154536ad35/contracts/RedelegationReward.sol\":9901:9916  _rewardPerToken */\n      tag_144\n        /* \"gist-e259420aec8d85ea2219e4154536ad35/contracts/RedelegationReward.sol\":9901:9918  _rewardPerToken() */\n      jump\t// in\n    tag_271:\n        /* \"gist-e259420aec8d85ea2219e4154536ad35/contracts/RedelegationReward.sol\":9901:9952  _rewardPerToken() - userRewardPerTokenPaid[account] */\n      tag_272\n      swap2\n      swap1\n      tag_241\n      jump\t// in\n    tag_272:\n        /* \"gist-e259420aec8d85ea2219e4154536ad35/contracts/RedelegationReward.sol\":9872:9880  balances */\n      0x0e\n        /* \"gist-e259420aec8d85ea2219e4154536ad35/contracts/RedelegationReward.sol\":9872:9889  balances[account] */\n      0x00\n        /* \"gist-e259420aec8d85ea2219e4154536ad35/contracts/RedelegationReward.sol\":9881:9888  account */\n      dup7\n        /* \"gist-e259420aec8d85ea2219e4154536ad35/contracts/RedelegationReward.sol\":9872:9889  balances[account] */\n      0xffffffffffffffffffffffffffffffffffffffff\n      and\n      0xffffffffffffffffffffffffffffffffffffffff\n      and\n      dup2\n      mstore\n      0x20\n      add\n      swap1\n      dup2\n      mstore\n      0x20\n      add\n      0x00\n      keccak256\n      sload\n        /* \"gist-e259420aec8d85ea2219e4154536ad35/contracts/RedelegationReward.sol\":9872:9953  balances[account] *... */\n      tag_273\n      swap2\n      swap1\n      tag_135\n      jump\t// in\n    tag_273:\n        /* \"gist-e259420aec8d85ea2219e4154536ad35/contracts/RedelegationReward.sol\":9871:9967  (balances[account] *... */\n      tag_274\n      swap2\n      swap1\n      tag_238\n      jump\t// in\n    tag_274:\n        /* \"gist-e259420aec8d85ea2219e4154536ad35/contracts/RedelegationReward.sol\":9871:9992  (balances[account] *... */\n      tag_275\n      swap2\n      swap1\n      tag_204\n      jump\t// in\n    tag_275:\n        /* \"gist-e259420aec8d85ea2219e4154536ad35/contracts/RedelegationReward.sol\":9858:9992  return... */\n      swap1\n      pop\n        /* \"gist-e259420aec8d85ea2219e4154536ad35/contracts/RedelegationReward.sol\":9786:9997  function _earned(address account) internal view returns (uint256) {... */\n      swap2\n      swap1\n      pop\n      jump\t// out\n        /* \"@openzeppelin/contracts/security/ReentrancyGuard.sol\":2336:2623  function _nonReentrantBefore() private {... */\n    tag_138:\n        /* \"@openzeppelin/contracts/security/ReentrancyGuard.sol\":1759:1760  2 */\n      0x02\n        /* \"@openzeppelin/contracts/security/ReentrancyGuard.sol\":2468:2475  _status */\n      sload(0x01)\n        /* \"@openzeppelin/contracts/security/ReentrancyGuard.sol\":2468:2487  _status != _ENTERED */\n      sub\n        /* \"@openzeppelin/contracts/security/ReentrancyGuard.sol\":2460:2523  require(_status != _ENTERED, \"ReentrancyGuard: reentrant call\") */\n      tag_277\n      jumpi\n      mload(0x40)\n      0x08c379a000000000000000000000000000000000000000000000000000000000\n      dup2\n      mstore\n      0x04\n      add\n      tag_278\n      swap1\n      tag_279\n      jump\t// in\n    tag_278:\n      mload(0x40)\n      dup1\n      swap2\n      sub\n      swap1\n      revert\n    tag_277:\n        /* \"@openzeppelin/contracts/security/ReentrancyGuard.sol\":1759:1760  2 */\n      0x02\n        /* \"@openzeppelin/contracts/security/ReentrancyGuard.sol\":2598:2605  _status */\n      0x01\n        /* \"@openzeppelin/contracts/security/ReentrancyGuard.sol\":2598:2616  _status = _ENTERED */\n      dup2\n      swap1\n      sstore\n      pop\n        /* \"@openzeppelin/contracts/security/ReentrancyGuard.sol\":2336:2623  function _nonReentrantBefore() private {... */\n      jump\t// out\n        /* \"@openzeppelin/contracts/security/Pausable.sol\":1767:1873  function _requireNotPaused() internal view virtual {... */\n    tag_141:\n        /* \"@openzeppelin/contracts/security/Pausable.sol\":1837:1845  paused() */\n      tag_281\n        /* \"@openzeppelin/contracts/security/Pausable.sol\":1837:1843  paused */\n      tag_63\n        /* \"@openzeppelin/contracts/security/Pausable.sol\":1837:1845  paused() */\n      jump\t// in\n    tag_281:\n        /* \"@openzeppelin/contracts/security/Pausable.sol\":1836:1845  !paused() */\n      iszero\n        /* \"@openzeppelin/contracts/security/Pausable.sol\":1828:1866  require(!paused(), \"Pausable: paused\") */\n      tag_282\n      jumpi\n      mload(0x40)\n      0x08c379a000000000000000000000000000000000000000000000000000000000\n      dup2\n      mstore\n      0x04\n      add\n      tag_283\n      swap1\n      tag_284\n      jump\t// in\n    tag_283:\n      mload(0x40)\n      dup1\n      swap2\n      sub\n      swap1\n      revert\n    tag_282:\n        /* \"@openzeppelin/contracts/security/Pausable.sol\":1767:1873  function _requireNotPaused() internal view virtual {... */\n      jump\t// out\n        /* \"gist-e259420aec8d85ea2219e4154536ad35/contracts/RedelegationReward.sol\":9513:9782  function _rewardPerToken() internal view returns (uint256) {... */\n    tag_144:\n        /* \"gist-e259420aec8d85ea2219e4154536ad35/contracts/RedelegationReward.sol\":9563:9570  uint256 */\n      0x00\n        /* \"gist-e259420aec8d85ea2219e4154536ad35/contracts/RedelegationReward.sol\":9597:9598  0 */\n      dup1\n        /* \"gist-e259420aec8d85ea2219e4154536ad35/contracts/RedelegationReward.sol\":9582:9593  totalSupply */\n      sload(0x0d)\n        /* \"gist-e259420aec8d85ea2219e4154536ad35/contracts/RedelegationReward.sol\":9582:9598  totalSupply == 0 */\n      sub\n        /* \"gist-e259420aec8d85ea2219e4154536ad35/contracts/RedelegationReward.sol\":9578:9642  if (totalSupply == 0) {... */\n      tag_286\n      jumpi\n        /* \"gist-e259420aec8d85ea2219e4154536ad35/contracts/RedelegationReward.sol\":9615:9635  rewardPerTokenStored */\n      sload(0x0a)\n        /* \"gist-e259420aec8d85ea2219e4154536ad35/contracts/RedelegationReward.sol\":9608:9635  return rewardPerTokenStored */\n      swap1\n      pop\n      jump(tag_285)\n        /* \"gist-e259420aec8d85ea2219e4154536ad35/contracts/RedelegationReward.sol\":9578:9642  if (totalSupply == 0) {... */\n    tag_286:\n        /* \"gist-e259420aec8d85ea2219e4154536ad35/contracts/RedelegationReward.sol\":9766:9777  totalSupply */\n      sload(0x0d)\n        /* \"gist-e259420aec8d85ea2219e4154536ad35/contracts/RedelegationReward.sol\":9752:9756  1e18 */\n      0x0de0b6b3a7640000\n        /* \"gist-e259420aec8d85ea2219e4154536ad35/contracts/RedelegationReward.sol\":9739:9749  rewardRate */\n      sload(0x07)\n        /* \"gist-e259420aec8d85ea2219e4154536ad35/contracts/RedelegationReward.sol\":9721:9735  lastUpdateTime */\n      sload(0x09)\n        /* \"gist-e259420aec8d85ea2219e4154536ad35/contracts/RedelegationReward.sol\":9691:9718  _lastTimeRewardApplicable() */\n      tag_287\n        /* \"gist-e259420aec8d85ea2219e4154536ad35/contracts/RedelegationReward.sol\":9691:9716  _lastTimeRewardApplicable */\n      tag_146\n        /* \"gist-e259420aec8d85ea2219e4154536ad35/contracts/RedelegationReward.sol\":9691:9718  _lastTimeRewardApplicable() */\n      jump\t// in\n    tag_287:\n        /* \"gist-e259420aec8d85ea2219e4154536ad35/contracts/RedelegationReward.sol\":9691:9735  _lastTimeRewardApplicable() - lastUpdateTime */\n      tag_288\n      swap2\n      swap1\n      tag_241\n      jump\t// in\n    tag_288:\n        /* \"gist-e259420aec8d85ea2219e4154536ad35/contracts/RedelegationReward.sol\":9690:9749  (_lastTimeRewardApplicable() - lastUpdateTime) * rewardRate */\n      tag_289\n      swap2\n      swap1\n      tag_135\n      jump\t// in\n    tag_289:\n        /* \"gist-e259420aec8d85ea2219e4154536ad35/contracts/RedelegationReward.sol\":9690:9756  (_lastTimeRewardApplicable() - lastUpdateTime) * rewardRate * 1e18 */\n      tag_290\n      swap2\n      swap1\n      tag_135\n      jump\t// in\n    tag_290:\n        /* \"gist-e259420aec8d85ea2219e4154536ad35/contracts/RedelegationReward.sol\":9689:9777  ((_lastTimeRewardApplicable() - lastUpdateTime) * rewardRate * 1e18) /... */\n      tag_291\n      swap2\n      swap1\n      tag_238\n      jump\t// in\n    tag_291:\n        /* \"gist-e259420aec8d85ea2219e4154536ad35/contracts/RedelegationReward.sol\":9660:9680  rewardPerTokenStored */\n      sload(0x0a)\n        /* \"gist-e259420aec8d85ea2219e4154536ad35/contracts/RedelegationReward.sol\":9660:9777  rewardPerTokenStored +... */\n      tag_292\n      swap2\n      swap1\n      tag_204\n      jump\t// in\n    tag_292:\n        /* \"gist-e259420aec8d85ea2219e4154536ad35/contracts/RedelegationReward.sol\":9647:9777  return... */\n      swap1\n      pop\n        /* \"gist-e259420aec8d85ea2219e4154536ad35/contracts/RedelegationReward.sol\":9513:9782  function _rewardPerToken() internal view returns (uint256) {... */\n    tag_285:\n      swap1\n      jump\t// out\n        /* \"gist-e259420aec8d85ea2219e4154536ad35/contracts/RedelegationReward.sol\":9359:9509  function _lastTimeRewardApplicable() internal view returns (uint256) {... */\n    tag_146:\n        /* \"gist-e259420aec8d85ea2219e4154536ad35/contracts/RedelegationReward.sol\":9419:9426  uint256 */\n      0x00\n        /* \"gist-e259420aec8d85ea2219e4154536ad35/contracts/RedelegationReward.sol\":9459:9471  periodFinish */\n      sload(0x06)\n        /* \"gist-e259420aec8d85ea2219e4154536ad35/contracts/RedelegationReward.sol\":9441:9456  block.timestamp */\n      timestamp\n        /* \"gist-e259420aec8d85ea2219e4154536ad35/contracts/RedelegationReward.sol\":9441:9471  block.timestamp < periodFinish */\n      lt\n        /* \"gist-e259420aec8d85ea2219e4154536ad35/contracts/RedelegationReward.sol\":9441:9504  block.timestamp < periodFinish ? block.timestamp : periodFinish */\n      tag_294\n      jumpi\n        /* \"gist-e259420aec8d85ea2219e4154536ad35/contracts/RedelegationReward.sol\":9492:9504  periodFinish */\n      sload(0x06)\n        /* \"gist-e259420aec8d85ea2219e4154536ad35/contracts/RedelegationReward.sol\":9441:9504  block.timestamp < periodFinish ? block.timestamp : periodFinish */\n      jump(tag_295)\n    tag_294:\n        /* \"gist-e259420aec8d85ea2219e4154536ad35/contracts/RedelegationReward.sol\":9474:9489  block.timestamp */\n      timestamp\n        /* \"gist-e259420aec8d85ea2219e4154536ad35/contracts/RedelegationReward.sol\":9441:9504  block.timestamp < periodFinish ? block.timestamp : periodFinish */\n    tag_295:\n        /* \"gist-e259420aec8d85ea2219e4154536ad35/contracts/RedelegationReward.sol\":9434:9504  return block.timestamp < periodFinish ? block.timestamp : periodFinish */\n      swap1\n      pop\n        /* \"gist-e259420aec8d85ea2219e4154536ad35/contracts/RedelegationReward.sol\":9359:9509  function _lastTimeRewardApplicable() internal view returns (uint256) {... */\n      swap1\n      jump\t// out\n        /* \"@openzeppelin/contracts/token/ERC20/utils/SafeERC20.sol\":941:1116  function safeTransfer(IERC20 token, address to, uint256 value) internal {... */\n    tag_152:\n        /* \"@openzeppelin/contracts/token/ERC20/utils/SafeERC20.sol\":1023:1109  _callOptionalReturn(token, abi.encodeWithSelector(token.transfer.selector, to, value)) */\n      tag_297\n        /* \"@openzeppelin/contracts/token/ERC20/utils/SafeERC20.sol\":1043:1048  token */\n      dup4\n        /* \"@openzeppelin/contracts/token/ERC20/utils/SafeERC20.sol\":1073:1096  token.transfer.selector */\n      shl(0xe0, 0xa9059cbb)\n        /* \"@openzeppelin/contracts/token/ERC20/utils/SafeERC20.sol\":1098:1100  to */\n      dup5\n        /* \"@openzeppelin/contracts/token/ERC20/utils/SafeERC20.sol\":1102:1107  value */\n      dup5\n        /* \"@openzeppelin/contracts/token/ERC20/utils/SafeERC20.sol\":1050:1108  abi.encodeWithSelector(token.transfer.selector, to, value) */\n      add(0x24, mload(0x40))\n      tag_298\n      swap3\n      swap2\n      swap1\n      tag_214\n      jump\t// in\n    tag_298:\n      mload(0x40)\n      0x20\n      dup2\n      dup4\n      sub\n      sub\n      dup2\n      mstore\n      swap1\n      0x40\n      mstore\n      swap1\n      not(0xffffffffffffffffffffffffffffffffffffffffffffffffffffffff)\n      and\n      0x20\n      dup3\n      add\n      dup1\n      mload\n      0xffffffffffffffffffffffffffffffffffffffffffffffffffffffff\n      dup4\n      dup2\n      dup4\n      and\n      or\n      dup4\n      mstore\n      pop\n      pop\n      pop\n      pop\n        /* \"@openzeppelin/contracts/token/ERC20/utils/SafeERC20.sol\":1023:1042  _callOptionalReturn */\n      tag_299\n        /* \"@openzeppelin/contracts/token/ERC20/utils/SafeERC20.sol\":1023:1109  _callOptionalReturn(token, abi.encodeWithSelector(token.transfer.selector, to, value)) */\n      jump\t// in\n    tag_297:\n        /* \"@openzeppelin/contracts/token/ERC20/utils/SafeERC20.sol\":941:1116  function safeTransfer(IERC20 token, address to, uint256 value) internal {... */\n      pop\n      pop\n      pop\n      jump\t// out\n        /* \"@openzeppelin/contracts/security/ReentrancyGuard.sol\":2629:2838  function _nonReentrantAfter() private {... */\n    tag_155:\n        /* \"@openzeppelin/contracts/security/ReentrancyGuard.sol\":1716:1717  1 */\n      0x01\n        /* \"@openzeppelin/contracts/security/ReentrancyGuard.sol\":2809:2816  _status */\n      dup1\n        /* \"@openzeppelin/contracts/security/ReentrancyGuard.sol\":2809:2831  _status = _NOT_ENTERED */\n      dup2\n      swap1\n      sstore\n      pop\n        /* \"@openzeppelin/contracts/security/ReentrancyGuard.sol\":2629:2838  function _nonReentrantAfter() private {... */\n      jump\t// out\n        /* \"@openzeppelin/contracts/access/Ownable.sol\":1359:1489  function _checkOwner() internal view virtual {... */\n    tag_182:\n        /* \"@openzeppelin/contracts/access/Ownable.sol\":1433:1445  _msgSender() */\n      tag_302\n        /* \"@openzeppelin/contracts/access/Ownable.sol\":1433:1443  _msgSender */\n      tag_303\n        /* \"@openzeppelin/contracts/access/Ownable.sol\":1433:1445  _msgSender() */\n      jump\t// in\n    tag_302:\n        /* \"@openzeppelin/contracts/access/Ownable.sol\":1422:1445  owner() == _msgSender() */\n      0xffffffffffffffffffffffffffffffffffffffff\n      and\n        /* \"@openzeppelin/contracts/access/Ownable.sol\":1422:1429  owner() */\n      tag_304\n        /* \"@openzeppelin/contracts/access/Ownable.sol\":1422:1427  owner */\n      tag_100\n        /* \"@openzeppelin/contracts/access/Ownable.sol\":1422:1429  owner() */\n      jump\t// in\n    tag_304:\n        /* \"@openzeppelin/contracts/access/Ownable.sol\":1422:1445  owner() == _msgSender() */\n      0xffffffffffffffffffffffffffffffffffffffff\n      and\n      eq\n        /* \"@openzeppelin/contracts/access/Ownable.sol\":1414:1482  require(owner() == _msgSender(), \"Ownable: caller is not the owner\") */\n      tag_305\n      jumpi\n      mload(0x40)\n      0x08c379a000000000000000000000000000000000000000000000000000000000\n      dup2\n      mstore\n      0x04\n      add\n      tag_306\n      swap1\n      tag_307\n      jump\t// in\n    tag_306:\n      mload(0x40)\n      dup1\n      swap2\n      sub\n      swap1\n      revert\n    tag_305:\n        /* \"@openzeppelin/contracts/access/Ownable.sol\":1359:1489  function _checkOwner() internal view virtual {... */\n      jump\t// out\n        /* \"@openzeppelin/contracts/access/Ownable.sol\":2426:2613  function _transferOwnership(address newOwner) internal virtual {... */\n    tag_185:\n        /* \"@openzeppelin/contracts/access/Ownable.sol\":2499:2515  address oldOwner */\n      0x00\n        /* \"@openzeppelin/contracts/access/Ownable.sol\":2518:2524  _owner */\n      dup1\n      0x00\n      swap1\n      sload\n      swap1\n      0x0100\n      exp\n      swap1\n      div\n      0xffffffffffffffffffffffffffffffffffffffff\n      and\n        /* \"@openzeppelin/contracts/access/Ownable.sol\":2499:2524  address oldOwner = _owner */\n      swap1\n      pop\n        /* \"@openzeppelin/contracts/access/Ownable.sol\":2543:2551  newOwner */\n      dup2\n        /* \"@openzeppelin/contracts/access/Ownable.sol\":2534:2540  _owner */\n      0x00\n      dup1\n        /* \"@openzeppelin/contracts/access/Ownable.sol\":2534:2551  _owner = newOwner */\n      0x0100\n      exp\n      dup2\n      sload\n      dup2\n      0xffffffffffffffffffffffffffffffffffffffff\n      mul\n      not\n      and\n      swap1\n      dup4\n      0xffffffffffffffffffffffffffffffffffffffff\n      and\n      mul\n      or\n      swap1\n      sstore\n      pop\n        /* \"@openzeppelin/contracts/access/Ownable.sol\":2597:2605  newOwner */\n      dup2\n        /* \"@openzeppelin/contracts/access/Ownable.sol\":2566:2606  OwnershipTransferred(oldOwner, newOwner) */\n      0xffffffffffffffffffffffffffffffffffffffff\n      and\n        /* \"@openzeppelin/contracts/access/Ownable.sol\":2587:2595  oldOwner */\n      dup2\n        /* \"@openzeppelin/contracts/access/Ownable.sol\":2566:2606  OwnershipTransferred(oldOwner, newOwner) */\n      0xffffffffffffffffffffffffffffffffffffffff\n      and\n      0x8be0079c531659141344cd1fd0a4f28419497f9722a3daafe3b4186f6b6457e0\n      mload(0x40)\n      mload(0x40)\n      dup1\n      swap2\n      sub\n      swap1\n      log3\n        /* \"@openzeppelin/contracts/access/Ownable.sol\":2489:2613  {... */\n      pop\n        /* \"@openzeppelin/contracts/access/Ownable.sol\":2426:2613  function _transferOwnership(address newOwner) internal virtual {... */\n      pop\n      jump\t// out\n        /* \"@openzeppelin/contracts/token/ERC20/utils/SafeERC20.sol\":1355:1558  function safeTransferFrom(IERC20 token, address from, address to, uint256 value) internal {... */\n    tag_246:\n        /* \"@openzeppelin/contracts/token/ERC20/utils/SafeERC20.sol\":1455:1551  _callOptionalReturn(token, abi.encodeWithSelector(token.transferFrom.selector, from, to, value)) */\n      tag_310\n        /* \"@openzeppelin/contracts/token/ERC20/utils/SafeERC20.sol\":1475:1480  token */\n      dup5\n        /* \"@openzeppelin/contracts/token/ERC20/utils/SafeERC20.sol\":1505:1532  token.transferFrom.selector */\n      shl(0xe0, 0x23b872dd)\n        /* \"@openzeppelin/contracts/token/ERC20/utils/SafeERC20.sol\":1534:1538  from */\n      dup6\n        /* \"@openzeppelin/contracts/token/ERC20/utils/SafeERC20.sol\":1540:1542  to */\n      dup6\n        /* \"@openzeppelin/contracts/token/ERC20/utils/SafeERC20.sol\":1544:1549  value */\n      dup6\n        /* \"@openzeppelin/contracts/token/ERC20/utils/SafeERC20.sol\":1482:1550  abi.encodeWithSelector(token.transferFrom.selector, from, to, value) */\n      add(0x24, mload(0x40))\n      tag_311\n      swap4\n      swap3\n      swap2\n      swap1\n      tag_312\n      jump\t// in\n    tag_311:\n      mload(0x40)\n      0x20\n      dup2\n      dup4\n      sub\n      sub\n      dup2\n      mstore\n      swap1\n      0x40\n      mstore\n      swap1\n      not(0xffffffffffffffffffffffffffffffffffffffffffffffffffffffff)\n      and\n      0x20\n      dup3\n      add\n      dup1\n      mload\n      0xffffffffffffffffffffffffffffffffffffffffffffffffffffffff\n      dup4\n      dup2\n      dup4\n      and\n      or\n      dup4\n      mstore\n      pop\n      pop\n      pop\n      pop\n        /* \"@openzeppelin/contracts/token/ERC20/utils/SafeERC20.sol\":1455:1474  _callOptionalReturn */\n      tag_299\n        /* \"@openzeppelin/contracts/token/ERC20/utils/SafeERC20.sol\":1455:1551  _callOptionalReturn(token, abi.encodeWithSelector(token.transferFrom.selector, from, to, value)) */\n      jump\t// in\n    tag_310:\n        /* \"@openzeppelin/contracts/token/ERC20/utils/SafeERC20.sol\":1355:1558  function safeTransferFrom(IERC20 token, address from, address to, uint256 value) internal {... */\n      pop\n      pop\n      pop\n      pop\n      jump\t// out\n        /* \"@openzeppelin/contracts/token/ERC20/utils/SafeERC20.sol\":5173:5815  function _callOptionalReturn(IERC20 token, bytes memory data) private {... */\n    tag_299:\n        /* \"@openzeppelin/contracts/token/ERC20/utils/SafeERC20.sol\":5592:5615  bytes memory returndata */\n      0x00\n        /* \"@openzeppelin/contracts/token/ERC20/utils/SafeERC20.sol\":5618:5687  address(token).functionCall(data, \"SafeERC20: low-level call failed\") */\n      tag_314\n        /* \"@openzeppelin/contracts/token/ERC20/utils/SafeERC20.sol\":5646:5650  data */\n      dup3\n        /* \"@openzeppelin/contracts/token/ERC20/utils/SafeERC20.sol\":5618:5687  address(token).functionCall(data, \"SafeERC20: low-level call failed\") */\n      mload(0x40)\n      dup1\n      0x40\n      add\n      0x40\n      mstore\n      dup1\n      0x20\n      dup2\n      mstore\n      0x20\n      add\n      0x5361666545524332303a206c6f772d6c6576656c2063616c6c206661696c6564\n      dup2\n      mstore\n      pop\n        /* \"@openzeppelin/contracts/token/ERC20/utils/SafeERC20.sol\":5626:5631  token */\n      dup6\n        /* \"@openzeppelin/contracts/token/ERC20/utils/SafeERC20.sol\":5618:5645  address(token).functionCall */\n      0xffffffffffffffffffffffffffffffffffffffff\n      and\n      tag_315\n      swap1\n        /* \"@openzeppelin/contracts/token/ERC20/utils/SafeERC20.sol\":5618:5687  address(token).functionCall(data, \"SafeERC20: low-level call failed\") */\n      swap3\n      swap2\n      swap1\n      0xffffffff\n      and\n      jump\t// in\n    tag_314:\n        /* \"@openzeppelin/contracts/token/ERC20/utils/SafeERC20.sol\":5592:5687  bytes memory returndata = address(token).functionCall(data, \"SafeERC20: low-level call failed\") */\n      swap1\n      pop\n        /* \"@openzeppelin/contracts/token/ERC20/utils/SafeERC20.sol\":5726:5727  0 */\n      0x00\n        /* \"@openzeppelin/contracts/token/ERC20/utils/SafeERC20.sol\":5705:5715  returndata */\n      dup2\n        /* \"@openzeppelin/contracts/token/ERC20/utils/SafeERC20.sol\":5705:5722  returndata.length */\n      mload\n        /* \"@openzeppelin/contracts/token/ERC20/utils/SafeERC20.sol\":5705:5727  returndata.length == 0 */\n      eq\n        /* \"@openzeppelin/contracts/token/ERC20/utils/SafeERC20.sol\":5705:5761  returndata.length == 0 || abi.decode(returndata, (bool)) */\n      dup1\n      tag_316\n      jumpi\n      pop\n        /* \"@openzeppelin/contracts/token/ERC20/utils/SafeERC20.sol\":5742:5752  returndata */\n      dup1\n        /* \"@openzeppelin/contracts/token/ERC20/utils/SafeERC20.sol\":5731:5761  abi.decode(returndata, (bool)) */\n      dup1\n      0x20\n      add\n      swap1\n      mload\n      dup2\n      add\n      swap1\n      tag_317\n      swap2\n      swap1\n      tag_222\n      jump\t// in\n    tag_317:\n        /* \"@openzeppelin/contracts/token/ERC20/utils/SafeERC20.sol\":5705:5761  returndata.length == 0 || abi.decode(returndata, (bool)) */\n    tag_316:\n        /* \"@openzeppelin/contracts/token/ERC20/utils/SafeERC20.sol\":5697:5808  require(returndata.length == 0 || abi.decode(returndata, (bool)), \"SafeERC20: ERC20 operation did not succeed\") */\n      tag_318\n      jumpi\n      mload(0x40)\n      0x08c379a000000000000000000000000000000000000000000000000000000000\n      dup2\n      mstore\n      0x04\n      add\n      tag_319\n      swap1\n      tag_320\n      jump\t// in\n    tag_319:\n      mload(0x40)\n      dup1\n      swap2\n      sub\n      swap1\n      revert\n    tag_318:\n        /* \"@openzeppelin/contracts/token/ERC20/utils/SafeERC20.sol\":5243:5815  {... */\n      pop\n        /* \"@openzeppelin/contracts/token/ERC20/utils/SafeERC20.sol\":5173:5815  function _callOptionalReturn(IERC20 token, bytes memory data) private {... */\n      pop\n      pop\n      jump\t// out\n        /* \"@openzeppelin/contracts/utils/Context.sol\":640:736  function _msgSender() internal view virtual returns (address) {... */\n    tag_303:\n        /* \"@openzeppelin/contracts/utils/Context.sol\":693:700  address */\n      0x00\n        /* \"@openzeppelin/contracts/utils/Context.sol\":719:729  msg.sender */\n      caller\n        /* \"@openzeppelin/contracts/utils/Context.sol\":712:729  return msg.sender */\n      swap1\n      pop\n        /* \"@openzeppelin/contracts/utils/Context.sol\":640:736  function _msgSender() internal view virtual returns (address) {... */\n      swap1\n      jump\t// out\n        /* \"@openzeppelin/contracts/utils/Address.sol\":4108:4331  function functionCall(... */\n    tag_315:\n        /* \"@openzeppelin/contracts/utils/Address.sol\":4241:4253  bytes memory */\n      0x60\n        /* \"@openzeppelin/contracts/utils/Address.sol\":4272:4324  functionCallWithValue(target, data, 0, errorMessage) */\n      tag_323\n        /* \"@openzeppelin/contracts/utils/Address.sol\":4294:4300  target */\n      dup5\n        /* \"@openzeppelin/contracts/utils/Address.sol\":4302:4306  data */\n      dup5\n        /* \"@openzeppelin/contracts/utils/Address.sol\":4308:4309  0 */\n      0x00\n        /* \"@openzeppelin/contracts/utils/Address.sol\":4311:4323  errorMessage */\n      dup6\n        /* \"@openzeppelin/contracts/utils/Address.sol\":4272:4293  functionCallWithValue */\n      tag_324\n        /* \"@openzeppelin/contracts/utils/Address.sol\":4272:4324  functionCallWithValue(target, data, 0, errorMessage) */\n      jump\t// in\n    tag_323:\n        /* \"@openzeppelin/contracts/utils/Address.sol\":4265:4324  return functionCallWithValue(target, data, 0, errorMessage) */\n      swap1\n      pop\n        /* \"@openzeppelin/contracts/utils/Address.sol\":4108:4331  function functionCall(... */\n      swap4\n      swap3\n      pop\n      pop\n      pop\n      jump\t// out\n        /* \"@openzeppelin/contracts/utils/Address.sol\":5165:5611  function functionCallWithValue(... */\n    tag_324:\n        /* \"@openzeppelin/contracts/utils/Address.sol\":5330:5342  bytes memory */\n      0x60\n        /* \"@openzeppelin/contracts/utils/Address.sol\":5387:5392  value */\n      dup3\n        /* \"@openzeppelin/contracts/utils/Address.sol\":5362:5383  address(this).balance */\n      selfbalance\n        /* \"@openzeppelin/contracts/utils/Address.sol\":5362:5392  address(this).balance >= value */\n      lt\n      iszero\n        /* \"@openzeppelin/contracts/utils/Address.sol\":5354:5435  require(address(this).balance >= value, \"Address: insufficient balance for call\") */\n      tag_326\n      jumpi\n      mload(0x40)\n      0x08c379a000000000000000000000000000000000000000000000000000000000\n      dup2\n      mstore\n      0x04\n      add\n      tag_327\n      swap1\n      tag_328\n      jump\t// in\n    tag_327:\n      mload(0x40)\n      dup1\n      swap2\n      sub\n      swap1\n      revert\n    tag_326:\n        /* \"@openzeppelin/contracts/utils/Address.sol\":5446:5458  bool success */\n      0x00\n        /* \"@openzeppelin/contracts/utils/Address.sol\":5460:5483  bytes memory returndata */\n      dup1\n        /* \"@openzeppelin/contracts/utils/Address.sol\":5487:5493  target */\n      dup7\n        /* \"@openzeppelin/contracts/utils/Address.sol\":5487:5498  target.call */\n      0xffffffffffffffffffffffffffffffffffffffff\n      and\n        /* \"@openzeppelin/contracts/utils/Address.sol\":5506:5511  value */\n      dup6\n        /* \"@openzeppelin/contracts/utils/Address.sol\":5513:5517  data */\n      dup8\n        /* \"@openzeppelin/contracts/utils/Address.sol\":5487:5518  target.call{value: value}(data) */\n      mload(0x40)\n      tag_329\n      swap2\n      swap1\n      tag_330\n      jump\t// in\n    tag_329:\n      0x00\n      mload(0x40)\n      dup1\n      dup4\n      sub\n      dup2\n      dup6\n      dup8\n      gas\n      call\n      swap3\n      pop\n      pop\n      pop\n      returndatasize\n      dup1\n      0x00\n      dup2\n      eq\n      tag_333\n      jumpi\n      mload(0x40)\n      swap2\n      pop\n      and(add(returndatasize, 0x3f), not(0x1f))\n      dup3\n      add\n      0x40\n      mstore\n      returndatasize\n      dup3\n      mstore\n      returndatasize\n      0x00\n      0x20\n      dup5\n      add\n      returndatacopy\n      jump(tag_332)\n    tag_333:\n      0x60\n      swap2\n      pop\n    tag_332:\n      pop\n        /* \"@openzeppelin/contracts/utils/Address.sol\":5445:5518  (bool success, bytes memory returndata) = target.call{value: value}(data) */\n      swap2\n      pop\n      swap2\n      pop\n        /* \"@openzeppelin/contracts/utils/Address.sol\":5535:5604  verifyCallResultFromTarget(target, success, returndata, errorMessage) */\n      tag_334\n        /* \"@openzeppelin/contracts/utils/Address.sol\":5562:5568  target */\n      dup8\n        /* \"@openzeppelin/contracts/utils/Address.sol\":5570:5577  success */\n      dup4\n        /* \"@openzeppelin/contracts/utils/Address.sol\":5579:5589  returndata */\n      dup4\n        /* \"@openzeppelin/contracts/utils/Address.sol\":5591:5603  errorMessage */\n      dup8\n        /* \"@openzeppelin/contracts/utils/Address.sol\":5535:5561  verifyCallResultFromTarget */\n      tag_335\n        /* \"@openzeppelin/contracts/utils/Address.sol\":5535:5604  verifyCallResultFromTarget(target, success, returndata, errorMessage) */\n      jump\t// in\n    tag_334:\n        /* \"@openzeppelin/contracts/utils/Address.sol\":5528:5604  return verifyCallResultFromTarget(target, success, returndata, errorMessage) */\n      swap3\n      pop\n      pop\n      pop\n        /* \"@openzeppelin/contracts/utils/Address.sol\":5165:5611  function functionCallWithValue(... */\n      swap5\n      swap4\n      pop\n      pop\n      pop\n      pop\n      jump\t// out\n        /* \"@openzeppelin/contracts/utils/Address.sol\":7671:8299  function verifyCallResultFromTarget(... */\n    tag_335:\n        /* \"@openzeppelin/contracts/utils/Address.sol\":7851:7863  bytes memory */\n      0x60\n        /* \"@openzeppelin/contracts/utils/Address.sol\":7879:7886  success */\n      dup4\n        /* \"@openzeppelin/contracts/utils/Address.sol\":7875:8293  if (success) {... */\n      iszero\n      tag_337\n      jumpi\n        /* \"@openzeppelin/contracts/utils/Address.sol\":7927:7928  0 */\n      0x00\n        /* \"@openzeppelin/contracts/utils/Address.sol\":7906:7916  returndata */\n      dup4\n        /* \"@openzeppelin/contracts/utils/Address.sol\":7906:7923  returndata.length */\n      mload\n        /* \"@openzeppelin/contracts/utils/Address.sol\":7906:7928  returndata.length == 0 */\n      sub\n        /* \"@openzeppelin/contracts/utils/Address.sol\":7902:8188  if (returndata.length == 0) {... */\n      tag_338\n      jumpi\n        /* \"@openzeppelin/contracts/utils/Address.sol\":8121:8139  isContract(target) */\n      tag_339\n        /* \"@openzeppelin/contracts/utils/Address.sol\":8132:8138  target */\n      dup6\n        /* \"@openzeppelin/contracts/utils/Address.sol\":8121:8131  isContract */\n      tag_340\n        /* \"@openzeppelin/contracts/utils/Address.sol\":8121:8139  isContract(target) */\n      jump\t// in\n    tag_339:\n        /* \"@openzeppelin/contracts/utils/Address.sol\":8113:8173  require(isContract(target), \"Address: call to non-contract\") */\n      tag_341\n      jumpi\n      mload(0x40)\n      0x08c379a000000000000000000000000000000000000000000000000000000000\n      dup2\n      mstore\n      0x04\n      add\n      tag_342\n      swap1\n      tag_343\n      jump\t// in\n    tag_342:\n      mload(0x40)\n      dup1\n      swap2\n      sub\n      swap1\n      revert\n    tag_341:\n        /* \"@openzeppelin/contracts/utils/Address.sol\":7902:8188  if (returndata.length == 0) {... */\n    tag_338:\n        /* \"@openzeppelin/contracts/utils/Address.sol\":8208:8218  returndata */\n      dup3\n        /* \"@openzeppelin/contracts/utils/Address.sol\":8201:8218  return returndata */\n      swap1\n      pop\n      jump(tag_336)\n        /* \"@openzeppelin/contracts/utils/Address.sol\":7875:8293  if (success) {... */\n    tag_337:\n        /* \"@openzeppelin/contracts/utils/Address.sol\":8249:8282  _revert(returndata, errorMessage) */\n      tag_345\n        /* \"@openzeppelin/contracts/utils/Address.sol\":8257:8267  returndata */\n      dup4\n        /* \"@openzeppelin/contracts/utils/Address.sol\":8269:8281  errorMessage */\n      dup4\n        /* \"@openzeppelin/contracts/utils/Address.sol\":8249:8256  _revert */\n      tag_346\n        /* \"@openzeppelin/contracts/utils/Address.sol\":8249:8282  _revert(returndata, errorMessage) */\n      jump\t// in\n    tag_345:\n        /* \"@openzeppelin/contracts/utils/Address.sol\":7671:8299  function verifyCallResultFromTarget(... */\n    tag_336:\n      swap5\n      swap4\n      pop\n      pop\n      pop\n      pop\n      jump\t// out\n        /* \"@openzeppelin/contracts/utils/Address.sol\":1412:1732  function isContract(address account) internal view returns (bool) {... */\n    tag_340:\n        /* \"@openzeppelin/contracts/utils/Address.sol\":1472:1476  bool */\n      0x00\n        /* \"@openzeppelin/contracts/utils/Address.sol\":1724:1725  0 */\n      dup1\n        /* \"@openzeppelin/contracts/utils/Address.sol\":1702:1709  account */\n      dup3\n        /* \"@openzeppelin/contracts/utils/Address.sol\":1702:1721  account.code.length */\n      0xffffffffffffffffffffffffffffffffffffffff\n      and\n      extcodesize\n        /* \"@openzeppelin/contracts/utils/Address.sol\":1702:1725  account.code.length > 0 */\n      gt\n        /* \"@openzeppelin/contracts/utils/Address.sol\":1695:1725  return account.code.length > 0 */\n      swap1\n      pop\n        /* \"@openzeppelin/contracts/utils/Address.sol\":1412:1732  function isContract(address account) internal view returns (bool) {... */\n      swap2\n      swap1\n      pop\n      jump\t// out\n        /* \"@openzeppelin/contracts/utils/Address.sol\":8821:9361  function _revert(bytes memory returndata, string memory errorMessage) private pure {... */\n    tag_346:\n        /* \"@openzeppelin/contracts/utils/Address.sol\":9000:9001  0 */\n      0x00\n        /* \"@openzeppelin/contracts/utils/Address.sol\":8980:8990  returndata */\n      dup3\n        /* \"@openzeppelin/contracts/utils/Address.sol\":8980:8997  returndata.length */\n      mload\n        /* \"@openzeppelin/contracts/utils/Address.sol\":8980:9001  returndata.length > 0 */\n      gt\n        /* \"@openzeppelin/contracts/utils/Address.sol\":8976:9355  if (returndata.length > 0) {... */\n      iszero\n      tag_349\n      jumpi\n        /* \"@openzeppelin/contracts/utils/Address.sol\":9208:9218  returndata */\n      dup2\n        /* \"@openzeppelin/contracts/utils/Address.sol\":9202:9219  mload(returndata) */\n      mload\n        /* \"@openzeppelin/contracts/utils/Address.sol\":9264:9279  returndata_size */\n      dup1\n        /* \"@openzeppelin/contracts/utils/Address.sol\":9251:9261  returndata */\n      dup4\n        /* \"@openzeppelin/contracts/utils/Address.sol\":9247:9249  32 */\n      0x20\n        /* \"@openzeppelin/contracts/utils/Address.sol\":9243:9262  add(32, returndata) */\n      add\n        /* \"@openzeppelin/contracts/utils/Address.sol\":9236:9280  revert(add(32, returndata), returndata_size) */\n      revert\n        /* \"@openzeppelin/contracts/utils/Address.sol\":8976:9355  if (returndata.length > 0) {... */\n    tag_349:\n        /* \"@openzeppelin/contracts/utils/Address.sol\":9331:9343  errorMessage */\n      dup1\n        /* \"@openzeppelin/contracts/utils/Address.sol\":9324:9344  revert(errorMessage) */\n      mload(0x40)\n      0x08c379a000000000000000000000000000000000000000000000000000000000\n      dup2\n      mstore\n      0x04\n      add\n      tag_351\n      swap2\n      swap1\n      tag_352\n      jump\t// in\n    tag_351:\n      mload(0x40)\n      dup1\n      swap2\n      sub\n      swap1\n      revert\n        /* \"#utility.yul\":7:82   */\n    tag_353:\n        /* \"#utility.yul\":40:46   */\n      0x00\n        /* \"#utility.yul\":73:75   */\n      0x40\n        /* \"#utility.yul\":67:76   */\n      mload\n        /* \"#utility.yul\":57:76   */\n      swap1\n      pop\n        /* \"#utility.yul\":7:82   */\n      swap1\n      jump\t// out\n        /* \"#utility.yul\":88:205   */\n    tag_354:\n        /* \"#utility.yul\":197:198   */\n      0x00\n        /* \"#utility.yul\":194:195   */\n      dup1\n        /* \"#utility.yul\":187:199   */\n      revert\n        /* \"#utility.yul\":211:328   */\n    tag_355:\n        /* \"#utility.yul\":320:321   */\n      0x00\n        /* \"#utility.yul\":317:318   */\n      dup1\n        /* \"#utility.yul\":310:322   */\n      revert\n        /* \"#utility.yul\":334:460   */\n    tag_356:\n        /* \"#utility.yul\":371:378   */\n      0x00\n        /* \"#utility.yul\":411:453   */\n      0xffffffffffffffffffffffffffffffffffffffff\n        /* \"#utility.yul\":404:409   */\n      dup3\n        /* \"#utility.yul\":400:454   */\n      and\n        /* \"#utility.yul\":389:454   */\n      swap1\n      pop\n        /* \"#utility.yul\":334:460   */\n      swap2\n      swap1\n      pop\n      jump\t// out\n        /* \"#utility.yul\":466:562   */\n    tag_357:\n        /* \"#utility.yul\":503:510   */\n      0x00\n        /* \"#utility.yul\":532:556   */\n      tag_440\n        /* \"#utility.yul\":550:555   */\n      dup3\n        /* \"#utility.yul\":532:556   */\n      tag_356\n      jump\t// in\n    tag_440:\n        /* \"#utility.yul\":521:556   */\n      swap1\n      pop\n        /* \"#utility.yul\":466:562   */\n      swap2\n      swap1\n      pop\n      jump\t// out\n        /* \"#utility.yul\":568:690   */\n    tag_358:\n        /* \"#utility.yul\":641:665   */\n      tag_442\n        /* \"#utility.yul\":659:664   */\n      dup2\n        /* \"#utility.yul\":641:665   */\n      tag_357\n      jump\t// in\n    tag_442:\n        /* \"#utility.yul\":634:639   */\n      dup2\n        /* \"#utility.yul\":631:666   */\n      eq\n        /* \"#utility.yul\":621:684   */\n      tag_443\n      jumpi\n        /* \"#utility.yul\":680:681   */\n      0x00\n        /* \"#utility.yul\":677:678   */\n      dup1\n        /* \"#utility.yul\":670:682   */\n      revert\n        /* \"#utility.yul\":621:684   */\n    tag_443:\n        /* \"#utility.yul\":568:690   */\n      pop\n      jump\t// out\n        /* \"#utility.yul\":696:835   */\n    tag_359:\n        /* \"#utility.yul\":742:747   */\n      0x00\n        /* \"#utility.yul\":780:786   */\n      dup2\n        /* \"#utility.yul\":767:787   */\n      calldataload\n        /* \"#utility.yul\":758:787   */\n      swap1\n      pop\n        /* \"#utility.yul\":796:829   */\n      tag_445\n        /* \"#utility.yul\":823:828   */\n      dup2\n        /* \"#utility.yul\":796:829   */\n      tag_358\n      jump\t// in\n    tag_445:\n        /* \"#utility.yul\":696:835   */\n      swap3\n      swap2\n      pop\n      pop\n      jump\t// out\n        /* \"#utility.yul\":841:1170   */\n    tag_38:\n        /* \"#utility.yul\":900:906   */\n      0x00\n        /* \"#utility.yul\":949:951   */\n      0x20\n        /* \"#utility.yul\":937:946   */\n      dup3\n        /* \"#utility.yul\":928:935   */\n      dup5\n        /* \"#utility.yul\":924:947   */\n      sub\n        /* \"#utility.yul\":920:952   */\n      slt\n        /* \"#utility.yul\":917:1036   */\n      iszero\n      tag_447\n      jumpi\n        /* \"#utility.yul\":955:1034   */\n      tag_448\n      tag_354\n      jump\t// in\n    tag_448:\n        /* \"#utility.yul\":917:1036   */\n    tag_447:\n        /* \"#utility.yul\":1075:1076   */\n      0x00\n        /* \"#utility.yul\":1100:1153   */\n      tag_449\n        /* \"#utility.yul\":1145:1152   */\n      dup5\n        /* \"#utility.yul\":1136:1142   */\n      dup3\n        /* \"#utility.yul\":1125:1134   */\n      dup6\n        /* \"#utility.yul\":1121:1143   */\n      add\n        /* \"#utility.yul\":1100:1153   */\n      tag_359\n      jump\t// in\n    tag_449:\n        /* \"#utility.yul\":1090:1153   */\n      swap2\n      pop\n        /* \"#utility.yul\":1046:1163   */\n      pop\n        /* \"#utility.yul\":841:1170   */\n      swap3\n      swap2\n      pop\n      pop\n      jump\t// out\n        /* \"#utility.yul\":1176:1253   */\n    tag_360:\n        /* \"#utility.yul\":1213:1220   */\n      0x00\n        /* \"#utility.yul\":1242:1247   */\n      dup2\n        /* \"#utility.yul\":1231:1247   */\n      swap1\n      pop\n        /* \"#utility.yul\":1176:1253   */\n      swap2\n      swap1\n      pop\n      jump\t// out\n        /* \"#utility.yul\":1259:1377   */\n    tag_361:\n        /* \"#utility.yul\":1346:1370   */\n      tag_452\n        /* \"#utility.yul\":1364:1369   */\n      dup2\n        /* \"#utility.yul\":1346:1370   */\n      tag_360\n      jump\t// in\n    tag_452:\n        /* \"#utility.yul\":1341:1344   */\n      dup3\n        /* \"#utility.yul\":1334:1371   */\n      mstore\n        /* \"#utility.yul\":1259:1377   */\n      pop\n      pop\n      jump\t// out\n        /* \"#utility.yul\":1383:1605   */\n    tag_41:\n        /* \"#utility.yul\":1476:1480   */\n      0x00\n        /* \"#utility.yul\":1514:1516   */\n      0x20\n        /* \"#utility.yul\":1503:1512   */\n      dup3\n        /* \"#utility.yul\":1499:1517   */\n      add\n        /* \"#utility.yul\":1491:1517   */\n      swap1\n      pop\n        /* \"#utility.yul\":1527:1598   */\n      tag_454\n        /* \"#utility.yul\":1595:1596   */\n      0x00\n        /* \"#utility.yul\":1584:1593   */\n      dup4\n        /* \"#utility.yul\":1580:1597   */\n      add\n        /* \"#utility.yul\":1571:1577   */\n      dup5\n        /* \"#utility.yul\":1527:1598   */\n      tag_361\n      jump\t// in\n    tag_454:\n        /* \"#utility.yul\":1383:1605   */\n      swap3\n      swap2\n      pop\n      pop\n      jump\t// out\n        /* \"#utility.yul\":1611:1701   */\n    tag_362:\n        /* \"#utility.yul\":1645:1652   */\n      0x00\n        /* \"#utility.yul\":1688:1693   */\n      dup2\n        /* \"#utility.yul\":1681:1694   */\n      iszero\n        /* \"#utility.yul\":1674:1695   */\n      iszero\n        /* \"#utility.yul\":1663:1695   */\n      swap1\n      pop\n        /* \"#utility.yul\":1611:1701   */\n      swap2\n      swap1\n      pop\n      jump\t// out\n        /* \"#utility.yul\":1707:1816   */\n    tag_363:\n        /* \"#utility.yul\":1788:1809   */\n      tag_457\n        /* \"#utility.yul\":1803:1808   */\n      dup2\n        /* \"#utility.yul\":1788:1809   */\n      tag_362\n      jump\t// in\n    tag_457:\n        /* \"#utility.yul\":1783:1786   */\n      dup3\n        /* \"#utility.yul\":1776:1810   */\n      mstore\n        /* \"#utility.yul\":1707:1816   */\n      pop\n      pop\n      jump\t// out\n        /* \"#utility.yul\":1822:2032   */\n    tag_58:\n        /* \"#utility.yul\":1909:1913   */\n      0x00\n        /* \"#utility.yul\":1947:1949   */\n      0x20\n        /* \"#utility.yul\":1936:1945   */\n      dup3\n        /* \"#utility.yul\":1932:1950   */\n      add\n        /* \"#utility.yul\":1924:1950   */\n      swap1\n      pop\n        /* \"#utility.yul\":1960:2025   */\n      tag_459\n        /* \"#utility.yul\":2022:2023   */\n      0x00\n        /* \"#utility.yul\":2011:2020   */\n      dup4\n        /* \"#utility.yul\":2007:2024   */\n      add\n        /* \"#utility.yul\":1998:2004   */\n      dup5\n        /* \"#utility.yul\":1960:2025   */\n      tag_363\n      jump\t// in\n    tag_459:\n        /* \"#utility.yul\":1822:2032   */\n      swap3\n      swap2\n      pop\n      pop\n      jump\t// out\n        /* \"#utility.yul\":2038:2155   */\n    tag_364:\n        /* \"#utility.yul\":2147:2148   */\n      0x00\n        /* \"#utility.yul\":2144:2145   */\n      dup1\n        /* \"#utility.yul\":2137:2149   */\n      revert\n        /* \"#utility.yul\":2161:2263   */\n    tag_365:\n        /* \"#utility.yul\":2202:2208   */\n      0x00\n        /* \"#utility.yul\":2253:2255   */\n      0x1f\n        /* \"#utility.yul\":2249:2256   */\n      not\n        /* \"#utility.yul\":2244:2246   */\n      0x1f\n        /* \"#utility.yul\":2237:2242   */\n      dup4\n        /* \"#utility.yul\":2233:2247   */\n      add\n        /* \"#utility.yul\":2229:2257   */\n      and\n        /* \"#utility.yul\":2219:2257   */\n      swap1\n      pop\n        /* \"#utility.yul\":2161:2263   */\n      swap2\n      swap1\n      pop\n      jump\t// out\n        /* \"#utility.yul\":2269:2449   */\n    tag_366:\n        /* \"#utility.yul\":2317:2394   */\n      0x4e487b7100000000000000000000000000000000000000000000000000000000\n        /* \"#utility.yul\":2314:2315   */\n      0x00\n        /* \"#utility.yul\":2307:2395   */\n      mstore\n        /* \"#utility.yul\":2414:2418   */\n      0x41\n        /* \"#utility.yul\":2411:2412   */\n      0x04\n        /* \"#utility.yul\":2404:2419   */\n      mstore\n        /* \"#utility.yul\":2438:2442   */\n      0x24\n        /* \"#utility.yul\":2435:2436   */\n      0x00\n        /* \"#utility.yul\":2428:2443   */\n      revert\n        /* \"#utility.yul\":2455:2736   */\n    tag_367:\n        /* \"#utility.yul\":2538:2565   */\n      tag_464\n        /* \"#utility.yul\":2560:2564   */\n      dup3\n        /* \"#utility.yul\":2538:2565   */\n      tag_365\n      jump\t// in\n    tag_464:\n        /* \"#utility.yul\":2530:2536   */\n      dup2\n        /* \"#utility.yul\":2526:2566   */\n      add\n        /* \"#utility.yul\":2668:2674   */\n      dup2\n        /* \"#utility.yul\":2656:2666   */\n      dup2\n        /* \"#utility.yul\":2653:2675   */\n      lt\n        /* \"#utility.yul\":2632:2650   */\n      0xffffffffffffffff\n        /* \"#utility.yul\":2620:2630   */\n      dup3\n        /* \"#utility.yul\":2617:2651   */\n      gt\n        /* \"#utility.yul\":2614:2676   */\n      or\n        /* \"#utility.yul\":2611:2699   */\n      iszero\n      tag_465\n      jumpi\n        /* \"#utility.yul\":2679:2697   */\n      tag_466\n      tag_366\n      jump\t// in\n    tag_466:\n        /* \"#utility.yul\":2611:2699   */\n    tag_465:\n        /* \"#utility.yul\":2719:2729   */\n      dup1\n        /* \"#utility.yul\":2715:2717   */\n      0x40\n        /* \"#utility.yul\":2708:2730   */\n      mstore\n        /* \"#utility.yul\":2498:2736   */\n      pop\n        /* \"#utility.yul\":2455:2736   */\n      pop\n      pop\n      jump\t// out\n        /* \"#utility.yul\":2742:2871   */\n    tag_368:\n        /* \"#utility.yul\":2776:2782   */\n      0x00\n        /* \"#utility.yul\":2803:2823   */\n      tag_468\n      tag_353\n      jump\t// in\n    tag_468:\n        /* \"#utility.yul\":2793:2823   */\n      swap1\n      pop\n        /* \"#utility.yul\":2832:2865   */\n      tag_469\n        /* \"#utility.yul\":2860:2864   */\n      dup3\n        /* \"#utility.yul\":2852:2858   */\n      dup3\n        /* \"#utility.yul\":2832:2865   */\n      tag_367\n      jump\t// in\n    tag_469:\n        /* \"#utility.yul\":2742:2871   */\n      swap2\n      swap1\n      pop\n      jump\t// out\n        /* \"#utility.yul\":2877:3198   */\n    tag_369:\n        /* \"#utility.yul\":2964:2968   */\n      0x00\n        /* \"#utility.yul\":3054:3072   */\n      0xffffffffffffffff\n        /* \"#utility.yul\":3046:3052   */\n      dup3\n        /* \"#utility.yul\":3043:3073   */\n      gt\n        /* \"#utility.yul\":3040:3096   */\n      iszero\n      tag_471\n      jumpi\n        /* \"#utility.yul\":3076:3094   */\n      tag_472\n      tag_366\n      jump\t// in\n    tag_472:\n        /* \"#utility.yul\":3040:3096   */\n    tag_471:\n        /* \"#utility.yul\":3126:3130   */\n      0x20\n        /* \"#utility.yul\":3118:3124   */\n      dup3\n        /* \"#utility.yul\":3114:3131   */\n      mul\n        /* \"#utility.yul\":3106:3131   */\n      swap1\n      pop\n        /* \"#utility.yul\":3186:3190   */\n      0x20\n        /* \"#utility.yul\":3180:3184   */\n      dup2\n        /* \"#utility.yul\":3176:3191   */\n      add\n        /* \"#utility.yul\":3168:3191   */\n      swap1\n      pop\n        /* \"#utility.yul\":2877:3198   */\n      swap2\n      swap1\n      pop\n      jump\t// out\n        /* \"#utility.yul\":3204:3321   */\n    tag_370:\n        /* \"#utility.yul\":3313:3314   */\n      0x00\n        /* \"#utility.yul\":3310:3311   */\n      dup1\n        /* \"#utility.yul\":3303:3315   */\n      revert\n        /* \"#utility.yul\":3327:3444   */\n    tag_371:\n        /* \"#utility.yul\":3436:3437   */\n      0x00\n        /* \"#utility.yul\":3433:3434   */\n      dup1\n        /* \"#utility.yul\":3426:3438   */\n      revert\n        /* \"#utility.yul\":3450:3758   */\n    tag_372:\n        /* \"#utility.yul\":3512:3516   */\n      0x00\n        /* \"#utility.yul\":3602:3620   */\n      0xffffffffffffffff\n        /* \"#utility.yul\":3594:3600   */\n      dup3\n        /* \"#utility.yul\":3591:3621   */\n      gt\n        /* \"#utility.yul\":3588:3644   */\n      iszero\n      tag_476\n      jumpi\n        /* \"#utility.yul\":3624:3642   */\n      tag_477\n      tag_366\n      jump\t// in\n    tag_477:\n        /* \"#utility.yul\":3588:3644   */\n    tag_476:\n        /* \"#utility.yul\":3662:3691   */\n      tag_478\n        /* \"#utility.yul\":3684:3690   */\n      dup3\n        /* \"#utility.yul\":3662:3691   */\n      tag_365\n      jump\t// in\n    tag_478:\n        /* \"#utility.yul\":3654:3691   */\n      swap1\n      pop\n        /* \"#utility.yul\":3746:3750   */\n      0x20\n        /* \"#utility.yul\":3740:3744   */\n      dup2\n        /* \"#utility.yul\":3736:3751   */\n      add\n        /* \"#utility.yul\":3728:3751   */\n      swap1\n      pop\n        /* \"#utility.yul\":3450:3758   */\n      swap2\n      swap1\n      pop\n      jump\t// out\n        /* \"#utility.yul\":3764:3910   */\n    tag_373:\n        /* \"#utility.yul\":3861:3867   */\n      dup3\n        /* \"#utility.yul\":3856:3859   */\n      dup2\n        /* \"#utility.yul\":3851:3854   */\n      dup4\n        /* \"#utility.yul\":3838:3868   */\n      calldatacopy\n        /* \"#utility.yul\":3902:3903   */\n      0x00\n        /* \"#utility.yul\":3893:3899   */\n      dup4\n        /* \"#utility.yul\":3888:3891   */\n      dup4\n        /* \"#utility.yul\":3884:3900   */\n      add\n        /* \"#utility.yul\":3877:3904   */\n      mstore\n        /* \"#utility.yul\":3764:3910   */\n      pop\n      pop\n      pop\n      jump\t// out\n        /* \"#utility.yul\":3916:4341   */\n    tag_374:\n        /* \"#utility.yul\":3994:3999   */\n      0x00\n        /* \"#utility.yul\":4019:4085   */\n      tag_481\n        /* \"#utility.yul\":4035:4084   */\n      tag_482\n        /* \"#utility.yul\":4077:4083   */\n      dup5\n        /* \"#utility.yul\":4035:4084   */\n      tag_372\n      jump\t// in\n    tag_482:\n        /* \"#utility.yul\":4019:4085   */\n      tag_368\n      jump\t// in\n    tag_481:\n        /* \"#utility.yul\":4010:4085   */\n      swap1\n      pop\n        /* \"#utility.yul\":4108:4114   */\n      dup3\n        /* \"#utility.yul\":4101:4106   */\n      dup2\n        /* \"#utility.yul\":4094:4115   */\n      mstore\n        /* \"#utility.yul\":4146:4150   */\n      0x20\n        /* \"#utility.yul\":4139:4144   */\n      dup2\n        /* \"#utility.yul\":4135:4151   */\n      add\n        /* \"#utility.yul\":4184:4187   */\n      dup5\n        /* \"#utility.yul\":4175:4181   */\n      dup5\n        /* \"#utility.yul\":4170:4173   */\n      dup5\n        /* \"#utility.yul\":4166:4182   */\n      add\n        /* \"#utility.yul\":4163:4188   */\n      gt\n        /* \"#utility.yul\":4160:4272   */\n      iszero\n      tag_483\n      jumpi\n        /* \"#utility.yul\":4191:4270   */\n      tag_484\n      tag_371\n      jump\t// in\n    tag_484:\n        /* \"#utility.yul\":4160:4272   */\n    tag_483:\n        /* \"#utility.yul\":4281:4335   */\n      tag_485\n        /* \"#utility.yul\":4328:4334   */\n      dup5\n        /* \"#utility.yul\":4323:4326   */\n      dup3\n        /* \"#utility.yul\":4318:4321   */\n      dup6\n        /* \"#utility.yul\":4281:4335   */\n      tag_373\n      jump\t// in\n    tag_485:\n        /* \"#utility.yul\":4000:4341   */\n      pop\n        /* \"#utility.yul\":3916:4341   */\n      swap4\n      swap3\n      pop\n      pop\n      pop\n      jump\t// out\n        /* \"#utility.yul\":4361:4701   */\n    tag_375:\n        /* \"#utility.yul\":4417:4422   */\n      0x00\n        /* \"#utility.yul\":4466:4469   */\n      dup3\n        /* \"#utility.yul\":4459:4463   */\n      0x1f\n        /* \"#utility.yul\":4451:4457   */\n      dup4\n        /* \"#utility.yul\":4447:4464   */\n      add\n        /* \"#utility.yul\":4443:4470   */\n      slt\n        /* \"#utility.yul\":4433:4555   */\n      tag_487\n      jumpi\n        /* \"#utility.yul\":4474:4553   */\n      tag_488\n      tag_364\n      jump\t// in\n    tag_488:\n        /* \"#utility.yul\":4433:4555   */\n    tag_487:\n        /* \"#utility.yul\":4591:4597   */\n      dup2\n        /* \"#utility.yul\":4578:4598   */\n      calldataload\n        /* \"#utility.yul\":4616:4695   */\n      tag_489\n        /* \"#utility.yul\":4691:4694   */\n      dup5\n        /* \"#utility.yul\":4683:4689   */\n      dup3\n        /* \"#utility.yul\":4676:4680   */\n      0x20\n        /* \"#utility.yul\":4668:4674   */\n      dup7\n        /* \"#utility.yul\":4664:4681   */\n      add\n        /* \"#utility.yul\":4616:4695   */\n      tag_374\n      jump\t// in\n    tag_489:\n        /* \"#utility.yul\":4607:4695   */\n      swap2\n      pop\n        /* \"#utility.yul\":4423:4701   */\n      pop\n        /* \"#utility.yul\":4361:4701   */\n      swap3\n      swap2\n      pop\n      pop\n      jump\t// out\n        /* \"#utility.yul\":4723:5668   */\n    tag_376:\n        /* \"#utility.yul\":4829:4834   */\n      0x00\n        /* \"#utility.yul\":4854:4945   */\n      tag_491\n        /* \"#utility.yul\":4870:4944   */\n      tag_492\n        /* \"#utility.yul\":4937:4943   */\n      dup5\n        /* \"#utility.yul\":4870:4944   */\n      tag_369\n      jump\t// in\n    tag_492:\n        /* \"#utility.yul\":4854:4945   */\n      tag_368\n      jump\t// in\n    tag_491:\n        /* \"#utility.yul\":4845:4945   */\n      swap1\n      pop\n        /* \"#utility.yul\":4965:4970   */\n      dup1\n        /* \"#utility.yul\":4994:5000   */\n      dup4\n        /* \"#utility.yul\":4987:4992   */\n      dup3\n        /* \"#utility.yul\":4980:5001   */\n      mstore\n        /* \"#utility.yul\":5028:5032   */\n      0x20\n        /* \"#utility.yul\":5021:5026   */\n      dup3\n        /* \"#utility.yul\":5017:5033   */\n      add\n        /* \"#utility.yul\":5010:5033   */\n      swap1\n      pop\n        /* \"#utility.yul\":5081:5085   */\n      0x20\n        /* \"#utility.yul\":5073:5079   */\n      dup5\n        /* \"#utility.yul\":5069:5086   */\n      mul\n        /* \"#utility.yul\":5061:5067   */\n      dup4\n        /* \"#utility.yul\":5057:5087   */\n      add\n        /* \"#utility.yul\":5110:5113   */\n      dup6\n        /* \"#utility.yul\":5102:5108   */\n      dup2\n        /* \"#utility.yul\":5099:5114   */\n      gt\n        /* \"#utility.yul\":5096:5218   */\n      iszero\n      tag_493\n      jumpi\n        /* \"#utility.yul\":5129:5208   */\n      tag_494\n      tag_370\n      jump\t// in\n    tag_494:\n        /* \"#utility.yul\":5096:5218   */\n    tag_493:\n        /* \"#utility.yul\":5244:5250   */\n      dup4\n        /* \"#utility.yul\":5227:5662   */\n    tag_495:\n        /* \"#utility.yul\":5261:5267   */\n      dup2\n        /* \"#utility.yul\":5256:5259   */\n      dup2\n        /* \"#utility.yul\":5253:5268   */\n      lt\n        /* \"#utility.yul\":5227:5662   */\n      iszero\n      tag_497\n      jumpi\n        /* \"#utility.yul\":5350:5353   */\n      dup1\n        /* \"#utility.yul\":5337:5354   */\n      calldataload\n        /* \"#utility.yul\":5386:5404   */\n      0xffffffffffffffff\n        /* \"#utility.yul\":5373:5384   */\n      dup2\n        /* \"#utility.yul\":5370:5405   */\n      gt\n        /* \"#utility.yul\":5367:5489   */\n      iszero\n      tag_498\n      jumpi\n        /* \"#utility.yul\":5408:5487   */\n      tag_499\n      tag_364\n      jump\t// in\n    tag_499:\n        /* \"#utility.yul\":5367:5489   */\n    tag_498:\n        /* \"#utility.yul\":5532:5543   */\n      dup1\n        /* \"#utility.yul\":5524:5530   */\n      dup7\n        /* \"#utility.yul\":5520:5544   */\n      add\n        /* \"#utility.yul\":5570:5617   */\n      tag_500\n        /* \"#utility.yul\":5613:5616   */\n      dup10\n        /* \"#utility.yul\":5601:5611   */\n      dup3\n        /* \"#utility.yul\":5570:5617   */\n      tag_375\n      jump\t// in\n    tag_500:\n        /* \"#utility.yul\":5565:5568   */\n      dup6\n        /* \"#utility.yul\":5558:5618   */\n      mstore\n        /* \"#utility.yul\":5647:5651   */\n      0x20\n        /* \"#utility.yul\":5642:5645   */\n      dup6\n        /* \"#utility.yul\":5638:5652   */\n      add\n        /* \"#utility.yul\":5631:5652   */\n      swap5\n      pop\n        /* \"#utility.yul\":5303:5662   */\n      pop\n      pop\n        /* \"#utility.yul\":5287:5291   */\n      0x20\n        /* \"#utility.yul\":5282:5285   */\n      dup2\n        /* \"#utility.yul\":5278:5292   */\n      add\n        /* \"#utility.yul\":5271:5292   */\n      swap1\n      pop\n        /* \"#utility.yul\":5227:5662   */\n      jump(tag_495)\n    tag_497:\n        /* \"#utility.yul\":5231:5252   */\n      pop\n        /* \"#utility.yul\":4835:5668   */\n      pop\n      pop\n        /* \"#utility.yul\":4723:5668   */\n      swap4\n      swap3\n      pop\n      pop\n      pop\n      jump\t// out\n        /* \"#utility.yul\":5690:6080   */\n    tag_377:\n        /* \"#utility.yul\":5771:5776   */\n      0x00\n        /* \"#utility.yul\":5820:5823   */\n      dup3\n        /* \"#utility.yul\":5813:5817   */\n      0x1f\n        /* \"#utility.yul\":5805:5811   */\n      dup4\n        /* \"#utility.yul\":5801:5818   */\n      add\n        /* \"#utility.yul\":5797:5824   */\n      slt\n        /* \"#utility.yul\":5787:5909   */\n      tag_502\n      jumpi\n        /* \"#utility.yul\":5828:5907   */\n      tag_503\n      tag_364\n      jump\t// in\n    tag_503:\n        /* \"#utility.yul\":5787:5909   */\n    tag_502:\n        /* \"#utility.yul\":5945:5951   */\n      dup2\n        /* \"#utility.yul\":5932:5952   */\n      calldataload\n        /* \"#utility.yul\":5970:6074   */\n      tag_504\n        /* \"#utility.yul\":6070:6073   */\n      dup5\n        /* \"#utility.yul\":6062:6068   */\n      dup3\n        /* \"#utility.yul\":6055:6059   */\n      0x20\n        /* \"#utility.yul\":6047:6053   */\n      dup7\n        /* \"#utility.yul\":6043:6060   */\n      add\n        /* \"#utility.yul\":5970:6074   */\n      tag_376\n      jump\t// in\n    tag_504:\n        /* \"#utility.yul\":5961:6074   */\n      swap2\n      pop\n        /* \"#utility.yul\":5777:6080   */\n      pop\n        /* \"#utility.yul\":5690:6080   */\n      swap3\n      swap2\n      pop\n      pop\n      jump\t// out\n        /* \"#utility.yul\":6086:6397   */\n    tag_378:\n        /* \"#utility.yul\":6163:6167   */\n      0x00\n        /* \"#utility.yul\":6253:6271   */\n      0xffffffffffffffff\n        /* \"#utility.yul\":6245:6251   */\n      dup3\n        /* \"#utility.yul\":6242:6272   */\n      gt\n        /* \"#utility.yul\":6239:6295   */\n      iszero\n      tag_506\n      jumpi\n        /* \"#utility.yul\":6275:6293   */\n      tag_507\n      tag_366\n      jump\t// in\n    tag_507:\n        /* \"#utility.yul\":6239:6295   */\n    tag_506:\n        /* \"#utility.yul\":6325:6329   */\n      0x20\n        /* \"#utility.yul\":6317:6323   */\n      dup3\n        /* \"#utility.yul\":6313:6330   */\n      mul\n        /* \"#utility.yul\":6305:6330   */\n      swap1\n      pop\n        /* \"#utility.yul\":6385:6389   */\n      0x20\n        /* \"#utility.yul\":6379:6383   */\n      dup2\n        /* \"#utility.yul\":6375:6390   */\n      add\n        /* \"#utility.yul\":6367:6390   */\n      swap1\n      pop\n        /* \"#utility.yul\":6086:6397   */\n      swap2\n      swap1\n      pop\n      jump\t// out\n        /* \"#utility.yul\":6403:6525   */\n    tag_379:\n        /* \"#utility.yul\":6476:6500   */\n      tag_509\n        /* \"#utility.yul\":6494:6499   */\n      dup2\n        /* \"#utility.yul\":6476:6500   */\n      tag_360\n      jump\t// in\n    tag_509:\n        /* \"#utility.yul\":6469:6474   */\n      dup2\n        /* \"#utility.yul\":6466:6501   */\n      eq\n        /* \"#utility.yul\":6456:6519   */\n      tag_510\n      jumpi\n        /* \"#utility.yul\":6515:6516   */\n      0x00\n        /* \"#utility.yul\":6512:6513   */\n      dup1\n        /* \"#utility.yul\":6505:6517   */\n      revert\n        /* \"#utility.yul\":6456:6519   */\n    tag_510:\n        /* \"#utility.yul\":6403:6525   */\n      pop\n      jump\t// out\n        /* \"#utility.yul\":6531:6670   */\n    tag_380:\n        /* \"#utility.yul\":6577:6582   */\n      0x00\n        /* \"#utility.yul\":6615:6621   */\n      dup2\n        /* \"#utility.yul\":6602:6622   */\n      calldataload\n        /* \"#utility.yul\":6593:6622   */\n      swap1\n      pop\n        /* \"#utility.yul\":6631:6664   */\n      tag_512\n        /* \"#utility.yul\":6658:6663   */\n      dup2\n        /* \"#utility.yul\":6631:6664   */\n      tag_379\n      jump\t// in\n    tag_512:\n        /* \"#utility.yul\":6531:6670   */\n      swap3\n      swap2\n      pop\n      pop\n      jump\t// out\n        /* \"#utility.yul\":6693:7403   */\n    tag_381:\n        /* \"#utility.yul\":6789:6794   */\n      0x00\n        /* \"#utility.yul\":6814:6895   */\n      tag_514\n        /* \"#utility.yul\":6830:6894   */\n      tag_515\n        /* \"#utility.yul\":6887:6893   */\n      dup5\n        /* \"#utility.yul\":6830:6894   */\n      tag_378\n      jump\t// in\n    tag_515:\n        /* \"#utility.yul\":6814:6895   */\n      tag_368\n      jump\t// in\n    tag_514:\n        /* \"#utility.yul\":6805:6895   */\n      swap1\n      pop\n        /* \"#utility.yul\":6915:6920   */\n      dup1\n        /* \"#utility.yul\":6944:6950   */\n      dup4\n        /* \"#utility.yul\":6937:6942   */\n      dup3\n        /* \"#utility.yul\":6930:6951   */\n      mstore\n        /* \"#utility.yul\":6978:6982   */\n      0x20\n        /* \"#utility.yul\":6971:6976   */\n      dup3\n        /* \"#utility.yul\":6967:6983   */\n      add\n        /* \"#utility.yul\":6960:6983   */\n      swap1\n      pop\n        /* \"#utility.yul\":7031:7035   */\n      0x20\n        /* \"#utility.yul\":7023:7029   */\n      dup5\n        /* \"#utility.yul\":7019:7036   */\n      mul\n        /* \"#utility.yul\":7011:7017   */\n      dup4\n        /* \"#utility.yul\":7007:7037   */\n      add\n        /* \"#utility.yul\":7060:7063   */\n      dup6\n        /* \"#utility.yul\":7052:7058   */\n      dup2\n        /* \"#utility.yul\":7049:7064   */\n      gt\n        /* \"#utility.yul\":7046:7168   */\n      iszero\n      tag_516\n      jumpi\n        /* \"#utility.yul\":7079:7158   */\n      tag_517\n      tag_370\n      jump\t// in\n    tag_517:\n        /* \"#utility.yul\":7046:7168   */\n    tag_516:\n        /* \"#utility.yul\":7194:7200   */\n      dup4\n        /* \"#utility.yul\":7177:7397   */\n    tag_518:\n        /* \"#utility.yul\":7211:7217   */\n      dup2\n        /* \"#utility.yul\":7206:7209   */\n      dup2\n        /* \"#utility.yul\":7203:7218   */\n      lt\n        /* \"#utility.yul\":7177:7397   */\n      iszero\n      tag_520\n      jumpi\n        /* \"#utility.yul\":7286:7289   */\n      dup1\n        /* \"#utility.yul\":7315:7352   */\n      tag_521\n        /* \"#utility.yul\":7348:7351   */\n      dup9\n        /* \"#utility.yul\":7336:7346   */\n      dup3\n        /* \"#utility.yul\":7315:7352   */\n      tag_380\n      jump\t// in\n    tag_521:\n        /* \"#utility.yul\":7310:7313   */\n      dup5\n        /* \"#utility.yul\":7303:7353   */\n      mstore\n        /* \"#utility.yul\":7382:7386   */\n      0x20\n        /* \"#utility.yul\":7377:7380   */\n      dup5\n        /* \"#utility.yul\":7373:7387   */\n      add\n        /* \"#utility.yul\":7366:7387   */\n      swap4\n      pop\n        /* \"#utility.yul\":7253:7397   */\n      pop\n        /* \"#utility.yul\":7237:7241   */\n      0x20\n        /* \"#utility.yul\":7232:7235   */\n      dup2\n        /* \"#utility.yul\":7228:7242   */\n      add\n        /* \"#utility.yul\":7221:7242   */\n      swap1\n      pop\n        /* \"#utility.yul\":7177:7397   */\n      jump(tag_518)\n    tag_520:\n        /* \"#utility.yul\":7181:7202   */\n      pop\n        /* \"#utility.yul\":6795:7403   */\n      pop\n      pop\n        /* \"#utility.yul\":6693:7403   */\n      swap4\n      swap3\n      pop\n      pop\n      pop\n      jump\t// out\n        /* \"#utility.yul\":7426:7796   */\n    tag_382:\n        /* \"#utility.yul\":7497:7502   */\n      0x00\n        /* \"#utility.yul\":7546:7549   */\n      dup3\n        /* \"#utility.yul\":7539:7543   */\n      0x1f\n        /* \"#utility.yul\":7531:7537   */\n      dup4\n        /* \"#utility.yul\":7527:7544   */\n      add\n        /* \"#utility.yul\":7523:7550   */\n      slt\n        /* \"#utility.yul\":7513:7635   */\n      tag_523\n      jumpi\n        /* \"#utility.yul\":7554:7633   */\n      tag_524\n      tag_364\n      jump\t// in\n    tag_524:\n        /* \"#utility.yul\":7513:7635   */\n    tag_523:\n        /* \"#utility.yul\":7671:7677   */\n      dup2\n        /* \"#utility.yul\":7658:7678   */\n      calldataload\n        /* \"#utility.yul\":7696:7790   */\n      tag_525\n        /* \"#utility.yul\":7786:7789   */\n      dup5\n        /* \"#utility.yul\":7778:7784   */\n      dup3\n        /* \"#utility.yul\":7771:7775   */\n      0x20\n        /* \"#utility.yul\":7763:7769   */\n      dup7\n        /* \"#utility.yul\":7759:7776   */\n      add\n        /* \"#utility.yul\":7696:7790   */\n      tag_381\n      jump\t// in\n    tag_525:\n        /* \"#utility.yul\":7687:7790   */\n      swap2\n      pop\n        /* \"#utility.yul\":7503:7796   */\n      pop\n        /* \"#utility.yul\":7426:7796   */\n      swap3\n      swap2\n      pop\n      pop\n      jump\t// out\n        /* \"#utility.yul\":7802:9091   */\n    tag_67:\n        /* \"#utility.yul\":7974:7980   */\n      0x00\n        /* \"#utility.yul\":7982:7988   */\n      dup1\n        /* \"#utility.yul\":7990:7996   */\n      0x00\n        /* \"#utility.yul\":8039:8041   */\n      0x60\n        /* \"#utility.yul\":8027:8036   */\n      dup5\n        /* \"#utility.yul\":8018:8025   */\n      dup7\n        /* \"#utility.yul\":8014:8037   */\n      sub\n        /* \"#utility.yul\":8010:8042   */\n      slt\n        /* \"#utility.yul\":8007:8126   */\n      iszero\n      tag_527\n      jumpi\n        /* \"#utility.yul\":8045:8124   */\n      tag_528\n      tag_354\n      jump\t// in\n    tag_528:\n        /* \"#utility.yul\":8007:8126   */\n    tag_527:\n        /* \"#utility.yul\":8193:8194   */\n      0x00\n        /* \"#utility.yul\":8182:8191   */\n      dup5\n        /* \"#utility.yul\":8178:8195   */\n      add\n        /* \"#utility.yul\":8165:8196   */\n      calldataload\n        /* \"#utility.yul\":8223:8241   */\n      0xffffffffffffffff\n        /* \"#utility.yul\":8215:8221   */\n      dup2\n        /* \"#utility.yul\":8212:8242   */\n      gt\n        /* \"#utility.yul\":8209:8326   */\n      iszero\n      tag_529\n      jumpi\n        /* \"#utility.yul\":8245:8324   */\n      tag_530\n      tag_355\n      jump\t// in\n    tag_530:\n        /* \"#utility.yul\":8209:8326   */\n    tag_529:\n        /* \"#utility.yul\":8350:8438   */\n      tag_531\n        /* \"#utility.yul\":8430:8437   */\n      dup7\n        /* \"#utility.yul\":8421:8427   */\n      dup3\n        /* \"#utility.yul\":8410:8419   */\n      dup8\n        /* \"#utility.yul\":8406:8428   */\n      add\n        /* \"#utility.yul\":8350:8438   */\n      tag_377\n      jump\t// in\n    tag_531:\n        /* \"#utility.yul\":8340:8438   */\n      swap4\n      pop\n        /* \"#utility.yul\":8136:8448   */\n      pop\n        /* \"#utility.yul\":8515:8517   */\n      0x20\n        /* \"#utility.yul\":8504:8513   */\n      dup5\n        /* \"#utility.yul\":8500:8518   */\n      add\n        /* \"#utility.yul\":8487:8519   */\n      calldataload\n        /* \"#utility.yul\":8546:8564   */\n      0xffffffffffffffff\n        /* \"#utility.yul\":8538:8544   */\n      dup2\n        /* \"#utility.yul\":8535:8565   */\n      gt\n        /* \"#utility.yul\":8532:8649   */\n      iszero\n      tag_532\n      jumpi\n        /* \"#utility.yul\":8568:8647   */\n      tag_533\n      tag_355\n      jump\t// in\n    tag_533:\n        /* \"#utility.yul\":8532:8649   */\n    tag_532:\n        /* \"#utility.yul\":8673:8761   */\n      tag_534\n        /* \"#utility.yul\":8753:8760   */\n      dup7\n        /* \"#utility.yul\":8744:8750   */\n      dup3\n        /* \"#utility.yul\":8733:8742   */\n      dup8\n        /* \"#utility.yul\":8729:8751   */\n      add\n        /* \"#utility.yul\":8673:8761   */\n      tag_377\n      jump\t// in\n    tag_534:\n        /* \"#utility.yul\":8663:8761   */\n      swap3\n      pop\n        /* \"#utility.yul\":8458:8771   */\n      pop\n        /* \"#utility.yul\":8838:8840   */\n      0x40\n        /* \"#utility.yul\":8827:8836   */\n      dup5\n        /* \"#utility.yul\":8823:8841   */\n      add\n        /* \"#utility.yul\":8810:8842   */\n      calldataload\n        /* \"#utility.yul\":8869:8887   */\n      0xffffffffffffffff\n        /* \"#utility.yul\":8861:8867   */\n      dup2\n        /* \"#utility.yul\":8858:8888   */\n      gt\n        /* \"#utility.yul\":8855:8972   */\n      iszero\n      tag_535\n      jumpi\n        /* \"#utility.yul\":8891:8970   */\n      tag_536\n      tag_355\n      jump\t// in\n    tag_536:\n        /* \"#utility.yul\":8855:8972   */\n    tag_535:\n        /* \"#utility.yul\":8996:9074   */\n      tag_537\n        /* \"#utility.yul\":9066:9073   */\n      dup7\n        /* \"#utility.yul\":9057:9063   */\n      dup3\n        /* \"#utility.yul\":9046:9055   */\n      dup8\n        /* \"#utility.yul\":9042:9064   */\n      add\n        /* \"#utility.yul\":8996:9074   */\n      tag_382\n      jump\t// in\n    tag_537:\n        /* \"#utility.yul\":8986:9074   */\n      swap2\n      pop\n        /* \"#utility.yul\":8781:9084   */\n      pop\n        /* \"#utility.yul\":7802:9091   */\n      swap3\n      pop\n      swap3\n      pop\n      swap3\n      jump\t// out\n        /* \"#utility.yul\":9097:9157   */\n    tag_383:\n        /* \"#utility.yul\":9125:9128   */\n      0x00\n        /* \"#utility.yul\":9146:9151   */\n      dup2\n        /* \"#utility.yul\":9139:9151   */\n      swap1\n      pop\n        /* \"#utility.yul\":9097:9157   */\n      swap2\n      swap1\n      pop\n      jump\t// out\n        /* \"#utility.yul\":9163:9305   */\n    tag_384:\n        /* \"#utility.yul\":9213:9222   */\n      0x00\n        /* \"#utility.yul\":9246:9299   */\n      tag_540\n        /* \"#utility.yul\":9264:9298   */\n      tag_541\n        /* \"#utility.yul\":9273:9297   */\n      tag_542\n        /* \"#utility.yul\":9291:9296   */\n      dup5\n        /* \"#utility.yul\":9273:9297   */\n      tag_356\n      jump\t// in\n    tag_542:\n        /* \"#utility.yul\":9264:9298   */\n      tag_383\n      jump\t// in\n    tag_541:\n        /* \"#utility.yul\":9246:9299   */\n      tag_356\n      jump\t// in\n    tag_540:\n        /* \"#utility.yul\":9233:9299   */\n      swap1\n      pop\n        /* \"#utility.yul\":9163:9305   */\n      swap2\n      swap1\n      pop\n      jump\t// out\n        /* \"#utility.yul\":9311:9437   */\n    tag_385:\n        /* \"#utility.yul\":9361:9370   */\n      0x00\n        /* \"#utility.yul\":9394:9431   */\n      tag_544\n        /* \"#utility.yul\":9425:9430   */\n      dup3\n        /* \"#utility.yul\":9394:9431   */\n      tag_384\n      jump\t// in\n    tag_544:\n        /* \"#utility.yul\":9381:9431   */\n      swap1\n      pop\n        /* \"#utility.yul\":9311:9437   */\n      swap2\n      swap1\n      pop\n      jump\t// out\n        /* \"#utility.yul\":9443:9583   */\n    tag_386:\n        /* \"#utility.yul\":9507:9516   */\n      0x00\n        /* \"#utility.yul\":9540:9577   */\n      tag_546\n        /* \"#utility.yul\":9571:9576   */\n      dup3\n        /* \"#utility.yul\":9540:9577   */\n      tag_385\n      jump\t// in\n    tag_546:\n        /* \"#utility.yul\":9527:9577   */\n      swap1\n      pop\n        /* \"#utility.yul\":9443:9583   */\n      swap2\n      swap1\n      pop\n      jump\t// out\n        /* \"#utility.yul\":9589:9748   */\n    tag_387:\n        /* \"#utility.yul\":9690:9741   */\n      tag_548\n        /* \"#utility.yul\":9735:9740   */\n      dup2\n        /* \"#utility.yul\":9690:9741   */\n      tag_386\n      jump\t// in\n    tag_548:\n        /* \"#utility.yul\":9685:9688   */\n      dup3\n        /* \"#utility.yul\":9678:9742   */\n      mstore\n        /* \"#utility.yul\":9589:9748   */\n      pop\n      pop\n      jump\t// out\n        /* \"#utility.yul\":9754:10004   */\n    tag_78:\n        /* \"#utility.yul\":9861:9865   */\n      0x00\n        /* \"#utility.yul\":9899:9901   */\n      0x20\n        /* \"#utility.yul\":9888:9897   */\n      dup3\n        /* \"#utility.yul\":9884:9902   */\n      add\n        /* \"#utility.yul\":9876:9902   */\n      swap1\n      pop\n        /* \"#utility.yul\":9912:9997   */\n      tag_550\n        /* \"#utility.yul\":9994:9995   */\n      0x00\n        /* \"#utility.yul\":9983:9992   */\n      dup4\n        /* \"#utility.yul\":9979:9996   */\n      add\n        /* \"#utility.yul\":9970:9976   */\n      dup5\n        /* \"#utility.yul\":9912:9997   */\n      tag_387\n      jump\t// in\n    tag_550:\n        /* \"#utility.yul\":9754:10004   */\n      swap3\n      swap2\n      pop\n      pop\n      jump\t// out\n        /* \"#utility.yul\":10010:10989   */\n    tag_87:\n        /* \"#utility.yul\":10107:10113   */\n      0x00\n        /* \"#utility.yul\":10115:10121   */\n      dup1\n        /* \"#utility.yul\":10123:10129   */\n      0x00\n        /* \"#utility.yul\":10172:10174   */\n      0x60\n        /* \"#utility.yul\":10160:10169   */\n      dup5\n        /* \"#utility.yul\":10151:10158   */\n      dup7\n        /* \"#utility.yul\":10147:10170   */\n      sub\n        /* \"#utility.yul\":10143:10175   */\n      slt\n        /* \"#utility.yul\":10140:10259   */\n      iszero\n      tag_552\n      jumpi\n        /* \"#utility.yul\":10178:10257   */\n      tag_553\n      tag_354\n      jump\t// in\n    tag_553:\n        /* \"#utility.yul\":10140:10259   */\n    tag_552:\n        /* \"#utility.yul\":10326:10327   */\n      0x00\n        /* \"#utility.yul\":10315:10324   */\n      dup5\n        /* \"#utility.yul\":10311:10328   */\n      add\n        /* \"#utility.yul\":10298:10329   */\n      calldataload\n        /* \"#utility.yul\":10356:10374   */\n      0xffffffffffffffff\n        /* \"#utility.yul\":10348:10354   */\n      dup2\n        /* \"#utility.yul\":10345:10375   */\n      gt\n        /* \"#utility.yul\":10342:10459   */\n      iszero\n      tag_554\n      jumpi\n        /* \"#utility.yul\":10378:10457   */\n      tag_555\n      tag_355\n      jump\t// in\n    tag_555:\n        /* \"#utility.yul\":10342:10459   */\n    tag_554:\n        /* \"#utility.yul\":10483:10546   */\n      tag_556\n        /* \"#utility.yul\":10538:10545   */\n      dup7\n        /* \"#utility.yul\":10529:10535   */\n      dup3\n        /* \"#utility.yul\":10518:10527   */\n      dup8\n        /* \"#utility.yul\":10514:10536   */\n      add\n        /* \"#utility.yul\":10483:10546   */\n      tag_375\n      jump\t// in\n    tag_556:\n        /* \"#utility.yul\":10473:10546   */\n      swap4\n      pop\n        /* \"#utility.yul\":10269:10556   */\n      pop\n        /* \"#utility.yul\":10623:10625   */\n      0x20\n        /* \"#utility.yul\":10612:10621   */\n      dup5\n        /* \"#utility.yul\":10608:10626   */\n      add\n        /* \"#utility.yul\":10595:10627   */\n      calldataload\n        /* \"#utility.yul\":10654:10672   */\n      0xffffffffffffffff\n        /* \"#utility.yul\":10646:10652   */\n      dup2\n        /* \"#utility.yul\":10643:10673   */\n      gt\n        /* \"#utility.yul\":10640:10757   */\n      iszero\n      tag_557\n      jumpi\n        /* \"#utility.yul\":10676:10755   */\n      tag_558\n      tag_355\n      jump\t// in\n    tag_558:\n        /* \"#utility.yul\":10640:10757   */\n    tag_557:\n        /* \"#utility.yul\":10781:10844   */\n      tag_559\n        /* \"#utility.yul\":10836:10843   */\n      dup7\n        /* \"#utility.yul\":10827:10833   */\n      dup3\n        /* \"#utility.yul\":10816:10825   */\n      dup8\n        /* \"#utility.yul\":10812:10834   */\n      add\n        /* \"#utility.yul\":10781:10844   */\n      tag_375\n      jump\t// in\n    tag_559:\n        /* \"#utility.yul\":10771:10844   */\n      swap3\n      pop\n        /* \"#utility.yul\":10566:10854   */\n      pop\n        /* \"#utility.yul\":10893:10895   */\n      0x40\n        /* \"#utility.yul\":10919:10972   */\n      tag_560\n        /* \"#utility.yul\":10964:10971   */\n      dup7\n        /* \"#utility.yul\":10955:10961   */\n      dup3\n        /* \"#utility.yul\":10944:10953   */\n      dup8\n        /* \"#utility.yul\":10940:10962   */\n      add\n        /* \"#utility.yul\":10919:10972   */\n      tag_380\n      jump\t// in\n    tag_560:\n        /* \"#utility.yul\":10909:10972   */\n      swap2\n      pop\n        /* \"#utility.yul\":10864:10982   */\n      pop\n        /* \"#utility.yul\":10010:10989   */\n      swap3\n      pop\n      swap3\n      pop\n      swap3\n      jump\t// out\n        /* \"#utility.yul\":10995:11085   */\n    tag_388:\n        /* \"#utility.yul\":11030:11037   */\n      0x00\n        /* \"#utility.yul\":11073:11078   */\n      dup2\n        /* \"#utility.yul\":11070:11071   */\n      0x07\n        /* \"#utility.yul\":11059:11079   */\n      signextend\n        /* \"#utility.yul\":11048:11079   */\n      swap1\n      pop\n        /* \"#utility.yul\":10995:11085   */\n      swap2\n      swap1\n      pop\n      jump\t// out\n        /* \"#utility.yul\":11091:11203   */\n    tag_389:\n        /* \"#utility.yul\":11174:11196   */\n      tag_563\n        /* \"#utility.yul\":11190:11195   */\n      dup2\n        /* \"#utility.yul\":11174:11196   */\n      tag_388\n      jump\t// in\n    tag_563:\n        /* \"#utility.yul\":11169:11172   */\n      dup3\n        /* \"#utility.yul\":11162:11197   */\n      mstore\n        /* \"#utility.yul\":11091:11203   */\n      pop\n      pop\n      jump\t// out\n        /* \"#utility.yul\":11209:11423   */\n    tag_90:\n        /* \"#utility.yul\":11298:11302   */\n      0x00\n        /* \"#utility.yul\":11336:11338   */\n      0x20\n        /* \"#utility.yul\":11325:11334   */\n      dup3\n        /* \"#utility.yul\":11321:11339   */\n      add\n        /* \"#utility.yul\":11313:11339   */\n      swap1\n      pop\n        /* \"#utility.yul\":11349:11416   */\n      tag_565\n        /* \"#utility.yul\":11413:11414   */\n      0x00\n        /* \"#utility.yul\":11402:11411   */\n      dup4\n        /* \"#utility.yul\":11398:11415   */\n      add\n        /* \"#utility.yul\":11389:11395   */\n      dup5\n        /* \"#utility.yul\":11349:11416   */\n      tag_389\n      jump\t// in\n    tag_565:\n        /* \"#utility.yul\":11209:11423   */\n      swap3\n      swap2\n      pop\n      pop\n      jump\t// out\n        /* \"#utility.yul\":11429:11903   */\n    tag_93:\n        /* \"#utility.yul\":11497:11503   */\n      0x00\n        /* \"#utility.yul\":11505:11511   */\n      dup1\n        /* \"#utility.yul\":11554:11556   */\n      0x40\n        /* \"#utility.yul\":11542:11551   */\n      dup4\n        /* \"#utility.yul\":11533:11540   */\n      dup6\n        /* \"#utility.yul\":11529:11552   */\n      sub\n        /* \"#utility.yul\":11525:11557   */\n      slt\n        /* \"#utility.yul\":11522:11641   */\n      iszero\n      tag_567\n      jumpi\n        /* \"#utility.yul\":11560:11639   */\n      tag_568\n      tag_354\n      jump\t// in\n    tag_568:\n        /* \"#utility.yul\":11522:11641   */\n    tag_567:\n        /* \"#utility.yul\":11680:11681   */\n      0x00\n        /* \"#utility.yul\":11705:11758   */\n      tag_569\n        /* \"#utility.yul\":11750:11757   */\n      dup6\n        /* \"#utility.yul\":11741:11747   */\n      dup3\n        /* \"#utility.yul\":11730:11739   */\n      dup7\n        /* \"#utility.yul\":11726:11748   */\n      add\n        /* \"#utility.yul\":11705:11758   */\n      tag_359\n      jump\t// in\n    tag_569:\n        /* \"#utility.yul\":11695:11758   */\n      swap3\n      pop\n        /* \"#utility.yul\":11651:11768   */\n      pop\n        /* \"#utility.yul\":11807:11809   */\n      0x20\n        /* \"#utility.yul\":11833:11886   */\n      tag_570\n        /* \"#utility.yul\":11878:11885   */\n      dup6\n        /* \"#utility.yul\":11869:11875   */\n      dup3\n        /* \"#utility.yul\":11858:11867   */\n      dup7\n        /* \"#utility.yul\":11854:11876   */\n      add\n        /* \"#utility.yul\":11833:11886   */\n      tag_380\n      jump\t// in\n    tag_570:\n        /* \"#utility.yul\":11823:11886   */\n      swap2\n      pop\n        /* \"#utility.yul\":11778:11896   */\n      pop\n        /* \"#utility.yul\":11429:11903   */\n      swap3\n      pop\n      swap3\n      swap1\n      pop\n      jump\t// out\n        /* \"#utility.yul\":11909:12027   */\n    tag_390:\n        /* \"#utility.yul\":11996:12020   */\n      tag_572\n        /* \"#utility.yul\":12014:12019   */\n      dup2\n        /* \"#utility.yul\":11996:12020   */\n      tag_357\n      jump\t// in\n    tag_572:\n        /* \"#utility.yul\":11991:11994   */\n      dup3\n        /* \"#utility.yul\":11984:12021   */\n      mstore\n        /* \"#utility.yul\":11909:12027   */\n      pop\n      pop\n      jump\t// out\n        /* \"#utility.yul\":12033:12255   */\n    tag_102:\n        /* \"#utility.yul\":12126:12130   */\n      0x00\n        /* \"#utility.yul\":12164:12166   */\n      0x20\n        /* \"#utility.yul\":12153:12162   */\n      dup3\n        /* \"#utility.yul\":12149:12167   */\n      add\n        /* \"#utility.yul\":12141:12167   */\n      swap1\n      pop\n        /* \"#utility.yul\":12177:12248   */\n      tag_574\n        /* \"#utility.yul\":12245:12246   */\n      0x00\n        /* \"#utility.yul\":12234:12243   */\n      dup4\n        /* \"#utility.yul\":12230:12247   */\n      add\n        /* \"#utility.yul\":12221:12227   */\n      dup5\n        /* \"#utility.yul\":12177:12248   */\n      tag_390\n      jump\t// in\n    tag_574:\n        /* \"#utility.yul\":12033:12255   */\n      swap3\n      swap2\n      pop\n      pop\n      jump\t// out\n        /* \"#utility.yul\":12261:12590   */\n    tag_110:\n        /* \"#utility.yul\":12320:12326   */\n      0x00\n        /* \"#utility.yul\":12369:12371   */\n      0x20\n        /* \"#utility.yul\":12357:12366   */\n      dup3\n        /* \"#utility.yul\":12348:12355   */\n      dup5\n        /* \"#utility.yul\":12344:12367   */\n      sub\n        /* \"#utility.yul\":12340:12372   */\n      slt\n        /* \"#utility.yul\":12337:12456   */\n      iszero\n      tag_576\n      jumpi\n        /* \"#utility.yul\":12375:12454   */\n      tag_577\n      tag_354\n      jump\t// in\n    tag_577:\n        /* \"#utility.yul\":12337:12456   */\n    tag_576:\n        /* \"#utility.yul\":12495:12496   */\n      0x00\n        /* \"#utility.yul\":12520:12573   */\n      tag_578\n        /* \"#utility.yul\":12565:12572   */\n      dup5\n        /* \"#utility.yul\":12556:12562   */\n      dup3\n        /* \"#utility.yul\":12545:12554   */\n      dup6\n        /* \"#utility.yul\":12541:12563   */\n      add\n        /* \"#utility.yul\":12520:12573   */\n      tag_380\n      jump\t// in\n    tag_578:\n        /* \"#utility.yul\":12510:12573   */\n      swap2\n      pop\n        /* \"#utility.yul\":12466:12583   */\n      pop\n        /* \"#utility.yul\":12261:12590   */\n      swap3\n      swap2\n      pop\n      pop\n      jump\t// out\n        /* \"#utility.yul\":12596:12776   */\n    tag_391:\n        /* \"#utility.yul\":12644:12721   */\n      0x4e487b7100000000000000000000000000000000000000000000000000000000\n        /* \"#utility.yul\":12641:12642   */\n      0x00\n        /* \"#utility.yul\":12634:12722   */\n      mstore\n        /* \"#utility.yul\":12741:12745   */\n      0x11\n        /* \"#utility.yul\":12738:12739   */\n      0x04\n        /* \"#utility.yul\":12731:12746   */\n      mstore\n        /* \"#utility.yul\":12765:12769   */\n      0x24\n        /* \"#utility.yul\":12762:12763   */\n      0x00\n        /* \"#utility.yul\":12755:12770   */\n      revert\n        /* \"#utility.yul\":12782:13192   */\n    tag_135:\n        /* \"#utility.yul\":12822:12829   */\n      0x00\n        /* \"#utility.yul\":12845:12865   */\n      tag_581\n        /* \"#utility.yul\":12863:12864   */\n      dup3\n        /* \"#utility.yul\":12845:12865   */\n      tag_360\n      jump\t// in\n    tag_581:\n        /* \"#utility.yul\":12840:12865   */\n      swap2\n      pop\n        /* \"#utility.yul\":12879:12899   */\n      tag_582\n        /* \"#utility.yul\":12897:12898   */\n      dup4\n        /* \"#utility.yul\":12879:12899   */\n      tag_360\n      jump\t// in\n    tag_582:\n        /* \"#utility.yul\":12874:12899   */\n      swap3\n      pop\n        /* \"#utility.yul\":12934:12935   */\n      dup3\n        /* \"#utility.yul\":12931:12932   */\n      dup3\n        /* \"#utility.yul\":12927:12936   */\n      mul\n        /* \"#utility.yul\":12956:12986   */\n      tag_583\n        /* \"#utility.yul\":12974:12985   */\n      dup2\n        /* \"#utility.yul\":12956:12986   */\n      tag_360\n      jump\t// in\n    tag_583:\n        /* \"#utility.yul\":12945:12986   */\n      swap2\n      pop\n        /* \"#utility.yul\":13135:13136   */\n      dup3\n        /* \"#utility.yul\":13126:13133   */\n      dup3\n        /* \"#utility.yul\":13122:13137   */\n      div\n        /* \"#utility.yul\":13119:13120   */\n      dup5\n        /* \"#utility.yul\":13116:13138   */\n      eq\n        /* \"#utility.yul\":13096:13097   */\n      dup4\n        /* \"#utility.yul\":13089:13098   */\n      iszero\n        /* \"#utility.yul\":13069:13152   */\n      or\n        /* \"#utility.yul\":13046:13185   */\n      tag_584\n      jumpi\n        /* \"#utility.yul\":13165:13183   */\n      tag_585\n      tag_391\n      jump\t// in\n    tag_585:\n        /* \"#utility.yul\":13046:13185   */\n    tag_584:\n        /* \"#utility.yul\":12830:13192   */\n      pop\n        /* \"#utility.yul\":12782:13192   */\n      swap3\n      swap2\n      pop\n      pop\n      jump\t// out\n        /* \"#utility.yul\":13198:13367   */\n    tag_392:\n        /* \"#utility.yul\":13282:13293   */\n      0x00\n        /* \"#utility.yul\":13316:13322   */\n      dup3\n        /* \"#utility.yul\":13311:13314   */\n      dup3\n        /* \"#utility.yul\":13304:13323   */\n      mstore\n        /* \"#utility.yul\":13356:13360   */\n      0x20\n        /* \"#utility.yul\":13351:13354   */\n      dup3\n        /* \"#utility.yul\":13347:13361   */\n      add\n        /* \"#utility.yul\":13332:13361   */\n      swap1\n      pop\n        /* \"#utility.yul\":13198:13367   */\n      swap3\n      swap2\n      pop\n      pop\n      jump\t// out\n        /* \"#utility.yul\":13373:13551   */\n    tag_393:\n        /* \"#utility.yul\":13513:13543   */\n      0x496e70757420617272617973206c656e677468206d69736d6174636800000000\n        /* \"#utility.yul\":13509:13510   */\n      0x00\n        /* \"#utility.yul\":13501:13507   */\n      dup3\n        /* \"#utility.yul\":13497:13511   */\n      add\n        /* \"#utility.yul\":13490:13544   */\n      mstore\n        /* \"#utility.yul\":13373:13551   */\n      pop\n      jump\t// out\n        /* \"#utility.yul\":13557:13923   */\n    tag_394:\n        /* \"#utility.yul\":13699:13702   */\n      0x00\n        /* \"#utility.yul\":13720:13787   */\n      tag_589\n        /* \"#utility.yul\":13784:13786   */\n      0x1c\n        /* \"#utility.yul\":13779:13782   */\n      dup4\n        /* \"#utility.yul\":13720:13787   */\n      tag_392\n      jump\t// in\n    tag_589:\n        /* \"#utility.yul\":13713:13787   */\n      swap2\n      pop\n        /* \"#utility.yul\":13796:13889   */\n      tag_590\n        /* \"#utility.yul\":13885:13888   */\n      dup3\n        /* \"#utility.yul\":13796:13889   */\n      tag_393\n      jump\t// in\n    tag_590:\n        /* \"#utility.yul\":13914:13916   */\n      0x20\n        /* \"#utility.yul\":13909:13912   */\n      dup3\n        /* \"#utility.yul\":13905:13917   */\n      add\n        /* \"#utility.yul\":13898:13917   */\n      swap1\n      pop\n        /* \"#utility.yul\":13557:13923   */\n      swap2\n      swap1\n      pop\n      jump\t// out\n        /* \"#utility.yul\":13929:14348   */\n    tag_165:\n        /* \"#utility.yul\":14095:14099   */\n      0x00\n        /* \"#utility.yul\":14133:14135   */\n      0x20\n        /* \"#utility.yul\":14122:14131   */\n      dup3\n        /* \"#utility.yul\":14118:14136   */\n      add\n        /* \"#utility.yul\":14110:14136   */\n      swap1\n      pop\n        /* \"#utility.yul\":14182:14191   */\n      dup2\n        /* \"#utility.yul\":14176:14180   */\n      dup2\n        /* \"#utility.yul\":14172:14192   */\n      sub\n        /* \"#utility.yul\":14168:14169   */\n      0x00\n        /* \"#utility.yul\":14157:14166   */\n      dup4\n        /* \"#utility.yul\":14153:14170   */\n      add\n        /* \"#utility.yul\":14146:14193   */\n      mstore\n        /* \"#utility.yul\":14210:14341   */\n      tag_592\n        /* \"#utility.yul\":14336:14340   */\n      dup2\n        /* \"#utility.yul\":14210:14341   */\n      tag_394\n      jump\t// in\n    tag_592:\n        /* \"#utility.yul\":14202:14341   */\n      swap1\n      pop\n        /* \"#utility.yul\":13929:14348   */\n      swap2\n      swap1\n      pop\n      jump\t// out\n        /* \"#utility.yul\":14354:14534   */\n    tag_172:\n        /* \"#utility.yul\":14402:14479   */\n      0x4e487b7100000000000000000000000000000000000000000000000000000000\n        /* \"#utility.yul\":14399:14400   */\n      0x00\n        /* \"#utility.yul\":14392:14480   */\n      mstore\n        /* \"#utility.yul\":14499:14503   */\n      0x32\n        /* \"#utility.yul\":14496:14497   */\n      0x04\n        /* \"#utility.yul\":14489:14504   */\n      mstore\n        /* \"#utility.yul\":14523:14527   */\n      0x24\n        /* \"#utility.yul\":14520:14521   */\n      0x00\n        /* \"#utility.yul\":14513:14528   */\n      revert\n        /* \"#utility.yul\":14540:14773   */\n    tag_178:\n        /* \"#utility.yul\":14579:14582   */\n      0x00\n        /* \"#utility.yul\":14602:14626   */\n      tag_595\n        /* \"#utility.yul\":14620:14625   */\n      dup3\n        /* \"#utility.yul\":14602:14626   */\n      tag_360\n      jump\t// in\n    tag_595:\n        /* \"#utility.yul\":14593:14626   */\n      swap2\n      pop\n        /* \"#utility.yul\":14648:14714   */\n      0xffffffffffffffffffffffffffffffffffffffffffffffffffffffffffffffff\n        /* \"#utility.yul\":14641:14646   */\n      dup3\n        /* \"#utility.yul\":14638:14715   */\n      sub\n        /* \"#utility.yul\":14635:14738   */\n      tag_596\n      jumpi\n        /* \"#utility.yul\":14718:14736   */\n      tag_597\n      tag_391\n      jump\t// in\n    tag_597:\n        /* \"#utility.yul\":14635:14738   */\n    tag_596:\n        /* \"#utility.yul\":14765:14766   */\n      0x01\n        /* \"#utility.yul\":14758:14763   */\n      dup3\n        /* \"#utility.yul\":14754:14767   */\n      add\n        /* \"#utility.yul\":14747:14767   */\n      swap1\n      pop\n        /* \"#utility.yul\":14540:14773   */\n      swap2\n      swap1\n      pop\n      jump\t// out\n        /* \"#utility.yul\":14779:14878   */\n    tag_395:\n        /* \"#utility.yul\":14831:14837   */\n      0x00\n        /* \"#utility.yul\":14865:14870   */\n      dup2\n        /* \"#utility.yul\":14859:14871   */\n      mload\n        /* \"#utility.yul\":14849:14871   */\n      swap1\n      pop\n        /* \"#utility.yul\":14779:14878   */\n      swap2\n      swap1\n      pop\n      jump\t// out\n        /* \"#utility.yul\":14884:15130   */\n    tag_396:\n        /* \"#utility.yul\":14965:14966   */\n      0x00\n        /* \"#utility.yul\":14975:15088   */\n    tag_600:\n        /* \"#utility.yul\":14989:14995   */\n      dup4\n        /* \"#utility.yul\":14986:14987   */\n      dup2\n        /* \"#utility.yul\":14983:14996   */\n      lt\n        /* \"#utility.yul\":14975:15088   */\n      iszero\n      tag_602\n      jumpi\n        /* \"#utility.yul\":15074:15075   */\n      dup1\n        /* \"#utility.yul\":15069:15072   */\n      dup3\n        /* \"#utility.yul\":15065:15076   */\n      add\n        /* \"#utility.yul\":15059:15077   */\n      mload\n        /* \"#utility.yul\":15055:15056   */\n      dup2\n        /* \"#utility.yul\":15050:15053   */\n      dup5\n        /* \"#utility.yul\":15046:15057   */\n      add\n        /* \"#utility.yul\":15039:15078   */\n      mstore\n        /* \"#utility.yul\":15011:15013   */\n      0x20\n        /* \"#utility.yul\":15008:15009   */\n      dup2\n        /* \"#utility.yul\":15004:15014   */\n      add\n        /* \"#utility.yul\":14999:15014   */\n      swap1\n      pop\n        /* \"#utility.yul\":14975:15088   */\n      jump(tag_600)\n    tag_602:\n        /* \"#utility.yul\":15122:15123   */\n      0x00\n        /* \"#utility.yul\":15113:15119   */\n      dup5\n        /* \"#utility.yul\":15108:15111   */\n      dup5\n        /* \"#utility.yul\":15104:15120   */\n      add\n        /* \"#utility.yul\":15097:15124   */\n      mstore\n        /* \"#utility.yul\":14946:15130   */\n      pop\n        /* \"#utility.yul\":14884:15130   */\n      pop\n      pop\n      pop\n      jump\t// out\n        /* \"#utility.yul\":15136:15513   */\n    tag_397:\n        /* \"#utility.yul\":15224:15227   */\n      0x00\n        /* \"#utility.yul\":15252:15291   */\n      tag_604\n        /* \"#utility.yul\":15285:15290   */\n      dup3\n        /* \"#utility.yul\":15252:15291   */\n      tag_395\n      jump\t// in\n    tag_604:\n        /* \"#utility.yul\":15307:15378   */\n      tag_605\n        /* \"#utility.yul\":15371:15377   */\n      dup2\n        /* \"#utility.yul\":15366:15369   */\n      dup6\n        /* \"#utility.yul\":15307:15378   */\n      tag_392\n      jump\t// in\n    tag_605:\n        /* \"#utility.yul\":15300:15378   */\n      swap4\n      pop\n        /* \"#utility.yul\":15387:15452   */\n      tag_606\n        /* \"#utility.yul\":15445:15451   */\n      dup2\n        /* \"#utility.yul\":15440:15443   */\n      dup6\n        /* \"#utility.yul\":15433:15437   */\n      0x20\n        /* \"#utility.yul\":15426:15431   */\n      dup7\n        /* \"#utility.yul\":15422:15438   */\n      add\n        /* \"#utility.yul\":15387:15452   */\n      tag_396\n      jump\t// in\n    tag_606:\n        /* \"#utility.yul\":15477:15506   */\n      tag_607\n        /* \"#utility.yul\":15499:15505   */\n      dup2\n        /* \"#utility.yul\":15477:15506   */\n      tag_365\n      jump\t// in\n    tag_607:\n        /* \"#utility.yul\":15472:15475   */\n      dup5\n        /* \"#utility.yul\":15468:15507   */\n      add\n        /* \"#utility.yul\":15461:15507   */\n      swap2\n      pop\n        /* \"#utility.yul\":15228:15513   */\n      pop\n        /* \"#utility.yul\":15136:15513   */\n      swap3\n      swap2\n      pop\n      pop\n      jump\t// out\n        /* \"#utility.yul\":15519:16254   */\n    tag_198:\n        /* \"#utility.yul\":15736:15740   */\n      0x00\n        /* \"#utility.yul\":15774:15777   */\n      0x80\n        /* \"#utility.yul\":15763:15772   */\n      dup3\n        /* \"#utility.yul\":15759:15778   */\n      add\n        /* \"#utility.yul\":15751:15778   */\n      swap1\n      pop\n        /* \"#utility.yul\":15788:15859   */\n      tag_609\n        /* \"#utility.yul\":15856:15857   */\n      0x00\n        /* \"#utility.yul\":15845:15854   */\n      dup4\n        /* \"#utility.yul\":15841:15858   */\n      add\n        /* \"#utility.yul\":15832:15838   */\n      dup8\n        /* \"#utility.yul\":15788:15859   */\n      tag_390\n      jump\t// in\n    tag_609:\n        /* \"#utility.yul\":15906:15915   */\n      dup2\n        /* \"#utility.yul\":15900:15904   */\n      dup2\n        /* \"#utility.yul\":15896:15916   */\n      sub\n        /* \"#utility.yul\":15891:15893   */\n      0x20\n        /* \"#utility.yul\":15880:15889   */\n      dup4\n        /* \"#utility.yul\":15876:15894   */\n      add\n        /* \"#utility.yul\":15869:15917   */\n      mstore\n        /* \"#utility.yul\":15934:16012   */\n      tag_610\n        /* \"#utility.yul\":16007:16011   */\n      dup2\n        /* \"#utility.yul\":15998:16004   */\n      dup7\n        /* \"#utility.yul\":15934:16012   */\n      tag_397\n      jump\t// in\n    tag_610:\n        /* \"#utility.yul\":15926:16012   */\n      swap1\n      pop\n        /* \"#utility.yul\":16059:16068   */\n      dup2\n        /* \"#utility.yul\":16053:16057   */\n      dup2\n        /* \"#utility.yul\":16049:16069   */\n      sub\n        /* \"#utility.yul\":16044:16046   */\n      0x40\n        /* \"#utility.yul\":16033:16042   */\n      dup4\n        /* \"#utility.yul\":16029:16047   */\n      add\n        /* \"#utility.yul\":16022:16070   */\n      mstore\n        /* \"#utility.yul\":16087:16165   */\n      tag_611\n        /* \"#utility.yul\":16160:16164   */\n      dup2\n        /* \"#utility.yul\":16151:16157   */\n      dup6\n        /* \"#utility.yul\":16087:16165   */\n      tag_397\n      jump\t// in\n    tag_611:\n        /* \"#utility.yul\":16079:16165   */\n      swap1\n      pop\n        /* \"#utility.yul\":16175:16247   */\n      tag_612\n        /* \"#utility.yul\":16243:16245   */\n      0x60\n        /* \"#utility.yul\":16232:16241   */\n      dup4\n        /* \"#utility.yul\":16228:16246   */\n      add\n        /* \"#utility.yul\":16219:16225   */\n      dup5\n        /* \"#utility.yul\":16175:16247   */\n      tag_361\n      jump\t// in\n    tag_612:\n        /* \"#utility.yul\":15519:16254   */\n      swap6\n      swap5\n      pop\n      pop\n      pop\n      pop\n      pop\n      jump\t// out\n        /* \"#utility.yul\":16260:16378   */\n    tag_398:\n        /* \"#utility.yul\":16331:16353   */\n      tag_614\n        /* \"#utility.yul\":16347:16352   */\n      dup2\n        /* \"#utility.yul\":16331:16353   */\n      tag_388\n      jump\t// in\n    tag_614:\n        /* \"#utility.yul\":16324:16329   */\n      dup2\n        /* \"#utility.yul\":16321:16354   */\n      eq\n        /* \"#utility.yul\":16311:16372   */\n      tag_615\n      jumpi\n        /* \"#utility.yul\":16368:16369   */\n      0x00\n        /* \"#utility.yul\":16365:16366   */\n      dup1\n        /* \"#utility.yul\":16358:16370   */\n      revert\n        /* \"#utility.yul\":16311:16372   */\n    tag_615:\n        /* \"#utility.yul\":16260:16378   */\n      pop\n      jump\t// out\n        /* \"#utility.yul\":16384:16523   */\n    tag_399:\n        /* \"#utility.yul\":16439:16444   */\n      0x00\n        /* \"#utility.yul\":16470:16476   */\n      dup2\n        /* \"#utility.yul\":16464:16477   */\n      mload\n        /* \"#utility.yul\":16455:16477   */\n      swap1\n      pop\n        /* \"#utility.yul\":16486:16517   */\n      tag_617\n        /* \"#utility.yul\":16511:16516   */\n      dup2\n        /* \"#utility.yul\":16486:16517   */\n      tag_398\n      jump\t// in\n    tag_617:\n        /* \"#utility.yul\":16384:16523   */\n      swap3\n      swap2\n      pop\n      pop\n      jump\t// out\n        /* \"#utility.yul\":16529:16876   */\n    tag_202:\n        /* \"#utility.yul\":16597:16603   */\n      0x00\n        /* \"#utility.yul\":16646:16648   */\n      0x20\n        /* \"#utility.yul\":16634:16643   */\n      dup3\n        /* \"#utility.yul\":16625:16632   */\n      dup5\n        /* \"#utility.yul\":16621:16644   */\n      sub\n        /* \"#utility.yul\":16617:16649   */\n      slt\n        /* \"#utility.yul\":16614:16733   */\n      iszero\n      tag_619\n      jumpi\n        /* \"#utility.yul\":16652:16731   */\n      tag_620\n      tag_354\n      jump\t// in\n    tag_620:\n        /* \"#utility.yul\":16614:16733   */\n    tag_619:\n        /* \"#utility.yul\":16772:16773   */\n      0x00\n        /* \"#utility.yul\":16797:16859   */\n      tag_621\n        /* \"#utility.yul\":16851:16858   */\n      dup5\n        /* \"#utility.yul\":16842:16848   */\n      dup3\n        /* \"#utility.yul\":16831:16840   */\n      dup6\n        /* \"#utility.yul\":16827:16849   */\n      add\n        /* \"#utility.yul\":16797:16859   */\n      tag_399\n      jump\t// in\n    tag_621:\n        /* \"#utility.yul\":16787:16859   */\n      swap2\n      pop\n        /* \"#utility.yul\":16743:16869   */\n      pop\n        /* \"#utility.yul\":16529:16876   */\n      swap3\n      swap2\n      pop\n      pop\n      jump\t// out\n        /* \"#utility.yul\":16882:17073   */\n    tag_204:\n        /* \"#utility.yul\":16922:16925   */\n      0x00\n        /* \"#utility.yul\":16941:16961   */\n      tag_623\n        /* \"#utility.yul\":16959:16960   */\n      dup3\n        /* \"#utility.yul\":16941:16961   */\n      tag_360\n      jump\t// in\n    tag_623:\n        /* \"#utility.yul\":16936:16961   */\n      swap2\n      pop\n        /* \"#utility.yul\":16975:16995   */\n      tag_624\n        /* \"#utility.yul\":16993:16994   */\n      dup4\n        /* \"#utility.yul\":16975:16995   */\n      tag_360\n      jump\t// in\n    tag_624:\n        /* \"#utility.yul\":16970:16995   */\n      swap3\n      pop\n        /* \"#utility.yul\":17018:17019   */\n      dup3\n        /* \"#utility.yul\":17015:17016   */\n      dup3\n        /* \"#utility.yul\":17011:17020   */\n      add\n        /* \"#utility.yul\":17004:17020   */\n      swap1\n      pop\n        /* \"#utility.yul\":17039:17042   */\n      dup1\n        /* \"#utility.yul\":17036:17037   */\n      dup3\n        /* \"#utility.yul\":17033:17043   */\n      gt\n        /* \"#utility.yul\":17030:17066   */\n      iszero\n      tag_625\n      jumpi\n        /* \"#utility.yul\":17046:17064   */\n      tag_626\n      tag_391\n      jump\t// in\n    tag_626:\n        /* \"#utility.yul\":17030:17066   */\n    tag_625:\n        /* \"#utility.yul\":16882:17073   */\n      swap3\n      swap2\n      pop\n      pop\n      jump\t// out\n        /* \"#utility.yul\":17079:17411   */\n    tag_214:\n        /* \"#utility.yul\":17200:17204   */\n      0x00\n        /* \"#utility.yul\":17238:17240   */\n      0x40\n        /* \"#utility.yul\":17227:17236   */\n      dup3\n        /* \"#utility.yul\":17223:17241   */\n      add\n        /* \"#utility.yul\":17215:17241   */\n      swap1\n      pop\n        /* \"#utility.yul\":17251:17322   */\n      tag_628\n        /* \"#utility.yul\":17319:17320   */\n      0x00\n        /* \"#utility.yul\":17308:17317   */\n      dup4\n        /* \"#utility.yul\":17304:17321   */\n      add\n        /* \"#utility.yul\":17295:17301   */\n      dup6\n        /* \"#utility.yul\":17251:17322   */\n      tag_390\n      jump\t// in\n    tag_628:\n        /* \"#utility.yul\":17332:17404   */\n      tag_629\n        /* \"#utility.yul\":17400:17402   */\n      0x20\n        /* \"#utility.yul\":17389:17398   */\n      dup4\n        /* \"#utility.yul\":17385:17403   */\n      add\n        /* \"#utility.yul\":17376:17382   */\n      dup5\n        /* \"#utility.yul\":17332:17404   */\n      tag_361\n      jump\t// in\n    tag_629:\n        /* \"#utility.yul\":17079:17411   */\n      swap4\n      swap3\n      pop\n      pop\n      pop\n      jump\t// out\n        /* \"#utility.yul\":17417:17535   */\n    tag_400:\n        /* \"#utility.yul\":17488:17494   */\n      0x00\n        /* \"#utility.yul\":17522:17527   */\n      dup2\n        /* \"#utility.yul\":17516:17528   */\n      sload\n        /* \"#utility.yul\":17506:17528   */\n      swap1\n      pop\n        /* \"#utility.yul\":17417:17535   */\n      swap2\n      swap1\n      pop\n      jump\t// out\n        /* \"#utility.yul\":17541:17735   */\n    tag_401:\n        /* \"#utility.yul\":17650:17661   */\n      0x00\n        /* \"#utility.yul\":17684:17690   */\n      dup3\n        /* \"#utility.yul\":17679:17682   */\n      dup3\n        /* \"#utility.yul\":17672:17691   */\n      mstore\n        /* \"#utility.yul\":17724:17728   */\n      0x20\n        /* \"#utility.yul\":17719:17722   */\n      dup3\n        /* \"#utility.yul\":17715:17729   */\n      add\n        /* \"#utility.yul\":17700:17729   */\n      swap1\n      pop\n        /* \"#utility.yul\":17541:17735   */\n      swap3\n      swap2\n      pop\n      pop\n      jump\t// out\n        /* \"#utility.yul\":17741:17904   */\n    tag_402:\n        /* \"#utility.yul\":17812:17816   */\n      0x00\n        /* \"#utility.yul\":17835:17838   */\n      dup2\n        /* \"#utility.yul\":17827:17838   */\n      swap1\n      pop\n        /* \"#utility.yul\":17858:17861   */\n      dup2\n        /* \"#utility.yul\":17855:17856   */\n      0x00\n        /* \"#utility.yul\":17848:17862   */\n      mstore\n        /* \"#utility.yul\":17892:17896   */\n      0x20\n        /* \"#utility.yul\":17889:17890   */\n      0x00\n        /* \"#utility.yul\":17879:17897   */\n      keccak256\n        /* \"#utility.yul\":17871:17897   */\n      swap1\n      pop\n        /* \"#utility.yul\":17741:17904   */\n      swap2\n      swap1\n      pop\n      jump\t// out\n        /* \"#utility.yul\":17910:18090   */\n    tag_403:\n        /* \"#utility.yul\":17958:18035   */\n      0x4e487b7100000000000000000000000000000000000000000000000000000000\n        /* \"#utility.yul\":17955:17956   */\n      0x00\n        /* \"#utility.yul\":17948:18036   */\n      mstore\n        /* \"#utility.yul\":18055:18059   */\n      0x22\n        /* \"#utility.yul\":18052:18053   */\n      0x04\n        /* \"#utility.yul\":18045:18060   */\n      mstore\n        /* \"#utility.yul\":18079:18083   */\n      0x24\n        /* \"#utility.yul\":18076:18077   */\n      0x00\n        /* \"#utility.yul\":18069:18084   */\n      revert\n        /* \"#utility.yul\":18096:18416   */\n    tag_404:\n        /* \"#utility.yul\":18140:18146   */\n      0x00\n        /* \"#utility.yul\":18177:18178   */\n      0x02\n        /* \"#utility.yul\":18171:18175   */\n      dup3\n        /* \"#utility.yul\":18167:18179   */\n      div\n        /* \"#utility.yul\":18157:18179   */\n      swap1\n      pop\n        /* \"#utility.yul\":18224:18225   */\n      0x01\n        /* \"#utility.yul\":18218:18222   */\n      dup3\n        /* \"#utility.yul\":18214:18226   */\n      and\n        /* \"#utility.yul\":18245:18263   */\n      dup1\n        /* \"#utility.yul\":18235:18316   */\n      tag_635\n      jumpi\n        /* \"#utility.yul\":18301:18305   */\n      0x7f\n        /* \"#utility.yul\":18293:18299   */\n      dup3\n        /* \"#utility.yul\":18289:18306   */\n      and\n        /* \"#utility.yul\":18279:18306   */\n      swap2\n      pop\n        /* \"#utility.yul\":18235:18316   */\n    tag_635:\n        /* \"#utility.yul\":18363:18365   */\n      0x20\n        /* \"#utility.yul\":18355:18361   */\n      dup3\n        /* \"#utility.yul\":18352:18366   */\n      lt\n        /* \"#utility.yul\":18332:18350   */\n      dup2\n        /* \"#utility.yul\":18329:18367   */\n      sub\n        /* \"#utility.yul\":18326:18410   */\n      tag_636\n      jumpi\n        /* \"#utility.yul\":18382:18400   */\n      tag_637\n      tag_403\n      jump\t// in\n    tag_637:\n        /* \"#utility.yul\":18326:18410   */\n    tag_636:\n        /* \"#utility.yul\":18147:18416   */\n      pop\n        /* \"#utility.yul\":18096:18416   */\n      swap2\n      swap1\n      pop\n      jump\t// out\n        /* \"#utility.yul\":18422:18581   */\n    tag_405:\n        /* \"#utility.yul\":18496:18507   */\n      0x00\n        /* \"#utility.yul\":18530:18536   */\n      dup3\n        /* \"#utility.yul\":18525:18528   */\n      dup3\n        /* \"#utility.yul\":18518:18537   */\n      mstore\n        /* \"#utility.yul\":18570:18574   */\n      0x20\n        /* \"#utility.yul\":18565:18568   */\n      dup3\n        /* \"#utility.yul\":18561:18575   */\n      add\n        /* \"#utility.yul\":18546:18575   */\n      swap1\n      pop\n        /* \"#utility.yul\":18422:18581   */\n      swap3\n      swap2\n      pop\n      pop\n      jump\t// out\n        /* \"#utility.yul\":18587:18728   */\n    tag_406:\n        /* \"#utility.yul\":18636:18640   */\n      0x00\n        /* \"#utility.yul\":18659:18662   */\n      dup2\n        /* \"#utility.yul\":18651:18662   */\n      swap1\n      pop\n        /* \"#utility.yul\":18682:18685   */\n      dup2\n        /* \"#utility.yul\":18679:18680   */\n      0x00\n        /* \"#utility.yul\":18672:18686   */\n      mstore\n        /* \"#utility.yul\":18716:18720   */\n      0x20\n        /* \"#utility.yul\":18713:18714   */\n      0x00\n        /* \"#utility.yul\":18703:18721   */\n      keccak256\n        /* \"#utility.yul\":18695:18721   */\n      swap1\n      pop\n        /* \"#utility.yul\":18587:18728   */\n      swap2\n      swap1\n      pop\n      jump\t// out\n        /* \"#utility.yul\":18758:19569   */\n    tag_407:\n        /* \"#utility.yul\":18833:18836   */\n      0x00\n        /* \"#utility.yul\":18870:18875   */\n      dup2\n        /* \"#utility.yul\":18864:18876   */\n      sload\n        /* \"#utility.yul\":18899:18935   */\n      tag_641\n        /* \"#utility.yul\":18925:18934   */\n      dup2\n        /* \"#utility.yul\":18899:18935   */\n      tag_404\n      jump\t// in\n    tag_641:\n        /* \"#utility.yul\":18951:19012   */\n      tag_642\n        /* \"#utility.yul\":19005:19011   */\n      dup2\n        /* \"#utility.yul\":19000:19003   */\n      dup7\n        /* \"#utility.yul\":18951:19012   */\n      tag_405\n      jump\t// in\n    tag_642:\n        /* \"#utility.yul\":18944:19012   */\n      swap5\n      pop\n        /* \"#utility.yul\":19043:19044   */\n      0x01\n        /* \"#utility.yul\":19032:19041   */\n      dup3\n        /* \"#utility.yul\":19028:19045   */\n      and\n        /* \"#utility.yul\":19059:19060   */\n      0x00\n        /* \"#utility.yul\":19054:19218   */\n      dup2\n      eq\n      tag_644\n      jumpi\n        /* \"#utility.yul\":19232:19233   */\n      0x01\n        /* \"#utility.yul\":19227:19563   */\n      dup2\n      eq\n      tag_645\n      jumpi\n        /* \"#utility.yul\":19021:19563   */\n      jump(tag_643)\n        /* \"#utility.yul\":19054:19218   */\n    tag_644:\n        /* \"#utility.yul\":19138:19142   */\n      0xff\n        /* \"#utility.yul\":19134:19143   */\n      not\n        /* \"#utility.yul\":19123:19132   */\n      dup4\n        /* \"#utility.yul\":19119:19144   */\n      and\n        /* \"#utility.yul\":19114:19117   */\n      dup7\n        /* \"#utility.yul\":19107:19145   */\n      mstore\n        /* \"#utility.yul\":19198:19204   */\n      dup2\n        /* \"#utility.yul\":19191:19205   */\n      iszero\n        /* \"#utility.yul\":19184:19206   */\n      iszero\n        /* \"#utility.yul\":19178:19182   */\n      0x20\n        /* \"#utility.yul\":19174:19207   */\n      mul\n        /* \"#utility.yul\":19169:19172   */\n      dup7\n        /* \"#utility.yul\":19165:19208   */\n      add\n        /* \"#utility.yul\":19158:19208   */\n      swap4\n      pop\n        /* \"#utility.yul\":19054:19218   */\n      jump(tag_643)\n        /* \"#utility.yul\":19227:19563   */\n    tag_645:\n        /* \"#utility.yul\":19294:19332   */\n      tag_646\n        /* \"#utility.yul\":19326:19331   */\n      dup6\n        /* \"#utility.yul\":19294:19332   */\n      tag_406\n      jump\t// in\n    tag_646:\n        /* \"#utility.yul\":19354:19355   */\n      0x00\n        /* \"#utility.yul\":19368:19522   */\n    tag_647:\n        /* \"#utility.yul\":19382:19388   */\n      dup4\n        /* \"#utility.yul\":19379:19380   */\n      dup2\n        /* \"#utility.yul\":19376:19389   */\n      lt\n        /* \"#utility.yul\":19368:19522   */\n      iszero\n      tag_649\n      jumpi\n        /* \"#utility.yul\":19456:19463   */\n      dup2\n        /* \"#utility.yul\":19450:19464   */\n      sload\n        /* \"#utility.yul\":19446:19447   */\n      dup2\n        /* \"#utility.yul\":19441:19444   */\n      dup10\n        /* \"#utility.yul\":19437:19448   */\n      add\n        /* \"#utility.yul\":19430:19465   */\n      mstore\n        /* \"#utility.yul\":19506:19507   */\n      0x01\n        /* \"#utility.yul\":19497:19504   */\n      dup3\n        /* \"#utility.yul\":19493:19508   */\n      add\n        /* \"#utility.yul\":19482:19508   */\n      swap2\n      pop\n        /* \"#utility.yul\":19404:19408   */\n      0x20\n        /* \"#utility.yul\":19401:19402   */\n      dup2\n        /* \"#utility.yul\":19397:19409   */\n      add\n        /* \"#utility.yul\":19392:19409   */\n      swap1\n      pop\n        /* \"#utility.yul\":19368:19522   */\n      jump(tag_647)\n    tag_649:\n        /* \"#utility.yul\":19551:19552   */\n      dup1\n        /* \"#utility.yul\":19546:19549   */\n      dup9\n        /* \"#utility.yul\":19542:19553   */\n      add\n        /* \"#utility.yul\":19535:19553   */\n      swap6\n      pop\n        /* \"#utility.yul\":19234:19563   */\n      pop\n      pop\n        /* \"#utility.yul\":19021:19563   */\n    tag_643:\n      pop\n        /* \"#utility.yul\":18837:19569   */\n      pop\n      pop\n        /* \"#utility.yul\":18758:19569   */\n      swap3\n      swap2\n      pop\n      pop\n      jump\t// out\n        /* \"#utility.yul\":19575:19765   */\n    tag_408:\n        /* \"#utility.yul\":19661:19671   */\n      0x00\n        /* \"#utility.yul\":19696:19759   */\n      tag_651\n        /* \"#utility.yul\":19755:19758   */\n      dup4\n        /* \"#utility.yul\":19747:19753   */\n      dup4\n        /* \"#utility.yul\":19696:19759   */\n      tag_407\n      jump\t// in\n    tag_651:\n        /* \"#utility.yul\":19682:19759   */\n      swap1\n      pop\n        /* \"#utility.yul\":19575:19765   */\n      swap3\n      swap2\n      pop\n      pop\n      jump\t// out\n        /* \"#utility.yul\":19771:19888   */\n    tag_409:\n        /* \"#utility.yul\":19845:19849   */\n      0x00\n        /* \"#utility.yul\":19877:19881   */\n      0x01\n        /* \"#utility.yul\":19872:19875   */\n      dup3\n        /* \"#utility.yul\":19868:19882   */\n      add\n        /* \"#utility.yul\":19860:19882   */\n      swap1\n      pop\n        /* \"#utility.yul\":19771:19888   */\n      swap2\n      swap1\n      pop\n      jump\t// out\n        /* \"#utility.yul\":19922:20879   */\n    tag_410:\n        /* \"#utility.yul\":20055:20058   */\n      0x00\n        /* \"#utility.yul\":20084:20142   */\n      tag_654\n        /* \"#utility.yul\":20136:20141   */\n      dup3\n        /* \"#utility.yul\":20084:20142   */\n      tag_400\n      jump\t// in\n    tag_654:\n        /* \"#utility.yul\":20158:20254   */\n      tag_655\n        /* \"#utility.yul\":20247:20253   */\n      dup2\n        /* \"#utility.yul\":20242:20245   */\n      dup6\n        /* \"#utility.yul\":20158:20254   */\n      tag_401\n      jump\t// in\n    tag_655:\n        /* \"#utility.yul\":20151:20254   */\n      swap4\n      pop\n        /* \"#utility.yul\":20280:20283   */\n      dup4\n        /* \"#utility.yul\":20325:20329   */\n      0x20\n        /* \"#utility.yul\":20317:20323   */\n      dup3\n        /* \"#utility.yul\":20313:20330   */\n      mul\n        /* \"#utility.yul\":20308:20311   */\n      dup6\n        /* \"#utility.yul\":20304:20331   */\n      add\n        /* \"#utility.yul\":20355:20415   */\n      tag_656\n        /* \"#utility.yul\":20409:20414   */\n      dup6\n        /* \"#utility.yul\":20355:20415   */\n      tag_402\n      jump\t// in\n    tag_656:\n        /* \"#utility.yul\":20438:20445   */\n      dup1\n        /* \"#utility.yul\":20469:20470   */\n      0x00\n        /* \"#utility.yul\":20454:20834   */\n    tag_657:\n        /* \"#utility.yul\":20479:20485   */\n      dup6\n        /* \"#utility.yul\":20476:20477   */\n      dup2\n        /* \"#utility.yul\":20473:20486   */\n      lt\n        /* \"#utility.yul\":20454:20834   */\n      iszero\n      tag_659\n      jumpi\n        /* \"#utility.yul\":20550:20559   */\n      dup5\n        /* \"#utility.yul\":20544:20548   */\n      dup5\n        /* \"#utility.yul\":20540:20560   */\n      sub\n        /* \"#utility.yul\":20535:20538   */\n      dup10\n        /* \"#utility.yul\":20528:20561   */\n      mstore\n        /* \"#utility.yul\":20595:20601   */\n      dup2\n        /* \"#utility.yul\":20622:20703   */\n      tag_660\n        /* \"#utility.yul\":20698:20702   */\n      dup6\n        /* \"#utility.yul\":20683:20696   */\n      dup3\n        /* \"#utility.yul\":20622:20703   */\n      tag_408\n      jump\t// in\n    tag_660:\n        /* \"#utility.yul\":20614:20703   */\n      swap5\n      pop\n        /* \"#utility.yul\":20726:20790   */\n      tag_661\n        /* \"#utility.yul\":20783:20789   */\n      dup4\n        /* \"#utility.yul\":20726:20790   */\n      tag_409\n      jump\t// in\n    tag_661:\n        /* \"#utility.yul\":20716:20790   */\n      swap3\n      pop\n        /* \"#utility.yul\":20819:20823   */\n      0x20\n        /* \"#utility.yul\":20814:20817   */\n      dup11\n        /* \"#utility.yul\":20810:20824   */\n      add\n        /* \"#utility.yul\":20803:20824   */\n      swap10\n      pop\n        /* \"#utility.yul\":20514:20834   */\n      pop\n        /* \"#utility.yul\":20501:20502   */\n      0x01\n        /* \"#utility.yul\":20498:20499   */\n      dup2\n        /* \"#utility.yul\":20494:20503   */\n      add\n        /* \"#utility.yul\":20489:20503   */\n      swap1\n      pop\n        /* \"#utility.yul\":20454:20834   */\n      jump(tag_657)\n    tag_659:\n        /* \"#utility.yul\":20458:20472   */\n      pop\n        /* \"#utility.yul\":20850:20854   */\n      dup3\n        /* \"#utility.yul\":20843:20854   */\n      swap8\n      pop\n        /* \"#utility.yul\":20870:20873   */\n      dup8\n        /* \"#utility.yul\":20863:20873   */\n      swap6\n      pop\n        /* \"#utility.yul\":20060:20879   */\n      pop\n      pop\n      pop\n      pop\n      pop\n        /* \"#utility.yul\":19922:20879   */\n      swap3\n      swap2\n      pop\n      pop\n      jump\t// out\n        /* \"#utility.yul\":20885:21506   */\n    tag_218:\n        /* \"#utility.yul\":21098:21102   */\n      0x00\n        /* \"#utility.yul\":21136:21138   */\n      0x60\n        /* \"#utility.yul\":21125:21134   */\n      dup3\n        /* \"#utility.yul\":21121:21139   */\n      add\n        /* \"#utility.yul\":21113:21139   */\n      swap1\n      pop\n        /* \"#utility.yul\":21149:21220   */\n      tag_663\n        /* \"#utility.yul\":21217:21218   */\n      0x00\n        /* \"#utility.yul\":21206:21215   */\n      dup4\n        /* \"#utility.yul\":21202:21219   */\n      add\n        /* \"#utility.yul\":21193:21199   */\n      dup7\n        /* \"#utility.yul\":21149:21220   */\n      tag_390\n      jump\t// in\n    tag_663:\n        /* \"#utility.yul\":21230:21302   */\n      tag_664\n        /* \"#utility.yul\":21298:21300   */\n      0x20\n        /* \"#utility.yul\":21287:21296   */\n      dup4\n        /* \"#utility.yul\":21283:21301   */\n      add\n        /* \"#utility.yul\":21274:21280   */\n      dup6\n        /* \"#utility.yul\":21230:21302   */\n      tag_361\n      jump\t// in\n    tag_664:\n        /* \"#utility.yul\":21349:21358   */\n      dup2\n        /* \"#utility.yul\":21343:21347   */\n      dup2\n        /* \"#utility.yul\":21339:21359   */\n      sub\n        /* \"#utility.yul\":21334:21336   */\n      0x40\n        /* \"#utility.yul\":21323:21332   */\n      dup4\n        /* \"#utility.yul\":21319:21337   */\n      add\n        /* \"#utility.yul\":21312:21360   */\n      mstore\n        /* \"#utility.yul\":21377:21499   */\n      tag_665\n        /* \"#utility.yul\":21494:21498   */\n      dup2\n        /* \"#utility.yul\":21485:21491   */\n      dup5\n        /* \"#utility.yul\":21377:21499   */\n      tag_410\n      jump\t// in\n    tag_665:\n        /* \"#utility.yul\":21369:21499   */\n      swap1\n      pop\n        /* \"#utility.yul\":20885:21506   */\n      swap5\n      swap4\n      pop\n      pop\n      pop\n      pop\n      jump\t// out\n        /* \"#utility.yul\":21512:21628   */\n    tag_411:\n        /* \"#utility.yul\":21582:21603   */\n      tag_667\n        /* \"#utility.yul\":21597:21602   */\n      dup2\n        /* \"#utility.yul\":21582:21603   */\n      tag_362\n      jump\t// in\n    tag_667:\n        /* \"#utility.yul\":21575:21580   */\n      dup2\n        /* \"#utility.yul\":21572:21604   */\n      eq\n        /* \"#utility.yul\":21562:21622   */\n      tag_668\n      jumpi\n        /* \"#utility.yul\":21618:21619   */\n      0x00\n        /* \"#utility.yul\":21615:21616   */\n      dup1\n        /* \"#utility.yul\":21608:21620   */\n      revert\n        /* \"#utility.yul\":21562:21622   */\n    tag_668:\n        /* \"#utility.yul\":21512:21628   */\n      pop\n      jump\t// out\n        /* \"#utility.yul\":21634:21771   */\n    tag_412:\n        /* \"#utility.yul\":21688:21693   */\n      0x00\n        /* \"#utility.yul\":21719:21725   */\n      dup2\n        /* \"#utility.yul\":21713:21726   */\n      mload\n        /* \"#utility.yul\":21704:21726   */\n      swap1\n      pop\n        /* \"#utility.yul\":21735:21765   */\n      tag_670\n        /* \"#utility.yul\":21759:21764   */\n      dup2\n        /* \"#utility.yul\":21735:21765   */\n      tag_411\n      jump\t// in\n    tag_670:\n        /* \"#utility.yul\":21634:21771   */\n      swap3\n      swap2\n      pop\n      pop\n      jump\t// out\n        /* \"#utility.yul\":21777:22122   */\n    tag_222:\n        /* \"#utility.yul\":21844:21850   */\n      0x00\n        /* \"#utility.yul\":21893:21895   */\n      0x20\n        /* \"#utility.yul\":21881:21890   */\n      dup3\n        /* \"#utility.yul\":21872:21879   */\n      dup5\n        /* \"#utility.yul\":21868:21891   */\n      sub\n        /* \"#utility.yul\":21864:21896   */\n      slt\n        /* \"#utility.yul\":21861:21980   */\n      iszero\n      tag_672\n      jumpi\n        /* \"#utility.yul\":21899:21978   */\n      tag_673\n      tag_354\n      jump\t// in\n    tag_673:\n        /* \"#utility.yul\":21861:21980   */\n    tag_672:\n        /* \"#utility.yul\":22019:22020   */\n      0x00\n        /* \"#utility.yul\":22044:22105   */\n      tag_674\n        /* \"#utility.yul\":22097:22104   */\n      dup5\n        /* \"#utility.yul\":22088:22094   */\n      dup3\n        /* \"#utility.yul\":22077:22086   */\n      dup6\n        /* \"#utility.yul\":22073:22095   */\n      add\n        /* \"#utility.yul\":22044:22105   */\n      tag_412\n      jump\t// in\n    tag_674:\n        /* \"#utility.yul\":22034:22105   */\n      swap2\n      pop\n        /* \"#utility.yul\":21990:22115   */\n      pop\n        /* \"#utility.yul\":21777:22122   */\n      swap3\n      swap2\n      pop\n      pop\n      jump\t// out\n        /* \"#utility.yul\":22128:22348   */\n    tag_413:\n        /* \"#utility.yul\":22268:22302   */\n      0x4661696c656420746f20617070726f76652064656c6567617465206d6574686f\n        /* \"#utility.yul\":22264:22265   */\n      0x00\n        /* \"#utility.yul\":22256:22262   */\n      dup3\n        /* \"#utility.yul\":22252:22266   */\n      add\n        /* \"#utility.yul\":22245:22303   */\n      mstore\n        /* \"#utility.yul\":22337:22340   */\n      0x6400000000000000000000000000000000000000000000000000000000000000\n        /* \"#utility.yul\":22332:22334   */\n      0x20\n        /* \"#utility.yul\":22324:22330   */\n      dup3\n        /* \"#utility.yul\":22320:22335   */\n      add\n        /* \"#utility.yul\":22313:22341   */\n      mstore\n        /* \"#utility.yul\":22128:22348   */\n      pop\n      jump\t// out\n        /* \"#utility.yul\":22354:22720   */\n    tag_414:\n        /* \"#utility.yul\":22496:22499   */\n      0x00\n        /* \"#utility.yul\":22517:22584   */\n      tag_677\n        /* \"#utility.yul\":22581:22583   */\n      0x21\n        /* \"#utility.yul\":22576:22579   */\n      dup4\n        /* \"#utility.yul\":22517:22584   */\n      tag_392\n      jump\t// in\n    tag_677:\n        /* \"#utility.yul\":22510:22584   */\n      swap2\n      pop\n        /* \"#utility.yul\":22593:22686   */\n      tag_678\n        /* \"#utility.yul\":22682:22685   */\n      dup3\n        /* \"#utility.yul\":22593:22686   */\n      tag_413\n      jump\t// in\n    tag_678:\n        /* \"#utility.yul\":22711:22713   */\n      0x40\n        /* \"#utility.yul\":22706:22709   */\n      dup3\n        /* \"#utility.yul\":22702:22714   */\n      add\n        /* \"#utility.yul\":22695:22714   */\n      swap1\n      pop\n        /* \"#utility.yul\":22354:22720   */\n      swap2\n      swap1\n      pop\n      jump\t// out\n        /* \"#utility.yul\":22726:23145   */\n    tag_225:\n        /* \"#utility.yul\":22892:22896   */\n      0x00\n        /* \"#utility.yul\":22930:22932   */\n      0x20\n        /* \"#utility.yul\":22919:22928   */\n      dup3\n        /* \"#utility.yul\":22915:22933   */\n      add\n        /* \"#utility.yul\":22907:22933   */\n      swap1\n      pop\n        /* \"#utility.yul\":22979:22988   */\n      dup2\n        /* \"#utility.yul\":22973:22977   */\n      dup2\n        /* \"#utility.yul\":22969:22989   */\n      sub\n        /* \"#utility.yul\":22965:22966   */\n      0x00\n        /* \"#utility.yul\":22954:22963   */\n      dup4\n        /* \"#utility.yul\":22950:22967   */\n      add\n        /* \"#utility.yul\":22943:22990   */\n      mstore\n        /* \"#utility.yul\":23007:23138   */\n      tag_680\n        /* \"#utility.yul\":23133:23137   */\n      dup2\n        /* \"#utility.yul\":23007:23138   */\n      tag_414\n      jump\t// in\n    tag_680:\n        /* \"#utility.yul\":22999:23138   */\n      swap1\n      pop\n        /* \"#utility.yul\":22726:23145   */\n      swap2\n      swap1\n      pop\n      jump\t// out\n        /* \"#utility.yul\":23151:23331   */\n    tag_415:\n        /* \"#utility.yul\":23199:23276   */\n      0x4e487b7100000000000000000000000000000000000000000000000000000000\n        /* \"#utility.yul\":23196:23197   */\n      0x00\n        /* \"#utility.yul\":23189:23277   */\n      mstore\n        /* \"#utility.yul\":23296:23300   */\n      0x12\n        /* \"#utility.yul\":23293:23294   */\n      0x04\n        /* \"#utility.yul\":23286:23301   */\n      mstore\n        /* \"#utility.yul\":23320:23324   */\n      0x24\n        /* \"#utility.yul\":23317:23318   */\n      0x00\n        /* \"#utility.yul\":23310:23325   */\n      revert\n        /* \"#utility.yul\":23337:23522   */\n    tag_238:\n        /* \"#utility.yul\":23377:23378   */\n      0x00\n        /* \"#utility.yul\":23394:23414   */\n      tag_683\n        /* \"#utility.yul\":23412:23413   */\n      dup3\n        /* \"#utility.yul\":23394:23414   */\n      tag_360\n      jump\t// in\n    tag_683:\n        /* \"#utility.yul\":23389:23414   */\n      swap2\n      pop\n        /* \"#utility.yul\":23428:23448   */\n      tag_684\n        /* \"#utility.yul\":23446:23447   */\n      dup4\n        /* \"#utility.yul\":23428:23448   */\n      tag_360\n      jump\t// in\n    tag_684:\n        /* \"#utility.yul\":23423:23448   */\n      swap3\n      pop\n        /* \"#utility.yul\":23467:23468   */\n      dup3\n        /* \"#utility.yul\":23457:23492   */\n      tag_685\n      jumpi\n        /* \"#utility.yul\":23472:23490   */\n      tag_686\n      tag_415\n      jump\t// in\n    tag_686:\n        /* \"#utility.yul\":23457:23492   */\n    tag_685:\n        /* \"#utility.yul\":23514:23515   */\n      dup3\n        /* \"#utility.yul\":23511:23512   */\n      dup3\n        /* \"#utility.yul\":23507:23516   */\n      div\n        /* \"#utility.yul\":23502:23516   */\n      swap1\n      pop\n        /* \"#utility.yul\":23337:23522   */\n      swap3\n      swap2\n      pop\n      pop\n      jump\t// out\n        /* \"#utility.yul\":23528:23722   */\n    tag_241:\n        /* \"#utility.yul\":23568:23572   */\n      0x00\n        /* \"#utility.yul\":23588:23608   */\n      tag_688\n        /* \"#utility.yul\":23606:23607   */\n      dup3\n        /* \"#utility.yul\":23588:23608   */\n      tag_360\n      jump\t// in\n    tag_688:\n        /* \"#utility.yul\":23583:23608   */\n      swap2\n      pop\n        /* \"#utility.yul\":23622:23642   */\n      tag_689\n        /* \"#utility.yul\":23640:23641   */\n      dup4\n        /* \"#utility.yul\":23622:23642   */\n      tag_360\n      jump\t// in\n    tag_689:\n        /* \"#utility.yul\":23617:23642   */\n      swap3\n      pop\n        /* \"#utility.yul\":23666:23667   */\n      dup3\n        /* \"#utility.yul\":23663:23664   */\n      dup3\n        /* \"#utility.yul\":23659:23668   */\n      sub\n        /* \"#utility.yul\":23651:23668   */\n      swap1\n      pop\n        /* \"#utility.yul\":23690:23691   */\n      dup2\n        /* \"#utility.yul\":23684:23688   */\n      dup2\n        /* \"#utility.yul\":23681:23692   */\n      gt\n        /* \"#utility.yul\":23678:23715   */\n      iszero\n      tag_690\n      jumpi\n        /* \"#utility.yul\":23695:23713   */\n      tag_691\n      tag_391\n      jump\t// in\n    tag_691:\n        /* \"#utility.yul\":23678:23715   */\n    tag_690:\n        /* \"#utility.yul\":23528:23722   */\n      swap3\n      swap2\n      pop\n      pop\n      jump\t// out\n        /* \"#utility.yul\":23728:23871   */\n    tag_416:\n        /* \"#utility.yul\":23785:23790   */\n      0x00\n        /* \"#utility.yul\":23816:23822   */\n      dup2\n        /* \"#utility.yul\":23810:23823   */\n      mload\n        /* \"#utility.yul\":23801:23823   */\n      swap1\n      pop\n        /* \"#utility.yul\":23832:23865   */\n      tag_693\n        /* \"#utility.yul\":23859:23864   */\n      dup2\n        /* \"#utility.yul\":23832:23865   */\n      tag_379\n      jump\t// in\n    tag_693:\n        /* \"#utility.yul\":23728:23871   */\n      swap3\n      swap2\n      pop\n      pop\n      jump\t// out\n        /* \"#utility.yul\":23877:24228   */\n    tag_251:\n        /* \"#utility.yul\":23947:23953   */\n      0x00\n        /* \"#utility.yul\":23996:23998   */\n      0x20\n        /* \"#utility.yul\":23984:23993   */\n      dup3\n        /* \"#utility.yul\":23975:23982   */\n      dup5\n        /* \"#utility.yul\":23971:23994   */\n      sub\n        /* \"#utility.yul\":23967:23999   */\n      slt\n        /* \"#utility.yul\":23964:24083   */\n      iszero\n      tag_695\n      jumpi\n        /* \"#utility.yul\":24002:24081   */\n      tag_696\n      tag_354\n      jump\t// in\n    tag_696:\n        /* \"#utility.yul\":23964:24083   */\n    tag_695:\n        /* \"#utility.yul\":24122:24123   */\n      0x00\n        /* \"#utility.yul\":24147:24211   */\n      tag_697\n        /* \"#utility.yul\":24203:24210   */\n      dup5\n        /* \"#utility.yul\":24194:24200   */\n      dup3\n        /* \"#utility.yul\":24183:24192   */\n      dup6\n        /* \"#utility.yul\":24179:24201   */\n      add\n        /* \"#utility.yul\":24147:24211   */\n      tag_416\n      jump\t// in\n    tag_697:\n        /* \"#utility.yul\":24137:24211   */\n      swap2\n      pop\n        /* \"#utility.yul\":24093:24221   */\n      pop\n        /* \"#utility.yul\":23877:24228   */\n      swap3\n      swap2\n      pop\n      pop\n      jump\t// out\n        /* \"#utility.yul\":24234:24459   */\n    tag_417:\n        /* \"#utility.yul\":24374:24408   */\n      0x4f776e61626c653a206e6577206f776e657220697320746865207a65726f2061\n        /* \"#utility.yul\":24370:24371   */\n      0x00\n        /* \"#utility.yul\":24362:24368   */\n      dup3\n        /* \"#utility.yul\":24358:24372   */\n      add\n        /* \"#utility.yul\":24351:24409   */\n      mstore\n        /* \"#utility.yul\":24443:24451   */\n      0x6464726573730000000000000000000000000000000000000000000000000000\n        /* \"#utility.yul\":24438:24440   */\n      0x20\n        /* \"#utility.yul\":24430:24436   */\n      dup3\n        /* \"#utility.yul\":24426:24441   */\n      add\n        /* \"#utility.yul\":24419:24452   */\n      mstore\n        /* \"#utility.yul\":24234:24459   */\n      pop\n      jump\t// out\n        /* \"#utility.yul\":24465:24831   */\n    tag_418:\n        /* \"#utility.yul\":24607:24610   */\n      0x00\n        /* \"#utility.yul\":24628:24695   */\n      tag_700\n        /* \"#utility.yul\":24692:24694   */\n      0x26\n        /* \"#utility.yul\":24687:24690   */\n      dup4\n        /* \"#utility.yul\":24628:24695   */\n      tag_392\n      jump\t// in\n    tag_700:\n        /* \"#utility.yul\":24621:24695   */\n      swap2\n      pop\n        /* \"#utility.yul\":24704:24797   */\n      tag_701\n        /* \"#utility.yul\":24793:24796   */\n      dup3\n        /* \"#utility.yul\":24704:24797   */\n      tag_417\n      jump\t// in\n    tag_701:\n        /* \"#utility.yul\":24822:24824   */\n      0x40\n        /* \"#utility.yul\":24817:24820   */\n      dup3\n        /* \"#utility.yul\":24813:24825   */\n      add\n        /* \"#utility.yul\":24806:24825   */\n      swap1\n      pop\n        /* \"#utility.yul\":24465:24831   */\n      swap2\n      swap1\n      pop\n      jump\t// out\n        /* \"#utility.yul\":24837:25256   */\n    tag_268:\n        /* \"#utility.yul\":25003:25007   */\n      0x00\n        /* \"#utility.yul\":25041:25043   */\n      0x20\n        /* \"#utility.yul\":25030:25039   */\n      dup3\n        /* \"#utility.yul\":25026:25044   */\n      add\n        /* \"#utility.yul\":25018:25044   */\n      swap1\n      pop\n        /* \"#utility.yul\":25090:25099   */\n      dup2\n        /* \"#utility.yul\":25084:25088   */\n      dup2\n        /* \"#utility.yul\":25080:25100   */\n      sub\n        /* \"#utility.yul\":25076:25077   */\n      0x00\n        /* \"#utility.yul\":25065:25074   */\n      dup4\n        /* \"#utility.yul\":25061:25078   */\n      add\n        /* \"#utility.yul\":25054:25101   */\n      mstore\n        /* \"#utility.yul\":25118:25249   */\n      tag_703\n        /* \"#utility.yul\":25244:25248   */\n      dup2\n        /* \"#utility.yul\":25118:25249   */\n      tag_418\n      jump\t// in\n    tag_703:\n        /* \"#utility.yul\":25110:25249   */\n      swap1\n      pop\n        /* \"#utility.yul\":24837:25256   */\n      swap2\n      swap1\n      pop\n      jump\t// out\n        /* \"#utility.yul\":25262:25443   */\n    tag_419:\n        /* \"#utility.yul\":25402:25435   */\n      0x5265656e7472616e637947756172643a207265656e7472616e742063616c6c00\n        /* \"#utility.yul\":25398:25399   */\n      0x00\n        /* \"#utility.yul\":25390:25396   */\n      dup3\n        /* \"#utility.yul\":25386:25400   */\n      add\n        /* \"#utility.yul\":25379:25436   */\n      mstore\n        /* \"#utility.yul\":25262:25443   */\n      pop\n      jump\t// out\n        /* \"#utility.yul\":25449:25815   */\n    tag_420:\n        /* \"#utility.yul\":25591:25594   */\n      0x00\n        /* \"#utility.yul\":25612:25679   */\n      tag_706\n        /* \"#utility.yul\":25676:25678   */\n      0x1f\n        /* \"#utility.yul\":25671:25674   */\n      dup4\n        /* \"#utility.yul\":25612:25679   */\n      tag_392\n      jump\t// in\n    tag_706:\n        /* \"#utility.yul\":25605:25679   */\n      swap2\n      pop\n        /* \"#utility.yul\":25688:25781   */\n      tag_707\n        /* \"#utility.yul\":25777:25780   */\n      dup3\n        /* \"#utility.yul\":25688:25781   */\n      tag_419\n      jump\t// in\n    tag_707:\n        /* \"#utility.yul\":25806:25808   */\n      0x20\n        /* \"#utility.yul\":25801:25804   */\n      dup3\n        /* \"#utility.yul\":25797:25809   */\n      add\n        /* \"#utility.yul\":25790:25809   */\n      swap1\n      pop\n        /* \"#utility.yul\":25449:25815   */\n      swap2\n      swap1\n      pop\n      jump\t// out\n        /* \"#utility.yul\":25821:26240   */\n    tag_279:\n        /* \"#utility.yul\":25987:25991   */\n      0x00\n        /* \"#utility.yul\":26025:26027   */\n      0x20\n        /* \"#utility.yul\":26014:26023   */\n      dup3\n        /* \"#utility.yul\":26010:26028   */\n      add\n        /* \"#utility.yul\":26002:26028   */\n      swap1\n      pop\n        /* \"#utility.yul\":26074:26083   */\n      dup2\n        /* \"#utility.yul\":26068:26072   */\n      dup2\n        /* \"#utility.yul\":26064:26084   */\n      sub\n        /* \"#utility.yul\":26060:26061   */\n      0x00\n        /* \"#utility.yul\":26049:26058   */\n      dup4\n        /* \"#utility.yul\":26045:26062   */\n      add\n        /* \"#utility.yul\":26038:26085   */\n      mstore\n        /* \"#utility.yul\":26102:26233   */\n      tag_709\n        /* \"#utility.yul\":26228:26232   */\n      dup2\n        /* \"#utility.yul\":26102:26233   */\n      tag_420\n      jump\t// in\n    tag_709:\n        /* \"#utility.yul\":26094:26233   */\n      swap1\n      pop\n        /* \"#utility.yul\":25821:26240   */\n      swap2\n      swap1\n      pop\n      jump\t// out\n        /* \"#utility.yul\":26246:26412   */\n    tag_421:\n        /* \"#utility.yul\":26386:26404   */\n      0x5061757361626c653a2070617573656400000000000000000000000000000000\n        /* \"#utility.yul\":26382:26383   */\n      0x00\n        /* \"#utility.yul\":26374:26380   */\n      dup3\n        /* \"#utility.yul\":26370:26384   */\n      add\n        /* \"#utility.yul\":26363:26405   */\n      mstore\n        /* \"#utility.yul\":26246:26412   */\n      pop\n      jump\t// out\n        /* \"#utility.yul\":26418:26784   */\n    tag_422:\n        /* \"#utility.yul\":26560:26563   */\n      0x00\n        /* \"#utility.yul\":26581:26648   */\n      tag_712\n        /* \"#utility.yul\":26645:26647   */\n      0x10\n        /* \"#utility.yul\":26640:26643   */\n      dup4\n        /* \"#utility.yul\":26581:26648   */\n      tag_392\n      jump\t// in\n    tag_712:\n        /* \"#utility.yul\":26574:26648   */\n      swap2\n      pop\n        /* \"#utility.yul\":26657:26750   */\n      tag_713\n        /* \"#utility.yul\":26746:26749   */\n      dup3\n        /* \"#utility.yul\":26657:26750   */\n      tag_421\n      jump\t// in\n    tag_713:\n        /* \"#utility.yul\":26775:26777   */\n      0x20\n        /* \"#utility.yul\":26770:26773   */\n      dup3\n        /* \"#utility.yul\":26766:26778   */\n      add\n        /* \"#utility.yul\":26759:26778   */\n      swap1\n      pop\n        /* \"#utility.yul\":26418:26784   */\n      swap2\n      swap1\n      pop\n      jump\t// out\n        /* \"#utility.yul\":26790:27209   */\n    tag_284:\n        /* \"#utility.yul\":26956:26960   */\n      0x00\n        /* \"#utility.yul\":26994:26996   */\n      0x20\n        /* \"#utility.yul\":26983:26992   */\n      dup3\n        /* \"#utility.yul\":26979:26997   */\n      add\n        /* \"#utility.yul\":26971:26997   */\n      swap1\n      pop\n        /* \"#utility.yul\":27043:27052   */\n      dup2\n        /* \"#utility.yul\":27037:27041   */\n      dup2\n        /* \"#utility.yul\":27033:27053   */\n      sub\n        /* \"#utility.yul\":27029:27030   */\n      0x00\n        /* \"#utility.yul\":27018:27027   */\n      dup4\n        /* \"#utility.yul\":27014:27031   */\n      add\n        /* \"#utility.yul\":27007:27054   */\n      mstore\n        /* \"#utility.yul\":27071:27202   */\n      tag_715\n        /* \"#utility.yul\":27197:27201   */\n      dup2\n        /* \"#utility.yul\":27071:27202   */\n      tag_422\n      jump\t// in\n    tag_715:\n        /* \"#utility.yul\":27063:27202   */\n      swap1\n      pop\n        /* \"#utility.yul\":26790:27209   */\n      swap2\n      swap1\n      pop\n      jump\t// out\n        /* \"#utility.yul\":27215:27397   */\n    tag_423:\n        /* \"#utility.yul\":27355:27389   */\n      0x4f776e61626c653a2063616c6c6572206973206e6f7420746865206f776e6572\n        /* \"#utility.yul\":27351:27352   */\n      0x00\n        /* \"#utility.yul\":27343:27349   */\n      dup3\n        /* \"#utility.yul\":27339:27353   */\n      add\n        /* \"#utility.yul\":27332:27390   */\n      mstore\n        /* \"#utility.yul\":27215:27397   */\n      pop\n      jump\t// out\n        /* \"#utility.yul\":27403:27769   */\n    tag_424:\n        /* \"#utility.yul\":27545:27548   */\n      0x00\n        /* \"#utility.yul\":27566:27633   */\n      tag_718\n        /* \"#utility.yul\":27630:27632   */\n      0x20\n        /* \"#utility.yul\":27625:27628   */\n      dup4\n        /* \"#utility.yul\":27566:27633   */\n      tag_392\n      jump\t// in\n    tag_718:\n        /* \"#utility.yul\":27559:27633   */\n      swap2\n      pop\n        /* \"#utility.yul\":27642:27735   */\n      tag_719\n        /* \"#utility.yul\":27731:27734   */\n      dup3\n        /* \"#utility.yul\":27642:27735   */\n      tag_423\n      jump\t// in\n    tag_719:\n        /* \"#utility.yul\":27760:27762   */\n      0x20\n        /* \"#utility.yul\":27755:27758   */\n      dup3\n        /* \"#utility.yul\":27751:27763   */\n      add\n        /* \"#utility.yul\":27744:27763   */\n      swap1\n      pop\n        /* \"#utility.yul\":27403:27769   */\n      swap2\n      swap1\n      pop\n      jump\t// out\n        /* \"#utility.yul\":27775:28194   */\n    tag_307:\n        /* \"#utility.yul\":27941:27945   */\n      0x00\n        /* \"#utility.yul\":27979:27981   */\n      0x20\n        /* \"#utility.yul\":27968:27977   */\n      dup3\n        /* \"#utility.yul\":27964:27982   */\n      add\n        /* \"#utility.yul\":27956:27982   */\n      swap1\n      pop\n        /* \"#utility.yul\":28028:28037   */\n      dup2\n        /* \"#utility.yul\":28022:28026   */\n      dup2\n        /* \"#utility.yul\":28018:28038   */\n      sub\n        /* \"#utility.yul\":28014:28015   */\n      0x00\n        /* \"#utility.yul\":28003:28012   */\n      dup4\n        /* \"#utility.yul\":27999:28016   */\n      add\n        /* \"#utility.yul\":27992:28039   */\n      mstore\n        /* \"#utility.yul\":28056:28187   */\n      tag_721\n        /* \"#utility.yul\":28182:28186   */\n      dup2\n        /* \"#utility.yul\":28056:28187   */\n      tag_424\n      jump\t// in\n    tag_721:\n        /* \"#utility.yul\":28048:28187   */\n      swap1\n      pop\n        /* \"#utility.yul\":27775:28194   */\n      swap2\n      swap1\n      pop\n      jump\t// out\n        /* \"#utility.yul\":28200:28642   */\n    tag_312:\n        /* \"#utility.yul\":28349:28353   */\n      0x00\n        /* \"#utility.yul\":28387:28389   */\n      0x60\n        /* \"#utility.yul\":28376:28385   */\n      dup3\n        /* \"#utility.yul\":28372:28390   */\n      add\n        /* \"#utility.yul\":28364:28390   */\n      swap1\n      pop\n        /* \"#utility.yul\":28400:28471   */\n      tag_723\n        /* \"#utility.yul\":28468:28469   */\n      0x00\n        /* \"#utility.yul\":28457:28466   */\n      dup4\n        /* \"#utility.yul\":28453:28470   */\n      add\n        /* \"#utility.yul\":28444:28450   */\n      dup7\n        /* \"#utility.yul\":28400:28471   */\n      tag_390\n      jump\t// in\n    tag_723:\n        /* \"#utility.yul\":28481:28553   */\n      tag_724\n        /* \"#utility.yul\":28549:28551   */\n      0x20\n        /* \"#utility.yul\":28538:28547   */\n      dup4\n        /* \"#utility.yul\":28534:28552   */\n      add\n        /* \"#utility.yul\":28525:28531   */\n      dup6\n        /* \"#utility.yul\":28481:28553   */\n      tag_390\n      jump\t// in\n    tag_724:\n        /* \"#utility.yul\":28563:28635   */\n      tag_725\n        /* \"#utility.yul\":28631:28633   */\n      0x40\n        /* \"#utility.yul\":28620:28629   */\n      dup4\n        /* \"#utility.yul\":28616:28634   */\n      add\n        /* \"#utility.yul\":28607:28613   */\n      dup5\n        /* \"#utility.yul\":28563:28635   */\n      tag_361\n      jump\t// in\n    tag_725:\n        /* \"#utility.yul\":28200:28642   */\n      swap5\n      swap4\n      pop\n      pop\n      pop\n      pop\n      jump\t// out\n        /* \"#utility.yul\":28648:28877   */\n    tag_425:\n        /* \"#utility.yul\":28788:28822   */\n      0x5361666545524332303a204552433230206f7065726174696f6e20646964206e\n        /* \"#utility.yul\":28784:28785   */\n      0x00\n        /* \"#utility.yul\":28776:28782   */\n      dup3\n        /* \"#utility.yul\":28772:28786   */\n      add\n        /* \"#utility.yul\":28765:28823   */\n      mstore\n        /* \"#utility.yul\":28857:28869   */\n      0x6f74207375636365656400000000000000000000000000000000000000000000\n        /* \"#utility.yul\":28852:28854   */\n      0x20\n        /* \"#utility.yul\":28844:28850   */\n      dup3\n        /* \"#utility.yul\":28840:28855   */\n      add\n        /* \"#utility.yul\":28833:28870   */\n      mstore\n        /* \"#utility.yul\":28648:28877   */\n      pop\n      jump\t// out\n        /* \"#utility.yul\":28883:29249   */\n    tag_426:\n        /* \"#utility.yul\":29025:29028   */\n      0x00\n        /* \"#utility.yul\":29046:29113   */\n      tag_728\n        /* \"#utility.yul\":29110:29112   */\n      0x2a\n        /* \"#utility.yul\":29105:29108   */\n      dup4\n        /* \"#utility.yul\":29046:29113   */\n      tag_392\n      jump\t// in\n    tag_728:\n        /* \"#utility.yul\":29039:29113   */\n      swap2\n      pop\n        /* \"#utility.yul\":29122:29215   */\n      tag_729\n        /* \"#utility.yul\":29211:29214   */\n      dup3\n        /* \"#utility.yul\":29122:29215   */\n      tag_425\n      jump\t// in\n    tag_729:\n        /* \"#utility.yul\":29240:29242   */\n      0x40\n        /* \"#utility.yul\":29235:29238   */\n      dup3\n        /* \"#utility.yul\":29231:29243   */\n      add\n        /* \"#utility.yul\":29224:29243   */\n      swap1\n      pop\n        /* \"#utility.yul\":28883:29249   */\n      swap2\n      swap1\n      pop\n      jump\t// out\n        /* \"#utility.yul\":29255:29674   */\n    tag_320:\n        /* \"#utility.yul\":29421:29425   */\n      0x00\n        /* \"#utility.yul\":29459:29461   */\n      0x20\n        /* \"#utility.yul\":29448:29457   */\n      dup3\n        /* \"#utility.yul\":29444:29462   */\n      add\n        /* \"#utility.yul\":29436:29462   */\n      swap1\n      pop\n        /* \"#utility.yul\":29508:29517   */\n      dup2\n        /* \"#utility.yul\":29502:29506   */\n      dup2\n        /* \"#utility.yul\":29498:29518   */\n      sub\n        /* \"#utility.yul\":29494:29495   */\n      0x00\n        /* \"#utility.yul\":29483:29492   */\n      dup4\n        /* \"#utility.yul\":29479:29496   */\n      add\n        /* \"#utility.yul\":29472:29519   */\n      mstore\n        /* \"#utility.yul\":29536:29667   */\n      tag_731\n        /* \"#utility.yul\":29662:29666   */\n      dup2\n        /* \"#utility.yul\":29536:29667   */\n      tag_426\n      jump\t// in\n    tag_731:\n        /* \"#utility.yul\":29528:29667   */\n      swap1\n      pop\n        /* \"#utility.yul\":29255:29674   */\n      swap2\n      swap1\n      pop\n      jump\t// out\n        /* \"#utility.yul\":29680:29905   */\n    tag_427:\n        /* \"#utility.yul\":29820:29854   */\n      0x416464726573733a20696e73756666696369656e742062616c616e636520666f\n        /* \"#utility.yul\":29816:29817   */\n      0x00\n        /* \"#utility.yul\":29808:29814   */\n      dup3\n        /* \"#utility.yul\":29804:29818   */\n      add\n        /* \"#utility.yul\":29797:29855   */\n      mstore\n        /* \"#utility.yul\":29889:29897   */\n      0x722063616c6c0000000000000000000000000000000000000000000000000000\n        /* \"#utility.yul\":29884:29886   */\n      0x20\n        /* \"#utility.yul\":29876:29882   */\n      dup3\n        /* \"#utility.yul\":29872:29887   */\n      add\n        /* \"#utility.yul\":29865:29898   */\n      mstore\n        /* \"#utility.yul\":29680:29905   */\n      pop\n      jump\t// out\n        /* \"#utility.yul\":29911:30277   */\n    tag_428:\n        /* \"#utility.yul\":30053:30056   */\n      0x00\n        /* \"#utility.yul\":30074:30141   */\n      tag_734\n        /* \"#utility.yul\":30138:30140   */\n      0x26\n        /* \"#utility.yul\":30133:30136   */\n      dup4\n        /* \"#utility.yul\":30074:30141   */\n      tag_392\n      jump\t// in\n    tag_734:\n        /* \"#utility.yul\":30067:30141   */\n      swap2\n      pop\n        /* \"#utility.yul\":30150:30243   */\n      tag_735\n        /* \"#utility.yul\":30239:30242   */\n      dup3\n        /* \"#utility.yul\":30150:30243   */\n      tag_427\n      jump\t// in\n    tag_735:\n        /* \"#utility.yul\":30268:30270   */\n      0x40\n        /* \"#utility.yul\":30263:30266   */\n      dup3\n        /* \"#utility.yul\":30259:30271   */\n      add\n        /* \"#utility.yul\":30252:30271   */\n      swap1\n      pop\n        /* \"#utility.yul\":29911:30277   */\n      swap2\n      swap1\n      pop\n      jump\t// out\n        /* \"#utility.yul\":30283:30702   */\n    tag_328:\n        /* \"#utility.yul\":30449:30453   */\n      0x00\n        /* \"#utility.yul\":30487:30489   */\n      0x20\n        /* \"#utility.yul\":30476:30485   */\n      dup3\n        /* \"#utility.yul\":30472:30490   */\n      add\n        /* \"#utility.yul\":30464:30490   */\n      swap1\n      pop\n        /* \"#utility.yul\":30536:30545   */\n      dup2\n        /* \"#utility.yul\":30530:30534   */\n      dup2\n        /* \"#utility.yul\":30526:30546   */\n      sub\n        /* \"#utility.yul\":30522:30523   */\n      0x00\n        /* \"#utility.yul\":30511:30520   */\n      dup4\n        /* \"#utility.yul\":30507:30524   */\n      add\n        /* \"#utility.yul\":30500:30547   */\n      mstore\n        /* \"#utility.yul\":30564:30695   */\n      tag_737\n        /* \"#utility.yul\":30690:30694   */\n      dup2\n        /* \"#utility.yul\":30564:30695   */\n      tag_428\n      jump\t// in\n    tag_737:\n        /* \"#utility.yul\":30556:30695   */\n      swap1\n      pop\n        /* \"#utility.yul\":30283:30702   */\n      swap2\n      swap1\n      pop\n      jump\t// out\n        /* \"#utility.yul\":30708:30806   */\n    tag_429:\n        /* \"#utility.yul\":30759:30765   */\n      0x00\n        /* \"#utility.yul\":30793:30798   */\n      dup2\n        /* \"#utility.yul\":30787:30799   */\n      mload\n        /* \"#utility.yul\":30777:30799   */\n      swap1\n      pop\n        /* \"#utility.yul\":30708:30806   */\n      swap2\n      swap1\n      pop\n      jump\t// out\n        /* \"#utility.yul\":30812:30959   */\n    tag_430:\n        /* \"#utility.yul\":30913:30924   */\n      0x00\n        /* \"#utility.yul\":30950:30953   */\n      dup2\n        /* \"#utility.yul\":30935:30953   */\n      swap1\n      pop\n        /* \"#utility.yul\":30812:30959   */\n      swap3\n      swap2\n      pop\n      pop\n      jump\t// out\n        /* \"#utility.yul\":30965:31351   */\n    tag_431:\n        /* \"#utility.yul\":31069:31072   */\n      0x00\n        /* \"#utility.yul\":31097:31135   */\n      tag_741\n        /* \"#utility.yul\":31129:31134   */\n      dup3\n        /* \"#utility.yul\":31097:31135   */\n      tag_429\n      jump\t// in\n    tag_741:\n        /* \"#utility.yul\":31151:31239   */\n      tag_742\n        /* \"#utility.yul\":31232:31238   */\n      dup2\n        /* \"#utility.yul\":31227:31230   */\n      dup6\n        /* \"#utility.yul\":31151:31239   */\n      tag_430\n      jump\t// in\n    tag_742:\n        /* \"#utility.yul\":31144:31239   */\n      swap4\n      pop\n        /* \"#utility.yul\":31248:31313   */\n      tag_743\n        /* \"#utility.yul\":31306:31312   */\n      dup2\n        /* \"#utility.yul\":31301:31304   */\n      dup6\n        /* \"#utility.yul\":31294:31298   */\n      0x20\n        /* \"#utility.yul\":31287:31292   */\n      dup7\n        /* \"#utility.yul\":31283:31299   */\n      add\n        /* \"#utility.yul\":31248:31313   */\n      tag_396\n      jump\t// in\n    tag_743:\n        /* \"#utility.yul\":31338:31344   */\n      dup1\n        /* \"#utility.yul\":31333:31336   */\n      dup5\n        /* \"#utility.yul\":31329:31345   */\n      add\n        /* \"#utility.yul\":31322:31345   */\n      swap2\n      pop\n        /* \"#utility.yul\":31073:31351   */\n      pop\n        /* \"#utility.yul\":30965:31351   */\n      swap3\n      swap2\n      pop\n      pop\n      jump\t// out\n        /* \"#utility.yul\":31357:31628   */\n    tag_330:\n        /* \"#utility.yul\":31487:31490   */\n      0x00\n        /* \"#utility.yul\":31509:31602   */\n      tag_745\n        /* \"#utility.yul\":31598:31601   */\n      dup3\n        /* \"#utility.yul\":31589:31595   */\n      dup5\n        /* \"#utility.yul\":31509:31602   */\n      tag_431\n      jump\t// in\n    tag_745:\n        /* \"#utility.yul\":31502:31602   */\n      swap2\n      pop\n        /* \"#utility.yul\":31619:31622   */\n      dup2\n        /* \"#utility.yul\":31612:31622   */\n      swap1\n      pop\n        /* \"#utility.yul\":31357:31628   */\n      swap3\n      swap2\n      pop\n      pop\n      jump\t// out\n        /* \"#utility.yul\":31634:31813   */\n    tag_432:\n        /* \"#utility.yul\":31774:31805   */\n      0x416464726573733a2063616c6c20746f206e6f6e2d636f6e7472616374000000\n        /* \"#utility.yul\":31770:31771   */\n      0x00\n        /* \"#utility.yul\":31762:31768   */\n      dup3\n        /* \"#utility.yul\":31758:31772   */\n      add\n        /* \"#utility.yul\":31751:31806   */\n      mstore\n        /* \"#utility.yul\":31634:31813   */\n      pop\n      jump\t// out\n        /* \"#utility.yul\":31819:32185   */\n    tag_433:\n        /* \"#utility.yul\":31961:31964   */\n      0x00\n        /* \"#utility.yul\":31982:32049   */\n      tag_748\n        /* \"#utility.yul\":32046:32048   */\n      0x1d\n        /* \"#utility.yul\":32041:32044   */\n      dup4\n        /* \"#utility.yul\":31982:32049   */\n      tag_392\n      jump\t// in\n    tag_748:\n        /* \"#utility.yul\":31975:32049   */\n      swap2\n      pop\n        /* \"#utility.yul\":32058:32151   */\n      tag_749\n        /* \"#utility.yul\":32147:32150   */\n      dup3\n        /* \"#utility.yul\":32058:32151   */\n      tag_432\n      jump\t// in\n    tag_749:\n        /* \"#utility.yul\":32176:32178   */\n      0x20\n        /* \"#utility.yul\":32171:32174   */\n      dup3\n        /* \"#utility.yul\":32167:32179   */\n      add\n        /* \"#utility.yul\":32160:32179   */\n      swap1\n      pop\n        /* \"#utility.yul\":31819:32185   */\n      swap2\n      swap1\n      pop\n      jump\t// out\n        /* \"#utility.yul\":32191:32610   */\n    tag_343:\n        /* \"#utility.yul\":32357:32361   */\n      0x00\n        /* \"#utility.yul\":32395:32397   */\n      0x20\n        /* \"#utility.yul\":32384:32393   */\n      dup3\n        /* \"#utility.yul\":32380:32398   */\n      add\n        /* \"#utility.yul\":32372:32398   */\n      swap1\n      pop\n        /* \"#utility.yul\":32444:32453   */\n      dup2\n        /* \"#utility.yul\":32438:32442   */\n      dup2\n        /* \"#utility.yul\":32434:32454   */\n      sub\n        /* \"#utility.yul\":32430:32431   */\n      0x00\n        /* \"#utility.yul\":32419:32428   */\n      dup4\n        /* \"#utility.yul\":32415:32432   */\n      add\n        /* \"#utility.yul\":32408:32455   */\n      mstore\n        /* \"#utility.yul\":32472:32603   */\n      tag_751\n        /* \"#utility.yul\":32598:32602   */\n      dup2\n        /* \"#utility.yul\":32472:32603   */\n      tag_433\n      jump\t// in\n    tag_751:\n        /* \"#utility.yul\":32464:32603   */\n      swap1\n      pop\n        /* \"#utility.yul\":32191:32610   */\n      swap2\n      swap1\n      pop\n      jump\t// out\n        /* \"#utility.yul\":32616:32929   */\n    tag_352:\n        /* \"#utility.yul\":32729:32733   */\n      0x00\n        /* \"#utility.yul\":32767:32769   */\n      0x20\n        /* \"#utility.yul\":32756:32765   */\n      dup3\n        /* \"#utility.yul\":32752:32770   */\n      add\n        /* \"#utility.yul\":32744:32770   */\n      swap1\n      pop\n        /* \"#utility.yul\":32816:32825   */\n      dup2\n        /* \"#utility.yul\":32810:32814   */\n      dup2\n        /* \"#utility.yul\":32806:32826   */\n      sub\n        /* \"#utility.yul\":32802:32803   */\n      0x00\n        /* \"#utility.yul\":32791:32800   */\n      dup4\n        /* \"#utility.yul\":32787:32804   */\n      add\n        /* \"#utility.yul\":32780:32827   */\n      mstore\n        /* \"#utility.yul\":32844:32922   */\n      tag_753\n        /* \"#utility.yul\":32917:32921   */\n      dup2\n        /* \"#utility.yul\":32908:32914   */\n      dup5\n        /* \"#utility.yul\":32844:32922   */\n      tag_397\n      jump\t// in\n    tag_753:\n        /* \"#utility.yul\":32836:32922   */\n      swap1\n      pop\n        /* \"#utility.yul\":32616:32929   */\n      swap3\n      swap2\n      pop\n      pop\n      jump\t// out\n\n    auxdata: 0xa2646970667358221220dd175e72649fc590c32e72ba343166cecec776c9b550f6f852b852cdffb2987d64736f6c63430008120033\n}\n",
				"bytecode": {
					"linkReferences": {},
					"object": "608060405260405180602001604052806040518060600160405280602a8152602001620032a5602a913981525060029060016200003e9291906200022b565b506202a3006008553480156200005357600080fd5b50604051620032cf380380620032cf8339818101604052810190620000799190620003bd565b620000996200008d6200015f60201b60201c565b6200016760201b60201c565b60008060146101000a81548160ff0219169083151502179055506001808190555081600560006101000a81548173ffffffffffffffffffffffffffffffffffffffff021916908373ffffffffffffffffffffffffffffffffffffffff16021790555073befe898407483f0f2ff605971fbd8cf8fbd8b160600460006101000a81548173ffffffffffffffffffffffffffffffffffffffff021916908373ffffffffffffffffffffffffffffffffffffffff1602179055508060088190555050506200075b565b600033905090565b60008060009054906101000a900473ffffffffffffffffffffffffffffffffffffffff169050816000806101000a81548173ffffffffffffffffffffffffffffffffffffffff021916908373ffffffffffffffffffffffffffffffffffffffff1602179055508173ffffffffffffffffffffffffffffffffffffffff168173ffffffffffffffffffffffffffffffffffffffff167f8be0079c531659141344cd1fd0a4f28419497f9722a3daafe3b4186f6b6457e060405160405180910390a35050565b82805482825590600052602060002090810192821562000278579160200282015b828111156200027757825182908162000266919062000674565b50916020019190600101906200024c565b5b5090506200028791906200028b565b5090565b5b80821115620002af5760008181620002a59190620002b3565b506001016200028c565b5090565b508054620002c1906200046d565b6000825580601f10620002d55750620002f6565b601f016020900490600052602060002090810190620002f59190620002f9565b5b50565b5b8082111562000314576000816000905550600101620002fa565b5090565b600080fd5b600073ffffffffffffffffffffffffffffffffffffffff82169050919050565b60006200034a826200031d565b9050919050565b6200035c816200033d565b81146200036857600080fd5b50565b6000815190506200037c8162000351565b92915050565b6000819050919050565b620003978162000382565b8114620003a357600080fd5b50565b600081519050620003b7816200038c565b92915050565b60008060408385031215620003d757620003d662000318565b5b6000620003e7858286016200036b565b9250506020620003fa85828601620003a6565b9150509250929050565b600081519050919050565b7f4e487b7100000000000000000000000000000000000000000000000000000000600052604160045260246000fd5b7f4e487b7100000000000000000000000000000000000000000000000000000000600052602260045260246000fd5b600060028204905060018216806200048657607f821691505b6020821081036200049c576200049b6200043e565b5b50919050565b60008190508160005260206000209050919050565b60006020601f8301049050919050565b600082821b905092915050565b600060088302620005067fffffffffffffffffffffffffffffffffffffffffffffffffffffffffffffffff82620004c7565b620005128683620004c7565b95508019841693508086168417925050509392505050565b6000819050919050565b6000620005556200054f620005498462000382565b6200052a565b62000382565b9050919050565b6000819050919050565b620005718362000534565b6200058962000580826200055c565b848454620004d4565b825550505050565b600090565b620005a062000591565b620005ad81848462000566565b505050565b5b81811015620005d557620005c960008262000596565b600181019050620005b3565b5050565b601f8211156200062457620005ee81620004a2565b620005f984620004b7565b8101602085101562000609578190505b620006216200061885620004b7565b830182620005b2565b50505b505050565b600082821c905092915050565b6000620006496000198460080262000629565b1980831691505092915050565b600062000664838362000636565b9150826002028217905092915050565b6200067f8262000404565b67ffffffffffffffff8111156200069b576200069a6200040f565b5b620006a782546200046d565b620006b4828285620005d9565b600060209050601f831160018114620006ec5760008415620006d7578287015190505b620006e3858262000656565b86555062000753565b601f198416620006fc86620004a2565b60005b828110156200072657848901518255600182019150602085019450602081019050620006ff565b8683101562000746578489015162000742601f89168262000636565b8355505b6001600288020188555050505b505050505050565b612b3a806200076b6000396000f3fe608060405234801561001057600080fd5b50600436106101a85760003560e01c806380faa57d116100f9578063ca1d209d11610097578063d1af0c7d11610071578063d1af0c7d14610487578063df136d65146104a5578063ebe2b12b146104c3578063f2fde38b146104e1576101a8565b8063ca1d209d14610431578063cc1a378f1461044d578063cd3daf9d14610469576101a8565b80638b876347116100d35780638b876347146103bb5780638da5cb5b146103eb578063c6e79b9114610409578063c8f33c9114610413576101a8565b806380faa57d14610351578063880b0e431461036f5780638980f11f1461039f576101a8565b8063583419221161016657806370a082311161014057806370a08231146102db578063715018a61461030b57806372f702f3146103155780637b0a47ee14610333576101a8565b806358341922146102835780635c975abb146102a15780636c11fe9b146102bf576101a8565b80628cc262146101ad5780630700037d146101dd5780631c1f78eb1461020d578063386a95251461022b5780634e71d92d14610249578063529d6ccf14610253575b600080fd5b6101c760048036038101906101c29190611a10565b6104fd565b6040516101d49190611a56565b60405180910390f35b6101f760048036038101906101f29190611a10565b61050f565b6040516102049190611a56565b60405180910390f35b610215610527565b6040516102229190611a56565b60405180910390f35b61023361053e565b6040516102409190611a56565b60405180910390f35b610251610544565b005b61026d60048036038101906102689190611a10565b610772565b60405161027a9190611a8c565b60405180910390f35b61028b6107c8565b6040516102989190611a56565b60405180910390f35b6102a96107d2565b6040516102b69190611a8c565b60405180910390f35b6102d960048036038101906102d49190611dc2565b6107e8565b005b6102f560048036038101906102f09190611a10565b6108c0565b6040516103029190611a56565b60405180910390f35b610313610909565b005b61031d61091d565b60405161032a9190611ec8565b60405180910390f35b61033b610943565b6040516103489190611a56565b60405180910390f35b610359610949565b6040516103669190611a56565b60405180910390f35b61038960048036038101906103849190611ee3565b610958565b6040516103969190611f8a565b60405180910390f35b6103b960048036038101906103b49190611fa5565b610bcc565b005b6103d560048036038101906103d09190611a10565b610cca565b6040516103e29190611a56565b60405180910390f35b6103f3610ce2565b6040516104009190611ff4565b60405180910390f35b610411610d0b565b005b61041b610e4d565b6040516104289190611a56565b60405180910390f35b61044b6004803603810190610446919061200f565b610e53565b005b6104676004803603810190610462919061200f565b61113f565b005b6104716111c4565b60405161047e9190611a56565b60405180910390f35b61048f6111d3565b60405161049c9190611ec8565b60405180910390f35b6104ad6111f9565b6040516104ba9190611a56565b60405180910390f35b6104cb6111ff565b6040516104d89190611a56565b60405180910390f35b6104fb60048036038101906104f69190611a10565b611205565b005b600061050882611288565b9050919050565b600c6020528060005260406000206000915090505481565b6000600854600754610539919061206b565b905090565b60085481565b61054c61138a565b6105546113d9565b3361055d611423565b600a8190555061056b61148d565b600981905550600073ffffffffffffffffffffffffffffffffffffffff168173ffffffffffffffffffffffffffffffffffffffff1614610638576105ae81611288565b600c60008373ffffffffffffffffffffffffffffffffffffffff1673ffffffffffffffffffffffffffffffffffffffff16815260200190815260200160002081905550600a54600b60008373ffffffffffffffffffffffffffffffffffffffff1673ffffffffffffffffffffffffffffffffffffffff168152602001908152602001600020819055505b6000600c60003373ffffffffffffffffffffffffffffffffffffffff1673ffffffffffffffffffffffffffffffffffffffff1681526020019081526020016000205490506000811115610766576000600c60003373ffffffffffffffffffffffffffffffffffffffff1673ffffffffffffffffffffffffffffffffffffffff168152602001908152602001600020819055506107173382600560009054906101000a900473ffffffffffffffffffffffffffffffffffffffff1673ffffffffffffffffffffffffffffffffffffffff166114a79092919063ffffffff16565b3373ffffffffffffffffffffffffffffffffffffffff167fd8138f8a3f377c5259ca548e70e4c2de94f129f5a11036a15b69513cba2b426a8260405161075d9190611a56565b60405180910390a25b505061077061152d565b565b6000600360008373ffffffffffffffffffffffffffffffffffffffff1673ffffffffffffffffffffffffffffffffffffffff16815260200190815260200160002060009054906101000a900460ff169050919050565b6000600d54905090565b60008060149054906101000a900460ff16905090565b6107f06113d9565b81518351148015610802575080518251145b610841576040517f08c379a00000000000000000000000000000000000000000000000000000000081526004016108389061210a565b60405180910390fd5b60005b83518110156108ba576108a68482815181106108635761086261212a565b5b602002602001015184838151811061087e5761087d61212a565b5b60200260200101518484815181106108995761089861212a565b5b6020026020010151610958565b5080806108b290612159565b915050610844565b50505050565b6000600e60008373ffffffffffffffffffffffffffffffffffffffff1673ffffffffffffffffffffffffffffffffffffffff168152602001908152602001600020549050919050565b610911611536565b61091b60006115b4565b565b600460009054906101000a900473ffffffffffffffffffffffffffffffffffffffff1681565b60075481565b600061095361148d565b905090565b60006109626113d9565b3361096b611423565b600a8190555061097961148d565b600981905550600073ffffffffffffffffffffffffffffffffffffffff168173ffffffffffffffffffffffffffffffffffffffff1614610a46576109bc81611288565b600c60008373ffffffffffffffffffffffffffffffffffffffff1673ffffffffffffffffffffffffffffffffffffffff16815260200190815260200160002081905550600a54600b60008373ffffffffffffffffffffffffffffffffffffffff1673ffffffffffffffffffffffffffffffffffffffff168152602001908152602001600020819055505b60008311610a80576040517f1f2a200500000000000000000000000000000000000000000000000000000000815260040160405180910390fd5b600061080073ffffffffffffffffffffffffffffffffffffffff166354b826f5338888886040518563ffffffff1660e01b8152600401610ac3949392919061220f565b6020604051808303816000875af1158015610ae2573d6000803e3d6000fd5b505050506040513d601f19601f82011682018060405250810190610b06919061228e565b905083600d54610b1691906122bb565b600d8190555083600e60003373ffffffffffffffffffffffffffffffffffffffff1673ffffffffffffffffffffffffffffffffffffffff1681526020019081526020016000206000828254610b6b91906122bb565b925050819055503373ffffffffffffffffffffffffffffffffffffffff167f0da5c3d1021415bb27aa0917eaaafc6ee7c358a2a436d70208004073f6109ec085604051610bb89190611a56565b60405180910390a280925050509392505050565b610bd4611536565b600460009054906101000a900473ffffffffffffffffffffffffffffffffffffffff1673ffffffffffffffffffffffffffffffffffffffff168273ffffffffffffffffffffffffffffffffffffffff1603610c5b576040517f43fc58f100000000000000000000000000000000000000000000000000000000815260040160405180910390fd5b610c8d610c66610ce2565b828473ffffffffffffffffffffffffffffffffffffffff166114a79092919063ffffffff16565b7f8c1256b8896378cd5044f80c202f9772b9d77dc85c8a6eb51967210b09bfaa288282604051610cbe9291906122ef565b60405180910390a15050565b600b6020528060005260406000206000915090505481565b60008060009054906101000a900473ffffffffffffffffffffffffffffffffffffffff16905090565b600061080073ffffffffffffffffffffffffffffffffffffffff1663b6039895337fffffffffffffffffffffffffffffffffffffffffffffffffffffffffffffffff60026040518463ffffffff1660e01b8152600401610d6d939291906124e8565b6020604051808303816000875af1158015610d8c573d6000803e3d6000fd5b505050506040513d601f19601f82011682018060405250810190610db09190612552565b905080610df2576040517f08c379a0000000000000000000000000000000000000000000000000000000008152600401610de9906125f1565b60405180910390fd5b6001600360003373ffffffffffffffffffffffffffffffffffffffff1673ffffffffffffffffffffffffffffffffffffffff16815260200190815260200160002060006101000a81548160ff02191690831515021790555050565b60095481565b610e5b611536565b610e636113d9565b6000610e6d611423565b600a81905550610e7b61148d565b600981905550600073ffffffffffffffffffffffffffffffffffffffff168173ffffffffffffffffffffffffffffffffffffffff1614610f4857610ebe81611288565b600c60008373ffffffffffffffffffffffffffffffffffffffff1673ffffffffffffffffffffffffffffffffffffffff16815260200190815260200160002081905550600a54600b60008373ffffffffffffffffffffffffffffffffffffffff1673ffffffffffffffffffffffffffffffffffffffff168152602001908152602001600020819055505b6006544210610f6a5760085482610f5f9190612640565b600781905550610fb0565b600042600654610f7a9190612671565b9050600060075482610f8c919061206b565b90506008548185610f9d91906122bb565b610fa79190612640565b60078190555050505b610fff333084600560009054906101000a900473ffffffffffffffffffffffffffffffffffffffff1673ffffffffffffffffffffffffffffffffffffffff16611678909392919063ffffffff16565b6000600560009054906101000a900473ffffffffffffffffffffffffffffffffffffffff1673ffffffffffffffffffffffffffffffffffffffff166370a08231306040518263ffffffff1660e01b815260040161105c9190611ff4565b602060405180830381865afa158015611079573d6000803e3d6000fd5b505050506040513d601f19601f8201168201806040525081019061109d91906126ba565b9050600854816110ad9190612640565b60075411156110e8576040517f7f5e85a600000000000000000000000000000000000000000000000000000000815260040160405180910390fd5b42600981905550600854426110fd91906122bb565b6006819055507fc4c14883ae9fd8e26d5d59e3485ed29fd126d781d7e498a4ca5c54c8268e4936836040516111329190611a56565b60405180910390a1505050565b611147611536565b600654421015611183576040517f38e3211200000000000000000000000000000000000000000000000000000000815260040160405180910390fd5b806008819055507ffb46ca5a5e06d4540d6387b930a7c978bce0db5f449ec6b3f5d07c6e1d44f2d3816040516111b99190611a56565b60405180910390a150565b60006111ce611423565b905090565b600560009054906101000a900473ffffffffffffffffffffffffffffffffffffffff1681565b600a5481565b60065481565b61120d611536565b600073ffffffffffffffffffffffffffffffffffffffff168173ffffffffffffffffffffffffffffffffffffffff160361127c576040517f08c379a000000000000000000000000000000000000000000000000000000000815260040161127390612759565b60405180910390fd5b611285816115b4565b50565b6000600c60008373ffffffffffffffffffffffffffffffffffffffff1673ffffffffffffffffffffffffffffffffffffffff16815260200190815260200160002054670de0b6b3a7640000600b60008573ffffffffffffffffffffffffffffffffffffffff1673ffffffffffffffffffffffffffffffffffffffff1681526020019081526020016000205461131b611423565b6113259190612671565b600e60008673ffffffffffffffffffffffffffffffffffffffff1673ffffffffffffffffffffffffffffffffffffffff1681526020019081526020016000205461136f919061206b565b6113799190612640565b61138391906122bb565b9050919050565b6002600154036113cf576040517f08c379a00000000000000000000000000000000000000000000000000000000081526004016113c6906127c5565b60405180910390fd5b6002600181905550565b6113e16107d2565b15611421576040517f08c379a000000000000000000000000000000000000000000000000000000000815260040161141890612831565b60405180910390fd5b565b600080600d540361143857600a54905061148a565b600d54670de0b6b3a764000060075460095461145261148d565b61145c9190612671565b611466919061206b565b611470919061206b565b61147a9190612640565b600a5461148791906122bb565b90505b90565b600060065442106114a0576006546114a2565b425b905090565b6115288363a9059cbb60e01b84846040516024016114c69291906122ef565b604051602081830303815290604052907bffffffffffffffffffffffffffffffffffffffffffffffffffffffff19166020820180517bffffffffffffffffffffffffffffffffffffffffffffffffffffffff8381831617835250505050611701565b505050565b60018081905550565b61153e6117c9565b73ffffffffffffffffffffffffffffffffffffffff1661155c610ce2565b73ffffffffffffffffffffffffffffffffffffffff16146115b2576040517f08c379a00000000000000000000000000000000000000000000000000000000081526004016115a99061289d565b60405180910390fd5b565b60008060009054906101000a900473ffffffffffffffffffffffffffffffffffffffff169050816000806101000a81548173ffffffffffffffffffffffffffffffffffffffff021916908373ffffffffffffffffffffffffffffffffffffffff1602179055508173ffffffffffffffffffffffffffffffffffffffff168173ffffffffffffffffffffffffffffffffffffffff167f8be0079c531659141344cd1fd0a4f28419497f9722a3daafe3b4186f6b6457e060405160405180910390a35050565b6116fb846323b872dd60e01b858585604051602401611699939291906128bd565b604051602081830303815290604052907bffffffffffffffffffffffffffffffffffffffffffffffffffffffff19166020820180517bffffffffffffffffffffffffffffffffffffffffffffffffffffffff8381831617835250505050611701565b50505050565b6000611763826040518060400160405280602081526020017f5361666545524332303a206c6f772d6c6576656c2063616c6c206661696c65648152508573ffffffffffffffffffffffffffffffffffffffff166117d19092919063ffffffff16565b90506000815114806117855750808060200190518101906117849190612552565b5b6117c4576040517f08c379a00000000000000000000000000000000000000000000000000000000081526004016117bb90612966565b60405180910390fd5b505050565b600033905090565b60606117e084846000856117e9565b90509392505050565b60608247101561182e576040517f08c379a0000000000000000000000000000000000000000000000000000000008152600401611825906129f8565b60405180910390fd5b6000808673ffffffffffffffffffffffffffffffffffffffff1685876040516118579190612a5f565b60006040518083038185875af1925050503d8060008114611894576040519150601f19603f3d011682016040523d82523d6000602084013e611899565b606091505b50915091506118aa878383876118b6565b92505050949350505050565b60608315611918576000835103611910576118d08561192b565b61190f576040517f08c379a000000000000000000000000000000000000000000000000000000000815260040161190690612ac2565b60405180910390fd5b5b829050611923565b611922838361194e565b5b949350505050565b6000808273ffffffffffffffffffffffffffffffffffffffff163b119050919050565b6000825111156119615781518083602001fd5b806040517f08c379a00000000000000000000000000000000000000000000000000000000081526004016119959190612ae2565b60405180910390fd5b6000604051905090565b600080fd5b600080fd5b600073ffffffffffffffffffffffffffffffffffffffff82169050919050565b60006119dd826119b2565b9050919050565b6119ed816119d2565b81146119f857600080fd5b50565b600081359050611a0a816119e4565b92915050565b600060208284031215611a2657611a256119a8565b5b6000611a34848285016119fb565b91505092915050565b6000819050919050565b611a5081611a3d565b82525050565b6000602082019050611a6b6000830184611a47565b92915050565b60008115159050919050565b611a8681611a71565b82525050565b6000602082019050611aa16000830184611a7d565b92915050565b600080fd5b6000601f19601f8301169050919050565b7f4e487b7100000000000000000000000000000000000000000000000000000000600052604160045260246000fd5b611af582611aac565b810181811067ffffffffffffffff82111715611b1457611b13611abd565b5b80604052505050565b6000611b2761199e565b9050611b338282611aec565b919050565b600067ffffffffffffffff821115611b5357611b52611abd565b5b602082029050602081019050919050565b600080fd5b600080fd5b600067ffffffffffffffff821115611b8957611b88611abd565b5b611b9282611aac565b9050602081019050919050565b82818337600083830152505050565b6000611bc1611bbc84611b6e565b611b1d565b905082815260208101848484011115611bdd57611bdc611b69565b5b611be8848285611b9f565b509392505050565b600082601f830112611c0557611c04611aa7565b5b8135611c15848260208601611bae565b91505092915050565b6000611c31611c2c84611b38565b611b1d565b90508083825260208201905060208402830185811115611c5457611c53611b64565b5b835b81811015611c9b57803567ffffffffffffffff811115611c7957611c78611aa7565b5b808601611c868982611bf0565b85526020850194505050602081019050611c56565b5050509392505050565b600082601f830112611cba57611cb9611aa7565b5b8135611cca848260208601611c1e565b91505092915050565b600067ffffffffffffffff821115611cee57611ced611abd565b5b602082029050602081019050919050565b611d0881611a3d565b8114611d1357600080fd5b50565b600081359050611d2581611cff565b92915050565b6000611d3e611d3984611cd3565b611b1d565b90508083825260208201905060208402830185811115611d6157611d60611b64565b5b835b81811015611d8a5780611d768882611d16565b845260208401935050602081019050611d63565b5050509392505050565b600082601f830112611da957611da8611aa7565b5b8135611db9848260208601611d2b565b91505092915050565b600080600060608486031215611ddb57611dda6119a8565b5b600084013567ffffffffffffffff811115611df957611df86119ad565b5b611e0586828701611ca5565b935050602084013567ffffffffffffffff811115611e2657611e256119ad565b5b611e3286828701611ca5565b925050604084013567ffffffffffffffff811115611e5357611e526119ad565b5b611e5f86828701611d94565b9150509250925092565b6000819050919050565b6000611e8e611e89611e84846119b2565b611e69565b6119b2565b9050919050565b6000611ea082611e73565b9050919050565b6000611eb282611e95565b9050919050565b611ec281611ea7565b82525050565b6000602082019050611edd6000830184611eb9565b92915050565b600080600060608486031215611efc57611efb6119a8565b5b600084013567ffffffffffffffff811115611f1a57611f196119ad565b5b611f2686828701611bf0565b935050602084013567ffffffffffffffff811115611f4757611f466119ad565b5b611f5386828701611bf0565b9250506040611f6486828701611d16565b9150509250925092565b60008160070b9050919050565b611f8481611f6e565b82525050565b6000602082019050611f9f6000830184611f7b565b92915050565b60008060408385031215611fbc57611fbb6119a8565b5b6000611fca858286016119fb565b9250506020611fdb85828601611d16565b9150509250929050565b611fee816119d2565b82525050565b60006020820190506120096000830184611fe5565b92915050565b600060208284031215612025576120246119a8565b5b600061203384828501611d16565b91505092915050565b7f4e487b7100000000000000000000000000000000000000000000000000000000600052601160045260246000fd5b600061207682611a3d565b915061208183611a3d565b925082820261208f81611a3d565b915082820484148315176120a6576120a561203c565b5b5092915050565b600082825260208201905092915050565b7f496e70757420617272617973206c656e677468206d69736d6174636800000000600082015250565b60006120f4601c836120ad565b91506120ff826120be565b602082019050919050565b60006020820190508181036000830152612123816120e7565b9050919050565b7f4e487b7100000000000000000000000000000000000000000000000000000000600052603260045260246000fd5b600061216482611a3d565b91507fffffffffffffffffffffffffffffffffffffffffffffffffffffffffffffffff82036121965761219561203c565b5b600182019050919050565b600081519050919050565b60005b838110156121ca5780820151818401526020810190506121af565b60008484015250505050565b60006121e1826121a1565b6121eb81856120ad565b93506121fb8185602086016121ac565b61220481611aac565b840191505092915050565b60006080820190506122246000830187611fe5565b818103602083015261223681866121d6565b9050818103604083015261224a81856121d6565b90506122596060830184611a47565b95945050505050565b61226b81611f6e565b811461227657600080fd5b50565b60008151905061228881612262565b92915050565b6000602082840312156122a4576122a36119a8565b5b60006122b284828501612279565b91505092915050565b60006122c682611a3d565b91506122d183611a3d565b92508282019050808211156122e9576122e861203c565b5b92915050565b60006040820190506123046000830185611fe5565b6123116020830184611a47565b9392505050565b600081549050919050565b600082825260208201905092915050565b60008190508160005260206000209050919050565b7f4e487b7100000000000000000000000000000000000000000000000000000000600052602260045260246000fd5b6000600282049050600182168061239057607f821691505b6020821081036123a3576123a2612349565b5b50919050565b600082825260208201905092915050565b60008190508160005260206000209050919050565b600081546123dc81612378565b6123e681866123a9565b9450600182166000811461240157600181146124175761244a565b60ff19831686528115156020028601935061244a565b612420856123ba565b60005b8381101561244257815481890152600182019150602081019050612423565b808801955050505b50505092915050565b600061245f83836123cf565b905092915050565b6000600182019050919050565b600061247f82612318565b6124898185612323565b93508360208202850161249b85612334565b8060005b858110156124d6578484038952816124b78582612453565b94506124c283612467565b925060208a0199505060018101905061249f565b50829750879550505050505092915050565b60006060820190506124fd6000830186611fe5565b61250a6020830185611a47565b818103604083015261251c8184612474565b9050949350505050565b61252f81611a71565b811461253a57600080fd5b50565b60008151905061254c81612526565b92915050565b600060208284031215612568576125676119a8565b5b60006125768482850161253d565b91505092915050565b7f4661696c656420746f20617070726f76652064656c6567617465206d6574686f60008201527f6400000000000000000000000000000000000000000000000000000000000000602082015250565b60006125db6021836120ad565b91506125e68261257f565b604082019050919050565b6000602082019050818103600083015261260a816125ce565b9050919050565b7f4e487b7100000000000000000000000000000000000000000000000000000000600052601260045260246000fd5b600061264b82611a3d565b915061265683611a3d565b92508261266657612665612611565b5b828204905092915050565b600061267c82611a3d565b915061268783611a3d565b925082820390508181111561269f5761269e61203c565b5b92915050565b6000815190506126b481611cff565b92915050565b6000602082840312156126d0576126cf6119a8565b5b60006126de848285016126a5565b91505092915050565b7f4f776e61626c653a206e6577206f776e657220697320746865207a65726f206160008201527f6464726573730000000000000000000000000000000000000000000000000000602082015250565b60006127436026836120ad565b915061274e826126e7565b604082019050919050565b6000602082019050818103600083015261277281612736565b9050919050565b7f5265656e7472616e637947756172643a207265656e7472616e742063616c6c00600082015250565b60006127af601f836120ad565b91506127ba82612779565b602082019050919050565b600060208201905081810360008301526127de816127a2565b9050919050565b7f5061757361626c653a2070617573656400000000000000000000000000000000600082015250565b600061281b6010836120ad565b9150612826826127e5565b602082019050919050565b6000602082019050818103600083015261284a8161280e565b9050919050565b7f4f776e61626c653a2063616c6c6572206973206e6f7420746865206f776e6572600082015250565b60006128876020836120ad565b915061289282612851565b602082019050919050565b600060208201905081810360008301526128b68161287a565b9050919050565b60006060820190506128d26000830186611fe5565b6128df6020830185611fe5565b6128ec6040830184611a47565b949350505050565b7f5361666545524332303a204552433230206f7065726174696f6e20646964206e60008201527f6f74207375636365656400000000000000000000000000000000000000000000602082015250565b6000612950602a836120ad565b915061295b826128f4565b604082019050919050565b6000602082019050818103600083015261297f81612943565b9050919050565b7f416464726573733a20696e73756666696369656e742062616c616e636520666f60008201527f722063616c6c0000000000000000000000000000000000000000000000000000602082015250565b60006129e26026836120ad565b91506129ed82612986565b604082019050919050565b60006020820190508181036000830152612a11816129d5565b9050919050565b600081519050919050565b600081905092915050565b6000612a3982612a18565b612a438185612a23565b9350612a538185602086016121ac565b80840191505092915050565b6000612a6b8284612a2e565b915081905092915050565b7f416464726573733a2063616c6c20746f206e6f6e2d636f6e7472616374000000600082015250565b6000612aac601d836120ad565b9150612ab782612a76565b602082019050919050565b60006020820190508181036000830152612adb81612a9f565b9050919050565b60006020820190508181036000830152612afc81846121d6565b90509291505056fea2646970667358221220dd175e72649fc590c32e72ba343166cecec776c9b550f6f852b852cdffb2987d64736f6c634300081200332f636f736d6f732e7374616b696e672e763162657461312e4d7367426567696e526564656c6567617465",
					"opcodes": "PUSH1 0x80 PUSH1 0x40 MSTORE PUSH1 0x40 MLOAD DUP1 PUSH1 0x20 ADD PUSH1 0x40 MSTORE DUP1 PUSH1 0x40 MLOAD DUP1 PUSH1 0x60 ADD PUSH1 0x40 MSTORE DUP1 PUSH1 0x2A DUP2 MSTORE PUSH1 0x20 ADD PUSH3 0x32A5 PUSH1 0x2A SWAP2 CODECOPY DUP2 MSTORE POP PUSH1 0x2 SWAP1 PUSH1 0x1 PUSH3 0x3E SWAP3 SWAP2 SWAP1 PUSH3 0x22B JUMP JUMPDEST POP PUSH3 0x2A300 PUSH1 0x8 SSTORE CALLVALUE DUP1 ISZERO PUSH3 0x53 JUMPI PUSH1 0x0 DUP1 REVERT JUMPDEST POP PUSH1 0x40 MLOAD PUSH3 0x32CF CODESIZE SUB DUP1 PUSH3 0x32CF DUP4 CODECOPY DUP2 DUP2 ADD PUSH1 0x40 MSTORE DUP2 ADD SWAP1 PUSH3 0x79 SWAP2 SWAP1 PUSH3 0x3BD JUMP JUMPDEST PUSH3 0x99 PUSH3 0x8D PUSH3 0x15F PUSH1 0x20 SHL PUSH1 0x20 SHR JUMP JUMPDEST PUSH3 0x167 PUSH1 0x20 SHL PUSH1 0x20 SHR JUMP JUMPDEST PUSH1 0x0 DUP1 PUSH1 0x14 PUSH2 0x100 EXP DUP2 SLOAD DUP2 PUSH1 0xFF MUL NOT AND SWAP1 DUP4 ISZERO ISZERO MUL OR SWAP1 SSTORE POP PUSH1 0x1 DUP1 DUP2 SWAP1 SSTORE POP DUP2 PUSH1 0x5 PUSH1 0x0 PUSH2 0x100 EXP DUP2 SLOAD DUP2 PUSH20 0xFFFFFFFFFFFFFFFFFFFFFFFFFFFFFFFFFFFFFFFF MUL NOT AND SWAP1 DUP4 PUSH20 0xFFFFFFFFFFFFFFFFFFFFFFFFFFFFFFFFFFFFFFFF AND MUL OR SWAP1 SSTORE POP PUSH20 0xBEFE898407483F0F2FF605971FBD8CF8FBD8B160 PUSH1 0x4 PUSH1 0x0 PUSH2 0x100 EXP DUP2 SLOAD DUP2 PUSH20 0xFFFFFFFFFFFFFFFFFFFFFFFFFFFFFFFFFFFFFFFF MUL NOT AND SWAP1 DUP4 PUSH20 0xFFFFFFFFFFFFFFFFFFFFFFFFFFFFFFFFFFFFFFFF AND MUL OR SWAP1 SSTORE POP DUP1 PUSH1 0x8 DUP2 SWAP1 SSTORE POP POP POP PUSH3 0x75B JUMP JUMPDEST PUSH1 0x0 CALLER SWAP1 POP SWAP1 JUMP JUMPDEST PUSH1 0x0 DUP1 PUSH1 0x0 SWAP1 SLOAD SWAP1 PUSH2 0x100 EXP SWAP1 DIV PUSH20 0xFFFFFFFFFFFFFFFFFFFFFFFFFFFFFFFFFFFFFFFF AND SWAP1 POP DUP2 PUSH1 0x0 DUP1 PUSH2 0x100 EXP DUP2 SLOAD DUP2 PUSH20 0xFFFFFFFFFFFFFFFFFFFFFFFFFFFFFFFFFFFFFFFF MUL NOT AND SWAP1 DUP4 PUSH20 0xFFFFFFFFFFFFFFFFFFFFFFFFFFFFFFFFFFFFFFFF AND MUL OR SWAP1 SSTORE POP DUP2 PUSH20 0xFFFFFFFFFFFFFFFFFFFFFFFFFFFFFFFFFFFFFFFF AND DUP2 PUSH20 0xFFFFFFFFFFFFFFFFFFFFFFFFFFFFFFFFFFFFFFFF AND PUSH32 0x8BE0079C531659141344CD1FD0A4F28419497F9722A3DAAFE3B4186F6B6457E0 PUSH1 0x40 MLOAD PUSH1 0x40 MLOAD DUP1 SWAP2 SUB SWAP1 LOG3 POP POP JUMP JUMPDEST DUP3 DUP1 SLOAD DUP3 DUP3 SSTORE SWAP1 PUSH1 0x0 MSTORE PUSH1 0x20 PUSH1 0x0 KECCAK256 SWAP1 DUP2 ADD SWAP3 DUP3 ISZERO PUSH3 0x278 JUMPI SWAP2 PUSH1 0x20 MUL DUP3 ADD JUMPDEST DUP3 DUP2 GT ISZERO PUSH3 0x277 JUMPI DUP3 MLOAD DUP3 SWAP1 DUP2 PUSH3 0x266 SWAP2 SWAP1 PUSH3 0x674 JUMP JUMPDEST POP SWAP2 PUSH1 0x20 ADD SWAP2 SWAP1 PUSH1 0x1 ADD SWAP1 PUSH3 0x24C JUMP JUMPDEST JUMPDEST POP SWAP1 POP PUSH3 0x287 SWAP2 SWAP1 PUSH3 0x28B JUMP JUMPDEST POP SWAP1 JUMP JUMPDEST JUMPDEST DUP1 DUP3 GT ISZERO PUSH3 0x2AF JUMPI PUSH1 0x0 DUP2 DUP2 PUSH3 0x2A5 SWAP2 SWAP1 PUSH3 0x2B3 JUMP JUMPDEST POP PUSH1 0x1 ADD PUSH3 0x28C JUMP JUMPDEST POP SWAP1 JUMP JUMPDEST POP DUP1 SLOAD PUSH3 0x2C1 SWAP1 PUSH3 0x46D JUMP JUMPDEST PUSH1 0x0 DUP3 SSTORE DUP1 PUSH1 0x1F LT PUSH3 0x2D5 JUMPI POP PUSH3 0x2F6 JUMP JUMPDEST PUSH1 0x1F ADD PUSH1 0x20 SWAP1 DIV SWAP1 PUSH1 0x0 MSTORE PUSH1 0x20 PUSH1 0x0 KECCAK256 SWAP1 DUP2 ADD SWAP1 PUSH3 0x2F5 SWAP2 SWAP1 PUSH3 0x2F9 JUMP JUMPDEST JUMPDEST POP JUMP JUMPDEST JUMPDEST DUP1 DUP3 GT ISZERO PUSH3 0x314 JUMPI PUSH1 0x0 DUP2 PUSH1 0x0 SWAP1 SSTORE POP PUSH1 0x1 ADD PUSH3 0x2FA JUMP JUMPDEST POP SWAP1 JUMP JUMPDEST PUSH1 0x0 DUP1 REVERT JUMPDEST PUSH1 0x0 PUSH20 0xFFFFFFFFFFFFFFFFFFFFFFFFFFFFFFFFFFFFFFFF DUP3 AND SWAP1 POP SWAP2 SWAP1 POP JUMP JUMPDEST PUSH1 0x0 PUSH3 0x34A DUP3 PUSH3 0x31D JUMP JUMPDEST SWAP1 POP SWAP2 SWAP1 POP JUMP JUMPDEST PUSH3 0x35C DUP2 PUSH3 0x33D JUMP JUMPDEST DUP2 EQ PUSH3 0x368 JUMPI PUSH1 0x0 DUP1 REVERT JUMPDEST POP JUMP JUMPDEST PUSH1 0x0 DUP2 MLOAD SWAP1 POP PUSH3 0x37C DUP2 PUSH3 0x351 JUMP JUMPDEST SWAP3 SWAP2 POP POP JUMP JUMPDEST PUSH1 0x0 DUP2 SWAP1 POP SWAP2 SWAP1 POP JUMP JUMPDEST PUSH3 0x397 DUP2 PUSH3 0x382 JUMP JUMPDEST DUP2 EQ PUSH3 0x3A3 JUMPI PUSH1 0x0 DUP1 REVERT JUMPDEST POP JUMP JUMPDEST PUSH1 0x0 DUP2 MLOAD SWAP1 POP PUSH3 0x3B7 DUP2 PUSH3 0x38C JUMP JUMPDEST SWAP3 SWAP2 POP POP JUMP JUMPDEST PUSH1 0x0 DUP1 PUSH1 0x40 DUP4 DUP6 SUB SLT ISZERO PUSH3 0x3D7 JUMPI PUSH3 0x3D6 PUSH3 0x318 JUMP JUMPDEST JUMPDEST PUSH1 0x0 PUSH3 0x3E7 DUP6 DUP3 DUP7 ADD PUSH3 0x36B JUMP JUMPDEST SWAP3 POP POP PUSH1 0x20 PUSH3 0x3FA DUP6 DUP3 DUP7 ADD PUSH3 0x3A6 JUMP JUMPDEST SWAP2 POP POP SWAP3 POP SWAP3 SWAP1 POP JUMP JUMPDEST PUSH1 0x0 DUP2 MLOAD SWAP1 POP SWAP2 SWAP1 POP JUMP JUMPDEST PUSH32 0x4E487B7100000000000000000000000000000000000000000000000000000000 PUSH1 0x0 MSTORE PUSH1 0x41 PUSH1 0x4 MSTORE PUSH1 0x24 PUSH1 0x0 REVERT JUMPDEST PUSH32 0x4E487B7100000000000000000000000000000000000000000000000000000000 PUSH1 0x0 MSTORE PUSH1 0x22 PUSH1 0x4 MSTORE PUSH1 0x24 PUSH1 0x0 REVERT JUMPDEST PUSH1 0x0 PUSH1 0x2 DUP3 DIV SWAP1 POP PUSH1 0x1 DUP3 AND DUP1 PUSH3 0x486 JUMPI PUSH1 0x7F DUP3 AND SWAP2 POP JUMPDEST PUSH1 0x20 DUP3 LT DUP2 SUB PUSH3 0x49C JUMPI PUSH3 0x49B PUSH3 0x43E JUMP JUMPDEST JUMPDEST POP SWAP2 SWAP1 POP JUMP JUMPDEST PUSH1 0x0 DUP2 SWAP1 POP DUP2 PUSH1 0x0 MSTORE PUSH1 0x20 PUSH1 0x0 KECCAK256 SWAP1 POP SWAP2 SWAP1 POP JUMP JUMPDEST PUSH1 0x0 PUSH1 0x20 PUSH1 0x1F DUP4 ADD DIV SWAP1 POP SWAP2 SWAP1 POP JUMP JUMPDEST PUSH1 0x0 DUP3 DUP3 SHL SWAP1 POP SWAP3 SWAP2 POP POP JUMP JUMPDEST PUSH1 0x0 PUSH1 0x8 DUP4 MUL PUSH3 0x506 PUSH32 0xFFFFFFFFFFFFFFFFFFFFFFFFFFFFFFFFFFFFFFFFFFFFFFFFFFFFFFFFFFFFFFFF DUP3 PUSH3 0x4C7 JUMP JUMPDEST PUSH3 0x512 DUP7 DUP4 PUSH3 0x4C7 JUMP JUMPDEST SWAP6 POP DUP1 NOT DUP5 AND SWAP4 POP DUP1 DUP7 AND DUP5 OR SWAP3 POP POP POP SWAP4 SWAP3 POP POP POP JUMP JUMPDEST PUSH1 0x0 DUP2 SWAP1 POP SWAP2 SWAP1 POP JUMP JUMPDEST PUSH1 0x0 PUSH3 0x555 PUSH3 0x54F PUSH3 0x549 DUP5 PUSH3 0x382 JUMP JUMPDEST PUSH3 0x52A JUMP JUMPDEST PUSH3 0x382 JUMP JUMPDEST SWAP1 POP SWAP2 SWAP1 POP JUMP JUMPDEST PUSH1 0x0 DUP2 SWAP1 POP SWAP2 SWAP1 POP JUMP JUMPDEST PUSH3 0x571 DUP4 PUSH3 0x534 JUMP JUMPDEST PUSH3 0x589 PUSH3 0x580 DUP3 PUSH3 0x55C JUMP JUMPDEST DUP5 DUP5 SLOAD PUSH3 0x4D4 JUMP JUMPDEST DUP3 SSTORE POP POP POP POP JUMP JUMPDEST PUSH1 0x0 SWAP1 JUMP JUMPDEST PUSH3 0x5A0 PUSH3 0x591 JUMP JUMPDEST PUSH3 0x5AD DUP2 DUP5 DUP5 PUSH3 0x566 JUMP JUMPDEST POP POP POP JUMP JUMPDEST JUMPDEST DUP2 DUP2 LT ISZERO PUSH3 0x5D5 JUMPI PUSH3 0x5C9 PUSH1 0x0 DUP3 PUSH3 0x596 JUMP JUMPDEST PUSH1 0x1 DUP2 ADD SWAP1 POP PUSH3 0x5B3 JUMP JUMPDEST POP POP JUMP JUMPDEST PUSH1 0x1F DUP3 GT ISZERO PUSH3 0x624 JUMPI PUSH3 0x5EE DUP2 PUSH3 0x4A2 JUMP JUMPDEST PUSH3 0x5F9 DUP5 PUSH3 0x4B7 JUMP JUMPDEST DUP2 ADD PUSH1 0x20 DUP6 LT ISZERO PUSH3 0x609 JUMPI DUP2 SWAP1 POP JUMPDEST PUSH3 0x621 PUSH3 0x618 DUP6 PUSH3 0x4B7 JUMP JUMPDEST DUP4 ADD DUP3 PUSH3 0x5B2 JUMP JUMPDEST POP POP JUMPDEST POP POP POP JUMP JUMPDEST PUSH1 0x0 DUP3 DUP3 SHR SWAP1 POP SWAP3 SWAP2 POP POP JUMP JUMPDEST PUSH1 0x0 PUSH3 0x649 PUSH1 0x0 NOT DUP5 PUSH1 0x8 MUL PUSH3 0x629 JUMP JUMPDEST NOT DUP1 DUP4 AND SWAP2 POP POP SWAP3 SWAP2 POP POP JUMP JUMPDEST PUSH1 0x0 PUSH3 0x664 DUP4 DUP4 PUSH3 0x636 JUMP JUMPDEST SWAP2 POP DUP3 PUSH1 0x2 MUL DUP3 OR SWAP1 POP SWAP3 SWAP2 POP POP JUMP JUMPDEST PUSH3 0x67F DUP3 PUSH3 0x404 JUMP JUMPDEST PUSH8 0xFFFFFFFFFFFFFFFF DUP2 GT ISZERO PUSH3 0x69B JUMPI PUSH3 0x69A PUSH3 0x40F JUMP JUMPDEST JUMPDEST PUSH3 0x6A7 DUP3 SLOAD PUSH3 0x46D JUMP JUMPDEST PUSH3 0x6B4 DUP3 DUP3 DUP6 PUSH3 0x5D9 JUMP JUMPDEST PUSH1 0x0 PUSH1 0x20 SWAP1 POP PUSH1 0x1F DUP4 GT PUSH1 0x1 DUP2 EQ PUSH3 0x6EC JUMPI PUSH1 0x0 DUP5 ISZERO PUSH3 0x6D7 JUMPI DUP3 DUP8 ADD MLOAD SWAP1 POP JUMPDEST PUSH3 0x6E3 DUP6 DUP3 PUSH3 0x656 JUMP JUMPDEST DUP7 SSTORE POP PUSH3 0x753 JUMP JUMPDEST PUSH1 0x1F NOT DUP5 AND PUSH3 0x6FC DUP7 PUSH3 0x4A2 JUMP JUMPDEST PUSH1 0x0 JUMPDEST DUP3 DUP2 LT ISZERO PUSH3 0x726 JUMPI DUP5 DUP10 ADD MLOAD DUP3 SSTORE PUSH1 0x1 DUP3 ADD SWAP2 POP PUSH1 0x20 DUP6 ADD SWAP5 POP PUSH1 0x20 DUP2 ADD SWAP1 POP PUSH3 0x6FF JUMP JUMPDEST DUP7 DUP4 LT ISZERO PUSH3 0x746 JUMPI DUP5 DUP10 ADD MLOAD PUSH3 0x742 PUSH1 0x1F DUP10 AND DUP3 PUSH3 0x636 JUMP JUMPDEST DUP4 SSTORE POP JUMPDEST PUSH1 0x1 PUSH1 0x2 DUP9 MUL ADD DUP9 SSTORE POP POP POP JUMPDEST POP POP POP POP POP POP JUMP JUMPDEST PUSH2 0x2B3A DUP1 PUSH3 0x76B PUSH1 0x0 CODECOPY PUSH1 0x0 RETURN INVALID PUSH1 0x80 PUSH1 0x40 MSTORE CALLVALUE DUP1 ISZERO PUSH2 0x10 JUMPI PUSH1 0x0 DUP1 REVERT JUMPDEST POP PUSH1 0x4 CALLDATASIZE LT PUSH2 0x1A8 JUMPI PUSH1 0x0 CALLDATALOAD PUSH1 0xE0 SHR DUP1 PUSH4 0x80FAA57D GT PUSH2 0xF9 JUMPI DUP1 PUSH4 0xCA1D209D GT PUSH2 0x97 JUMPI DUP1 PUSH4 0xD1AF0C7D GT PUSH2 0x71 JUMPI DUP1 PUSH4 0xD1AF0C7D EQ PUSH2 0x487 JUMPI DUP1 PUSH4 0xDF136D65 EQ PUSH2 0x4A5 JUMPI DUP1 PUSH4 0xEBE2B12B EQ PUSH2 0x4C3 JUMPI DUP1 PUSH4 0xF2FDE38B EQ PUSH2 0x4E1 JUMPI PUSH2 0x1A8 JUMP JUMPDEST DUP1 PUSH4 0xCA1D209D EQ PUSH2 0x431 JUMPI DUP1 PUSH4 0xCC1A378F EQ PUSH2 0x44D JUMPI DUP1 PUSH4 0xCD3DAF9D EQ PUSH2 0x469 JUMPI PUSH2 0x1A8 JUMP JUMPDEST DUP1 PUSH4 0x8B876347 GT PUSH2 0xD3 JUMPI DUP1 PUSH4 0x8B876347 EQ PUSH2 0x3BB JUMPI DUP1 PUSH4 0x8DA5CB5B EQ PUSH2 0x3EB JUMPI DUP1 PUSH4 0xC6E79B91 EQ PUSH2 0x409 JUMPI DUP1 PUSH4 0xC8F33C91 EQ PUSH2 0x413 JUMPI PUSH2 0x1A8 JUMP JUMPDEST DUP1 PUSH4 0x80FAA57D EQ PUSH2 0x351 JUMPI DUP1 PUSH4 0x880B0E43 EQ PUSH2 0x36F JUMPI DUP1 PUSH4 0x8980F11F EQ PUSH2 0x39F JUMPI PUSH2 0x1A8 JUMP JUMPDEST DUP1 PUSH4 0x58341922 GT PUSH2 0x166 JUMPI DUP1 PUSH4 0x70A08231 GT PUSH2 0x140 JUMPI DUP1 PUSH4 0x70A08231 EQ PUSH2 0x2DB JUMPI DUP1 PUSH4 0x715018A6 EQ PUSH2 0x30B JUMPI DUP1 PUSH4 0x72F702F3 EQ PUSH2 0x315 JUMPI DUP1 PUSH4 0x7B0A47EE EQ PUSH2 0x333 JUMPI PUSH2 0x1A8 JUMP JUMPDEST DUP1 PUSH4 0x58341922 EQ PUSH2 0x283 JUMPI DUP1 PUSH4 0x5C975ABB EQ PUSH2 0x2A1 JUMPI DUP1 PUSH4 0x6C11FE9B EQ PUSH2 0x2BF JUMPI PUSH2 0x1A8 JUMP JUMPDEST DUP1 PUSH3 0x8CC262 EQ PUSH2 0x1AD JUMPI DUP1 PUSH4 0x700037D EQ PUSH2 0x1DD JUMPI DUP1 PUSH4 0x1C1F78EB EQ PUSH2 0x20D JUMPI DUP1 PUSH4 0x386A9525 EQ PUSH2 0x22B JUMPI DUP1 PUSH4 0x4E71D92D EQ PUSH2 0x249 JUMPI DUP1 PUSH4 0x529D6CCF EQ PUSH2 0x253 JUMPI JUMPDEST PUSH1 0x0 DUP1 REVERT JUMPDEST PUSH2 0x1C7 PUSH1 0x4 DUP1 CALLDATASIZE SUB DUP2 ADD SWAP1 PUSH2 0x1C2 SWAP2 SWAP1 PUSH2 0x1A10 JUMP JUMPDEST PUSH2 0x4FD JUMP JUMPDEST PUSH1 0x40 MLOAD PUSH2 0x1D4 SWAP2 SWAP1 PUSH2 0x1A56 JUMP JUMPDEST PUSH1 0x40 MLOAD DUP1 SWAP2 SUB SWAP1 RETURN JUMPDEST PUSH2 0x1F7 PUSH1 0x4 DUP1 CALLDATASIZE SUB DUP2 ADD SWAP1 PUSH2 0x1F2 SWAP2 SWAP1 PUSH2 0x1A10 JUMP JUMPDEST PUSH2 0x50F JUMP JUMPDEST PUSH1 0x40 MLOAD PUSH2 0x204 SWAP2 SWAP1 PUSH2 0x1A56 JUMP JUMPDEST PUSH1 0x40 MLOAD DUP1 SWAP2 SUB SWAP1 RETURN JUMPDEST PUSH2 0x215 PUSH2 0x527 JUMP JUMPDEST PUSH1 0x40 MLOAD PUSH2 0x222 SWAP2 SWAP1 PUSH2 0x1A56 JUMP JUMPDEST PUSH1 0x40 MLOAD DUP1 SWAP2 SUB SWAP1 RETURN JUMPDEST PUSH2 0x233 PUSH2 0x53E JUMP JUMPDEST PUSH1 0x40 MLOAD PUSH2 0x240 SWAP2 SWAP1 PUSH2 0x1A56 JUMP JUMPDEST PUSH1 0x40 MLOAD DUP1 SWAP2 SUB SWAP1 RETURN JUMPDEST PUSH2 0x251 PUSH2 0x544 JUMP JUMPDEST STOP JUMPDEST PUSH2 0x26D PUSH1 0x4 DUP1 CALLDATASIZE SUB DUP2 ADD SWAP1 PUSH2 0x268 SWAP2 SWAP1 PUSH2 0x1A10 JUMP JUMPDEST PUSH2 0x772 JUMP JUMPDEST PUSH1 0x40 MLOAD PUSH2 0x27A SWAP2 SWAP1 PUSH2 0x1A8C JUMP JUMPDEST PUSH1 0x40 MLOAD DUP1 SWAP2 SUB SWAP1 RETURN JUMPDEST PUSH2 0x28B PUSH2 0x7C8 JUMP JUMPDEST PUSH1 0x40 MLOAD PUSH2 0x298 SWAP2 SWAP1 PUSH2 0x1A56 JUMP JUMPDEST PUSH1 0x40 MLOAD DUP1 SWAP2 SUB SWAP1 RETURN JUMPDEST PUSH2 0x2A9 PUSH2 0x7D2 JUMP JUMPDEST PUSH1 0x40 MLOAD PUSH2 0x2B6 SWAP2 SWAP1 PUSH2 0x1A8C JUMP JUMPDEST PUSH1 0x40 MLOAD DUP1 SWAP2 SUB SWAP1 RETURN JUMPDEST PUSH2 0x2D9 PUSH1 0x4 DUP1 CALLDATASIZE SUB DUP2 ADD SWAP1 PUSH2 0x2D4 SWAP2 SWAP1 PUSH2 0x1DC2 JUMP JUMPDEST PUSH2 0x7E8 JUMP JUMPDEST STOP JUMPDEST PUSH2 0x2F5 PUSH1 0x4 DUP1 CALLDATASIZE SUB DUP2 ADD SWAP1 PUSH2 0x2F0 SWAP2 SWAP1 PUSH2 0x1A10 JUMP JUMPDEST PUSH2 0x8C0 JUMP JUMPDEST PUSH1 0x40 MLOAD PUSH2 0x302 SWAP2 SWAP1 PUSH2 0x1A56 JUMP JUMPDEST PUSH1 0x40 MLOAD DUP1 SWAP2 SUB SWAP1 RETURN JUMPDEST PUSH2 0x313 PUSH2 0x909 JUMP JUMPDEST STOP JUMPDEST PUSH2 0x31D PUSH2 0x91D JUMP JUMPDEST PUSH1 0x40 MLOAD PUSH2 0x32A SWAP2 SWAP1 PUSH2 0x1EC8 JUMP JUMPDEST PUSH1 0x40 MLOAD DUP1 SWAP2 SUB SWAP1 RETURN JUMPDEST PUSH2 0x33B PUSH2 0x943 JUMP JUMPDEST PUSH1 0x40 MLOAD PUSH2 0x348 SWAP2 SWAP1 PUSH2 0x1A56 JUMP JUMPDEST PUSH1 0x40 MLOAD DUP1 SWAP2 SUB SWAP1 RETURN JUMPDEST PUSH2 0x359 PUSH2 0x949 JUMP JUMPDEST PUSH1 0x40 MLOAD PUSH2 0x366 SWAP2 SWAP1 PUSH2 0x1A56 JUMP JUMPDEST PUSH1 0x40 MLOAD DUP1 SWAP2 SUB SWAP1 RETURN JUMPDEST PUSH2 0x389 PUSH1 0x4 DUP1 CALLDATASIZE SUB DUP2 ADD SWAP1 PUSH2 0x384 SWAP2 SWAP1 PUSH2 0x1EE3 JUMP JUMPDEST PUSH2 0x958 JUMP JUMPDEST PUSH1 0x40 MLOAD PUSH2 0x396 SWAP2 SWAP1 PUSH2 0x1F8A JUMP JUMPDEST PUSH1 0x40 MLOAD DUP1 SWAP2 SUB SWAP1 RETURN JUMPDEST PUSH2 0x3B9 PUSH1 0x4 DUP1 CALLDATASIZE SUB DUP2 ADD SWAP1 PUSH2 0x3B4 SWAP2 SWAP1 PUSH2 0x1FA5 JUMP JUMPDEST PUSH2 0xBCC JUMP JUMPDEST STOP JUMPDEST PUSH2 0x3D5 PUSH1 0x4 DUP1 CALLDATASIZE SUB DUP2 ADD SWAP1 PUSH2 0x3D0 SWAP2 SWAP1 PUSH2 0x1A10 JUMP JUMPDEST PUSH2 0xCCA JUMP JUMPDEST PUSH1 0x40 MLOAD PUSH2 0x3E2 SWAP2 SWAP1 PUSH2 0x1A56 JUMP JUMPDEST PUSH1 0x40 MLOAD DUP1 SWAP2 SUB SWAP1 RETURN JUMPDEST PUSH2 0x3F3 PUSH2 0xCE2 JUMP JUMPDEST PUSH1 0x40 MLOAD PUSH2 0x400 SWAP2 SWAP1 PUSH2 0x1FF4 JUMP JUMPDEST PUSH1 0x40 MLOAD DUP1 SWAP2 SUB SWAP1 RETURN JUMPDEST PUSH2 0x411 PUSH2 0xD0B JUMP JUMPDEST STOP JUMPDEST PUSH2 0x41B PUSH2 0xE4D JUMP JUMPDEST PUSH1 0x40 MLOAD PUSH2 0x428 SWAP2 SWAP1 PUSH2 0x1A56 JUMP JUMPDEST PUSH1 0x40 MLOAD DUP1 SWAP2 SUB SWAP1 RETURN JUMPDEST PUSH2 0x44B PUSH1 0x4 DUP1 CALLDATASIZE SUB DUP2 ADD SWAP1 PUSH2 0x446 SWAP2 SWAP1 PUSH2 0x200F JUMP JUMPDEST PUSH2 0xE53 JUMP JUMPDEST STOP JUMPDEST PUSH2 0x467 PUSH1 0x4 DUP1 CALLDATASIZE SUB DUP2 ADD SWAP1 PUSH2 0x462 SWAP2 SWAP1 PUSH2 0x200F JUMP JUMPDEST PUSH2 0x113F JUMP JUMPDEST STOP JUMPDEST PUSH2 0x471 PUSH2 0x11C4 JUMP JUMPDEST PUSH1 0x40 MLOAD PUSH2 0x47E SWAP2 SWAP1 PUSH2 0x1A56 JUMP JUMPDEST PUSH1 0x40 MLOAD DUP1 SWAP2 SUB SWAP1 RETURN JUMPDEST PUSH2 0x48F PUSH2 0x11D3 JUMP JUMPDEST PUSH1 0x40 MLOAD PUSH2 0x49C SWAP2 SWAP1 PUSH2 0x1EC8 JUMP JUMPDEST PUSH1 0x40 MLOAD DUP1 SWAP2 SUB SWAP1 RETURN JUMPDEST PUSH2 0x4AD PUSH2 0x11F9 JUMP JUMPDEST PUSH1 0x40 MLOAD PUSH2 0x4BA SWAP2 SWAP1 PUSH2 0x1A56 JUMP JUMPDEST PUSH1 0x40 MLOAD DUP1 SWAP2 SUB SWAP1 RETURN JUMPDEST PUSH2 0x4CB PUSH2 0x11FF JUMP JUMPDEST PUSH1 0x40 MLOAD PUSH2 0x4D8 SWAP2 SWAP1 PUSH2 0x1A56 JUMP JUMPDEST PUSH1 0x40 MLOAD DUP1 SWAP2 SUB SWAP1 RETURN JUMPDEST PUSH2 0x4FB PUSH1 0x4 DUP1 CALLDATASIZE SUB DUP2 ADD SWAP1 PUSH2 0x4F6 SWAP2 SWAP1 PUSH2 0x1A10 JUMP JUMPDEST PUSH2 0x1205 JUMP JUMPDEST STOP JUMPDEST PUSH1 0x0 PUSH2 0x508 DUP3 PUSH2 0x1288 JUMP JUMPDEST SWAP1 POP SWAP2 SWAP1 POP JUMP JUMPDEST PUSH1 0xC PUSH1 0x20 MSTORE DUP1 PUSH1 0x0 MSTORE PUSH1 0x40 PUSH1 0x0 KECCAK256 PUSH1 0x0 SWAP2 POP SWAP1 POP SLOAD DUP2 JUMP JUMPDEST PUSH1 0x0 PUSH1 0x8 SLOAD PUSH1 0x7 SLOAD PUSH2 0x539 SWAP2 SWAP1 PUSH2 0x206B JUMP JUMPDEST SWAP1 POP SWAP1 JUMP JUMPDEST PUSH1 0x8 SLOAD DUP2 JUMP JUMPDEST PUSH2 0x54C PUSH2 0x138A JUMP JUMPDEST PUSH2 0x554 PUSH2 0x13D9 JUMP JUMPDEST CALLER PUSH2 0x55D PUSH2 0x1423 JUMP JUMPDEST PUSH1 0xA DUP2 SWAP1 SSTORE POP PUSH2 0x56B PUSH2 0x148D JUMP JUMPDEST PUSH1 0x9 DUP2 SWAP1 SSTORE POP PUSH1 0x0 PUSH20 0xFFFFFFFFFFFFFFFFFFFFFFFFFFFFFFFFFFFFFFFF AND DUP2 PUSH20 0xFFFFFFFFFFFFFFFFFFFFFFFFFFFFFFFFFFFFFFFF AND EQ PUSH2 0x638 JUMPI PUSH2 0x5AE DUP2 PUSH2 0x1288 JUMP JUMPDEST PUSH1 0xC PUSH1 0x0 DUP4 PUSH20 0xFFFFFFFFFFFFFFFFFFFFFFFFFFFFFFFFFFFFFFFF AND PUSH20 0xFFFFFFFFFFFFFFFFFFFFFFFFFFFFFFFFFFFFFFFF AND DUP2 MSTORE PUSH1 0x20 ADD SWAP1 DUP2 MSTORE PUSH1 0x20 ADD PUSH1 0x0 KECCAK256 DUP2 SWAP1 SSTORE POP PUSH1 0xA SLOAD PUSH1 0xB PUSH1 0x0 DUP4 PUSH20 0xFFFFFFFFFFFFFFFFFFFFFFFFFFFFFFFFFFFFFFFF AND PUSH20 0xFFFFFFFFFFFFFFFFFFFFFFFFFFFFFFFFFFFFFFFF AND DUP2 MSTORE PUSH1 0x20 ADD SWAP1 DUP2 MSTORE PUSH1 0x20 ADD PUSH1 0x0 KECCAK256 DUP2 SWAP1 SSTORE POP JUMPDEST PUSH1 0x0 PUSH1 0xC PUSH1 0x0 CALLER PUSH20 0xFFFFFFFFFFFFFFFFFFFFFFFFFFFFFFFFFFFFFFFF AND PUSH20 0xFFFFFFFFFFFFFFFFFFFFFFFFFFFFFFFFFFFFFFFF AND DUP2 MSTORE PUSH1 0x20 ADD SWAP1 DUP2 MSTORE PUSH1 0x20 ADD PUSH1 0x0 KECCAK256 SLOAD SWAP1 POP PUSH1 0x0 DUP2 GT ISZERO PUSH2 0x766 JUMPI PUSH1 0x0 PUSH1 0xC PUSH1 0x0 CALLER PUSH20 0xFFFFFFFFFFFFFFFFFFFFFFFFFFFFFFFFFFFFFFFF AND PUSH20 0xFFFFFFFFFFFFFFFFFFFFFFFFFFFFFFFFFFFFFFFF AND DUP2 MSTORE PUSH1 0x20 ADD SWAP1 DUP2 MSTORE PUSH1 0x20 ADD PUSH1 0x0 KECCAK256 DUP2 SWAP1 SSTORE POP PUSH2 0x717 CALLER DUP3 PUSH1 0x5 PUSH1 0x0 SWAP1 SLOAD SWAP1 PUSH2 0x100 EXP SWAP1 DIV PUSH20 0xFFFFFFFFFFFFFFFFFFFFFFFFFFFFFFFFFFFFFFFF AND PUSH20 0xFFFFFFFFFFFFFFFFFFFFFFFFFFFFFFFFFFFFFFFF AND PUSH2 0x14A7 SWAP1 SWAP3 SWAP2 SWAP1 PUSH4 0xFFFFFFFF AND JUMP JUMPDEST CALLER PUSH20 0xFFFFFFFFFFFFFFFFFFFFFFFFFFFFFFFFFFFFFFFF AND PUSH32 0xD8138F8A3F377C5259CA548E70E4C2DE94F129F5A11036A15B69513CBA2B426A DUP3 PUSH1 0x40 MLOAD PUSH2 0x75D SWAP2 SWAP1 PUSH2 0x1A56 JUMP JUMPDEST PUSH1 0x40 MLOAD DUP1 SWAP2 SUB SWAP1 LOG2 JUMPDEST POP POP PUSH2 0x770 PUSH2 0x152D JUMP JUMPDEST JUMP JUMPDEST PUSH1 0x0 PUSH1 0x3 PUSH1 0x0 DUP4 PUSH20 0xFFFFFFFFFFFFFFFFFFFFFFFFFFFFFFFFFFFFFFFF AND PUSH20 0xFFFFFFFFFFFFFFFFFFFFFFFFFFFFFFFFFFFFFFFF AND DUP2 MSTORE PUSH1 0x20 ADD SWAP1 DUP2 MSTORE PUSH1 0x20 ADD PUSH1 0x0 KECCAK256 PUSH1 0x0 SWAP1 SLOAD SWAP1 PUSH2 0x100 EXP SWAP1 DIV PUSH1 0xFF AND SWAP1 POP SWAP2 SWAP1 POP JUMP JUMPDEST PUSH1 0x0 PUSH1 0xD SLOAD SWAP1 POP SWAP1 JUMP JUMPDEST PUSH1 0x0 DUP1 PUSH1 0x14 SWAP1 SLOAD SWAP1 PUSH2 0x100 EXP SWAP1 DIV PUSH1 0xFF AND SWAP1 POP SWAP1 JUMP JUMPDEST PUSH2 0x7F0 PUSH2 0x13D9 JUMP JUMPDEST DUP2 MLOAD DUP4 MLOAD EQ DUP1 ISZERO PUSH2 0x802 JUMPI POP DUP1 MLOAD DUP3 MLOAD EQ JUMPDEST PUSH2 0x841 JUMPI PUSH1 0x40 MLOAD PUSH32 0x8C379A000000000000000000000000000000000000000000000000000000000 DUP2 MSTORE PUSH1 0x4 ADD PUSH2 0x838 SWAP1 PUSH2 0x210A JUMP JUMPDEST PUSH1 0x40 MLOAD DUP1 SWAP2 SUB SWAP1 REVERT JUMPDEST PUSH1 0x0 JUMPDEST DUP4 MLOAD DUP2 LT ISZERO PUSH2 0x8BA JUMPI PUSH2 0x8A6 DUP5 DUP3 DUP2 MLOAD DUP2 LT PUSH2 0x863 JUMPI PUSH2 0x862 PUSH2 0x212A JUMP JUMPDEST JUMPDEST PUSH1 0x20 MUL PUSH1 0x20 ADD ADD MLOAD DUP5 DUP4 DUP2 MLOAD DUP2 LT PUSH2 0x87E JUMPI PUSH2 0x87D PUSH2 0x212A JUMP JUMPDEST JUMPDEST PUSH1 0x20 MUL PUSH1 0x20 ADD ADD MLOAD DUP5 DUP5 DUP2 MLOAD DUP2 LT PUSH2 0x899 JUMPI PUSH2 0x898 PUSH2 0x212A JUMP JUMPDEST JUMPDEST PUSH1 0x20 MUL PUSH1 0x20 ADD ADD MLOAD PUSH2 0x958 JUMP JUMPDEST POP DUP1 DUP1 PUSH2 0x8B2 SWAP1 PUSH2 0x2159 JUMP JUMPDEST SWAP2 POP POP PUSH2 0x844 JUMP JUMPDEST POP POP POP POP JUMP JUMPDEST PUSH1 0x0 PUSH1 0xE PUSH1 0x0 DUP4 PUSH20 0xFFFFFFFFFFFFFFFFFFFFFFFFFFFFFFFFFFFFFFFF AND PUSH20 0xFFFFFFFFFFFFFFFFFFFFFFFFFFFFFFFFFFFFFFFF AND DUP2 MSTORE PUSH1 0x20 ADD SWAP1 DUP2 MSTORE PUSH1 0x20 ADD PUSH1 0x0 KECCAK256 SLOAD SWAP1 POP SWAP2 SWAP1 POP JUMP JUMPDEST PUSH2 0x911 PUSH2 0x1536 JUMP JUMPDEST PUSH2 0x91B PUSH1 0x0 PUSH2 0x15B4 JUMP JUMPDEST JUMP JUMPDEST PUSH1 0x4 PUSH1 0x0 SWAP1 SLOAD SWAP1 PUSH2 0x100 EXP SWAP1 DIV PUSH20 0xFFFFFFFFFFFFFFFFFFFFFFFFFFFFFFFFFFFFFFFF AND DUP2 JUMP JUMPDEST PUSH1 0x7 SLOAD DUP2 JUMP JUMPDEST PUSH1 0x0 PUSH2 0x953 PUSH2 0x148D JUMP JUMPDEST SWAP1 POP SWAP1 JUMP JUMPDEST PUSH1 0x0 PUSH2 0x962 PUSH2 0x13D9 JUMP JUMPDEST CALLER PUSH2 0x96B PUSH2 0x1423 JUMP JUMPDEST PUSH1 0xA DUP2 SWAP1 SSTORE POP PUSH2 0x979 PUSH2 0x148D JUMP JUMPDEST PUSH1 0x9 DUP2 SWAP1 SSTORE POP PUSH1 0x0 PUSH20 0xFFFFFFFFFFFFFFFFFFFFFFFFFFFFFFFFFFFFFFFF AND DUP2 PUSH20 0xFFFFFFFFFFFFFFFFFFFFFFFFFFFFFFFFFFFFFFFF AND EQ PUSH2 0xA46 JUMPI PUSH2 0x9BC DUP2 PUSH2 0x1288 JUMP JUMPDEST PUSH1 0xC PUSH1 0x0 DUP4 PUSH20 0xFFFFFFFFFFFFFFFFFFFFFFFFFFFFFFFFFFFFFFFF AND PUSH20 0xFFFFFFFFFFFFFFFFFFFFFFFFFFFFFFFFFFFFFFFF AND DUP2 MSTORE PUSH1 0x20 ADD SWAP1 DUP2 MSTORE PUSH1 0x20 ADD PUSH1 0x0 KECCAK256 DUP2 SWAP1 SSTORE POP PUSH1 0xA SLOAD PUSH1 0xB PUSH1 0x0 DUP4 PUSH20 0xFFFFFFFFFFFFFFFFFFFFFFFFFFFFFFFFFFFFFFFF AND PUSH20 0xFFFFFFFFFFFFFFFFFFFFFFFFFFFFFFFFFFFFFFFF AND DUP2 MSTORE PUSH1 0x20 ADD SWAP1 DUP2 MSTORE PUSH1 0x20 ADD PUSH1 0x0 KECCAK256 DUP2 SWAP1 SSTORE POP JUMPDEST PUSH1 0x0 DUP4 GT PUSH2 0xA80 JUMPI PUSH1 0x40 MLOAD PUSH32 0x1F2A200500000000000000000000000000000000000000000000000000000000 DUP2 MSTORE PUSH1 0x4 ADD PUSH1 0x40 MLOAD DUP1 SWAP2 SUB SWAP1 REVERT JUMPDEST PUSH1 0x0 PUSH2 0x800 PUSH20 0xFFFFFFFFFFFFFFFFFFFFFFFFFFFFFFFFFFFFFFFF AND PUSH4 0x54B826F5 CALLER DUP9 DUP9 DUP9 PUSH1 0x40 MLOAD DUP6 PUSH4 0xFFFFFFFF AND PUSH1 0xE0 SHL DUP2 MSTORE PUSH1 0x4 ADD PUSH2 0xAC3 SWAP5 SWAP4 SWAP3 SWAP2 SWAP1 PUSH2 0x220F JUMP JUMPDEST PUSH1 0x20 PUSH1 0x40 MLOAD DUP1 DUP4 SUB DUP2 PUSH1 0x0 DUP8 GAS CALL ISZERO DUP1 ISZERO PUSH2 0xAE2 JUMPI RETURNDATASIZE PUSH1 0x0 DUP1 RETURNDATACOPY RETURNDATASIZE PUSH1 0x0 REVERT JUMPDEST POP POP POP POP PUSH1 0x40 MLOAD RETURNDATASIZE PUSH1 0x1F NOT PUSH1 0x1F DUP3 ADD AND DUP3 ADD DUP1 PUSH1 0x40 MSTORE POP DUP2 ADD SWAP1 PUSH2 0xB06 SWAP2 SWAP1 PUSH2 0x228E JUMP JUMPDEST SWAP1 POP DUP4 PUSH1 0xD SLOAD PUSH2 0xB16 SWAP2 SWAP1 PUSH2 0x22BB JUMP JUMPDEST PUSH1 0xD DUP2 SWAP1 SSTORE POP DUP4 PUSH1 0xE PUSH1 0x0 CALLER PUSH20 0xFFFFFFFFFFFFFFFFFFFFFFFFFFFFFFFFFFFFFFFF AND PUSH20 0xFFFFFFFFFFFFFFFFFFFFFFFFFFFFFFFFFFFFFFFF AND DUP2 MSTORE PUSH1 0x20 ADD SWAP1 DUP2 MSTORE PUSH1 0x20 ADD PUSH1 0x0 KECCAK256 PUSH1 0x0 DUP3 DUP3 SLOAD PUSH2 0xB6B SWAP2 SWAP1 PUSH2 0x22BB JUMP JUMPDEST SWAP3 POP POP DUP2 SWAP1 SSTORE POP CALLER PUSH20 0xFFFFFFFFFFFFFFFFFFFFFFFFFFFFFFFFFFFFFFFF AND PUSH32 0xDA5C3D1021415BB27AA0917EAAAFC6EE7C358A2A436D70208004073F6109EC0 DUP6 PUSH1 0x40 MLOAD PUSH2 0xBB8 SWAP2 SWAP1 PUSH2 0x1A56 JUMP JUMPDEST PUSH1 0x40 MLOAD DUP1 SWAP2 SUB SWAP1 LOG2 DUP1 SWAP3 POP POP POP SWAP4 SWAP3 POP POP POP JUMP JUMPDEST PUSH2 0xBD4 PUSH2 0x1536 JUMP JUMPDEST PUSH1 0x4 PUSH1 0x0 SWAP1 SLOAD SWAP1 PUSH2 0x100 EXP SWAP1 DIV PUSH20 0xFFFFFFFFFFFFFFFFFFFFFFFFFFFFFFFFFFFFFFFF AND PUSH20 0xFFFFFFFFFFFFFFFFFFFFFFFFFFFFFFFFFFFFFFFF AND DUP3 PUSH20 0xFFFFFFFFFFFFFFFFFFFFFFFFFFFFFFFFFFFFFFFF AND SUB PUSH2 0xC5B JUMPI PUSH1 0x40 MLOAD PUSH32 0x43FC58F100000000000000000000000000000000000000000000000000000000 DUP2 MSTORE PUSH1 0x4 ADD PUSH1 0x40 MLOAD DUP1 SWAP2 SUB SWAP1 REVERT JUMPDEST PUSH2 0xC8D PUSH2 0xC66 PUSH2 0xCE2 JUMP JUMPDEST DUP3 DUP5 PUSH20 0xFFFFFFFFFFFFFFFFFFFFFFFFFFFFFFFFFFFFFFFF AND PUSH2 0x14A7 SWAP1 SWAP3 SWAP2 SWAP1 PUSH4 0xFFFFFFFF AND JUMP JUMPDEST PUSH32 0x8C1256B8896378CD5044F80C202F9772B9D77DC85C8A6EB51967210B09BFAA28 DUP3 DUP3 PUSH1 0x40 MLOAD PUSH2 0xCBE SWAP3 SWAP2 SWAP1 PUSH2 0x22EF JUMP JUMPDEST PUSH1 0x40 MLOAD DUP1 SWAP2 SUB SWAP1 LOG1 POP POP JUMP JUMPDEST PUSH1 0xB PUSH1 0x20 MSTORE DUP1 PUSH1 0x0 MSTORE PUSH1 0x40 PUSH1 0x0 KECCAK256 PUSH1 0x0 SWAP2 POP SWAP1 POP SLOAD DUP2 JUMP JUMPDEST PUSH1 0x0 DUP1 PUSH1 0x0 SWAP1 SLOAD SWAP1 PUSH2 0x100 EXP SWAP1 DIV PUSH20 0xFFFFFFFFFFFFFFFFFFFFFFFFFFFFFFFFFFFFFFFF AND SWAP1 POP SWAP1 JUMP JUMPDEST PUSH1 0x0 PUSH2 0x800 PUSH20 0xFFFFFFFFFFFFFFFFFFFFFFFFFFFFFFFFFFFFFFFF AND PUSH4 0xB6039895 CALLER PUSH32 0xFFFFFFFFFFFFFFFFFFFFFFFFFFFFFFFFFFFFFFFFFFFFFFFFFFFFFFFFFFFFFFFF PUSH1 0x2 PUSH1 0x40 MLOAD DUP5 PUSH4 0xFFFFFFFF AND PUSH1 0xE0 SHL DUP2 MSTORE PUSH1 0x4 ADD PUSH2 0xD6D SWAP4 SWAP3 SWAP2 SWAP1 PUSH2 0x24E8 JUMP JUMPDEST PUSH1 0x20 PUSH1 0x40 MLOAD DUP1 DUP4 SUB DUP2 PUSH1 0x0 DUP8 GAS CALL ISZERO DUP1 ISZERO PUSH2 0xD8C JUMPI RETURNDATASIZE PUSH1 0x0 DUP1 RETURNDATACOPY RETURNDATASIZE PUSH1 0x0 REVERT JUMPDEST POP POP POP POP PUSH1 0x40 MLOAD RETURNDATASIZE PUSH1 0x1F NOT PUSH1 0x1F DUP3 ADD AND DUP3 ADD DUP1 PUSH1 0x40 MSTORE POP DUP2 ADD SWAP1 PUSH2 0xDB0 SWAP2 SWAP1 PUSH2 0x2552 JUMP JUMPDEST SWAP1 POP DUP1 PUSH2 0xDF2 JUMPI PUSH1 0x40 MLOAD PUSH32 0x8C379A000000000000000000000000000000000000000000000000000000000 DUP2 MSTORE PUSH1 0x4 ADD PUSH2 0xDE9 SWAP1 PUSH2 0x25F1 JUMP JUMPDEST PUSH1 0x40 MLOAD DUP1 SWAP2 SUB SWAP1 REVERT JUMPDEST PUSH1 0x1 PUSH1 0x3 PUSH1 0x0 CALLER PUSH20 0xFFFFFFFFFFFFFFFFFFFFFFFFFFFFFFFFFFFFFFFF AND PUSH20 0xFFFFFFFFFFFFFFFFFFFFFFFFFFFFFFFFFFFFFFFF AND DUP2 MSTORE PUSH1 0x20 ADD SWAP1 DUP2 MSTORE PUSH1 0x20 ADD PUSH1 0x0 KECCAK256 PUSH1 0x0 PUSH2 0x100 EXP DUP2 SLOAD DUP2 PUSH1 0xFF MUL NOT AND SWAP1 DUP4 ISZERO ISZERO MUL OR SWAP1 SSTORE POP POP JUMP JUMPDEST PUSH1 0x9 SLOAD DUP2 JUMP JUMPDEST PUSH2 0xE5B PUSH2 0x1536 JUMP JUMPDEST PUSH2 0xE63 PUSH2 0x13D9 JUMP JUMPDEST PUSH1 0x0 PUSH2 0xE6D PUSH2 0x1423 JUMP JUMPDEST PUSH1 0xA DUP2 SWAP1 SSTORE POP PUSH2 0xE7B PUSH2 0x148D JUMP JUMPDEST PUSH1 0x9 DUP2 SWAP1 SSTORE POP PUSH1 0x0 PUSH20 0xFFFFFFFFFFFFFFFFFFFFFFFFFFFFFFFFFFFFFFFF AND DUP2 PUSH20 0xFFFFFFFFFFFFFFFFFFFFFFFFFFFFFFFFFFFFFFFF AND EQ PUSH2 0xF48 JUMPI PUSH2 0xEBE DUP2 PUSH2 0x1288 JUMP JUMPDEST PUSH1 0xC PUSH1 0x0 DUP4 PUSH20 0xFFFFFFFFFFFFFFFFFFFFFFFFFFFFFFFFFFFFFFFF AND PUSH20 0xFFFFFFFFFFFFFFFFFFFFFFFFFFFFFFFFFFFFFFFF AND DUP2 MSTORE PUSH1 0x20 ADD SWAP1 DUP2 MSTORE PUSH1 0x20 ADD PUSH1 0x0 KECCAK256 DUP2 SWAP1 SSTORE POP PUSH1 0xA SLOAD PUSH1 0xB PUSH1 0x0 DUP4 PUSH20 0xFFFFFFFFFFFFFFFFFFFFFFFFFFFFFFFFFFFFFFFF AND PUSH20 0xFFFFFFFFFFFFFFFFFFFFFFFFFFFFFFFFFFFFFFFF AND DUP2 MSTORE PUSH1 0x20 ADD SWAP1 DUP2 MSTORE PUSH1 0x20 ADD PUSH1 0x0 KECCAK256 DUP2 SWAP1 SSTORE POP JUMPDEST PUSH1 0x6 SLOAD TIMESTAMP LT PUSH2 0xF6A JUMPI PUSH1 0x8 SLOAD DUP3 PUSH2 0xF5F SWAP2 SWAP1 PUSH2 0x2640 JUMP JUMPDEST PUSH1 0x7 DUP2 SWAP1 SSTORE POP PUSH2 0xFB0 JUMP JUMPDEST PUSH1 0x0 TIMESTAMP PUSH1 0x6 SLOAD PUSH2 0xF7A SWAP2 SWAP1 PUSH2 0x2671 JUMP JUMPDEST SWAP1 POP PUSH1 0x0 PUSH1 0x7 SLOAD DUP3 PUSH2 0xF8C SWAP2 SWAP1 PUSH2 0x206B JUMP JUMPDEST SWAP1 POP PUSH1 0x8 SLOAD DUP2 DUP6 PUSH2 0xF9D SWAP2 SWAP1 PUSH2 0x22BB JUMP JUMPDEST PUSH2 0xFA7 SWAP2 SWAP1 PUSH2 0x2640 JUMP JUMPDEST PUSH1 0x7 DUP2 SWAP1 SSTORE POP POP POP JUMPDEST PUSH2 0xFFF CALLER ADDRESS DUP5 PUSH1 0x5 PUSH1 0x0 SWAP1 SLOAD SWAP1 PUSH2 0x100 EXP SWAP1 DIV PUSH20 0xFFFFFFFFFFFFFFFFFFFFFFFFFFFFFFFFFFFFFFFF AND PUSH20 0xFFFFFFFFFFFFFFFFFFFFFFFFFFFFFFFFFFFFFFFF AND PUSH2 0x1678 SWAP1 SWAP4 SWAP3 SWAP2 SWAP1 PUSH4 0xFFFFFFFF AND JUMP JUMPDEST PUSH1 0x0 PUSH1 0x5 PUSH1 0x0 SWAP1 SLOAD SWAP1 PUSH2 0x100 EXP SWAP1 DIV PUSH20 0xFFFFFFFFFFFFFFFFFFFFFFFFFFFFFFFFFFFFFFFF AND PUSH20 0xFFFFFFFFFFFFFFFFFFFFFFFFFFFFFFFFFFFFFFFF AND PUSH4 0x70A08231 ADDRESS PUSH1 0x40 MLOAD DUP3 PUSH4 0xFFFFFFFF AND PUSH1 0xE0 SHL DUP2 MSTORE PUSH1 0x4 ADD PUSH2 0x105C SWAP2 SWAP1 PUSH2 0x1FF4 JUMP JUMPDEST PUSH1 0x20 PUSH1 0x40 MLOAD DUP1 DUP4 SUB DUP2 DUP7 GAS STATICCALL ISZERO DUP1 ISZERO PUSH2 0x1079 JUMPI RETURNDATASIZE PUSH1 0x0 DUP1 RETURNDATACOPY RETURNDATASIZE PUSH1 0x0 REVERT JUMPDEST POP POP POP POP PUSH1 0x40 MLOAD RETURNDATASIZE PUSH1 0x1F NOT PUSH1 0x1F DUP3 ADD AND DUP3 ADD DUP1 PUSH1 0x40 MSTORE POP DUP2 ADD SWAP1 PUSH2 0x109D SWAP2 SWAP1 PUSH2 0x26BA JUMP JUMPDEST SWAP1 POP PUSH1 0x8 SLOAD DUP2 PUSH2 0x10AD SWAP2 SWAP1 PUSH2 0x2640 JUMP JUMPDEST PUSH1 0x7 SLOAD GT ISZERO PUSH2 0x10E8 JUMPI PUSH1 0x40 MLOAD PUSH32 0x7F5E85A600000000000000000000000000000000000000000000000000000000 DUP2 MSTORE PUSH1 0x4 ADD PUSH1 0x40 MLOAD DUP1 SWAP2 SUB SWAP1 REVERT JUMPDEST TIMESTAMP PUSH1 0x9 DUP2 SWAP1 SSTORE POP PUSH1 0x8 SLOAD TIMESTAMP PUSH2 0x10FD SWAP2 SWAP1 PUSH2 0x22BB JUMP JUMPDEST PUSH1 0x6 DUP2 SWAP1 SSTORE POP PUSH32 0xC4C14883AE9FD8E26D5D59E3485ED29FD126D781D7E498A4CA5C54C8268E4936 DUP4 PUSH1 0x40 MLOAD PUSH2 0x1132 SWAP2 SWAP1 PUSH2 0x1A56 JUMP JUMPDEST PUSH1 0x40 MLOAD DUP1 SWAP2 SUB SWAP1 LOG1 POP POP POP JUMP JUMPDEST PUSH2 0x1147 PUSH2 0x1536 JUMP JUMPDEST PUSH1 0x6 SLOAD TIMESTAMP LT ISZERO PUSH2 0x1183 JUMPI PUSH1 0x40 MLOAD PUSH32 0x38E3211200000000000000000000000000000000000000000000000000000000 DUP2 MSTORE PUSH1 0x4 ADD PUSH1 0x40 MLOAD DUP1 SWAP2 SUB SWAP1 REVERT JUMPDEST DUP1 PUSH1 0x8 DUP2 SWAP1 SSTORE POP PUSH32 0xFB46CA5A5E06D4540D6387B930A7C978BCE0DB5F449EC6B3F5D07C6E1D44F2D3 DUP2 PUSH1 0x40 MLOAD PUSH2 0x11B9 SWAP2 SWAP1 PUSH2 0x1A56 JUMP JUMPDEST PUSH1 0x40 MLOAD DUP1 SWAP2 SUB SWAP1 LOG1 POP JUMP JUMPDEST PUSH1 0x0 PUSH2 0x11CE PUSH2 0x1423 JUMP JUMPDEST SWAP1 POP SWAP1 JUMP JUMPDEST PUSH1 0x5 PUSH1 0x0 SWAP1 SLOAD SWAP1 PUSH2 0x100 EXP SWAP1 DIV PUSH20 0xFFFFFFFFFFFFFFFFFFFFFFFFFFFFFFFFFFFFFFFF AND DUP2 JUMP JUMPDEST PUSH1 0xA SLOAD DUP2 JUMP JUMPDEST PUSH1 0x6 SLOAD DUP2 JUMP JUMPDEST PUSH2 0x120D PUSH2 0x1536 JUMP JUMPDEST PUSH1 0x0 PUSH20 0xFFFFFFFFFFFFFFFFFFFFFFFFFFFFFFFFFFFFFFFF AND DUP2 PUSH20 0xFFFFFFFFFFFFFFFFFFFFFFFFFFFFFFFFFFFFFFFF AND SUB PUSH2 0x127C JUMPI PUSH1 0x40 MLOAD PUSH32 0x8C379A000000000000000000000000000000000000000000000000000000000 DUP2 MSTORE PUSH1 0x4 ADD PUSH2 0x1273 SWAP1 PUSH2 0x2759 JUMP JUMPDEST PUSH1 0x40 MLOAD DUP1 SWAP2 SUB SWAP1 REVERT JUMPDEST PUSH2 0x1285 DUP2 PUSH2 0x15B4 JUMP JUMPDEST POP JUMP JUMPDEST PUSH1 0x0 PUSH1 0xC PUSH1 0x0 DUP4 PUSH20 0xFFFFFFFFFFFFFFFFFFFFFFFFFFFFFFFFFFFFFFFF AND PUSH20 0xFFFFFFFFFFFFFFFFFFFFFFFFFFFFFFFFFFFFFFFF AND DUP2 MSTORE PUSH1 0x20 ADD SWAP1 DUP2 MSTORE PUSH1 0x20 ADD PUSH1 0x0 KECCAK256 SLOAD PUSH8 0xDE0B6B3A7640000 PUSH1 0xB PUSH1 0x0 DUP6 PUSH20 0xFFFFFFFFFFFFFFFFFFFFFFFFFFFFFFFFFFFFFFFF AND PUSH20 0xFFFFFFFFFFFFFFFFFFFFFFFFFFFFFFFFFFFFFFFF AND DUP2 MSTORE PUSH1 0x20 ADD SWAP1 DUP2 MSTORE PUSH1 0x20 ADD PUSH1 0x0 KECCAK256 SLOAD PUSH2 0x131B PUSH2 0x1423 JUMP JUMPDEST PUSH2 0x1325 SWAP2 SWAP1 PUSH2 0x2671 JUMP JUMPDEST PUSH1 0xE PUSH1 0x0 DUP7 PUSH20 0xFFFFFFFFFFFFFFFFFFFFFFFFFFFFFFFFFFFFFFFF AND PUSH20 0xFFFFFFFFFFFFFFFFFFFFFFFFFFFFFFFFFFFFFFFF AND DUP2 MSTORE PUSH1 0x20 ADD SWAP1 DUP2 MSTORE PUSH1 0x20 ADD PUSH1 0x0 KECCAK256 SLOAD PUSH2 0x136F SWAP2 SWAP1 PUSH2 0x206B JUMP JUMPDEST PUSH2 0x1379 SWAP2 SWAP1 PUSH2 0x2640 JUMP JUMPDEST PUSH2 0x1383 SWAP2 SWAP1 PUSH2 0x22BB JUMP JUMPDEST SWAP1 POP SWAP2 SWAP1 POP JUMP JUMPDEST PUSH1 0x2 PUSH1 0x1 SLOAD SUB PUSH2 0x13CF JUMPI PUSH1 0x40 MLOAD PUSH32 0x8C379A000000000000000000000000000000000000000000000000000000000 DUP2 MSTORE PUSH1 0x4 ADD PUSH2 0x13C6 SWAP1 PUSH2 0x27C5 JUMP JUMPDEST PUSH1 0x40 MLOAD DUP1 SWAP2 SUB SWAP1 REVERT JUMPDEST PUSH1 0x2 PUSH1 0x1 DUP2 SWAP1 SSTORE POP JUMP JUMPDEST PUSH2 0x13E1 PUSH2 0x7D2 JUMP JUMPDEST ISZERO PUSH2 0x1421 JUMPI PUSH1 0x40 MLOAD PUSH32 0x8C379A000000000000000000000000000000000000000000000000000000000 DUP2 MSTORE PUSH1 0x4 ADD PUSH2 0x1418 SWAP1 PUSH2 0x2831 JUMP JUMPDEST PUSH1 0x40 MLOAD DUP1 SWAP2 SUB SWAP1 REVERT JUMPDEST JUMP JUMPDEST PUSH1 0x0 DUP1 PUSH1 0xD SLOAD SUB PUSH2 0x1438 JUMPI PUSH1 0xA SLOAD SWAP1 POP PUSH2 0x148A JUMP JUMPDEST PUSH1 0xD SLOAD PUSH8 0xDE0B6B3A7640000 PUSH1 0x7 SLOAD PUSH1 0x9 SLOAD PUSH2 0x1452 PUSH2 0x148D JUMP JUMPDEST PUSH2 0x145C SWAP2 SWAP1 PUSH2 0x2671 JUMP JUMPDEST PUSH2 0x1466 SWAP2 SWAP1 PUSH2 0x206B JUMP JUMPDEST PUSH2 0x1470 SWAP2 SWAP1 PUSH2 0x206B JUMP JUMPDEST PUSH2 0x147A SWAP2 SWAP1 PUSH2 0x2640 JUMP JUMPDEST PUSH1 0xA SLOAD PUSH2 0x1487 SWAP2 SWAP1 PUSH2 0x22BB JUMP JUMPDEST SWAP1 POP JUMPDEST SWAP1 JUMP JUMPDEST PUSH1 0x0 PUSH1 0x6 SLOAD TIMESTAMP LT PUSH2 0x14A0 JUMPI PUSH1 0x6 SLOAD PUSH2 0x14A2 JUMP JUMPDEST TIMESTAMP JUMPDEST SWAP1 POP SWAP1 JUMP JUMPDEST PUSH2 0x1528 DUP4 PUSH4 0xA9059CBB PUSH1 0xE0 SHL DUP5 DUP5 PUSH1 0x40 MLOAD PUSH1 0x24 ADD PUSH2 0x14C6 SWAP3 SWAP2 SWAP1 PUSH2 0x22EF JUMP JUMPDEST PUSH1 0x40 MLOAD PUSH1 0x20 DUP2 DUP4 SUB SUB DUP2 MSTORE SWAP1 PUSH1 0x40 MSTORE SWAP1 PUSH28 0xFFFFFFFFFFFFFFFFFFFFFFFFFFFFFFFFFFFFFFFFFFFFFFFFFFFFFFFF NOT AND PUSH1 0x20 DUP3 ADD DUP1 MLOAD PUSH28 0xFFFFFFFFFFFFFFFFFFFFFFFFFFFFFFFFFFFFFFFFFFFFFFFFFFFFFFFF DUP4 DUP2 DUP4 AND OR DUP4 MSTORE POP POP POP POP PUSH2 0x1701 JUMP JUMPDEST POP POP POP JUMP JUMPDEST PUSH1 0x1 DUP1 DUP2 SWAP1 SSTORE POP JUMP JUMPDEST PUSH2 0x153E PUSH2 0x17C9 JUMP JUMPDEST PUSH20 0xFFFFFFFFFFFFFFFFFFFFFFFFFFFFFFFFFFFFFFFF AND PUSH2 0x155C PUSH2 0xCE2 JUMP JUMPDEST PUSH20 0xFFFFFFFFFFFFFFFFFFFFFFFFFFFFFFFFFFFFFFFF AND EQ PUSH2 0x15B2 JUMPI PUSH1 0x40 MLOAD PUSH32 0x8C379A000000000000000000000000000000000000000000000000000000000 DUP2 MSTORE PUSH1 0x4 ADD PUSH2 0x15A9 SWAP1 PUSH2 0x289D JUMP JUMPDEST PUSH1 0x40 MLOAD DUP1 SWAP2 SUB SWAP1 REVERT JUMPDEST JUMP JUMPDEST PUSH1 0x0 DUP1 PUSH1 0x0 SWAP1 SLOAD SWAP1 PUSH2 0x100 EXP SWAP1 DIV PUSH20 0xFFFFFFFFFFFFFFFFFFFFFFFFFFFFFFFFFFFFFFFF AND SWAP1 POP DUP2 PUSH1 0x0 DUP1 PUSH2 0x100 EXP DUP2 SLOAD DUP2 PUSH20 0xFFFFFFFFFFFFFFFFFFFFFFFFFFFFFFFFFFFFFFFF MUL NOT AND SWAP1 DUP4 PUSH20 0xFFFFFFFFFFFFFFFFFFFFFFFFFFFFFFFFFFFFFFFF AND MUL OR SWAP1 SSTORE POP DUP2 PUSH20 0xFFFFFFFFFFFFFFFFFFFFFFFFFFFFFFFFFFFFFFFF AND DUP2 PUSH20 0xFFFFFFFFFFFFFFFFFFFFFFFFFFFFFFFFFFFFFFFF AND PUSH32 0x8BE0079C531659141344CD1FD0A4F28419497F9722A3DAAFE3B4186F6B6457E0 PUSH1 0x40 MLOAD PUSH1 0x40 MLOAD DUP1 SWAP2 SUB SWAP1 LOG3 POP POP JUMP JUMPDEST PUSH2 0x16FB DUP5 PUSH4 0x23B872DD PUSH1 0xE0 SHL DUP6 DUP6 DUP6 PUSH1 0x40 MLOAD PUSH1 0x24 ADD PUSH2 0x1699 SWAP4 SWAP3 SWAP2 SWAP1 PUSH2 0x28BD JUMP JUMPDEST PUSH1 0x40 MLOAD PUSH1 0x20 DUP2 DUP4 SUB SUB DUP2 MSTORE SWAP1 PUSH1 0x40 MSTORE SWAP1 PUSH28 0xFFFFFFFFFFFFFFFFFFFFFFFFFFFFFFFFFFFFFFFFFFFFFFFFFFFFFFFF NOT AND PUSH1 0x20 DUP3 ADD DUP1 MLOAD PUSH28 0xFFFFFFFFFFFFFFFFFFFFFFFFFFFFFFFFFFFFFFFFFFFFFFFFFFFFFFFF DUP4 DUP2 DUP4 AND OR DUP4 MSTORE POP POP POP POP PUSH2 0x1701 JUMP JUMPDEST POP POP POP POP JUMP JUMPDEST PUSH1 0x0 PUSH2 0x1763 DUP3 PUSH1 0x40 MLOAD DUP1 PUSH1 0x40 ADD PUSH1 0x40 MSTORE DUP1 PUSH1 0x20 DUP2 MSTORE PUSH1 0x20 ADD PUSH32 0x5361666545524332303A206C6F772D6C6576656C2063616C6C206661696C6564 DUP2 MSTORE POP DUP6 PUSH20 0xFFFFFFFFFFFFFFFFFFFFFFFFFFFFFFFFFFFFFFFF AND PUSH2 0x17D1 SWAP1 SWAP3 SWAP2 SWAP1 PUSH4 0xFFFFFFFF AND JUMP JUMPDEST SWAP1 POP PUSH1 0x0 DUP2 MLOAD EQ DUP1 PUSH2 0x1785 JUMPI POP DUP1 DUP1 PUSH1 0x20 ADD SWAP1 MLOAD DUP2 ADD SWAP1 PUSH2 0x1784 SWAP2 SWAP1 PUSH2 0x2552 JUMP JUMPDEST JUMPDEST PUSH2 0x17C4 JUMPI PUSH1 0x40 MLOAD PUSH32 0x8C379A000000000000000000000000000000000000000000000000000000000 DUP2 MSTORE PUSH1 0x4 ADD PUSH2 0x17BB SWAP1 PUSH2 0x2966 JUMP JUMPDEST PUSH1 0x40 MLOAD DUP1 SWAP2 SUB SWAP1 REVERT JUMPDEST POP POP POP JUMP JUMPDEST PUSH1 0x0 CALLER SWAP1 POP SWAP1 JUMP JUMPDEST PUSH1 0x60 PUSH2 0x17E0 DUP5 DUP5 PUSH1 0x0 DUP6 PUSH2 0x17E9 JUMP JUMPDEST SWAP1 POP SWAP4 SWAP3 POP POP POP JUMP JUMPDEST PUSH1 0x60 DUP3 SELFBALANCE LT ISZERO PUSH2 0x182E JUMPI PUSH1 0x40 MLOAD PUSH32 0x8C379A000000000000000000000000000000000000000000000000000000000 DUP2 MSTORE PUSH1 0x4 ADD PUSH2 0x1825 SWAP1 PUSH2 0x29F8 JUMP JUMPDEST PUSH1 0x40 MLOAD DUP1 SWAP2 SUB SWAP1 REVERT JUMPDEST PUSH1 0x0 DUP1 DUP7 PUSH20 0xFFFFFFFFFFFFFFFFFFFFFFFFFFFFFFFFFFFFFFFF AND DUP6 DUP8 PUSH1 0x40 MLOAD PUSH2 0x1857 SWAP2 SWAP1 PUSH2 0x2A5F JUMP JUMPDEST PUSH1 0x0 PUSH1 0x40 MLOAD DUP1 DUP4 SUB DUP2 DUP6 DUP8 GAS CALL SWAP3 POP POP POP RETURNDATASIZE DUP1 PUSH1 0x0 DUP2 EQ PUSH2 0x1894 JUMPI PUSH1 0x40 MLOAD SWAP2 POP PUSH1 0x1F NOT PUSH1 0x3F RETURNDATASIZE ADD AND DUP3 ADD PUSH1 0x40 MSTORE RETURNDATASIZE DUP3 MSTORE RETURNDATASIZE PUSH1 0x0 PUSH1 0x20 DUP5 ADD RETURNDATACOPY PUSH2 0x1899 JUMP JUMPDEST PUSH1 0x60 SWAP2 POP JUMPDEST POP SWAP2 POP SWAP2 POP PUSH2 0x18AA DUP8 DUP4 DUP4 DUP8 PUSH2 0x18B6 JUMP JUMPDEST SWAP3 POP POP POP SWAP5 SWAP4 POP POP POP POP JUMP JUMPDEST PUSH1 0x60 DUP4 ISZERO PUSH2 0x1918 JUMPI PUSH1 0x0 DUP4 MLOAD SUB PUSH2 0x1910 JUMPI PUSH2 0x18D0 DUP6 PUSH2 0x192B JUMP JUMPDEST PUSH2 0x190F JUMPI PUSH1 0x40 MLOAD PUSH32 0x8C379A000000000000000000000000000000000000000000000000000000000 DUP2 MSTORE PUSH1 0x4 ADD PUSH2 0x1906 SWAP1 PUSH2 0x2AC2 JUMP JUMPDEST PUSH1 0x40 MLOAD DUP1 SWAP2 SUB SWAP1 REVERT JUMPDEST JUMPDEST DUP3 SWAP1 POP PUSH2 0x1923 JUMP JUMPDEST PUSH2 0x1922 DUP4 DUP4 PUSH2 0x194E JUMP JUMPDEST JUMPDEST SWAP5 SWAP4 POP POP POP POP JUMP JUMPDEST PUSH1 0x0 DUP1 DUP3 PUSH20 0xFFFFFFFFFFFFFFFFFFFFFFFFFFFFFFFFFFFFFFFF AND EXTCODESIZE GT SWAP1 POP SWAP2 SWAP1 POP JUMP JUMPDEST PUSH1 0x0 DUP3 MLOAD GT ISZERO PUSH2 0x1961 JUMPI DUP2 MLOAD DUP1 DUP4 PUSH1 0x20 ADD REVERT JUMPDEST DUP1 PUSH1 0x40 MLOAD PUSH32 0x8C379A000000000000000000000000000000000000000000000000000000000 DUP2 MSTORE PUSH1 0x4 ADD PUSH2 0x1995 SWAP2 SWAP1 PUSH2 0x2AE2 JUMP JUMPDEST PUSH1 0x40 MLOAD DUP1 SWAP2 SUB SWAP1 REVERT JUMPDEST PUSH1 0x0 PUSH1 0x40 MLOAD SWAP1 POP SWAP1 JUMP JUMPDEST PUSH1 0x0 DUP1 REVERT JUMPDEST PUSH1 0x0 DUP1 REVERT JUMPDEST PUSH1 0x0 PUSH20 0xFFFFFFFFFFFFFFFFFFFFFFFFFFFFFFFFFFFFFFFF DUP3 AND SWAP1 POP SWAP2 SWAP1 POP JUMP JUMPDEST PUSH1 0x0 PUSH2 0x19DD DUP3 PUSH2 0x19B2 JUMP JUMPDEST SWAP1 POP SWAP2 SWAP1 POP JUMP JUMPDEST PUSH2 0x19ED DUP2 PUSH2 0x19D2 JUMP JUMPDEST DUP2 EQ PUSH2 0x19F8 JUMPI PUSH1 0x0 DUP1 REVERT JUMPDEST POP JUMP JUMPDEST PUSH1 0x0 DUP2 CALLDATALOAD SWAP1 POP PUSH2 0x1A0A DUP2 PUSH2 0x19E4 JUMP JUMPDEST SWAP3 SWAP2 POP POP JUMP JUMPDEST PUSH1 0x0 PUSH1 0x20 DUP3 DUP5 SUB SLT ISZERO PUSH2 0x1A26 JUMPI PUSH2 0x1A25 PUSH2 0x19A8 JUMP JUMPDEST JUMPDEST PUSH1 0x0 PUSH2 0x1A34 DUP5 DUP3 DUP6 ADD PUSH2 0x19FB JUMP JUMPDEST SWAP2 POP POP SWAP3 SWAP2 POP POP JUMP JUMPDEST PUSH1 0x0 DUP2 SWAP1 POP SWAP2 SWAP1 POP JUMP JUMPDEST PUSH2 0x1A50 DUP2 PUSH2 0x1A3D JUMP JUMPDEST DUP3 MSTORE POP POP JUMP JUMPDEST PUSH1 0x0 PUSH1 0x20 DUP3 ADD SWAP1 POP PUSH2 0x1A6B PUSH1 0x0 DUP4 ADD DUP5 PUSH2 0x1A47 JUMP JUMPDEST SWAP3 SWAP2 POP POP JUMP JUMPDEST PUSH1 0x0 DUP2 ISZERO ISZERO SWAP1 POP SWAP2 SWAP1 POP JUMP JUMPDEST PUSH2 0x1A86 DUP2 PUSH2 0x1A71 JUMP JUMPDEST DUP3 MSTORE POP POP JUMP JUMPDEST PUSH1 0x0 PUSH1 0x20 DUP3 ADD SWAP1 POP PUSH2 0x1AA1 PUSH1 0x0 DUP4 ADD DUP5 PUSH2 0x1A7D JUMP JUMPDEST SWAP3 SWAP2 POP POP JUMP JUMPDEST PUSH1 0x0 DUP1 REVERT JUMPDEST PUSH1 0x0 PUSH1 0x1F NOT PUSH1 0x1F DUP4 ADD AND SWAP1 POP SWAP2 SWAP1 POP JUMP JUMPDEST PUSH32 0x4E487B7100000000000000000000000000000000000000000000000000000000 PUSH1 0x0 MSTORE PUSH1 0x41 PUSH1 0x4 MSTORE PUSH1 0x24 PUSH1 0x0 REVERT JUMPDEST PUSH2 0x1AF5 DUP3 PUSH2 0x1AAC JUMP JUMPDEST DUP2 ADD DUP2 DUP2 LT PUSH8 0xFFFFFFFFFFFFFFFF DUP3 GT OR ISZERO PUSH2 0x1B14 JUMPI PUSH2 0x1B13 PUSH2 0x1ABD JUMP JUMPDEST JUMPDEST DUP1 PUSH1 0x40 MSTORE POP POP POP JUMP JUMPDEST PUSH1 0x0 PUSH2 0x1B27 PUSH2 0x199E JUMP JUMPDEST SWAP1 POP PUSH2 0x1B33 DUP3 DUP3 PUSH2 0x1AEC JUMP JUMPDEST SWAP2 SWAP1 POP JUMP JUMPDEST PUSH1 0x0 PUSH8 0xFFFFFFFFFFFFFFFF DUP3 GT ISZERO PUSH2 0x1B53 JUMPI PUSH2 0x1B52 PUSH2 0x1ABD JUMP JUMPDEST JUMPDEST PUSH1 0x20 DUP3 MUL SWAP1 POP PUSH1 0x20 DUP2 ADD SWAP1 POP SWAP2 SWAP1 POP JUMP JUMPDEST PUSH1 0x0 DUP1 REVERT JUMPDEST PUSH1 0x0 DUP1 REVERT JUMPDEST PUSH1 0x0 PUSH8 0xFFFFFFFFFFFFFFFF DUP3 GT ISZERO PUSH2 0x1B89 JUMPI PUSH2 0x1B88 PUSH2 0x1ABD JUMP JUMPDEST JUMPDEST PUSH2 0x1B92 DUP3 PUSH2 0x1AAC JUMP JUMPDEST SWAP1 POP PUSH1 0x20 DUP2 ADD SWAP1 POP SWAP2 SWAP1 POP JUMP JUMPDEST DUP3 DUP2 DUP4 CALLDATACOPY PUSH1 0x0 DUP4 DUP4 ADD MSTORE POP POP POP JUMP JUMPDEST PUSH1 0x0 PUSH2 0x1BC1 PUSH2 0x1BBC DUP5 PUSH2 0x1B6E JUMP JUMPDEST PUSH2 0x1B1D JUMP JUMPDEST SWAP1 POP DUP3 DUP2 MSTORE PUSH1 0x20 DUP2 ADD DUP5 DUP5 DUP5 ADD GT ISZERO PUSH2 0x1BDD JUMPI PUSH2 0x1BDC PUSH2 0x1B69 JUMP JUMPDEST JUMPDEST PUSH2 0x1BE8 DUP5 DUP3 DUP6 PUSH2 0x1B9F JUMP JUMPDEST POP SWAP4 SWAP3 POP POP POP JUMP JUMPDEST PUSH1 0x0 DUP3 PUSH1 0x1F DUP4 ADD SLT PUSH2 0x1C05 JUMPI PUSH2 0x1C04 PUSH2 0x1AA7 JUMP JUMPDEST JUMPDEST DUP2 CALLDATALOAD PUSH2 0x1C15 DUP5 DUP3 PUSH1 0x20 DUP7 ADD PUSH2 0x1BAE JUMP JUMPDEST SWAP2 POP POP SWAP3 SWAP2 POP POP JUMP JUMPDEST PUSH1 0x0 PUSH2 0x1C31 PUSH2 0x1C2C DUP5 PUSH2 0x1B38 JUMP JUMPDEST PUSH2 0x1B1D JUMP JUMPDEST SWAP1 POP DUP1 DUP4 DUP3 MSTORE PUSH1 0x20 DUP3 ADD SWAP1 POP PUSH1 0x20 DUP5 MUL DUP4 ADD DUP6 DUP2 GT ISZERO PUSH2 0x1C54 JUMPI PUSH2 0x1C53 PUSH2 0x1B64 JUMP JUMPDEST JUMPDEST DUP4 JUMPDEST DUP2 DUP2 LT ISZERO PUSH2 0x1C9B JUMPI DUP1 CALLDATALOAD PUSH8 0xFFFFFFFFFFFFFFFF DUP2 GT ISZERO PUSH2 0x1C79 JUMPI PUSH2 0x1C78 PUSH2 0x1AA7 JUMP JUMPDEST JUMPDEST DUP1 DUP7 ADD PUSH2 0x1C86 DUP10 DUP3 PUSH2 0x1BF0 JUMP JUMPDEST DUP6 MSTORE PUSH1 0x20 DUP6 ADD SWAP5 POP POP POP PUSH1 0x20 DUP2 ADD SWAP1 POP PUSH2 0x1C56 JUMP JUMPDEST POP POP POP SWAP4 SWAP3 POP POP POP JUMP JUMPDEST PUSH1 0x0 DUP3 PUSH1 0x1F DUP4 ADD SLT PUSH2 0x1CBA JUMPI PUSH2 0x1CB9 PUSH2 0x1AA7 JUMP JUMPDEST JUMPDEST DUP2 CALLDATALOAD PUSH2 0x1CCA DUP5 DUP3 PUSH1 0x20 DUP7 ADD PUSH2 0x1C1E JUMP JUMPDEST SWAP2 POP POP SWAP3 SWAP2 POP POP JUMP JUMPDEST PUSH1 0x0 PUSH8 0xFFFFFFFFFFFFFFFF DUP3 GT ISZERO PUSH2 0x1CEE JUMPI PUSH2 0x1CED PUSH2 0x1ABD JUMP JUMPDEST JUMPDEST PUSH1 0x20 DUP3 MUL SWAP1 POP PUSH1 0x20 DUP2 ADD SWAP1 POP SWAP2 SWAP1 POP JUMP JUMPDEST PUSH2 0x1D08 DUP2 PUSH2 0x1A3D JUMP JUMPDEST DUP2 EQ PUSH2 0x1D13 JUMPI PUSH1 0x0 DUP1 REVERT JUMPDEST POP JUMP JUMPDEST PUSH1 0x0 DUP2 CALLDATALOAD SWAP1 POP PUSH2 0x1D25 DUP2 PUSH2 0x1CFF JUMP JUMPDEST SWAP3 SWAP2 POP POP JUMP JUMPDEST PUSH1 0x0 PUSH2 0x1D3E PUSH2 0x1D39 DUP5 PUSH2 0x1CD3 JUMP JUMPDEST PUSH2 0x1B1D JUMP JUMPDEST SWAP1 POP DUP1 DUP4 DUP3 MSTORE PUSH1 0x20 DUP3 ADD SWAP1 POP PUSH1 0x20 DUP5 MUL DUP4 ADD DUP6 DUP2 GT ISZERO PUSH2 0x1D61 JUMPI PUSH2 0x1D60 PUSH2 0x1B64 JUMP JUMPDEST JUMPDEST DUP4 JUMPDEST DUP2 DUP2 LT ISZERO PUSH2 0x1D8A JUMPI DUP1 PUSH2 0x1D76 DUP9 DUP3 PUSH2 0x1D16 JUMP JUMPDEST DUP5 MSTORE PUSH1 0x20 DUP5 ADD SWAP4 POP POP PUSH1 0x20 DUP2 ADD SWAP1 POP PUSH2 0x1D63 JUMP JUMPDEST POP POP POP SWAP4 SWAP3 POP POP POP JUMP JUMPDEST PUSH1 0x0 DUP3 PUSH1 0x1F DUP4 ADD SLT PUSH2 0x1DA9 JUMPI PUSH2 0x1DA8 PUSH2 0x1AA7 JUMP JUMPDEST JUMPDEST DUP2 CALLDATALOAD PUSH2 0x1DB9 DUP5 DUP3 PUSH1 0x20 DUP7 ADD PUSH2 0x1D2B JUMP JUMPDEST SWAP2 POP POP SWAP3 SWAP2 POP POP JUMP JUMPDEST PUSH1 0x0 DUP1 PUSH1 0x0 PUSH1 0x60 DUP5 DUP7 SUB SLT ISZERO PUSH2 0x1DDB JUMPI PUSH2 0x1DDA PUSH2 0x19A8 JUMP JUMPDEST JUMPDEST PUSH1 0x0 DUP5 ADD CALLDATALOAD PUSH8 0xFFFFFFFFFFFFFFFF DUP2 GT ISZERO PUSH2 0x1DF9 JUMPI PUSH2 0x1DF8 PUSH2 0x19AD JUMP JUMPDEST JUMPDEST PUSH2 0x1E05 DUP7 DUP3 DUP8 ADD PUSH2 0x1CA5 JUMP JUMPDEST SWAP4 POP POP PUSH1 0x20 DUP5 ADD CALLDATALOAD PUSH8 0xFFFFFFFFFFFFFFFF DUP2 GT ISZERO PUSH2 0x1E26 JUMPI PUSH2 0x1E25 PUSH2 0x19AD JUMP JUMPDEST JUMPDEST PUSH2 0x1E32 DUP7 DUP3 DUP8 ADD PUSH2 0x1CA5 JUMP JUMPDEST SWAP3 POP POP PUSH1 0x40 DUP5 ADD CALLDATALOAD PUSH8 0xFFFFFFFFFFFFFFFF DUP2 GT ISZERO PUSH2 0x1E53 JUMPI PUSH2 0x1E52 PUSH2 0x19AD JUMP JUMPDEST JUMPDEST PUSH2 0x1E5F DUP7 DUP3 DUP8 ADD PUSH2 0x1D94 JUMP JUMPDEST SWAP2 POP POP SWAP3 POP SWAP3 POP SWAP3 JUMP JUMPDEST PUSH1 0x0 DUP2 SWAP1 POP SWAP2 SWAP1 POP JUMP JUMPDEST PUSH1 0x0 PUSH2 0x1E8E PUSH2 0x1E89 PUSH2 0x1E84 DUP5 PUSH2 0x19B2 JUMP JUMPDEST PUSH2 0x1E69 JUMP JUMPDEST PUSH2 0x19B2 JUMP JUMPDEST SWAP1 POP SWAP2 SWAP1 POP JUMP JUMPDEST PUSH1 0x0 PUSH2 0x1EA0 DUP3 PUSH2 0x1E73 JUMP JUMPDEST SWAP1 POP SWAP2 SWAP1 POP JUMP JUMPDEST PUSH1 0x0 PUSH2 0x1EB2 DUP3 PUSH2 0x1E95 JUMP JUMPDEST SWAP1 POP SWAP2 SWAP1 POP JUMP JUMPDEST PUSH2 0x1EC2 DUP2 PUSH2 0x1EA7 JUMP JUMPDEST DUP3 MSTORE POP POP JUMP JUMPDEST PUSH1 0x0 PUSH1 0x20 DUP3 ADD SWAP1 POP PUSH2 0x1EDD PUSH1 0x0 DUP4 ADD DUP5 PUSH2 0x1EB9 JUMP JUMPDEST SWAP3 SWAP2 POP POP JUMP JUMPDEST PUSH1 0x0 DUP1 PUSH1 0x0 PUSH1 0x60 DUP5 DUP7 SUB SLT ISZERO PUSH2 0x1EFC JUMPI PUSH2 0x1EFB PUSH2 0x19A8 JUMP JUMPDEST JUMPDEST PUSH1 0x0 DUP5 ADD CALLDATALOAD PUSH8 0xFFFFFFFFFFFFFFFF DUP2 GT ISZERO PUSH2 0x1F1A JUMPI PUSH2 0x1F19 PUSH2 0x19AD JUMP JUMPDEST JUMPDEST PUSH2 0x1F26 DUP7 DUP3 DUP8 ADD PUSH2 0x1BF0 JUMP JUMPDEST SWAP4 POP POP PUSH1 0x20 DUP5 ADD CALLDATALOAD PUSH8 0xFFFFFFFFFFFFFFFF DUP2 GT ISZERO PUSH2 0x1F47 JUMPI PUSH2 0x1F46 PUSH2 0x19AD JUMP JUMPDEST JUMPDEST PUSH2 0x1F53 DUP7 DUP3 DUP8 ADD PUSH2 0x1BF0 JUMP JUMPDEST SWAP3 POP POP PUSH1 0x40 PUSH2 0x1F64 DUP7 DUP3 DUP8 ADD PUSH2 0x1D16 JUMP JUMPDEST SWAP2 POP POP SWAP3 POP SWAP3 POP SWAP3 JUMP JUMPDEST PUSH1 0x0 DUP2 PUSH1 0x7 SIGNEXTEND SWAP1 POP SWAP2 SWAP1 POP JUMP JUMPDEST PUSH2 0x1F84 DUP2 PUSH2 0x1F6E JUMP JUMPDEST DUP3 MSTORE POP POP JUMP JUMPDEST PUSH1 0x0 PUSH1 0x20 DUP3 ADD SWAP1 POP PUSH2 0x1F9F PUSH1 0x0 DUP4 ADD DUP5 PUSH2 0x1F7B JUMP JUMPDEST SWAP3 SWAP2 POP POP JUMP JUMPDEST PUSH1 0x0 DUP1 PUSH1 0x40 DUP4 DUP6 SUB SLT ISZERO PUSH2 0x1FBC JUMPI PUSH2 0x1FBB PUSH2 0x19A8 JUMP JUMPDEST JUMPDEST PUSH1 0x0 PUSH2 0x1FCA DUP6 DUP3 DUP7 ADD PUSH2 0x19FB JUMP JUMPDEST SWAP3 POP POP PUSH1 0x20 PUSH2 0x1FDB DUP6 DUP3 DUP7 ADD PUSH2 0x1D16 JUMP JUMPDEST SWAP2 POP POP SWAP3 POP SWAP3 SWAP1 POP JUMP JUMPDEST PUSH2 0x1FEE DUP2 PUSH2 0x19D2 JUMP JUMPDEST DUP3 MSTORE POP POP JUMP JUMPDEST PUSH1 0x0 PUSH1 0x20 DUP3 ADD SWAP1 POP PUSH2 0x2009 PUSH1 0x0 DUP4 ADD DUP5 PUSH2 0x1FE5 JUMP JUMPDEST SWAP3 SWAP2 POP POP JUMP JUMPDEST PUSH1 0x0 PUSH1 0x20 DUP3 DUP5 SUB SLT ISZERO PUSH2 0x2025 JUMPI PUSH2 0x2024 PUSH2 0x19A8 JUMP JUMPDEST JUMPDEST PUSH1 0x0 PUSH2 0x2033 DUP5 DUP3 DUP6 ADD PUSH2 0x1D16 JUMP JUMPDEST SWAP2 POP POP SWAP3 SWAP2 POP POP JUMP JUMPDEST PUSH32 0x4E487B7100000000000000000000000000000000000000000000000000000000 PUSH1 0x0 MSTORE PUSH1 0x11 PUSH1 0x4 MSTORE PUSH1 0x24 PUSH1 0x0 REVERT JUMPDEST PUSH1 0x0 PUSH2 0x2076 DUP3 PUSH2 0x1A3D JUMP JUMPDEST SWAP2 POP PUSH2 0x2081 DUP4 PUSH2 0x1A3D JUMP JUMPDEST SWAP3 POP DUP3 DUP3 MUL PUSH2 0x208F DUP2 PUSH2 0x1A3D JUMP JUMPDEST SWAP2 POP DUP3 DUP3 DIV DUP5 EQ DUP4 ISZERO OR PUSH2 0x20A6 JUMPI PUSH2 0x20A5 PUSH2 0x203C JUMP JUMPDEST JUMPDEST POP SWAP3 SWAP2 POP POP JUMP JUMPDEST PUSH1 0x0 DUP3 DUP3 MSTORE PUSH1 0x20 DUP3 ADD SWAP1 POP SWAP3 SWAP2 POP POP JUMP JUMPDEST PUSH32 0x496E70757420617272617973206C656E677468206D69736D6174636800000000 PUSH1 0x0 DUP3 ADD MSTORE POP JUMP JUMPDEST PUSH1 0x0 PUSH2 0x20F4 PUSH1 0x1C DUP4 PUSH2 0x20AD JUMP JUMPDEST SWAP2 POP PUSH2 0x20FF DUP3 PUSH2 0x20BE JUMP JUMPDEST PUSH1 0x20 DUP3 ADD SWAP1 POP SWAP2 SWAP1 POP JUMP JUMPDEST PUSH1 0x0 PUSH1 0x20 DUP3 ADD SWAP1 POP DUP2 DUP2 SUB PUSH1 0x0 DUP4 ADD MSTORE PUSH2 0x2123 DUP2 PUSH2 0x20E7 JUMP JUMPDEST SWAP1 POP SWAP2 SWAP1 POP JUMP JUMPDEST PUSH32 0x4E487B7100000000000000000000000000000000000000000000000000000000 PUSH1 0x0 MSTORE PUSH1 0x32 PUSH1 0x4 MSTORE PUSH1 0x24 PUSH1 0x0 REVERT JUMPDEST PUSH1 0x0 PUSH2 0x2164 DUP3 PUSH2 0x1A3D JUMP JUMPDEST SWAP2 POP PUSH32 0xFFFFFFFFFFFFFFFFFFFFFFFFFFFFFFFFFFFFFFFFFFFFFFFFFFFFFFFFFFFFFFFF DUP3 SUB PUSH2 0x2196 JUMPI PUSH2 0x2195 PUSH2 0x203C JUMP JUMPDEST JUMPDEST PUSH1 0x1 DUP3 ADD SWAP1 POP SWAP2 SWAP1 POP JUMP JUMPDEST PUSH1 0x0 DUP2 MLOAD SWAP1 POP SWAP2 SWAP1 POP JUMP JUMPDEST PUSH1 0x0 JUMPDEST DUP4 DUP2 LT ISZERO PUSH2 0x21CA JUMPI DUP1 DUP3 ADD MLOAD DUP2 DUP5 ADD MSTORE PUSH1 0x20 DUP2 ADD SWAP1 POP PUSH2 0x21AF JUMP JUMPDEST PUSH1 0x0 DUP5 DUP5 ADD MSTORE POP POP POP POP JUMP JUMPDEST PUSH1 0x0 PUSH2 0x21E1 DUP3 PUSH2 0x21A1 JUMP JUMPDEST PUSH2 0x21EB DUP2 DUP6 PUSH2 0x20AD JUMP JUMPDEST SWAP4 POP PUSH2 0x21FB DUP2 DUP6 PUSH1 0x20 DUP7 ADD PUSH2 0x21AC JUMP JUMPDEST PUSH2 0x2204 DUP2 PUSH2 0x1AAC JUMP JUMPDEST DUP5 ADD SWAP2 POP POP SWAP3 SWAP2 POP POP JUMP JUMPDEST PUSH1 0x0 PUSH1 0x80 DUP3 ADD SWAP1 POP PUSH2 0x2224 PUSH1 0x0 DUP4 ADD DUP8 PUSH2 0x1FE5 JUMP JUMPDEST DUP2 DUP2 SUB PUSH1 0x20 DUP4 ADD MSTORE PUSH2 0x2236 DUP2 DUP7 PUSH2 0x21D6 JUMP JUMPDEST SWAP1 POP DUP2 DUP2 SUB PUSH1 0x40 DUP4 ADD MSTORE PUSH2 0x224A DUP2 DUP6 PUSH2 0x21D6 JUMP JUMPDEST SWAP1 POP PUSH2 0x2259 PUSH1 0x60 DUP4 ADD DUP5 PUSH2 0x1A47 JUMP JUMPDEST SWAP6 SWAP5 POP POP POP POP POP JUMP JUMPDEST PUSH2 0x226B DUP2 PUSH2 0x1F6E JUMP JUMPDEST DUP2 EQ PUSH2 0x2276 JUMPI PUSH1 0x0 DUP1 REVERT JUMPDEST POP JUMP JUMPDEST PUSH1 0x0 DUP2 MLOAD SWAP1 POP PUSH2 0x2288 DUP2 PUSH2 0x2262 JUMP JUMPDEST SWAP3 SWAP2 POP POP JUMP JUMPDEST PUSH1 0x0 PUSH1 0x20 DUP3 DUP5 SUB SLT ISZERO PUSH2 0x22A4 JUMPI PUSH2 0x22A3 PUSH2 0x19A8 JUMP JUMPDEST JUMPDEST PUSH1 0x0 PUSH2 0x22B2 DUP5 DUP3 DUP6 ADD PUSH2 0x2279 JUMP JUMPDEST SWAP2 POP POP SWAP3 SWAP2 POP POP JUMP JUMPDEST PUSH1 0x0 PUSH2 0x22C6 DUP3 PUSH2 0x1A3D JUMP JUMPDEST SWAP2 POP PUSH2 0x22D1 DUP4 PUSH2 0x1A3D JUMP JUMPDEST SWAP3 POP DUP3 DUP3 ADD SWAP1 POP DUP1 DUP3 GT ISZERO PUSH2 0x22E9 JUMPI PUSH2 0x22E8 PUSH2 0x203C JUMP JUMPDEST JUMPDEST SWAP3 SWAP2 POP POP JUMP JUMPDEST PUSH1 0x0 PUSH1 0x40 DUP3 ADD SWAP1 POP PUSH2 0x2304 PUSH1 0x0 DUP4 ADD DUP6 PUSH2 0x1FE5 JUMP JUMPDEST PUSH2 0x2311 PUSH1 0x20 DUP4 ADD DUP5 PUSH2 0x1A47 JUMP JUMPDEST SWAP4 SWAP3 POP POP POP JUMP JUMPDEST PUSH1 0x0 DUP2 SLOAD SWAP1 POP SWAP2 SWAP1 POP JUMP JUMPDEST PUSH1 0x0 DUP3 DUP3 MSTORE PUSH1 0x20 DUP3 ADD SWAP1 POP SWAP3 SWAP2 POP POP JUMP JUMPDEST PUSH1 0x0 DUP2 SWAP1 POP DUP2 PUSH1 0x0 MSTORE PUSH1 0x20 PUSH1 0x0 KECCAK256 SWAP1 POP SWAP2 SWAP1 POP JUMP JUMPDEST PUSH32 0x4E487B7100000000000000000000000000000000000000000000000000000000 PUSH1 0x0 MSTORE PUSH1 0x22 PUSH1 0x4 MSTORE PUSH1 0x24 PUSH1 0x0 REVERT JUMPDEST PUSH1 0x0 PUSH1 0x2 DUP3 DIV SWAP1 POP PUSH1 0x1 DUP3 AND DUP1 PUSH2 0x2390 JUMPI PUSH1 0x7F DUP3 AND SWAP2 POP JUMPDEST PUSH1 0x20 DUP3 LT DUP2 SUB PUSH2 0x23A3 JUMPI PUSH2 0x23A2 PUSH2 0x2349 JUMP JUMPDEST JUMPDEST POP SWAP2 SWAP1 POP JUMP JUMPDEST PUSH1 0x0 DUP3 DUP3 MSTORE PUSH1 0x20 DUP3 ADD SWAP1 POP SWAP3 SWAP2 POP POP JUMP JUMPDEST PUSH1 0x0 DUP2 SWAP1 POP DUP2 PUSH1 0x0 MSTORE PUSH1 0x20 PUSH1 0x0 KECCAK256 SWAP1 POP SWAP2 SWAP1 POP JUMP JUMPDEST PUSH1 0x0 DUP2 SLOAD PUSH2 0x23DC DUP2 PUSH2 0x2378 JUMP JUMPDEST PUSH2 0x23E6 DUP2 DUP7 PUSH2 0x23A9 JUMP JUMPDEST SWAP5 POP PUSH1 0x1 DUP3 AND PUSH1 0x0 DUP2 EQ PUSH2 0x2401 JUMPI PUSH1 0x1 DUP2 EQ PUSH2 0x2417 JUMPI PUSH2 0x244A JUMP JUMPDEST PUSH1 0xFF NOT DUP4 AND DUP7 MSTORE DUP2 ISZERO ISZERO PUSH1 0x20 MUL DUP7 ADD SWAP4 POP PUSH2 0x244A JUMP JUMPDEST PUSH2 0x2420 DUP6 PUSH2 0x23BA JUMP JUMPDEST PUSH1 0x0 JUMPDEST DUP4 DUP2 LT ISZERO PUSH2 0x2442 JUMPI DUP2 SLOAD DUP2 DUP10 ADD MSTORE PUSH1 0x1 DUP3 ADD SWAP2 POP PUSH1 0x20 DUP2 ADD SWAP1 POP PUSH2 0x2423 JUMP JUMPDEST DUP1 DUP9 ADD SWAP6 POP POP POP JUMPDEST POP POP POP SWAP3 SWAP2 POP POP JUMP JUMPDEST PUSH1 0x0 PUSH2 0x245F DUP4 DUP4 PUSH2 0x23CF JUMP JUMPDEST SWAP1 POP SWAP3 SWAP2 POP POP JUMP JUMPDEST PUSH1 0x0 PUSH1 0x1 DUP3 ADD SWAP1 POP SWAP2 SWAP1 POP JUMP JUMPDEST PUSH1 0x0 PUSH2 0x247F DUP3 PUSH2 0x2318 JUMP JUMPDEST PUSH2 0x2489 DUP2 DUP6 PUSH2 0x2323 JUMP JUMPDEST SWAP4 POP DUP4 PUSH1 0x20 DUP3 MUL DUP6 ADD PUSH2 0x249B DUP6 PUSH2 0x2334 JUMP JUMPDEST DUP1 PUSH1 0x0 JUMPDEST DUP6 DUP2 LT ISZERO PUSH2 0x24D6 JUMPI DUP5 DUP5 SUB DUP10 MSTORE DUP2 PUSH2 0x24B7 DUP6 DUP3 PUSH2 0x2453 JUMP JUMPDEST SWAP5 POP PUSH2 0x24C2 DUP4 PUSH2 0x2467 JUMP JUMPDEST SWAP3 POP PUSH1 0x20 DUP11 ADD SWAP10 POP POP PUSH1 0x1 DUP2 ADD SWAP1 POP PUSH2 0x249F JUMP JUMPDEST POP DUP3 SWAP8 POP DUP8 SWAP6 POP POP POP POP POP POP SWAP3 SWAP2 POP POP JUMP JUMPDEST PUSH1 0x0 PUSH1 0x60 DUP3 ADD SWAP1 POP PUSH2 0x24FD PUSH1 0x0 DUP4 ADD DUP7 PUSH2 0x1FE5 JUMP JUMPDEST PUSH2 0x250A PUSH1 0x20 DUP4 ADD DUP6 PUSH2 0x1A47 JUMP JUMPDEST DUP2 DUP2 SUB PUSH1 0x40 DUP4 ADD MSTORE PUSH2 0x251C DUP2 DUP5 PUSH2 0x2474 JUMP JUMPDEST SWAP1 POP SWAP5 SWAP4 POP POP POP POP JUMP JUMPDEST PUSH2 0x252F DUP2 PUSH2 0x1A71 JUMP JUMPDEST DUP2 EQ PUSH2 0x253A JUMPI PUSH1 0x0 DUP1 REVERT JUMPDEST POP JUMP JUMPDEST PUSH1 0x0 DUP2 MLOAD SWAP1 POP PUSH2 0x254C DUP2 PUSH2 0x2526 JUMP JUMPDEST SWAP3 SWAP2 POP POP JUMP JUMPDEST PUSH1 0x0 PUSH1 0x20 DUP3 DUP5 SUB SLT ISZERO PUSH2 0x2568 JUMPI PUSH2 0x2567 PUSH2 0x19A8 JUMP JUMPDEST JUMPDEST PUSH1 0x0 PUSH2 0x2576 DUP5 DUP3 DUP6 ADD PUSH2 0x253D JUMP JUMPDEST SWAP2 POP POP SWAP3 SWAP2 POP POP JUMP JUMPDEST PUSH32 0x4661696C656420746F20617070726F76652064656C6567617465206D6574686F PUSH1 0x0 DUP3 ADD MSTORE PUSH32 0x6400000000000000000000000000000000000000000000000000000000000000 PUSH1 0x20 DUP3 ADD MSTORE POP JUMP JUMPDEST PUSH1 0x0 PUSH2 0x25DB PUSH1 0x21 DUP4 PUSH2 0x20AD JUMP JUMPDEST SWAP2 POP PUSH2 0x25E6 DUP3 PUSH2 0x257F JUMP JUMPDEST PUSH1 0x40 DUP3 ADD SWAP1 POP SWAP2 SWAP1 POP JUMP JUMPDEST PUSH1 0x0 PUSH1 0x20 DUP3 ADD SWAP1 POP DUP2 DUP2 SUB PUSH1 0x0 DUP4 ADD MSTORE PUSH2 0x260A DUP2 PUSH2 0x25CE JUMP JUMPDEST SWAP1 POP SWAP2 SWAP1 POP JUMP JUMPDEST PUSH32 0x4E487B7100000000000000000000000000000000000000000000000000000000 PUSH1 0x0 MSTORE PUSH1 0x12 PUSH1 0x4 MSTORE PUSH1 0x24 PUSH1 0x0 REVERT JUMPDEST PUSH1 0x0 PUSH2 0x264B DUP3 PUSH2 0x1A3D JUMP JUMPDEST SWAP2 POP PUSH2 0x2656 DUP4 PUSH2 0x1A3D JUMP JUMPDEST SWAP3 POP DUP3 PUSH2 0x2666 JUMPI PUSH2 0x2665 PUSH2 0x2611 JUMP JUMPDEST JUMPDEST DUP3 DUP3 DIV SWAP1 POP SWAP3 SWAP2 POP POP JUMP JUMPDEST PUSH1 0x0 PUSH2 0x267C DUP3 PUSH2 0x1A3D JUMP JUMPDEST SWAP2 POP PUSH2 0x2687 DUP4 PUSH2 0x1A3D JUMP JUMPDEST SWAP3 POP DUP3 DUP3 SUB SWAP1 POP DUP2 DUP2 GT ISZERO PUSH2 0x269F JUMPI PUSH2 0x269E PUSH2 0x203C JUMP JUMPDEST JUMPDEST SWAP3 SWAP2 POP POP JUMP JUMPDEST PUSH1 0x0 DUP2 MLOAD SWAP1 POP PUSH2 0x26B4 DUP2 PUSH2 0x1CFF JUMP JUMPDEST SWAP3 SWAP2 POP POP JUMP JUMPDEST PUSH1 0x0 PUSH1 0x20 DUP3 DUP5 SUB SLT ISZERO PUSH2 0x26D0 JUMPI PUSH2 0x26CF PUSH2 0x19A8 JUMP JUMPDEST JUMPDEST PUSH1 0x0 PUSH2 0x26DE DUP5 DUP3 DUP6 ADD PUSH2 0x26A5 JUMP JUMPDEST SWAP2 POP POP SWAP3 SWAP2 POP POP JUMP JUMPDEST PUSH32 0x4F776E61626C653A206E6577206F776E657220697320746865207A65726F2061 PUSH1 0x0 DUP3 ADD MSTORE PUSH32 0x6464726573730000000000000000000000000000000000000000000000000000 PUSH1 0x20 DUP3 ADD MSTORE POP JUMP JUMPDEST PUSH1 0x0 PUSH2 0x2743 PUSH1 0x26 DUP4 PUSH2 0x20AD JUMP JUMPDEST SWAP2 POP PUSH2 0x274E DUP3 PUSH2 0x26E7 JUMP JUMPDEST PUSH1 0x40 DUP3 ADD SWAP1 POP SWAP2 SWAP1 POP JUMP JUMPDEST PUSH1 0x0 PUSH1 0x20 DUP3 ADD SWAP1 POP DUP2 DUP2 SUB PUSH1 0x0 DUP4 ADD MSTORE PUSH2 0x2772 DUP2 PUSH2 0x2736 JUMP JUMPDEST SWAP1 POP SWAP2 SWAP1 POP JUMP JUMPDEST PUSH32 0x5265656E7472616E637947756172643A207265656E7472616E742063616C6C00 PUSH1 0x0 DUP3 ADD MSTORE POP JUMP JUMPDEST PUSH1 0x0 PUSH2 0x27AF PUSH1 0x1F DUP4 PUSH2 0x20AD JUMP JUMPDEST SWAP2 POP PUSH2 0x27BA DUP3 PUSH2 0x2779 JUMP JUMPDEST PUSH1 0x20 DUP3 ADD SWAP1 POP SWAP2 SWAP1 POP JUMP JUMPDEST PUSH1 0x0 PUSH1 0x20 DUP3 ADD SWAP1 POP DUP2 DUP2 SUB PUSH1 0x0 DUP4 ADD MSTORE PUSH2 0x27DE DUP2 PUSH2 0x27A2 JUMP JUMPDEST SWAP1 POP SWAP2 SWAP1 POP JUMP JUMPDEST PUSH32 0x5061757361626C653A2070617573656400000000000000000000000000000000 PUSH1 0x0 DUP3 ADD MSTORE POP JUMP JUMPDEST PUSH1 0x0 PUSH2 0x281B PUSH1 0x10 DUP4 PUSH2 0x20AD JUMP JUMPDEST SWAP2 POP PUSH2 0x2826 DUP3 PUSH2 0x27E5 JUMP JUMPDEST PUSH1 0x20 DUP3 ADD SWAP1 POP SWAP2 SWAP1 POP JUMP JUMPDEST PUSH1 0x0 PUSH1 0x20 DUP3 ADD SWAP1 POP DUP2 DUP2 SUB PUSH1 0x0 DUP4 ADD MSTORE PUSH2 0x284A DUP2 PUSH2 0x280E JUMP JUMPDEST SWAP1 POP SWAP2 SWAP1 POP JUMP JUMPDEST PUSH32 0x4F776E61626C653A2063616C6C6572206973206E6F7420746865206F776E6572 PUSH1 0x0 DUP3 ADD MSTORE POP JUMP JUMPDEST PUSH1 0x0 PUSH2 0x2887 PUSH1 0x20 DUP4 PUSH2 0x20AD JUMP JUMPDEST SWAP2 POP PUSH2 0x2892 DUP3 PUSH2 0x2851 JUMP JUMPDEST PUSH1 0x20 DUP3 ADD SWAP1 POP SWAP2 SWAP1 POP JUMP JUMPDEST PUSH1 0x0 PUSH1 0x20 DUP3 ADD SWAP1 POP DUP2 DUP2 SUB PUSH1 0x0 DUP4 ADD MSTORE PUSH2 0x28B6 DUP2 PUSH2 0x287A JUMP JUMPDEST SWAP1 POP SWAP2 SWAP1 POP JUMP JUMPDEST PUSH1 0x0 PUSH1 0x60 DUP3 ADD SWAP1 POP PUSH2 0x28D2 PUSH1 0x0 DUP4 ADD DUP7 PUSH2 0x1FE5 JUMP JUMPDEST PUSH2 0x28DF PUSH1 0x20 DUP4 ADD DUP6 PUSH2 0x1FE5 JUMP JUMPDEST PUSH2 0x28EC PUSH1 0x40 DUP4 ADD DUP5 PUSH2 0x1A47 JUMP JUMPDEST SWAP5 SWAP4 POP POP POP POP JUMP JUMPDEST PUSH32 0x5361666545524332303A204552433230206F7065726174696F6E20646964206E PUSH1 0x0 DUP3 ADD MSTORE PUSH32 0x6F74207375636365656400000000000000000000000000000000000000000000 PUSH1 0x20 DUP3 ADD MSTORE POP JUMP JUMPDEST PUSH1 0x0 PUSH2 0x2950 PUSH1 0x2A DUP4 PUSH2 0x20AD JUMP JUMPDEST SWAP2 POP PUSH2 0x295B DUP3 PUSH2 0x28F4 JUMP JUMPDEST PUSH1 0x40 DUP3 ADD SWAP1 POP SWAP2 SWAP1 POP JUMP JUMPDEST PUSH1 0x0 PUSH1 0x20 DUP3 ADD SWAP1 POP DUP2 DUP2 SUB PUSH1 0x0 DUP4 ADD MSTORE PUSH2 0x297F DUP2 PUSH2 0x2943 JUMP JUMPDEST SWAP1 POP SWAP2 SWAP1 POP JUMP JUMPDEST PUSH32 0x416464726573733A20696E73756666696369656E742062616C616E636520666F PUSH1 0x0 DUP3 ADD MSTORE PUSH32 0x722063616C6C0000000000000000000000000000000000000000000000000000 PUSH1 0x20 DUP3 ADD MSTORE POP JUMP JUMPDEST PUSH1 0x0 PUSH2 0x29E2 PUSH1 0x26 DUP4 PUSH2 0x20AD JUMP JUMPDEST SWAP2 POP PUSH2 0x29ED DUP3 PUSH2 0x2986 JUMP JUMPDEST PUSH1 0x40 DUP3 ADD SWAP1 POP SWAP2 SWAP1 POP JUMP JUMPDEST PUSH1 0x0 PUSH1 0x20 DUP3 ADD SWAP1 POP DUP2 DUP2 SUB PUSH1 0x0 DUP4 ADD MSTORE PUSH2 0x2A11 DUP2 PUSH2 0x29D5 JUMP JUMPDEST SWAP1 POP SWAP2 SWAP1 POP JUMP JUMPDEST PUSH1 0x0 DUP2 MLOAD SWAP1 POP SWAP2 SWAP1 POP JUMP JUMPDEST PUSH1 0x0 DUP2 SWAP1 POP SWAP3 SWAP2 POP POP JUMP JUMPDEST PUSH1 0x0 PUSH2 0x2A39 DUP3 PUSH2 0x2A18 JUMP JUMPDEST PUSH2 0x2A43 DUP2 DUP6 PUSH2 0x2A23 JUMP JUMPDEST SWAP4 POP PUSH2 0x2A53 DUP2 DUP6 PUSH1 0x20 DUP7 ADD PUSH2 0x21AC JUMP JUMPDEST DUP1 DUP5 ADD SWAP2 POP POP SWAP3 SWAP2 POP POP JUMP JUMPDEST PUSH1 0x0 PUSH2 0x2A6B DUP3 DUP5 PUSH2 0x2A2E JUMP JUMPDEST SWAP2 POP DUP2 SWAP1 POP SWAP3 SWAP2 POP POP JUMP JUMPDEST PUSH32 0x416464726573733A2063616C6C20746F206E6F6E2D636F6E7472616374000000 PUSH1 0x0 DUP3 ADD MSTORE POP JUMP JUMPDEST PUSH1 0x0 PUSH2 0x2AAC PUSH1 0x1D DUP4 PUSH2 0x20AD JUMP JUMPDEST SWAP2 POP PUSH2 0x2AB7 DUP3 PUSH2 0x2A76 JUMP JUMPDEST PUSH1 0x20 DUP3 ADD SWAP1 POP SWAP2 SWAP1 POP JUMP JUMPDEST PUSH1 0x0 PUSH1 0x20 DUP3 ADD SWAP1 POP DUP2 DUP2 SUB PUSH1 0x0 DUP4 ADD MSTORE PUSH2 0x2ADB DUP2 PUSH2 0x2A9F JUMP JUMPDEST SWAP1 POP SWAP2 SWAP1 POP JUMP JUMPDEST PUSH1 0x0 PUSH1 0x20 DUP3 ADD SWAP1 POP DUP2 DUP2 SUB PUSH1 0x0 DUP4 ADD MSTORE PUSH2 0x2AFC DUP2 DUP5 PUSH2 0x21D6 JUMP JUMPDEST SWAP1 POP SWAP3 SWAP2 POP POP JUMP INVALID LOG2 PUSH5 0x6970667358 0x22 SLT KECCAK256 0xDD OR 0x5E PUSH19 0x649FC590C32E72BA343166CECEC776C9B550F6 0xF8 MSTORE 0xB8 MSTORE 0xCD SELFDESTRUCT 0xB2 SWAP9 PUSH30 0x64736F6C634300081200332F636F736D6F732E7374616B696E672E763162 PUSH6 0x7461312E4D73 PUSH8 0x426567696E526564 PUSH6 0x6C6567617465 "
				},
				"gasEstimates": {
					"creation": {
						"codeDepositCost": "2213200",
						"executionCost": "infinite",
						"totalCost": "infinite"
					},
					"external": {
						"approveRequiredMethods()": "infinite",
						"balanceOf(address)": "2886",
						"claim()": "infinite",
						"earned(address)": "infinite",
						"fund(uint256)": "infinite",
						"getRewardForDuration()": "infinite",
						"isUserApproved(address)": "3017",
						"lastTimeRewardApplicable()": "4651",
						"lastUpdateTime()": "2540",
						"owner()": "2589",
						"paused()": "2597",
						"periodFinish()": "2517",
						"recoverERC20(address,uint256)": "infinite",
						"redelegateTokens(string,string,uint256)": "infinite",
						"redelegateTokensMultiple(string[],string[],uint256[])": "infinite",
						"renounceOwnership()": "30465",
						"rewardPerToken()": "infinite",
						"rewardPerTokenStored()": "2495",
						"rewardRate()": "2540",
						"rewards(address)": "2860",
						"rewardsDuration()": "2519",
						"rewardsToken()": "infinite",
						"setRewardsDuration(uint256)": "infinite",
						"stakingToken()": "infinite",
						"totalSupplyLocked()": "2483",
						"transferOwnership(address)": "30854",
						"userRewardPerTokenPaid(address)": "2859"
					},
					"internal": {
						"_earned(address)": "infinite",
						"_lastTimeRewardApplicable()": "4256",
						"_rewardPerToken()": "infinite"
					}
				},
				"methodIdentifiers": {
					"approveRequiredMethods()": "c6e79b91",
					"balanceOf(address)": "70a08231",
					"claim()": "4e71d92d",
					"earned(address)": "008cc262",
					"fund(uint256)": "ca1d209d",
					"getRewardForDuration()": "1c1f78eb",
					"isUserApproved(address)": "529d6ccf",
					"lastTimeRewardApplicable()": "80faa57d",
					"lastUpdateTime()": "c8f33c91",
					"owner()": "8da5cb5b",
					"paused()": "5c975abb",
					"periodFinish()": "ebe2b12b",
					"recoverERC20(address,uint256)": "8980f11f",
					"redelegateTokens(string,string,uint256)": "880b0e43",
					"redelegateTokensMultiple(string[],string[],uint256[])": "6c11fe9b",
					"renounceOwnership()": "715018a6",
					"rewardPerToken()": "cd3daf9d",
					"rewardPerTokenStored()": "df136d65",
					"rewardRate()": "7b0a47ee",
					"rewards(address)": "0700037d",
					"rewardsDuration()": "386a9525",
					"rewardsToken()": "d1af0c7d",
					"setRewardsDuration(uint256)": "cc1a378f",
					"stakingToken()": "72f702f3",
					"totalSupplyLocked()": "58341922",
					"transferOwnership(address)": "f2fde38b",
					"userRewardPerTokenPaid(address)": "8b876347"
				}
			},
			"storageLayout": {
				"storage": [
					{
						"astId": 7,
						"contract": "gist-e259420aec8d85ea2219e4154536ad35/contracts/RedelegationReward.sol:RedelegationReward",
						"label": "_owner",
						"offset": 0,
						"slot": "0",
						"type": "t_address"
					},
					{
						"astId": 130,
						"contract": "gist-e259420aec8d85ea2219e4154536ad35/contracts/RedelegationReward.sol:RedelegationReward",
						"label": "_paused",
						"offset": 20,
						"slot": "0",
						"type": "t_bool"
					},
					{
						"astId": 231,
						"contract": "gist-e259420aec8d85ea2219e4154536ad35/contracts/RedelegationReward.sol:RedelegationReward",
						"label": "_status",
						"offset": 0,
						"slot": "1",
						"type": "t_uint256"
					},
					{
						"astId": 1533,
						"contract": "gist-e259420aec8d85ea2219e4154536ad35/contracts/RedelegationReward.sol:RedelegationReward",
						"label": "stakingMethods",
						"offset": 0,
						"slot": "2",
						"type": "t_array(t_string_storage)dyn_storage"
					},
					{
						"astId": 1537,
						"contract": "gist-e259420aec8d85ea2219e4154536ad35/contracts/RedelegationReward.sol:RedelegationReward",
						"label": "approvedUsers",
						"offset": 0,
						"slot": "3",
						"type": "t_mapping(t_address,t_bool)"
					},
					{
						"astId": 1575,
						"contract": "gist-e259420aec8d85ea2219e4154536ad35/contracts/RedelegationReward.sol:RedelegationReward",
						"label": "stakingToken",
						"offset": 0,
						"slot": "4",
						"type": "t_contract(IERC20)363"
					},
					{
						"astId": 1578,
						"contract": "gist-e259420aec8d85ea2219e4154536ad35/contracts/RedelegationReward.sol:RedelegationReward",
						"label": "rewardsToken",
						"offset": 0,
						"slot": "5",
						"type": "t_contract(IERC20)363"
					},
					{
						"astId": 1580,
						"contract": "gist-e259420aec8d85ea2219e4154536ad35/contracts/RedelegationReward.sol:RedelegationReward",
						"label": "periodFinish",
						"offset": 0,
						"slot": "6",
						"type": "t_uint256"
					},
					{
						"astId": 1582,
						"contract": "gist-e259420aec8d85ea2219e4154536ad35/contracts/RedelegationReward.sol:RedelegationReward",
						"label": "rewardRate",
						"offset": 0,
						"slot": "7",
						"type": "t_uint256"
					},
					{
						"astId": 1585,
						"contract": "gist-e259420aec8d85ea2219e4154536ad35/contracts/RedelegationReward.sol:RedelegationReward",
						"label": "rewardsDuration",
						"offset": 0,
						"slot": "8",
						"type": "t_uint256"
					},
					{
						"astId": 1587,
						"contract": "gist-e259420aec8d85ea2219e4154536ad35/contracts/RedelegationReward.sol:RedelegationReward",
						"label": "lastUpdateTime",
						"offset": 0,
						"slot": "9",
						"type": "t_uint256"
					},
					{
						"astId": 1589,
						"contract": "gist-e259420aec8d85ea2219e4154536ad35/contracts/RedelegationReward.sol:RedelegationReward",
						"label": "rewardPerTokenStored",
						"offset": 0,
						"slot": "10",
						"type": "t_uint256"
					},
					{
						"astId": 1593,
						"contract": "gist-e259420aec8d85ea2219e4154536ad35/contracts/RedelegationReward.sol:RedelegationReward",
						"label": "userRewardPerTokenPaid",
						"offset": 0,
						"slot": "11",
						"type": "t_mapping(t_address,t_uint256)"
					},
					{
						"astId": 1597,
						"contract": "gist-e259420aec8d85ea2219e4154536ad35/contracts/RedelegationReward.sol:RedelegationReward",
						"label": "rewards",
						"offset": 0,
						"slot": "12",
						"type": "t_mapping(t_address,t_uint256)"
					},
					{
						"astId": 1599,
						"contract": "gist-e259420aec8d85ea2219e4154536ad35/contracts/RedelegationReward.sol:RedelegationReward",
						"label": "totalSupply",
						"offset": 0,
						"slot": "13",
						"type": "t_uint256"
					},
					{
						"astId": 1603,
						"contract": "gist-e259420aec8d85ea2219e4154536ad35/contracts/RedelegationReward.sol:RedelegationReward",
						"label": "balances",
						"offset": 0,
						"slot": "14",
						"type": "t_mapping(t_address,t_uint256)"
					}
				],
				"types": {
					"t_address": {
						"encoding": "inplace",
						"label": "address",
						"numberOfBytes": "20"
					},
					"t_array(t_string_storage)dyn_storage": {
						"base": "t_string_storage",
						"encoding": "dynamic_array",
						"label": "string[]",
						"numberOfBytes": "32"
					},
					"t_bool": {
						"encoding": "inplace",
						"label": "bool",
						"numberOfBytes": "1"
					},
					"t_contract(IERC20)363": {
						"encoding": "inplace",
						"label": "contract IERC20",
						"numberOfBytes": "20"
					},
					"t_mapping(t_address,t_bool)": {
						"encoding": "mapping",
						"key": "t_address",
						"label": "mapping(address => bool)",
						"numberOfBytes": "32",
						"value": "t_bool"
					},
					"t_mapping(t_address,t_uint256)": {
						"encoding": "mapping",
						"key": "t_address",
						"label": "mapping(address => uint256)",
						"numberOfBytes": "32",
						"value": "t_uint256"
					},
					"t_string_storage": {
						"encoding": "bytes",
						"label": "string",
						"numberOfBytes": "32"
					},
					"t_uint256": {
						"encoding": "inplace",
						"label": "uint256",
						"numberOfBytes": "32"
					}
				}
			},
			"userdoc": {
				"events": {
					"CancelRedelegate(address,uint256)": {
						"notice": "Emited when user unstakes his/her staked token"
					},
					"Claimed(address,uint256)": {
						"notice": "Emitted when user claim his/her rewards token"
					},
					"Funded(uint256)": {
						"notice": "Emitted when owner funds rewards token and restart rewarding session"
					},
					"Recovered(address,uint256)": {
						"notice": "Emitted when owner recovered tokens from this contract"
					},
					"Redelegate(address,uint256)": {
						"notice": "Emitted when user stakes staking token"
					},
					"RewardsDurationUpdated(uint256)": {
						"notice": "Emitted when rewards duration has been updated"
					}
				},
				"kind": "user",
				"methods": {
					"claim()": {
						"notice": "Claim rewards tokens, callable only when unpaused."
					},
					"fund(uint256)": {
						"notice": "Fund rewards tokens and re-calculate rewards rate. Rewards rate will be calculated again from remaining distributable tokens and awarding rewards tokens."
					},
					"recoverERC20(address,uint256)": {
						"notice": "Transfer ERC20 tokens back from this contract to the owner except staking token."
					},
					"setRewardsDuration(uint256)": {
						"notice": "Set rewards duration, only available to set after finish of previous rewards period."
					}
				},
				"notice": "Stakes tokens for a certain duration and gets rewards according to their staked shares",
				"version": 1
			}
		}
	}
}