{
	"data": {
		"bytecode": {
			"linkReferences": {},
			"object": "608060405260405180602001604052806040518060600160405280602a8152602001620032a5602a913981525060029060016200003e9291906200022b565b506202a3006008553480156200005357600080fd5b50604051620032cf380380620032cf8339818101604052810190620000799190620003bd565b620000996200008d6200015f60201b60201c565b6200016760201b60201c565b60008060146101000a81548160ff0219169083151502179055506001808190555081600560006101000a81548173ffffffffffffffffffffffffffffffffffffffff021916908373ffffffffffffffffffffffffffffffffffffffff16021790555073befe898407483f0f2ff605971fbd8cf8fbd8b160600460006101000a81548173ffffffffffffffffffffffffffffffffffffffff021916908373ffffffffffffffffffffffffffffffffffffffff1602179055508060088190555050506200075b565b600033905090565b60008060009054906101000a900473ffffffffffffffffffffffffffffffffffffffff169050816000806101000a81548173ffffffffffffffffffffffffffffffffffffffff021916908373ffffffffffffffffffffffffffffffffffffffff1602179055508173ffffffffffffffffffffffffffffffffffffffff168173ffffffffffffffffffffffffffffffffffffffff167f8be0079c531659141344cd1fd0a4f28419497f9722a3daafe3b4186f6b6457e060405160405180910390a35050565b82805482825590600052602060002090810192821562000278579160200282015b828111156200027757825182908162000266919062000674565b50916020019190600101906200024c565b5b5090506200028791906200028b565b5090565b5b80821115620002af5760008181620002a59190620002b3565b506001016200028c565b5090565b508054620002c1906200046d565b6000825580601f10620002d55750620002f6565b601f016020900490600052602060002090810190620002f59190620002f9565b5b50565b5b8082111562000314576000816000905550600101620002fa565b5090565b600080fd5b600073ffffffffffffffffffffffffffffffffffffffff82169050919050565b60006200034a826200031d565b9050919050565b6200035c816200033d565b81146200036857600080fd5b50565b6000815190506200037c8162000351565b92915050565b6000819050919050565b620003978162000382565b8114620003a357600080fd5b50565b600081519050620003b7816200038c565b92915050565b60008060408385031215620003d757620003d662000318565b5b6000620003e7858286016200036b565b9250506020620003fa85828601620003a6565b9150509250929050565b600081519050919050565b7f4e487b7100000000000000000000000000000000000000000000000000000000600052604160045260246000fd5b7f4e487b7100000000000000000000000000000000000000000000000000000000600052602260045260246000fd5b600060028204905060018216806200048657607f821691505b6020821081036200049c576200049b6200043e565b5b50919050565b60008190508160005260206000209050919050565b60006020601f8301049050919050565b600082821b905092915050565b600060088302620005067fffffffffffffffffffffffffffffffffffffffffffffffffffffffffffffffff82620004c7565b620005128683620004c7565b95508019841693508086168417925050509392505050565b6000819050919050565b6000620005556200054f620005498462000382565b6200052a565b62000382565b9050919050565b6000819050919050565b620005718362000534565b6200058962000580826200055c565b848454620004d4565b825550505050565b600090565b620005a062000591565b620005ad81848462000566565b505050565b5b81811015620005d557620005c960008262000596565b600181019050620005b3565b5050565b601f8211156200062457620005ee81620004a2565b620005f984620004b7565b8101602085101562000609578190505b620006216200061885620004b7565b830182620005b2565b50505b505050565b600082821c905092915050565b6000620006496000198460080262000629565b1980831691505092915050565b600062000664838362000636565b9150826002028217905092915050565b6200067f8262000404565b67ffffffffffffffff8111156200069b576200069a6200040f565b5b620006a782546200046d565b620006b4828285620005d9565b600060209050601f831160018114620006ec5760008415620006d7578287015190505b620006e3858262000656565b86555062000753565b601f198416620006fc86620004a2565b60005b828110156200072657848901518255600182019150602085019450602081019050620006ff565b8683101562000746578489015162000742601f89168262000636565b8355505b6001600288020188555050505b505050505050565b612b3a806200076b6000396000f3fe608060405234801561001057600080fd5b50600436106101a85760003560e01c806380faa57d116100f9578063ca1d209d11610097578063d1af0c7d11610071578063d1af0c7d14610487578063df136d65146104a5578063ebe2b12b146104c3578063f2fde38b146104e1576101a8565b8063ca1d209d14610431578063cc1a378f1461044d578063cd3daf9d14610469576101a8565b80638b876347116100d35780638b876347146103bb5780638da5cb5b146103eb578063c6e79b9114610409578063c8f33c9114610413576101a8565b806380faa57d14610351578063880b0e431461036f5780638980f11f1461039f576101a8565b8063583419221161016657806370a082311161014057806370a08231146102db578063715018a61461030b57806372f702f3146103155780637b0a47ee14610333576101a8565b806358341922146102835780635c975abb146102a15780636c11fe9b146102bf576101a8565b80628cc262146101ad5780630700037d146101dd5780631c1f78eb1461020d578063386a95251461022b5780634e71d92d14610249578063529d6ccf14610253575b600080fd5b6101c760048036038101906101c29190611a10565b6104fd565b6040516101d49190611a56565b60405180910390f35b6101f760048036038101906101f29190611a10565b61050f565b6040516102049190611a56565b60405180910390f35b610215610527565b6040516102229190611a56565b60405180910390f35b61023361053e565b6040516102409190611a56565b60405180910390f35b610251610544565b005b61026d60048036038101906102689190611a10565b610772565b60405161027a9190611a8c565b60405180910390f35b61028b6107c8565b6040516102989190611a56565b60405180910390f35b6102a96107d2565b6040516102b69190611a8c565b60405180910390f35b6102d960048036038101906102d49190611dc2565b6107e8565b005b6102f560048036038101906102f09190611a10565b6108c0565b6040516103029190611a56565b60405180910390f35b610313610909565b005b61031d61091d565b60405161032a9190611ec8565b60405180910390f35b61033b610943565b6040516103489190611a56565b60405180910390f35b610359610949565b6040516103669190611a56565b60405180910390f35b61038960048036038101906103849190611ee3565b610958565b6040516103969190611f8a565b60405180910390f35b6103b960048036038101906103b49190611fa5565b610bcc565b005b6103d560048036038101906103d09190611a10565b610cca565b6040516103e29190611a56565b60405180910390f35b6103f3610ce2565b6040516104009190611ff4565b60405180910390f35b610411610d0b565b005b61041b610e4d565b6040516104289190611a56565b60405180910390f35b61044b6004803603810190610446919061200f565b610e53565b005b6104676004803603810190610462919061200f565b61113f565b005b6104716111c4565b60405161047e9190611a56565b60405180910390f35b61048f6111d3565b60405161049c9190611ec8565b60405180910390f35b6104ad6111f9565b6040516104ba9190611a56565b60405180910390f35b6104cb6111ff565b6040516104d89190611a56565b60405180910390f35b6104fb60048036038101906104f69190611a10565b611205565b005b600061050882611288565b9050919050565b600c6020528060005260406000206000915090505481565b6000600854600754610539919061206b565b905090565b60085481565b61054c61138a565b6105546113d9565b3361055d611423565b600a8190555061056b61148d565b600981905550600073ffffffffffffffffffffffffffffffffffffffff168173ffffffffffffffffffffffffffffffffffffffff1614610638576105ae81611288565b600c60008373ffffffffffffffffffffffffffffffffffffffff1673ffffffffffffffffffffffffffffffffffffffff16815260200190815260200160002081905550600a54600b60008373ffffffffffffffffffffffffffffffffffffffff1673ffffffffffffffffffffffffffffffffffffffff168152602001908152602001600020819055505b6000600c60003373ffffffffffffffffffffffffffffffffffffffff1673ffffffffffffffffffffffffffffffffffffffff1681526020019081526020016000205490506000811115610766576000600c60003373ffffffffffffffffffffffffffffffffffffffff1673ffffffffffffffffffffffffffffffffffffffff168152602001908152602001600020819055506107173382600560009054906101000a900473ffffffffffffffffffffffffffffffffffffffff1673ffffffffffffffffffffffffffffffffffffffff166114a79092919063ffffffff16565b3373ffffffffffffffffffffffffffffffffffffffff167fd8138f8a3f377c5259ca548e70e4c2de94f129f5a11036a15b69513cba2b426a8260405161075d9190611a56565b60405180910390a25b505061077061152d565b565b6000600360008373ffffffffffffffffffffffffffffffffffffffff1673ffffffffffffffffffffffffffffffffffffffff16815260200190815260200160002060009054906101000a900460ff169050919050565b6000600d54905090565b60008060149054906101000a900460ff16905090565b6107f06113d9565b81518351148015610802575080518251145b610841576040517f08c379a00000000000000000000000000000000000000000000000000000000081526004016108389061210a565b60405180910390fd5b60005b83518110156108ba576108a68482815181106108635761086261212a565b5b602002602001015184838151811061087e5761087d61212a565b5b60200260200101518484815181106108995761089861212a565b5b6020026020010151610958565b5080806108b290612159565b915050610844565b50505050565b6000600e60008373ffffffffffffffffffffffffffffffffffffffff1673ffffffffffffffffffffffffffffffffffffffff168152602001908152602001600020549050919050565b610911611536565b61091b60006115b4565b565b600460009054906101000a900473ffffffffffffffffffffffffffffffffffffffff1681565b60075481565b600061095361148d565b905090565b60006109626113d9565b3361096b611423565b600a8190555061097961148d565b600981905550600073ffffffffffffffffffffffffffffffffffffffff168173ffffffffffffffffffffffffffffffffffffffff1614610a46576109bc81611288565b600c60008373ffffffffffffffffffffffffffffffffffffffff1673ffffffffffffffffffffffffffffffffffffffff16815260200190815260200160002081905550600a54600b60008373ffffffffffffffffffffffffffffffffffffffff1673ffffffffffffffffffffffffffffffffffffffff168152602001908152602001600020819055505b60008311610a80576040517f1f2a200500000000000000000000000000000000000000000000000000000000815260040160405180910390fd5b600061080073ffffffffffffffffffffffffffffffffffffffff166354b826f5338888886040518563ffffffff1660e01b8152600401610ac3949392919061220f565b6020604051808303816000875af1158015610ae2573d6000803e3d6000fd5b505050506040513d601f19601f82011682018060405250810190610b06919061228e565b905083600d54610b1691906122bb565b600d8190555083600e60003373ffffffffffffffffffffffffffffffffffffffff1673ffffffffffffffffffffffffffffffffffffffff1681526020019081526020016000206000828254610b6b91906122bb565b925050819055503373ffffffffffffffffffffffffffffffffffffffff167f0da5c3d1021415bb27aa0917eaaafc6ee7c358a2a436d70208004073f6109ec085604051610bb89190611a56565b60405180910390a280925050509392505050565b610bd4611536565b600460009054906101000a900473ffffffffffffffffffffffffffffffffffffffff1673ffffffffffffffffffffffffffffffffffffffff168273ffffffffffffffffffffffffffffffffffffffff1603610c5b576040517f43fc58f100000000000000000000000000000000000000000000000000000000815260040160405180910390fd5b610c8d610c66610ce2565b828473ffffffffffffffffffffffffffffffffffffffff166114a79092919063ffffffff16565b7f8c1256b8896378cd5044f80c202f9772b9d77dc85c8a6eb51967210b09bfaa288282604051610cbe9291906122ef565b60405180910390a15050565b600b6020528060005260406000206000915090505481565b60008060009054906101000a900473ffffffffffffffffffffffffffffffffffffffff16905090565b600061080073ffffffffffffffffffffffffffffffffffffffff1663b6039895337fffffffffffffffffffffffffffffffffffffffffffffffffffffffffffffffff60026040518463ffffffff1660e01b8152600401610d6d939291906124e8565b6020604051808303816000875af1158015610d8c573d6000803e3d6000fd5b505050506040513d601f19601f82011682018060405250810190610db09190612552565b905080610df2576040517f08c379a0000000000000000000000000000000000000000000000000000000008152600401610de9906125f1565b60405180910390fd5b6001600360003373ffffffffffffffffffffffffffffffffffffffff1673ffffffffffffffffffffffffffffffffffffffff16815260200190815260200160002060006101000a81548160ff02191690831515021790555050565b60095481565b610e5b611536565b610e636113d9565b6000610e6d611423565b600a81905550610e7b61148d565b600981905550600073ffffffffffffffffffffffffffffffffffffffff168173ffffffffffffffffffffffffffffffffffffffff1614610f4857610ebe81611288565b600c60008373ffffffffffffffffffffffffffffffffffffffff1673ffffffffffffffffffffffffffffffffffffffff16815260200190815260200160002081905550600a54600b60008373ffffffffffffffffffffffffffffffffffffffff1673ffffffffffffffffffffffffffffffffffffffff168152602001908152602001600020819055505b6006544210610f6a5760085482610f5f9190612640565b600781905550610fb0565b600042600654610f7a9190612671565b9050600060075482610f8c919061206b565b90506008548185610f9d91906122bb565b610fa79190612640565b60078190555050505b610fff333084600560009054906101000a900473ffffffffffffffffffffffffffffffffffffffff1673ffffffffffffffffffffffffffffffffffffffff16611678909392919063ffffffff16565b6000600560009054906101000a900473ffffffffffffffffffffffffffffffffffffffff1673ffffffffffffffffffffffffffffffffffffffff166370a08231306040518263ffffffff1660e01b815260040161105c9190611ff4565b602060405180830381865afa158015611079573d6000803e3d6000fd5b505050506040513d601f19601f8201168201806040525081019061109d91906126ba565b9050600854816110ad9190612640565b60075411156110e8576040517f7f5e85a600000000000000000000000000000000000000000000000000000000815260040160405180910390fd5b42600981905550600854426110fd91906122bb565b6006819055507fc4c14883ae9fd8e26d5d59e3485ed29fd126d781d7e498a4ca5c54c8268e4936836040516111329190611a56565b60405180910390a1505050565b611147611536565b600654421015611183576040517f38e3211200000000000000000000000000000000000000000000000000000000815260040160405180910390fd5b806008819055507ffb46ca5a5e06d4540d6387b930a7c978bce0db5f449ec6b3f5d07c6e1d44f2d3816040516111b99190611a56565b60405180910390a150565b60006111ce611423565b905090565b600560009054906101000a900473ffffffffffffffffffffffffffffffffffffffff1681565b600a5481565b60065481565b61120d611536565b600073ffffffffffffffffffffffffffffffffffffffff168173ffffffffffffffffffffffffffffffffffffffff160361127c576040517f08c379a000000000000000000000000000000000000000000000000000000000815260040161127390612759565b60405180910390fd5b611285816115b4565b50565b6000600c60008373ffffffffffffffffffffffffffffffffffffffff1673ffffffffffffffffffffffffffffffffffffffff16815260200190815260200160002054670de0b6b3a7640000600b60008573ffffffffffffffffffffffffffffffffffffffff1673ffffffffffffffffffffffffffffffffffffffff1681526020019081526020016000205461131b611423565b6113259190612671565b600e60008673ffffffffffffffffffffffffffffffffffffffff1673ffffffffffffffffffffffffffffffffffffffff1681526020019081526020016000205461136f919061206b565b6113799190612640565b61138391906122bb565b9050919050565b6002600154036113cf576040517f08c379a00000000000000000000000000000000000000000000000000000000081526004016113c6906127c5565b60405180910390fd5b6002600181905550565b6113e16107d2565b15611421576040517f08c379a000000000000000000000000000000000000000000000000000000000815260040161141890612831565b60405180910390fd5b565b600080600d540361143857600a54905061148a565b600d54670de0b6b3a764000060075460095461145261148d565b61145c9190612671565b611466919061206b565b611470919061206b565b61147a9190612640565b600a5461148791906122bb565b90505b90565b600060065442106114a0576006546114a2565b425b905090565b6115288363a9059cbb60e01b84846040516024016114c69291906122ef565b604051602081830303815290604052907bffffffffffffffffffffffffffffffffffffffffffffffffffffffff19166020820180517bffffffffffffffffffffffffffffffffffffffffffffffffffffffff8381831617835250505050611701565b505050565b60018081905550565b61153e6117c9565b73ffffffffffffffffffffffffffffffffffffffff1661155c610ce2565b73ffffffffffffffffffffffffffffffffffffffff16146115b2576040517f08c379a00000000000000000000000000000000000000000000000000000000081526004016115a99061289d565b60405180910390fd5b565b60008060009054906101000a900473ffffffffffffffffffffffffffffffffffffffff169050816000806101000a81548173ffffffffffffffffffffffffffffffffffffffff021916908373ffffffffffffffffffffffffffffffffffffffff1602179055508173ffffffffffffffffffffffffffffffffffffffff168173ffffffffffffffffffffffffffffffffffffffff167f8be0079c531659141344cd1fd0a4f28419497f9722a3daafe3b4186f6b6457e060405160405180910390a35050565b6116fb846323b872dd60e01b858585604051602401611699939291906128bd565b604051602081830303815290604052907bffffffffffffffffffffffffffffffffffffffffffffffffffffffff19166020820180517bffffffffffffffffffffffffffffffffffffffffffffffffffffffff8381831617835250505050611701565b50505050565b6000611763826040518060400160405280602081526020017f5361666545524332303a206c6f772d6c6576656c2063616c6c206661696c65648152508573ffffffffffffffffffffffffffffffffffffffff166117d19092919063ffffffff16565b90506000815114806117855750808060200190518101906117849190612552565b5b6117c4576040517f08c379a00000000000000000000000000000000000000000000000000000000081526004016117bb90612966565b60405180910390fd5b505050565b600033905090565b60606117e084846000856117e9565b90509392505050565b60608247101561182e576040517f08c379a0000000000000000000000000000000000000000000000000000000008152600401611825906129f8565b60405180910390fd5b6000808673ffffffffffffffffffffffffffffffffffffffff1685876040516118579190612a5f565b60006040518083038185875af1925050503d8060008114611894576040519150601f19603f3d011682016040523d82523d6000602084013e611899565b606091505b50915091506118aa878383876118b6565b92505050949350505050565b60608315611918576000835103611910576118d08561192b565b61190f576040517f08c379a000000000000000000000000000000000000000000000000000000000815260040161190690612ac2565b60405180910390fd5b5b829050611923565b611922838361194e565b5b949350505050565b6000808273ffffffffffffffffffffffffffffffffffffffff163b119050919050565b6000825111156119615781518083602001fd5b806040517f08c379a00000000000000000000000000000000000000000000000000000000081526004016119959190612ae2565b60405180910390fd5b6000604051905090565b600080fd5b600080fd5b600073ffffffffffffffffffffffffffffffffffffffff82169050919050565b60006119dd826119b2565b9050919050565b6119ed816119d2565b81146119f857600080fd5b50565b600081359050611a0a816119e4565b92915050565b600060208284031215611a2657611a256119a8565b5b6000611a34848285016119fb565b91505092915050565b6000819050919050565b611a5081611a3d565b82525050565b6000602082019050611a6b6000830184611a47565b92915050565b60008115159050919050565b611a8681611a71565b82525050565b6000602082019050611aa16000830184611a7d565b92915050565b600080fd5b6000601f19601f8301169050919050565b7f4e487b7100000000000000000000000000000000000000000000000000000000600052604160045260246000fd5b611af582611aac565b810181811067ffffffffffffffff82111715611b1457611b13611abd565b5b80604052505050565b6000611b2761199e565b9050611b338282611aec565b919050565b600067ffffffffffffffff821115611b5357611b52611abd565b5b602082029050602081019050919050565b600080fd5b600080fd5b600067ffffffffffffffff821115611b8957611b88611abd565b5b611b9282611aac565b9050602081019050919050565b82818337600083830152505050565b6000611bc1611bbc84611b6e565b611b1d565b905082815260208101848484011115611bdd57611bdc611b69565b5b611be8848285611b9f565b509392505050565b600082601f830112611c0557611c04611aa7565b5b8135611c15848260208601611bae565b91505092915050565b6000611c31611c2c84611b38565b611b1d565b90508083825260208201905060208402830185811115611c5457611c53611b64565b5b835b81811015611c9b57803567ffffffffffffffff811115611c7957611c78611aa7565b5b808601611c868982611bf0565b85526020850194505050602081019050611c56565b5050509392505050565b600082601f830112611cba57611cb9611aa7565b5b8135611cca848260208601611c1e565b91505092915050565b600067ffffffffffffffff821115611cee57611ced611abd565b5b602082029050602081019050919050565b611d0881611a3d565b8114611d1357600080fd5b50565b600081359050611d2581611cff565b92915050565b6000611d3e611d3984611cd3565b611b1d565b90508083825260208201905060208402830185811115611d6157611d60611b64565b5b835b81811015611d8a5780611d768882611d16565b845260208401935050602081019050611d63565b5050509392505050565b600082601f830112611da957611da8611aa7565b5b8135611db9848260208601611d2b565b91505092915050565b600080600060608486031215611ddb57611dda6119a8565b5b600084013567ffffffffffffffff811115611df957611df86119ad565b5b611e0586828701611ca5565b935050602084013567ffffffffffffffff811115611e2657611e256119ad565b5b611e3286828701611ca5565b925050604084013567ffffffffffffffff811115611e5357611e526119ad565b5b611e5f86828701611d94565b9150509250925092565b6000819050919050565b6000611e8e611e89611e84846119b2565b611e69565b6119b2565b9050919050565b6000611ea082611e73565b9050919050565b6000611eb282611e95565b9050919050565b611ec281611ea7565b82525050565b6000602082019050611edd6000830184611eb9565b92915050565b600080600060608486031215611efc57611efb6119a8565b5b600084013567ffffffffffffffff811115611f1a57611f196119ad565b5b611f2686828701611bf0565b935050602084013567ffffffffffffffff811115611f4757611f466119ad565b5b611f5386828701611bf0565b9250506040611f6486828701611d16565b9150509250925092565b60008160070b9050919050565b611f8481611f6e565b82525050565b6000602082019050611f9f6000830184611f7b565b92915050565b60008060408385031215611fbc57611fbb6119a8565b5b6000611fca858286016119fb565b9250506020611fdb85828601611d16565b9150509250929050565b611fee816119d2565b82525050565b60006020820190506120096000830184611fe5565b92915050565b600060208284031215612025576120246119a8565b5b600061203384828501611d16565b91505092915050565b7f4e487b7100000000000000000000000000000000000000000000000000000000600052601160045260246000fd5b600061207682611a3d565b915061208183611a3d565b925082820261208f81611a3d565b915082820484148315176120a6576120a561203c565b5b5092915050565b600082825260208201905092915050565b7f496e70757420617272617973206c656e677468206d69736d6174636800000000600082015250565b60006120f4601c836120ad565b91506120ff826120be565b602082019050919050565b60006020820190508181036000830152612123816120e7565b9050919050565b7f4e487b7100000000000000000000000000000000000000000000000000000000600052603260045260246000fd5b600061216482611a3d565b91507fffffffffffffffffffffffffffffffffffffffffffffffffffffffffffffffff82036121965761219561203c565b5b600182019050919050565b600081519050919050565b60005b838110156121ca5780820151818401526020810190506121af565b60008484015250505050565b60006121e1826121a1565b6121eb81856120ad565b93506121fb8185602086016121ac565b61220481611aac565b840191505092915050565b60006080820190506122246000830187611fe5565b818103602083015261223681866121d6565b9050818103604083015261224a81856121d6565b90506122596060830184611a47565b95945050505050565b61226b81611f6e565b811461227657600080fd5b50565b60008151905061228881612262565b92915050565b6000602082840312156122a4576122a36119a8565b5b60006122b284828501612279565b91505092915050565b60006122c682611a3d565b91506122d183611a3d565b92508282019050808211156122e9576122e861203c565b5b92915050565b60006040820190506123046000830185611fe5565b6123116020830184611a47565b9392505050565b600081549050919050565b600082825260208201905092915050565b60008190508160005260206000209050919050565b7f4e487b7100000000000000000000000000000000000000000000000000000000600052602260045260246000fd5b6000600282049050600182168061239057607f821691505b6020821081036123a3576123a2612349565b5b50919050565b600082825260208201905092915050565b60008190508160005260206000209050919050565b600081546123dc81612378565b6123e681866123a9565b9450600182166000811461240157600181146124175761244a565b60ff19831686528115156020028601935061244a565b612420856123ba565b60005b8381101561244257815481890152600182019150602081019050612423565b808801955050505b50505092915050565b600061245f83836123cf565b905092915050565b6000600182019050919050565b600061247f82612318565b6124898185612323565b93508360208202850161249b85612334565b8060005b858110156124d6578484038952816124b78582612453565b94506124c283612467565b925060208a0199505060018101905061249f565b50829750879550505050505092915050565b60006060820190506124fd6000830186611fe5565b61250a6020830185611a47565b818103604083015261251c8184612474565b9050949350505050565b61252f81611a71565b811461253a57600080fd5b50565b60008151905061254c81612526565b92915050565b600060208284031215612568576125676119a8565b5b60006125768482850161253d565b91505092915050565b7f4661696c656420746f20617070726f76652064656c6567617465206d6574686f60008201527f6400000000000000000000000000000000000000000000000000000000000000602082015250565b60006125db6021836120ad565b91506125e68261257f565b604082019050919050565b6000602082019050818103600083015261260a816125ce565b9050919050565b7f4e487b7100000000000000000000000000000000000000000000000000000000600052601260045260246000fd5b600061264b82611a3d565b915061265683611a3d565b92508261266657612665612611565b5b828204905092915050565b600061267c82611a3d565b915061268783611a3d565b925082820390508181111561269f5761269e61203c565b5b92915050565b6000815190506126b481611cff565b92915050565b6000602082840312156126d0576126cf6119a8565b5b60006126de848285016126a5565b91505092915050565b7f4f776e61626c653a206e6577206f776e657220697320746865207a65726f206160008201527f6464726573730000000000000000000000000000000000000000000000000000602082015250565b60006127436026836120ad565b915061274e826126e7565b604082019050919050565b6000602082019050818103600083015261277281612736565b9050919050565b7f5265656e7472616e637947756172643a207265656e7472616e742063616c6c00600082015250565b60006127af601f836120ad565b91506127ba82612779565b602082019050919050565b600060208201905081810360008301526127de816127a2565b9050919050565b7f5061757361626c653a2070617573656400000000000000000000000000000000600082015250565b600061281b6010836120ad565b9150612826826127e5565b602082019050919050565b6000602082019050818103600083015261284a8161280e565b9050919050565b7f4f776e61626c653a2063616c6c6572206973206e6f7420746865206f776e6572600082015250565b60006128876020836120ad565b915061289282612851565b602082019050919050565b600060208201905081810360008301526128b68161287a565b9050919050565b60006060820190506128d26000830186611fe5565b6128df6020830185611fe5565b6128ec6040830184611a47565b949350505050565b7f5361666545524332303a204552433230206f7065726174696f6e20646964206e60008201527f6f74207375636365656400000000000000000000000000000000000000000000602082015250565b6000612950602a836120ad565b915061295b826128f4565b604082019050919050565b6000602082019050818103600083015261297f81612943565b9050919050565b7f416464726573733a20696e73756666696369656e742062616c616e636520666f60008201527f722063616c6c0000000000000000000000000000000000000000000000000000602082015250565b60006129e26026836120ad565b91506129ed82612986565b604082019050919050565b60006020820190508181036000830152612a11816129d5565b9050919050565b600081519050919050565b600081905092915050565b6000612a3982612a18565b612a438185612a23565b9350612a538185602086016121ac565b80840191505092915050565b6000612a6b8284612a2e565b915081905092915050565b7f416464726573733a2063616c6c20746f206e6f6e2d636f6e7472616374000000600082015250565b6000612aac601d836120ad565b9150612ab782612a76565b602082019050919050565b60006020820190508181036000830152612adb81612a9f565b9050919050565b60006020820190508181036000830152612afc81846121d6565b90509291505056fea2646970667358221220dd175e72649fc590c32e72ba343166cecec776c9b550f6f852b852cdffb2987d64736f6c634300081200332f636f736d6f732e7374616b696e672e763162657461312e4d7367426567696e526564656c6567617465",
			"opcodes": "PUSH1 0x80 PUSH1 0x40 MSTORE PUSH1 0x40 MLOAD DUP1 PUSH1 0x20 ADD PUSH1 0x40 MSTORE DUP1 PUSH1 0x40 MLOAD DUP1 PUSH1 0x60 ADD PUSH1 0x40 MSTORE DUP1 PUSH1 0x2A DUP2 MSTORE PUSH1 0x20 ADD PUSH3 0x32A5 PUSH1 0x2A SWAP2 CODECOPY DUP2 MSTORE POP PUSH1 0x2 SWAP1 PUSH1 0x1 PUSH3 0x3E SWAP3 SWAP2 SWAP1 PUSH3 0x22B JUMP JUMPDEST POP PUSH3 0x2A300 PUSH1 0x8 SSTORE CALLVALUE DUP1 ISZERO PUSH3 0x53 JUMPI PUSH1 0x0 DUP1 REVERT JUMPDEST POP PUSH1 0x40 MLOAD PUSH3 0x32CF CODESIZE SUB DUP1 PUSH3 0x32CF DUP4 CODECOPY DUP2 DUP2 ADD PUSH1 0x40 MSTORE DUP2 ADD SWAP1 PUSH3 0x79 SWAP2 SWAP1 PUSH3 0x3BD JUMP JUMPDEST PUSH3 0x99 PUSH3 0x8D PUSH3 0x15F PUSH1 0x20 SHL PUSH1 0x20 SHR JUMP JUMPDEST PUSH3 0x167 PUSH1 0x20 SHL PUSH1 0x20 SHR JUMP JUMPDEST PUSH1 0x0 DUP1 PUSH1 0x14 PUSH2 0x100 EXP DUP2 SLOAD DUP2 PUSH1 0xFF MUL NOT AND SWAP1 DUP4 ISZERO ISZERO MUL OR SWAP1 SSTORE POP PUSH1 0x1 DUP1 DUP2 SWAP1 SSTORE POP DUP2 PUSH1 0x5 PUSH1 0x0 PUSH2 0x100 EXP DUP2 SLOAD DUP2 PUSH20 0xFFFFFFFFFFFFFFFFFFFFFFFFFFFFFFFFFFFFFFFF MUL NOT AND SWAP1 DUP4 PUSH20 0xFFFFFFFFFFFFFFFFFFFFFFFFFFFFFFFFFFFFFFFF AND MUL OR SWAP1 SSTORE POP PUSH20 0xBEFE898407483F0F2FF605971FBD8CF8FBD8B160 PUSH1 0x4 PUSH1 0x0 PUSH2 0x100 EXP DUP2 SLOAD DUP2 PUSH20 0xFFFFFFFFFFFFFFFFFFFFFFFFFFFFFFFFFFFFFFFF MUL NOT AND SWAP1 DUP4 PUSH20 0xFFFFFFFFFFFFFFFFFFFFFFFFFFFFFFFFFFFFFFFF AND MUL OR SWAP1 SSTORE POP DUP1 PUSH1 0x8 DUP2 SWAP1 SSTORE POP POP POP PUSH3 0x75B JUMP JUMPDEST PUSH1 0x0 CALLER SWAP1 POP SWAP1 JUMP JUMPDEST PUSH1 0x0 DUP1 PUSH1 0x0 SWAP1 SLOAD SWAP1 PUSH2 0x100 EXP SWAP1 DIV PUSH20 0xFFFFFFFFFFFFFFFFFFFFFFFFFFFFFFFFFFFFFFFF AND SWAP1 POP DUP2 PUSH1 0x0 DUP1 PUSH2 0x100 EXP DUP2 SLOAD DUP2 PUSH20 0xFFFFFFFFFFFFFFFFFFFFFFFFFFFFFFFFFFFFFFFF MUL NOT AND SWAP1 DUP4 PUSH20 0xFFFFFFFFFFFFFFFFFFFFFFFFFFFFFFFFFFFFFFFF AND MUL OR SWAP1 SSTORE POP DUP2 PUSH20 0xFFFFFFFFFFFFFFFFFFFFFFFFFFFFFFFFFFFFFFFF AND DUP2 PUSH20 0xFFFFFFFFFFFFFFFFFFFFFFFFFFFFFFFFFFFFFFFF AND PUSH32 0x8BE0079C531659141344CD1FD0A4F28419497F9722A3DAAFE3B4186F6B6457E0 PUSH1 0x40 MLOAD PUSH1 0x40 MLOAD DUP1 SWAP2 SUB SWAP1 LOG3 POP POP JUMP JUMPDEST DUP3 DUP1 SLOAD DUP3 DUP3 SSTORE SWAP1 PUSH1 0x0 MSTORE PUSH1 0x20 PUSH1 0x0 KECCAK256 SWAP1 DUP2 ADD SWAP3 DUP3 ISZERO PUSH3 0x278 JUMPI SWAP2 PUSH1 0x20 MUL DUP3 ADD JUMPDEST DUP3 DUP2 GT ISZERO PUSH3 0x277 JUMPI DUP3 MLOAD DUP3 SWAP1 DUP2 PUSH3 0x266 SWAP2 SWAP1 PUSH3 0x674 JUMP JUMPDEST POP SWAP2 PUSH1 0x20 ADD SWAP2 SWAP1 PUSH1 0x1 ADD SWAP1 PUSH3 0x24C JUMP JUMPDEST JUMPDEST POP SWAP1 POP PUSH3 0x287 SWAP2 SWAP1 PUSH3 0x28B JUMP JUMPDEST POP SWAP1 JUMP JUMPDEST JUMPDEST DUP1 DUP3 GT ISZERO PUSH3 0x2AF JUMPI PUSH1 0x0 DUP2 DUP2 PUSH3 0x2A5 SWAP2 SWAP1 PUSH3 0x2B3 JUMP JUMPDEST POP PUSH1 0x1 ADD PUSH3 0x28C JUMP JUMPDEST POP SWAP1 JUMP JUMPDEST POP DUP1 SLOAD PUSH3 0x2C1 SWAP1 PUSH3 0x46D JUMP JUMPDEST PUSH1 0x0 DUP3 SSTORE DUP1 PUSH1 0x1F LT PUSH3 0x2D5 JUMPI POP PUSH3 0x2F6 JUMP JUMPDEST PUSH1 0x1F ADD PUSH1 0x20 SWAP1 DIV SWAP1 PUSH1 0x0 MSTORE PUSH1 0x20 PUSH1 0x0 KECCAK256 SWAP1 DUP2 ADD SWAP1 PUSH3 0x2F5 SWAP2 SWAP1 PUSH3 0x2F9 JUMP JUMPDEST JUMPDEST POP JUMP JUMPDEST JUMPDEST DUP1 DUP3 GT ISZERO PUSH3 0x314 JUMPI PUSH1 0x0 DUP2 PUSH1 0x0 SWAP1 SSTORE POP PUSH1 0x1 ADD PUSH3 0x2FA JUMP JUMPDEST POP SWAP1 JUMP JUMPDEST PUSH1 0x0 DUP1 REVERT JUMPDEST PUSH1 0x0 PUSH20 0xFFFFFFFFFFFFFFFFFFFFFFFFFFFFFFFFFFFFFFFF DUP3 AND SWAP1 POP SWAP2 SWAP1 POP JUMP JUMPDEST PUSH1 0x0 PUSH3 0x34A DUP3 PUSH3 0x31D JUMP JUMPDEST SWAP1 POP SWAP2 SWAP1 POP JUMP JUMPDEST PUSH3 0x35C DUP2 PUSH3 0x33D JUMP JUMPDEST DUP2 EQ PUSH3 0x368 JUMPI PUSH1 0x0 DUP1 REVERT JUMPDEST POP JUMP JUMPDEST PUSH1 0x0 DUP2 MLOAD SWAP1 POP PUSH3 0x37C DUP2 PUSH3 0x351 JUMP JUMPDEST SWAP3 SWAP2 POP POP JUMP JUMPDEST PUSH1 0x0 DUP2 SWAP1 POP SWAP2 SWAP1 POP JUMP JUMPDEST PUSH3 0x397 DUP2 PUSH3 0x382 JUMP JUMPDEST DUP2 EQ PUSH3 0x3A3 JUMPI PUSH1 0x0 DUP1 REVERT JUMPDEST POP JUMP JUMPDEST PUSH1 0x0 DUP2 MLOAD SWAP1 POP PUSH3 0x3B7 DUP2 PUSH3 0x38C JUMP JUMPDEST SWAP3 SWAP2 POP POP JUMP JUMPDEST PUSH1 0x0 DUP1 PUSH1 0x40 DUP4 DUP6 SUB SLT ISZERO PUSH3 0x3D7 JUMPI PUSH3 0x3D6 PUSH3 0x318 JUMP JUMPDEST JUMPDEST PUSH1 0x0 PUSH3 0x3E7 DUP6 DUP3 DUP7 ADD PUSH3 0x36B JUMP JUMPDEST SWAP3 POP POP PUSH1 0x20 PUSH3 0x3FA DUP6 DUP3 DUP7 ADD PUSH3 0x3A6 JUMP JUMPDEST SWAP2 POP POP SWAP3 POP SWAP3 SWAP1 POP JUMP JUMPDEST PUSH1 0x0 DUP2 MLOAD SWAP1 POP SWAP2 SWAP1 POP JUMP JUMPDEST PUSH32 0x4E487B7100000000000000000000000000000000000000000000000000000000 PUSH1 0x0 MSTORE PUSH1 0x41 PUSH1 0x4 MSTORE PUSH1 0x24 PUSH1 0x0 REVERT JUMPDEST PUSH32 0x4E487B7100000000000000000000000000000000000000000000000000000000 PUSH1 0x0 MSTORE PUSH1 0x22 PUSH1 0x4 MSTORE PUSH1 0x24 PUSH1 0x0 REVERT JUMPDEST PUSH1 0x0 PUSH1 0x2 DUP3 DIV SWAP1 POP PUSH1 0x1 DUP3 AND DUP1 PUSH3 0x486 JUMPI PUSH1 0x7F DUP3 AND SWAP2 POP JUMPDEST PUSH1 0x20 DUP3 LT DUP2 SUB PUSH3 0x49C JUMPI PUSH3 0x49B PUSH3 0x43E JUMP JUMPDEST JUMPDEST POP SWAP2 SWAP1 POP JUMP JUMPDEST PUSH1 0x0 DUP2 SWAP1 POP DUP2 PUSH1 0x0 MSTORE PUSH1 0x20 PUSH1 0x0 KECCAK256 SWAP1 POP SWAP2 SWAP1 POP JUMP JUMPDEST PUSH1 0x0 PUSH1 0x20 PUSH1 0x1F DUP4 ADD DIV SWAP1 POP SWAP2 SWAP1 POP JUMP JUMPDEST PUSH1 0x0 DUP3 DUP3 SHL SWAP1 POP SWAP3 SWAP2 POP POP JUMP JUMPDEST PUSH1 0x0 PUSH1 0x8 DUP4 MUL PUSH3 0x506 PUSH32 0xFFFFFFFFFFFFFFFFFFFFFFFFFFFFFFFFFFFFFFFFFFFFFFFFFFFFFFFFFFFFFFFF DUP3 PUSH3 0x4C7 JUMP JUMPDEST PUSH3 0x512 DUP7 DUP4 PUSH3 0x4C7 JUMP JUMPDEST SWAP6 POP DUP1 NOT DUP5 AND SWAP4 POP DUP1 DUP7 AND DUP5 OR SWAP3 POP POP POP SWAP4 SWAP3 POP POP POP JUMP JUMPDEST PUSH1 0x0 DUP2 SWAP1 POP SWAP2 SWAP1 POP JUMP JUMPDEST PUSH1 0x0 PUSH3 0x555 PUSH3 0x54F PUSH3 0x549 DUP5 PUSH3 0x382 JUMP JUMPDEST PUSH3 0x52A JUMP JUMPDEST PUSH3 0x382 JUMP JUMPDEST SWAP1 POP SWAP2 SWAP1 POP JUMP JUMPDEST PUSH1 0x0 DUP2 SWAP1 POP SWAP2 SWAP1 POP JUMP JUMPDEST PUSH3 0x571 DUP4 PUSH3 0x534 JUMP JUMPDEST PUSH3 0x589 PUSH3 0x580 DUP3 PUSH3 0x55C JUMP JUMPDEST DUP5 DUP5 SLOAD PUSH3 0x4D4 JUMP JUMPDEST DUP3 SSTORE POP POP POP POP JUMP JUMPDEST PUSH1 0x0 SWAP1 JUMP JUMPDEST PUSH3 0x5A0 PUSH3 0x591 JUMP JUMPDEST PUSH3 0x5AD DUP2 DUP5 DUP5 PUSH3 0x566 JUMP JUMPDEST POP POP POP JUMP JUMPDEST JUMPDEST DUP2 DUP2 LT ISZERO PUSH3 0x5D5 JUMPI PUSH3 0x5C9 PUSH1 0x0 DUP3 PUSH3 0x596 JUMP JUMPDEST PUSH1 0x1 DUP2 ADD SWAP1 POP PUSH3 0x5B3 JUMP JUMPDEST POP POP JUMP JUMPDEST PUSH1 0x1F DUP3 GT ISZERO PUSH3 0x624 JUMPI PUSH3 0x5EE DUP2 PUSH3 0x4A2 JUMP JUMPDEST PUSH3 0x5F9 DUP5 PUSH3 0x4B7 JUMP JUMPDEST DUP2 ADD PUSH1 0x20 DUP6 LT ISZERO PUSH3 0x609 JUMPI DUP2 SWAP1 POP JUMPDEST PUSH3 0x621 PUSH3 0x618 DUP6 PUSH3 0x4B7 JUMP JUMPDEST DUP4 ADD DUP3 PUSH3 0x5B2 JUMP JUMPDEST POP POP JUMPDEST POP POP POP JUMP JUMPDEST PUSH1 0x0 DUP3 DUP3 SHR SWAP1 POP SWAP3 SWAP2 POP POP JUMP JUMPDEST PUSH1 0x0 PUSH3 0x649 PUSH1 0x0 NOT DUP5 PUSH1 0x8 MUL PUSH3 0x629 JUMP JUMPDEST NOT DUP1 DUP4 AND SWAP2 POP POP SWAP3 SWAP2 POP POP JUMP JUMPDEST PUSH1 0x0 PUSH3 0x664 DUP4 DUP4 PUSH3 0x636 JUMP JUMPDEST SWAP2 POP DUP3 PUSH1 0x2 MUL DUP3 OR SWAP1 POP SWAP3 SWAP2 POP POP JUMP JUMPDEST PUSH3 0x67F DUP3 PUSH3 0x404 JUMP JUMPDEST PUSH8 0xFFFFFFFFFFFFFFFF DUP2 GT ISZERO PUSH3 0x69B JUMPI PUSH3 0x69A PUSH3 0x40F JUMP JUMPDEST JUMPDEST PUSH3 0x6A7 DUP3 SLOAD PUSH3 0x46D JUMP JUMPDEST PUSH3 0x6B4 DUP3 DUP3 DUP6 PUSH3 0x5D9 JUMP JUMPDEST PUSH1 0x0 PUSH1 0x20 SWAP1 POP PUSH1 0x1F DUP4 GT PUSH1 0x1 DUP2 EQ PUSH3 0x6EC JUMPI PUSH1 0x0 DUP5 ISZERO PUSH3 0x6D7 JUMPI DUP3 DUP8 ADD MLOAD SWAP1 POP JUMPDEST PUSH3 0x6E3 DUP6 DUP3 PUSH3 0x656 JUMP JUMPDEST DUP7 SSTORE POP PUSH3 0x753 JUMP JUMPDEST PUSH1 0x1F NOT DUP5 AND PUSH3 0x6FC DUP7 PUSH3 0x4A2 JUMP JUMPDEST PUSH1 0x0 JUMPDEST DUP3 DUP2 LT ISZERO PUSH3 0x726 JUMPI DUP5 DUP10 ADD MLOAD DUP3 SSTORE PUSH1 0x1 DUP3 ADD SWAP2 POP PUSH1 0x20 DUP6 ADD SWAP5 POP PUSH1 0x20 DUP2 ADD SWAP1 POP PUSH3 0x6FF JUMP JUMPDEST DUP7 DUP4 LT ISZERO PUSH3 0x746 JUMPI DUP5 DUP10 ADD MLOAD PUSH3 0x742 PUSH1 0x1F DUP10 AND DUP3 PUSH3 0x636 JUMP JUMPDEST DUP4 SSTORE POP JUMPDEST PUSH1 0x1 PUSH1 0x2 DUP9 MUL ADD DUP9 SSTORE POP POP POP JUMPDEST POP POP POP POP POP POP JUMP JUMPDEST PUSH2 0x2B3A DUP1 PUSH3 0x76B PUSH1 0x0 CODECOPY PUSH1 0x0 RETURN INVALID PUSH1 0x80 PUSH1 0x40 MSTORE CALLVALUE DUP1 ISZERO PUSH2 0x10 JUMPI PUSH1 0x0 DUP1 REVERT JUMPDEST POP PUSH1 0x4 CALLDATASIZE LT PUSH2 0x1A8 JUMPI PUSH1 0x0 CALLDATALOAD PUSH1 0xE0 SHR DUP1 PUSH4 0x80FAA57D GT PUSH2 0xF9 JUMPI DUP1 PUSH4 0xCA1D209D GT PUSH2 0x97 JUMPI DUP1 PUSH4 0xD1AF0C7D GT PUSH2 0x71 JUMPI DUP1 PUSH4 0xD1AF0C7D EQ PUSH2 0x487 JUMPI DUP1 PUSH4 0xDF136D65 EQ PUSH2 0x4A5 JUMPI DUP1 PUSH4 0xEBE2B12B EQ PUSH2 0x4C3 JUMPI DUP1 PUSH4 0xF2FDE38B EQ PUSH2 0x4E1 JUMPI PUSH2 0x1A8 JUMP JUMPDEST DUP1 PUSH4 0xCA1D209D EQ PUSH2 0x431 JUMPI DUP1 PUSH4 0xCC1A378F EQ PUSH2 0x44D JUMPI DUP1 PUSH4 0xCD3DAF9D EQ PUSH2 0x469 JUMPI PUSH2 0x1A8 JUMP JUMPDEST DUP1 PUSH4 0x8B876347 GT PUSH2 0xD3 JUMPI DUP1 PUSH4 0x8B876347 EQ PUSH2 0x3BB JUMPI DUP1 PUSH4 0x8DA5CB5B EQ PUSH2 0x3EB JUMPI DUP1 PUSH4 0xC6E79B91 EQ PUSH2 0x409 JUMPI DUP1 PUSH4 0xC8F33C91 EQ PUSH2 0x413 JUMPI PUSH2 0x1A8 JUMP JUMPDEST DUP1 PUSH4 0x80FAA57D EQ PUSH2 0x351 JUMPI DUP1 PUSH4 0x880B0E43 EQ PUSH2 0x36F JUMPI DUP1 PUSH4 0x8980F11F EQ PUSH2 0x39F JUMPI PUSH2 0x1A8 JUMP JUMPDEST DUP1 PUSH4 0x58341922 GT PUSH2 0x166 JUMPI DUP1 PUSH4 0x70A08231 GT PUSH2 0x140 JUMPI DUP1 PUSH4 0x70A08231 EQ PUSH2 0x2DB JUMPI DUP1 PUSH4 0x715018A6 EQ PUSH2 0x30B JUMPI DUP1 PUSH4 0x72F702F3 EQ PUSH2 0x315 JUMPI DUP1 PUSH4 0x7B0A47EE EQ PUSH2 0x333 JUMPI PUSH2 0x1A8 JUMP JUMPDEST DUP1 PUSH4 0x58341922 EQ PUSH2 0x283 JUMPI DUP1 PUSH4 0x5C975ABB EQ PUSH2 0x2A1 JUMPI DUP1 PUSH4 0x6C11FE9B EQ PUSH2 0x2BF JUMPI PUSH2 0x1A8 JUMP JUMPDEST DUP1 PUSH3 0x8CC262 EQ PUSH2 0x1AD JUMPI DUP1 PUSH4 0x700037D EQ PUSH2 0x1DD JUMPI DUP1 PUSH4 0x1C1F78EB EQ PUSH2 0x20D JUMPI DUP1 PUSH4 0x386A9525 EQ PUSH2 0x22B JUMPI DUP1 PUSH4 0x4E71D92D EQ PUSH2 0x249 JUMPI DUP1 PUSH4 0x529D6CCF EQ PUSH2 0x253 JUMPI JUMPDEST PUSH1 0x0 DUP1 REVERT JUMPDEST PUSH2 0x1C7 PUSH1 0x4 DUP1 CALLDATASIZE SUB DUP2 ADD SWAP1 PUSH2 0x1C2 SWAP2 SWAP1 PUSH2 0x1A10 JUMP JUMPDEST PUSH2 0x4FD JUMP JUMPDEST PUSH1 0x40 MLOAD PUSH2 0x1D4 SWAP2 SWAP1 PUSH2 0x1A56 JUMP JUMPDEST PUSH1 0x40 MLOAD DUP1 SWAP2 SUB SWAP1 RETURN JUMPDEST PUSH2 0x1F7 PUSH1 0x4 DUP1 CALLDATASIZE SUB DUP2 ADD SWAP1 PUSH2 0x1F2 SWAP2 SWAP1 PUSH2 0x1A10 JUMP JUMPDEST PUSH2 0x50F JUMP JUMPDEST PUSH1 0x40 MLOAD PUSH2 0x204 SWAP2 SWAP1 PUSH2 0x1A56 JUMP JUMPDEST PUSH1 0x40 MLOAD DUP1 SWAP2 SUB SWAP1 RETURN JUMPDEST PUSH2 0x215 PUSH2 0x527 JUMP JUMPDEST PUSH1 0x40 MLOAD PUSH2 0x222 SWAP2 SWAP1 PUSH2 0x1A56 JUMP JUMPDEST PUSH1 0x40 MLOAD DUP1 SWAP2 SUB SWAP1 RETURN JUMPDEST PUSH2 0x233 PUSH2 0x53E JUMP JUMPDEST PUSH1 0x40 MLOAD PUSH2 0x240 SWAP2 SWAP1 PUSH2 0x1A56 JUMP JUMPDEST PUSH1 0x40 MLOAD DUP1 SWAP2 SUB SWAP1 RETURN JUMPDEST PUSH2 0x251 PUSH2 0x544 JUMP JUMPDEST STOP JUMPDEST PUSH2 0x26D PUSH1 0x4 DUP1 CALLDATASIZE SUB DUP2 ADD SWAP1 PUSH2 0x268 SWAP2 SWAP1 PUSH2 0x1A10 JUMP JUMPDEST PUSH2 0x772 JUMP JUMPDEST PUSH1 0x40 MLOAD PUSH2 0x27A SWAP2 SWAP1 PUSH2 0x1A8C JUMP JUMPDEST PUSH1 0x40 MLOAD DUP1 SWAP2 SUB SWAP1 RETURN JUMPDEST PUSH2 0x28B PUSH2 0x7C8 JUMP JUMPDEST PUSH1 0x40 MLOAD PUSH2 0x298 SWAP2 SWAP1 PUSH2 0x1A56 JUMP JUMPDEST PUSH1 0x40 MLOAD DUP1 SWAP2 SUB SWAP1 RETURN JUMPDEST PUSH2 0x2A9 PUSH2 0x7D2 JUMP JUMPDEST PUSH1 0x40 MLOAD PUSH2 0x2B6 SWAP2 SWAP1 PUSH2 0x1A8C JUMP JUMPDEST PUSH1 0x40 MLOAD DUP1 SWAP2 SUB SWAP1 RETURN JUMPDEST PUSH2 0x2D9 PUSH1 0x4 DUP1 CALLDATASIZE SUB DUP2 ADD SWAP1 PUSH2 0x2D4 SWAP2 SWAP1 PUSH2 0x1DC2 JUMP JUMPDEST PUSH2 0x7E8 JUMP JUMPDEST STOP JUMPDEST PUSH2 0x2F5 PUSH1 0x4 DUP1 CALLDATASIZE SUB DUP2 ADD SWAP1 PUSH2 0x2F0 SWAP2 SWAP1 PUSH2 0x1A10 JUMP JUMPDEST PUSH2 0x8C0 JUMP JUMPDEST PUSH1 0x40 MLOAD PUSH2 0x302 SWAP2 SWAP1 PUSH2 0x1A56 JUMP JUMPDEST PUSH1 0x40 MLOAD DUP1 SWAP2 SUB SWAP1 RETURN JUMPDEST PUSH2 0x313 PUSH2 0x909 JUMP JUMPDEST STOP JUMPDEST PUSH2 0x31D PUSH2 0x91D JUMP JUMPDEST PUSH1 0x40 MLOAD PUSH2 0x32A SWAP2 SWAP1 PUSH2 0x1EC8 JUMP JUMPDEST PUSH1 0x40 MLOAD DUP1 SWAP2 SUB SWAP1 RETURN JUMPDEST PUSH2 0x33B PUSH2 0x943 JUMP JUMPDEST PUSH1 0x40 MLOAD PUSH2 0x348 SWAP2 SWAP1 PUSH2 0x1A56 JUMP JUMPDEST PUSH1 0x40 MLOAD DUP1 SWAP2 SUB SWAP1 RETURN JUMPDEST PUSH2 0x359 PUSH2 0x949 JUMP JUMPDEST PUSH1 0x40 MLOAD PUSH2 0x366 SWAP2 SWAP1 PUSH2 0x1A56 JUMP JUMPDEST PUSH1 0x40 MLOAD DUP1 SWAP2 SUB SWAP1 RETURN JUMPDEST PUSH2 0x389 PUSH1 0x4 DUP1 CALLDATASIZE SUB DUP2 ADD SWAP1 PUSH2 0x384 SWAP2 SWAP1 PUSH2 0x1EE3 JUMP JUMPDEST PUSH2 0x958 JUMP JUMPDEST PUSH1 0x40 MLOAD PUSH2 0x396 SWAP2 SWAP1 PUSH2 0x1F8A JUMP JUMPDEST PUSH1 0x40 MLOAD DUP1 SWAP2 SUB SWAP1 RETURN JUMPDEST PUSH2 0x3B9 PUSH1 0x4 DUP1 CALLDATASIZE SUB DUP2 ADD SWAP1 PUSH2 0x3B4 SWAP2 SWAP1 PUSH2 0x1FA5 JUMP JUMPDEST PUSH2 0xBCC JUMP JUMPDEST STOP JUMPDEST PUSH2 0x3D5 PUSH1 0x4 DUP1 CALLDATASIZE SUB DUP2 ADD SWAP1 PUSH2 0x3D0 SWAP2 SWAP1 PUSH2 0x1A10 JUMP JUMPDEST PUSH2 0xCCA JUMP JUMPDEST PUSH1 0x40 MLOAD PUSH2 0x3E2 SWAP2 SWAP1 PUSH2 0x1A56 JUMP JUMPDEST PUSH1 0x40 MLOAD DUP1 SWAP2 SUB SWAP1 RETURN JUMPDEST PUSH2 0x3F3 PUSH2 0xCE2 JUMP JUMPDEST PUSH1 0x40 MLOAD PUSH2 0x400 SWAP2 SWAP1 PUSH2 0x1FF4 JUMP JUMPDEST PUSH1 0x40 MLOAD DUP1 SWAP2 SUB SWAP1 RETURN JUMPDEST PUSH2 0x411 PUSH2 0xD0B JUMP JUMPDEST STOP JUMPDEST PUSH2 0x41B PUSH2 0xE4D JUMP JUMPDEST PUSH1 0x40 MLOAD PUSH2 0x428 SWAP2 SWAP1 PUSH2 0x1A56 JUMP JUMPDEST PUSH1 0x40 MLOAD DUP1 SWAP2 SUB SWAP1 RETURN JUMPDEST PUSH2 0x44B PUSH1 0x4 DUP1 CALLDATASIZE SUB DUP2 ADD SWAP1 PUSH2 0x446 SWAP2 SWAP1 PUSH2 0x200F JUMP JUMPDEST PUSH2 0xE53 JUMP JUMPDEST STOP JUMPDEST PUSH2 0x467 PUSH1 0x4 DUP1 CALLDATASIZE SUB DUP2 ADD SWAP1 PUSH2 0x462 SWAP2 SWAP1 PUSH2 0x200F JUMP JUMPDEST PUSH2 0x113F JUMP JUMPDEST STOP JUMPDEST PUSH2 0x471 PUSH2 0x11C4 JUMP JUMPDEST PUSH1 0x40 MLOAD PUSH2 0x47E SWAP2 SWAP1 PUSH2 0x1A56 JUMP JUMPDEST PUSH1 0x40 MLOAD DUP1 SWAP2 SUB SWAP1 RETURN JUMPDEST PUSH2 0x48F PUSH2 0x11D3 JUMP JUMPDEST PUSH1 0x40 MLOAD PUSH2 0x49C SWAP2 SWAP1 PUSH2 0x1EC8 JUMP JUMPDEST PUSH1 0x40 MLOAD DUP1 SWAP2 SUB SWAP1 RETURN JUMPDEST PUSH2 0x4AD PUSH2 0x11F9 JUMP JUMPDEST PUSH1 0x40 MLOAD PUSH2 0x4BA SWAP2 SWAP1 PUSH2 0x1A56 JUMP JUMPDEST PUSH1 0x40 MLOAD DUP1 SWAP2 SUB SWAP1 RETURN JUMPDEST PUSH2 0x4CB PUSH2 0x11FF JUMP JUMPDEST PUSH1 0x40 MLOAD PUSH2 0x4D8 SWAP2 SWAP1 PUSH2 0x1A56 JUMP JUMPDEST PUSH1 0x40 MLOAD DUP1 SWAP2 SUB SWAP1 RETURN JUMPDEST PUSH2 0x4FB PUSH1 0x4 DUP1 CALLDATASIZE SUB DUP2 ADD SWAP1 PUSH2 0x4F6 SWAP2 SWAP1 PUSH2 0x1A10 JUMP JUMPDEST PUSH2 0x1205 JUMP JUMPDEST STOP JUMPDEST PUSH1 0x0 PUSH2 0x508 DUP3 PUSH2 0x1288 JUMP JUMPDEST SWAP1 POP SWAP2 SWAP1 POP JUMP JUMPDEST PUSH1 0xC PUSH1 0x20 MSTORE DUP1 PUSH1 0x0 MSTORE PUSH1 0x40 PUSH1 0x0 KECCAK256 PUSH1 0x0 SWAP2 POP SWAP1 POP SLOAD DUP2 JUMP JUMPDEST PUSH1 0x0 PUSH1 0x8 SLOAD PUSH1 0x7 SLOAD PUSH2 0x539 SWAP2 SWAP1 PUSH2 0x206B JUMP JUMPDEST SWAP1 POP SWAP1 JUMP JUMPDEST PUSH1 0x8 SLOAD DUP2 JUMP JUMPDEST PUSH2 0x54C PUSH2 0x138A JUMP JUMPDEST PUSH2 0x554 PUSH2 0x13D9 JUMP JUMPDEST CALLER PUSH2 0x55D PUSH2 0x1423 JUMP JUMPDEST PUSH1 0xA DUP2 SWAP1 SSTORE POP PUSH2 0x56B PUSH2 0x148D JUMP JUMPDEST PUSH1 0x9 DUP2 SWAP1 SSTORE POP PUSH1 0x0 PUSH20 0xFFFFFFFFFFFFFFFFFFFFFFFFFFFFFFFFFFFFFFFF AND DUP2 PUSH20 0xFFFFFFFFFFFFFFFFFFFFFFFFFFFFFFFFFFFFFFFF AND EQ PUSH2 0x638 JUMPI PUSH2 0x5AE DUP2 PUSH2 0x1288 JUMP JUMPDEST PUSH1 0xC PUSH1 0x0 DUP4 PUSH20 0xFFFFFFFFFFFFFFFFFFFFFFFFFFFFFFFFFFFFFFFF AND PUSH20 0xFFFFFFFFFFFFFFFFFFFFFFFFFFFFFFFFFFFFFFFF AND DUP2 MSTORE PUSH1 0x20 ADD SWAP1 DUP2 MSTORE PUSH1 0x20 ADD PUSH1 0x0 KECCAK256 DUP2 SWAP1 SSTORE POP PUSH1 0xA SLOAD PUSH1 0xB PUSH1 0x0 DUP4 PUSH20 0xFFFFFFFFFFFFFFFFFFFFFFFFFFFFFFFFFFFFFFFF AND PUSH20 0xFFFFFFFFFFFFFFFFFFFFFFFFFFFFFFFFFFFFFFFF AND DUP2 MSTORE PUSH1 0x20 ADD SWAP1 DUP2 MSTORE PUSH1 0x20 ADD PUSH1 0x0 KECCAK256 DUP2 SWAP1 SSTORE POP JUMPDEST PUSH1 0x0 PUSH1 0xC PUSH1 0x0 CALLER PUSH20 0xFFFFFFFFFFFFFFFFFFFFFFFFFFFFFFFFFFFFFFFF AND PUSH20 0xFFFFFFFFFFFFFFFFFFFFFFFFFFFFFFFFFFFFFFFF AND DUP2 MSTORE PUSH1 0x20 ADD SWAP1 DUP2 MSTORE PUSH1 0x20 ADD PUSH1 0x0 KECCAK256 SLOAD SWAP1 POP PUSH1 0x0 DUP2 GT ISZERO PUSH2 0x766 JUMPI PUSH1 0x0 PUSH1 0xC PUSH1 0x0 CALLER PUSH20 0xFFFFFFFFFFFFFFFFFFFFFFFFFFFFFFFFFFFFFFFF AND PUSH20 0xFFFFFFFFFFFFFFFFFFFFFFFFFFFFFFFFFFFFFFFF AND DUP2 MSTORE PUSH1 0x20 ADD SWAP1 DUP2 MSTORE PUSH1 0x20 ADD PUSH1 0x0 KECCAK256 DUP2 SWAP1 SSTORE POP PUSH2 0x717 CALLER DUP3 PUSH1 0x5 PUSH1 0x0 SWAP1 SLOAD SWAP1 PUSH2 0x100 EXP SWAP1 DIV PUSH20 0xFFFFFFFFFFFFFFFFFFFFFFFFFFFFFFFFFFFFFFFF AND PUSH20 0xFFFFFFFFFFFFFFFFFFFFFFFFFFFFFFFFFFFFFFFF AND PUSH2 0x14A7 SWAP1 SWAP3 SWAP2 SWAP1 PUSH4 0xFFFFFFFF AND JUMP JUMPDEST CALLER PUSH20 0xFFFFFFFFFFFFFFFFFFFFFFFFFFFFFFFFFFFFFFFF AND PUSH32 0xD8138F8A3F377C5259CA548E70E4C2DE94F129F5A11036A15B69513CBA2B426A DUP3 PUSH1 0x40 MLOAD PUSH2 0x75D SWAP2 SWAP1 PUSH2 0x1A56 JUMP JUMPDEST PUSH1 0x40 MLOAD DUP1 SWAP2 SUB SWAP1 LOG2 JUMPDEST POP POP PUSH2 0x770 PUSH2 0x152D JUMP JUMPDEST JUMP JUMPDEST PUSH1 0x0 PUSH1 0x3 PUSH1 0x0 DUP4 PUSH20 0xFFFFFFFFFFFFFFFFFFFFFFFFFFFFFFFFFFFFFFFF AND PUSH20 0xFFFFFFFFFFFFFFFFFFFFFFFFFFFFFFFFFFFFFFFF AND DUP2 MSTORE PUSH1 0x20 ADD SWAP1 DUP2 MSTORE PUSH1 0x20 ADD PUSH1 0x0 KECCAK256 PUSH1 0x0 SWAP1 SLOAD SWAP1 PUSH2 0x100 EXP SWAP1 DIV PUSH1 0xFF AND SWAP1 POP SWAP2 SWAP1 POP JUMP JUMPDEST PUSH1 0x0 PUSH1 0xD SLOAD SWAP1 POP SWAP1 JUMP JUMPDEST PUSH1 0x0 DUP1 PUSH1 0x14 SWAP1 SLOAD SWAP1 PUSH2 0x100 EXP SWAP1 DIV PUSH1 0xFF AND SWAP1 POP SWAP1 JUMP JUMPDEST PUSH2 0x7F0 PUSH2 0x13D9 JUMP JUMPDEST DUP2 MLOAD DUP4 MLOAD EQ DUP1 ISZERO PUSH2 0x802 JUMPI POP DUP1 MLOAD DUP3 MLOAD EQ JUMPDEST PUSH2 0x841 JUMPI PUSH1 0x40 MLOAD PUSH32 0x8C379A000000000000000000000000000000000000000000000000000000000 DUP2 MSTORE PUSH1 0x4 ADD PUSH2 0x838 SWAP1 PUSH2 0x210A JUMP JUMPDEST PUSH1 0x40 MLOAD DUP1 SWAP2 SUB SWAP1 REVERT JUMPDEST PUSH1 0x0 JUMPDEST DUP4 MLOAD DUP2 LT ISZERO PUSH2 0x8BA JUMPI PUSH2 0x8A6 DUP5 DUP3 DUP2 MLOAD DUP2 LT PUSH2 0x863 JUMPI PUSH2 0x862 PUSH2 0x212A JUMP JUMPDEST JUMPDEST PUSH1 0x20 MUL PUSH1 0x20 ADD ADD MLOAD DUP5 DUP4 DUP2 MLOAD DUP2 LT PUSH2 0x87E JUMPI PUSH2 0x87D PUSH2 0x212A JUMP JUMPDEST JUMPDEST PUSH1 0x20 MUL PUSH1 0x20 ADD ADD MLOAD DUP5 DUP5 DUP2 MLOAD DUP2 LT PUSH2 0x899 JUMPI PUSH2 0x898 PUSH2 0x212A JUMP JUMPDEST JUMPDEST PUSH1 0x20 MUL PUSH1 0x20 ADD ADD MLOAD PUSH2 0x958 JUMP JUMPDEST POP DUP1 DUP1 PUSH2 0x8B2 SWAP1 PUSH2 0x2159 JUMP JUMPDEST SWAP2 POP POP PUSH2 0x844 JUMP JUMPDEST POP POP POP POP JUMP JUMPDEST PUSH1 0x0 PUSH1 0xE PUSH1 0x0 DUP4 PUSH20 0xFFFFFFFFFFFFFFFFFFFFFFFFFFFFFFFFFFFFFFFF AND PUSH20 0xFFFFFFFFFFFFFFFFFFFFFFFFFFFFFFFFFFFFFFFF AND DUP2 MSTORE PUSH1 0x20 ADD SWAP1 DUP2 MSTORE PUSH1 0x20 ADD PUSH1 0x0 KECCAK256 SLOAD SWAP1 POP SWAP2 SWAP1 POP JUMP JUMPDEST PUSH2 0x911 PUSH2 0x1536 JUMP JUMPDEST PUSH2 0x91B PUSH1 0x0 PUSH2 0x15B4 JUMP JUMPDEST JUMP JUMPDEST PUSH1 0x4 PUSH1 0x0 SWAP1 SLOAD SWAP1 PUSH2 0x100 EXP SWAP1 DIV PUSH20 0xFFFFFFFFFFFFFFFFFFFFFFFFFFFFFFFFFFFFFFFF AND DUP2 JUMP JUMPDEST PUSH1 0x7 SLOAD DUP2 JUMP JUMPDEST PUSH1 0x0 PUSH2 0x953 PUSH2 0x148D JUMP JUMPDEST SWAP1 POP SWAP1 JUMP JUMPDEST PUSH1 0x0 PUSH2 0x962 PUSH2 0x13D9 JUMP JUMPDEST CALLER PUSH2 0x96B PUSH2 0x1423 JUMP JUMPDEST PUSH1 0xA DUP2 SWAP1 SSTORE POP PUSH2 0x979 PUSH2 0x148D JUMP JUMPDEST PUSH1 0x9 DUP2 SWAP1 SSTORE POP PUSH1 0x0 PUSH20 0xFFFFFFFFFFFFFFFFFFFFFFFFFFFFFFFFFFFFFFFF AND DUP2 PUSH20 0xFFFFFFFFFFFFFFFFFFFFFFFFFFFFFFFFFFFFFFFF AND EQ PUSH2 0xA46 JUMPI PUSH2 0x9BC DUP2 PUSH2 0x1288 JUMP JUMPDEST PUSH1 0xC PUSH1 0x0 DUP4 PUSH20 0xFFFFFFFFFFFFFFFFFFFFFFFFFFFFFFFFFFFFFFFF AND PUSH20 0xFFFFFFFFFFFFFFFFFFFFFFFFFFFFFFFFFFFFFFFF AND DUP2 MSTORE PUSH1 0x20 ADD SWAP1 DUP2 MSTORE PUSH1 0x20 ADD PUSH1 0x0 KECCAK256 DUP2 SWAP1 SSTORE POP PUSH1 0xA SLOAD PUSH1 0xB PUSH1 0x0 DUP4 PUSH20 0xFFFFFFFFFFFFFFFFFFFFFFFFFFFFFFFFFFFFFFFF AND PUSH20 0xFFFFFFFFFFFFFFFFFFFFFFFFFFFFFFFFFFFFFFFF AND DUP2 MSTORE PUSH1 0x20 ADD SWAP1 DUP2 MSTORE PUSH1 0x20 ADD PUSH1 0x0 KECCAK256 DUP2 SWAP1 SSTORE POP JUMPDEST PUSH1 0x0 DUP4 GT PUSH2 0xA80 JUMPI PUSH1 0x40 MLOAD PUSH32 0x1F2A200500000000000000000000000000000000000000000000000000000000 DUP2 MSTORE PUSH1 0x4 ADD PUSH1 0x40 MLOAD DUP1 SWAP2 SUB SWAP1 REVERT JUMPDEST PUSH1 0x0 PUSH2 0x800 PUSH20 0xFFFFFFFFFFFFFFFFFFFFFFFFFFFFFFFFFFFFFFFF AND PUSH4 0x54B826F5 CALLER DUP9 DUP9 DUP9 PUSH1 0x40 MLOAD DUP6 PUSH4 0xFFFFFFFF AND PUSH1 0xE0 SHL DUP2 MSTORE PUSH1 0x4 ADD PUSH2 0xAC3 SWAP5 SWAP4 SWAP3 SWAP2 SWAP1 PUSH2 0x220F JUMP JUMPDEST PUSH1 0x20 PUSH1 0x40 MLOAD DUP1 DUP4 SUB DUP2 PUSH1 0x0 DUP8 GAS CALL ISZERO DUP1 ISZERO PUSH2 0xAE2 JUMPI RETURNDATASIZE PUSH1 0x0 DUP1 RETURNDATACOPY RETURNDATASIZE PUSH1 0x0 REVERT JUMPDEST POP POP POP POP PUSH1 0x40 MLOAD RETURNDATASIZE PUSH1 0x1F NOT PUSH1 0x1F DUP3 ADD AND DUP3 ADD DUP1 PUSH1 0x40 MSTORE POP DUP2 ADD SWAP1 PUSH2 0xB06 SWAP2 SWAP1 PUSH2 0x228E JUMP JUMPDEST SWAP1 POP DUP4 PUSH1 0xD SLOAD PUSH2 0xB16 SWAP2 SWAP1 PUSH2 0x22BB JUMP JUMPDEST PUSH1 0xD DUP2 SWAP1 SSTORE POP DUP4 PUSH1 0xE PUSH1 0x0 CALLER PUSH20 0xFFFFFFFFFFFFFFFFFFFFFFFFFFFFFFFFFFFFFFFF AND PUSH20 0xFFFFFFFFFFFFFFFFFFFFFFFFFFFFFFFFFFFFFFFF AND DUP2 MSTORE PUSH1 0x20 ADD SWAP1 DUP2 MSTORE PUSH1 0x20 ADD PUSH1 0x0 KECCAK256 PUSH1 0x0 DUP3 DUP3 SLOAD PUSH2 0xB6B SWAP2 SWAP1 PUSH2 0x22BB JUMP JUMPDEST SWAP3 POP POP DUP2 SWAP1 SSTORE POP CALLER PUSH20 0xFFFFFFFFFFFFFFFFFFFFFFFFFFFFFFFFFFFFFFFF AND PUSH32 0xDA5C3D1021415BB27AA0917EAAAFC6EE7C358A2A436D70208004073F6109EC0 DUP6 PUSH1 0x40 MLOAD PUSH2 0xBB8 SWAP2 SWAP1 PUSH2 0x1A56 JUMP JUMPDEST PUSH1 0x40 MLOAD DUP1 SWAP2 SUB SWAP1 LOG2 DUP1 SWAP3 POP POP POP SWAP4 SWAP3 POP POP POP JUMP JUMPDEST PUSH2 0xBD4 PUSH2 0x1536 JUMP JUMPDEST PUSH1 0x4 PUSH1 0x0 SWAP1 SLOAD SWAP1 PUSH2 0x100 EXP SWAP1 DIV PUSH20 0xFFFFFFFFFFFFFFFFFFFFFFFFFFFFFFFFFFFFFFFF AND PUSH20 0xFFFFFFFFFFFFFFFFFFFFFFFFFFFFFFFFFFFFFFFF AND DUP3 PUSH20 0xFFFFFFFFFFFFFFFFFFFFFFFFFFFFFFFFFFFFFFFF AND SUB PUSH2 0xC5B JUMPI PUSH1 0x40 MLOAD PUSH32 0x43FC58F100000000000000000000000000000000000000000000000000000000 DUP2 MSTORE PUSH1 0x4 ADD PUSH1 0x40 MLOAD DUP1 SWAP2 SUB SWAP1 REVERT JUMPDEST PUSH2 0xC8D PUSH2 0xC66 PUSH2 0xCE2 JUMP JUMPDEST DUP3 DUP5 PUSH20 0xFFFFFFFFFFFFFFFFFFFFFFFFFFFFFFFFFFFFFFFF AND PUSH2 0x14A7 SWAP1 SWAP3 SWAP2 SWAP1 PUSH4 0xFFFFFFFF AND JUMP JUMPDEST PUSH32 0x8C1256B8896378CD5044F80C202F9772B9D77DC85C8A6EB51967210B09BFAA28 DUP3 DUP3 PUSH1 0x40 MLOAD PUSH2 0xCBE SWAP3 SWAP2 SWAP1 PUSH2 0x22EF JUMP JUMPDEST PUSH1 0x40 MLOAD DUP1 SWAP2 SUB SWAP1 LOG1 POP POP JUMP JUMPDEST PUSH1 0xB PUSH1 0x20 MSTORE DUP1 PUSH1 0x0 MSTORE PUSH1 0x40 PUSH1 0x0 KECCAK256 PUSH1 0x0 SWAP2 POP SWAP1 POP SLOAD DUP2 JUMP JUMPDEST PUSH1 0x0 DUP1 PUSH1 0x0 SWAP1 SLOAD SWAP1 PUSH2 0x100 EXP SWAP1 DIV PUSH20 0xFFFFFFFFFFFFFFFFFFFFFFFFFFFFFFFFFFFFFFFF AND SWAP1 POP SWAP1 JUMP JUMPDEST PUSH1 0x0 PUSH2 0x800 PUSH20 0xFFFFFFFFFFFFFFFFFFFFFFFFFFFFFFFFFFFFFFFF AND PUSH4 0xB6039895 CALLER PUSH32 0xFFFFFFFFFFFFFFFFFFFFFFFFFFFFFFFFFFFFFFFFFFFFFFFFFFFFFFFFFFFFFFFF PUSH1 0x2 PUSH1 0x40 MLOAD DUP5 PUSH4 0xFFFFFFFF AND PUSH1 0xE0 SHL DUP2 MSTORE PUSH1 0x4 ADD PUSH2 0xD6D SWAP4 SWAP3 SWAP2 SWAP1 PUSH2 0x24E8 JUMP JUMPDEST PUSH1 0x20 PUSH1 0x40 MLOAD DUP1 DUP4 SUB DUP2 PUSH1 0x0 DUP8 GAS CALL ISZERO DUP1 ISZERO PUSH2 0xD8C JUMPI RETURNDATASIZE PUSH1 0x0 DUP1 RETURNDATACOPY RETURNDATASIZE PUSH1 0x0 REVERT JUMPDEST POP POP POP POP PUSH1 0x40 MLOAD RETURNDATASIZE PUSH1 0x1F NOT PUSH1 0x1F DUP3 ADD AND DUP3 ADD DUP1 PUSH1 0x40 MSTORE POP DUP2 ADD SWAP1 PUSH2 0xDB0 SWAP2 SWAP1 PUSH2 0x2552 JUMP JUMPDEST SWAP1 POP DUP1 PUSH2 0xDF2 JUMPI PUSH1 0x40 MLOAD PUSH32 0x8C379A000000000000000000000000000000000000000000000000000000000 DUP2 MSTORE PUSH1 0x4 ADD PUSH2 0xDE9 SWAP1 PUSH2 0x25F1 JUMP JUMPDEST PUSH1 0x40 MLOAD DUP1 SWAP2 SUB SWAP1 REVERT JUMPDEST PUSH1 0x1 PUSH1 0x3 PUSH1 0x0 CALLER PUSH20 0xFFFFFFFFFFFFFFFFFFFFFFFFFFFFFFFFFFFFFFFF AND PUSH20 0xFFFFFFFFFFFFFFFFFFFFFFFFFFFFFFFFFFFFFFFF AND DUP2 MSTORE PUSH1 0x20 ADD SWAP1 DUP2 MSTORE PUSH1 0x20 ADD PUSH1 0x0 KECCAK256 PUSH1 0x0 PUSH2 0x100 EXP DUP2 SLOAD DUP2 PUSH1 0xFF MUL NOT AND SWAP1 DUP4 ISZERO ISZERO MUL OR SWAP1 SSTORE POP POP JUMP JUMPDEST PUSH1 0x9 SLOAD DUP2 JUMP JUMPDEST PUSH2 0xE5B PUSH2 0x1536 JUMP JUMPDEST PUSH2 0xE63 PUSH2 0x13D9 JUMP JUMPDEST PUSH1 0x0 PUSH2 0xE6D PUSH2 0x1423 JUMP JUMPDEST PUSH1 0xA DUP2 SWAP1 SSTORE POP PUSH2 0xE7B PUSH2 0x148D JUMP JUMPDEST PUSH1 0x9 DUP2 SWAP1 SSTORE POP PUSH1 0x0 PUSH20 0xFFFFFFFFFFFFFFFFFFFFFFFFFFFFFFFFFFFFFFFF AND DUP2 PUSH20 0xFFFFFFFFFFFFFFFFFFFFFFFFFFFFFFFFFFFFFFFF AND EQ PUSH2 0xF48 JUMPI PUSH2 0xEBE DUP2 PUSH2 0x1288 JUMP JUMPDEST PUSH1 0xC PUSH1 0x0 DUP4 PUSH20 0xFFFFFFFFFFFFFFFFFFFFFFFFFFFFFFFFFFFFFFFF AND PUSH20 0xFFFFFFFFFFFFFFFFFFFFFFFFFFFFFFFFFFFFFFFF AND DUP2 MSTORE PUSH1 0x20 ADD SWAP1 DUP2 MSTORE PUSH1 0x20 ADD PUSH1 0x0 KECCAK256 DUP2 SWAP1 SSTORE POP PUSH1 0xA SLOAD PUSH1 0xB PUSH1 0x0 DUP4 PUSH20 0xFFFFFFFFFFFFFFFFFFFFFFFFFFFFFFFFFFFFFFFF AND PUSH20 0xFFFFFFFFFFFFFFFFFFFFFFFFFFFFFFFFFFFFFFFF AND DUP2 MSTORE PUSH1 0x20 ADD SWAP1 DUP2 MSTORE PUSH1 0x20 ADD PUSH1 0x0 KECCAK256 DUP2 SWAP1 SSTORE POP JUMPDEST PUSH1 0x6 SLOAD TIMESTAMP LT PUSH2 0xF6A JUMPI PUSH1 0x8 SLOAD DUP3 PUSH2 0xF5F SWAP2 SWAP1 PUSH2 0x2640 JUMP JUMPDEST PUSH1 0x7 DUP2 SWAP1 SSTORE POP PUSH2 0xFB0 JUMP JUMPDEST PUSH1 0x0 TIMESTAMP PUSH1 0x6 SLOAD PUSH2 0xF7A SWAP2 SWAP1 PUSH2 0x2671 JUMP JUMPDEST SWAP1 POP PUSH1 0x0 PUSH1 0x7 SLOAD DUP3 PUSH2 0xF8C SWAP2 SWAP1 PUSH2 0x206B JUMP JUMPDEST SWAP1 POP PUSH1 0x8 SLOAD DUP2 DUP6 PUSH2 0xF9D SWAP2 SWAP1 PUSH2 0x22BB JUMP JUMPDEST PUSH2 0xFA7 SWAP2 SWAP1 PUSH2 0x2640 JUMP JUMPDEST PUSH1 0x7 DUP2 SWAP1 SSTORE POP POP POP JUMPDEST PUSH2 0xFFF CALLER ADDRESS DUP5 PUSH1 0x5 PUSH1 0x0 SWAP1 SLOAD SWAP1 PUSH2 0x100 EXP SWAP1 DIV PUSH20 0xFFFFFFFFFFFFFFFFFFFFFFFFFFFFFFFFFFFFFFFF AND PUSH20 0xFFFFFFFFFFFFFFFFFFFFFFFFFFFFFFFFFFFFFFFF AND PUSH2 0x1678 SWAP1 SWAP4 SWAP3 SWAP2 SWAP1 PUSH4 0xFFFFFFFF AND JUMP JUMPDEST PUSH1 0x0 PUSH1 0x5 PUSH1 0x0 SWAP1 SLOAD SWAP1 PUSH2 0x100 EXP SWAP1 DIV PUSH20 0xFFFFFFFFFFFFFFFFFFFFFFFFFFFFFFFFFFFFFFFF AND PUSH20 0xFFFFFFFFFFFFFFFFFFFFFFFFFFFFFFFFFFFFFFFF AND PUSH4 0x70A08231 ADDRESS PUSH1 0x40 MLOAD DUP3 PUSH4 0xFFFFFFFF AND PUSH1 0xE0 SHL DUP2 MSTORE PUSH1 0x4 ADD PUSH2 0x105C SWAP2 SWAP1 PUSH2 0x1FF4 JUMP JUMPDEST PUSH1 0x20 PUSH1 0x40 MLOAD DUP1 DUP4 SUB DUP2 DUP7 GAS STATICCALL ISZERO DUP1 ISZERO PUSH2 0x1079 JUMPI RETURNDATASIZE PUSH1 0x0 DUP1 RETURNDATACOPY RETURNDATASIZE PUSH1 0x0 REVERT JUMPDEST POP POP POP POP PUSH1 0x40 MLOAD RETURNDATASIZE PUSH1 0x1F NOT PUSH1 0x1F DUP3 ADD AND DUP3 ADD DUP1 PUSH1 0x40 MSTORE POP DUP2 ADD SWAP1 PUSH2 0x109D SWAP2 SWAP1 PUSH2 0x26BA JUMP JUMPDEST SWAP1 POP PUSH1 0x8 SLOAD DUP2 PUSH2 0x10AD SWAP2 SWAP1 PUSH2 0x2640 JUMP JUMPDEST PUSH1 0x7 SLOAD GT ISZERO PUSH2 0x10E8 JUMPI PUSH1 0x40 MLOAD PUSH32 0x7F5E85A600000000000000000000000000000000000000000000000000000000 DUP2 MSTORE PUSH1 0x4 ADD PUSH1 0x40 MLOAD DUP1 SWAP2 SUB SWAP1 REVERT JUMPDEST TIMESTAMP PUSH1 0x9 DUP2 SWAP1 SSTORE POP PUSH1 0x8 SLOAD TIMESTAMP PUSH2 0x10FD SWAP2 SWAP1 PUSH2 0x22BB JUMP JUMPDEST PUSH1 0x6 DUP2 SWAP1 SSTORE POP PUSH32 0xC4C14883AE9FD8E26D5D59E3485ED29FD126D781D7E498A4CA5C54C8268E4936 DUP4 PUSH1 0x40 MLOAD PUSH2 0x1132 SWAP2 SWAP1 PUSH2 0x1A56 JUMP JUMPDEST PUSH1 0x40 MLOAD DUP1 SWAP2 SUB SWAP1 LOG1 POP POP POP JUMP JUMPDEST PUSH2 0x1147 PUSH2 0x1536 JUMP JUMPDEST PUSH1 0x6 SLOAD TIMESTAMP LT ISZERO PUSH2 0x1183 JUMPI PUSH1 0x40 MLOAD PUSH32 0x38E3211200000000000000000000000000000000000000000000000000000000 DUP2 MSTORE PUSH1 0x4 ADD PUSH1 0x40 MLOAD DUP1 SWAP2 SUB SWAP1 REVERT JUMPDEST DUP1 PUSH1 0x8 DUP2 SWAP1 SSTORE POP PUSH32 0xFB46CA5A5E06D4540D6387B930A7C978BCE0DB5F449EC6B3F5D07C6E1D44F2D3 DUP2 PUSH1 0x40 MLOAD PUSH2 0x11B9 SWAP2 SWAP1 PUSH2 0x1A56 JUMP JUMPDEST PUSH1 0x40 MLOAD DUP1 SWAP2 SUB SWAP1 LOG1 POP JUMP JUMPDEST PUSH1 0x0 PUSH2 0x11CE PUSH2 0x1423 JUMP JUMPDEST SWAP1 POP SWAP1 JUMP JUMPDEST PUSH1 0x5 PUSH1 0x0 SWAP1 SLOAD SWAP1 PUSH2 0x100 EXP SWAP1 DIV PUSH20 0xFFFFFFFFFFFFFFFFFFFFFFFFFFFFFFFFFFFFFFFF AND DUP2 JUMP JUMPDEST PUSH1 0xA SLOAD DUP2 JUMP JUMPDEST PUSH1 0x6 SLOAD DUP2 JUMP JUMPDEST PUSH2 0x120D PUSH2 0x1536 JUMP JUMPDEST PUSH1 0x0 PUSH20 0xFFFFFFFFFFFFFFFFFFFFFFFFFFFFFFFFFFFFFFFF AND DUP2 PUSH20 0xFFFFFFFFFFFFFFFFFFFFFFFFFFFFFFFFFFFFFFFF AND SUB PUSH2 0x127C JUMPI PUSH1 0x40 MLOAD PUSH32 0x8C379A000000000000000000000000000000000000000000000000000000000 DUP2 MSTORE PUSH1 0x4 ADD PUSH2 0x1273 SWAP1 PUSH2 0x2759 JUMP JUMPDEST PUSH1 0x40 MLOAD DUP1 SWAP2 SUB SWAP1 REVERT JUMPDEST PUSH2 0x1285 DUP2 PUSH2 0x15B4 JUMP JUMPDEST POP JUMP JUMPDEST PUSH1 0x0 PUSH1 0xC PUSH1 0x0 DUP4 PUSH20 0xFFFFFFFFFFFFFFFFFFFFFFFFFFFFFFFFFFFFFFFF AND PUSH20 0xFFFFFFFFFFFFFFFFFFFFFFFFFFFFFFFFFFFFFFFF AND DUP2 MSTORE PUSH1 0x20 ADD SWAP1 DUP2 MSTORE PUSH1 0x20 ADD PUSH1 0x0 KECCAK256 SLOAD PUSH8 0xDE0B6B3A7640000 PUSH1 0xB PUSH1 0x0 DUP6 PUSH20 0xFFFFFFFFFFFFFFFFFFFFFFFFFFFFFFFFFFFFFFFF AND PUSH20 0xFFFFFFFFFFFFFFFFFFFFFFFFFFFFFFFFFFFFFFFF AND DUP2 MSTORE PUSH1 0x20 ADD SWAP1 DUP2 MSTORE PUSH1 0x20 ADD PUSH1 0x0 KECCAK256 SLOAD PUSH2 0x131B PUSH2 0x1423 JUMP JUMPDEST PUSH2 0x1325 SWAP2 SWAP1 PUSH2 0x2671 JUMP JUMPDEST PUSH1 0xE PUSH1 0x0 DUP7 PUSH20 0xFFFFFFFFFFFFFFFFFFFFFFFFFFFFFFFFFFFFFFFF AND PUSH20 0xFFFFFFFFFFFFFFFFFFFFFFFFFFFFFFFFFFFFFFFF AND DUP2 MSTORE PUSH1 0x20 ADD SWAP1 DUP2 MSTORE PUSH1 0x20 ADD PUSH1 0x0 KECCAK256 SLOAD PUSH2 0x136F SWAP2 SWAP1 PUSH2 0x206B JUMP JUMPDEST PUSH2 0x1379 SWAP2 SWAP1 PUSH2 0x2640 JUMP JUMPDEST PUSH2 0x1383 SWAP2 SWAP1 PUSH2 0x22BB JUMP JUMPDEST SWAP1 POP SWAP2 SWAP1 POP JUMP JUMPDEST PUSH1 0x2 PUSH1 0x1 SLOAD SUB PUSH2 0x13CF JUMPI PUSH1 0x40 MLOAD PUSH32 0x8C379A000000000000000000000000000000000000000000000000000000000 DUP2 MSTORE PUSH1 0x4 ADD PUSH2 0x13C6 SWAP1 PUSH2 0x27C5 JUMP JUMPDEST PUSH1 0x40 MLOAD DUP1 SWAP2 SUB SWAP1 REVERT JUMPDEST PUSH1 0x2 PUSH1 0x1 DUP2 SWAP1 SSTORE POP JUMP JUMPDEST PUSH2 0x13E1 PUSH2 0x7D2 JUMP JUMPDEST ISZERO PUSH2 0x1421 JUMPI PUSH1 0x40 MLOAD PUSH32 0x8C379A000000000000000000000000000000000000000000000000000000000 DUP2 MSTORE PUSH1 0x4 ADD PUSH2 0x1418 SWAP1 PUSH2 0x2831 JUMP JUMPDEST PUSH1 0x40 MLOAD DUP1 SWAP2 SUB SWAP1 REVERT JUMPDEST JUMP JUMPDEST PUSH1 0x0 DUP1 PUSH1 0xD SLOAD SUB PUSH2 0x1438 JUMPI PUSH1 0xA SLOAD SWAP1 POP PUSH2 0x148A JUMP JUMPDEST PUSH1 0xD SLOAD PUSH8 0xDE0B6B3A7640000 PUSH1 0x7 SLOAD PUSH1 0x9 SLOAD PUSH2 0x1452 PUSH2 0x148D JUMP JUMPDEST PUSH2 0x145C SWAP2 SWAP1 PUSH2 0x2671 JUMP JUMPDEST PUSH2 0x1466 SWAP2 SWAP1 PUSH2 0x206B JUMP JUMPDEST PUSH2 0x1470 SWAP2 SWAP1 PUSH2 0x206B JUMP JUMPDEST PUSH2 0x147A SWAP2 SWAP1 PUSH2 0x2640 JUMP JUMPDEST PUSH1 0xA SLOAD PUSH2 0x1487 SWAP2 SWAP1 PUSH2 0x22BB JUMP JUMPDEST SWAP1 POP JUMPDEST SWAP1 JUMP JUMPDEST PUSH1 0x0 PUSH1 0x6 SLOAD TIMESTAMP LT PUSH2 0x14A0 JUMPI PUSH1 0x6 SLOAD PUSH2 0x14A2 JUMP JUMPDEST TIMESTAMP JUMPDEST SWAP1 POP SWAP1 JUMP JUMPDEST PUSH2 0x1528 DUP4 PUSH4 0xA9059CBB PUSH1 0xE0 SHL DUP5 DUP5 PUSH1 0x40 MLOAD PUSH1 0x24 ADD PUSH2 0x14C6 SWAP3 SWAP2 SWAP1 PUSH2 0x22EF JUMP JUMPDEST PUSH1 0x40 MLOAD PUSH1 0x20 DUP2 DUP4 SUB SUB DUP2 MSTORE SWAP1 PUSH1 0x40 MSTORE SWAP1 PUSH28 0xFFFFFFFFFFFFFFFFFFFFFFFFFFFFFFFFFFFFFFFFFFFFFFFFFFFFFFFF NOT AND PUSH1 0x20 DUP3 ADD DUP1 MLOAD PUSH28 0xFFFFFFFFFFFFFFFFFFFFFFFFFFFFFFFFFFFFFFFFFFFFFFFFFFFFFFFF DUP4 DUP2 DUP4 AND OR DUP4 MSTORE POP POP POP POP PUSH2 0x1701 JUMP JUMPDEST POP POP POP JUMP JUMPDEST PUSH1 0x1 DUP1 DUP2 SWAP1 SSTORE POP JUMP JUMPDEST PUSH2 0x153E PUSH2 0x17C9 JUMP JUMPDEST PUSH20 0xFFFFFFFFFFFFFFFFFFFFFFFFFFFFFFFFFFFFFFFF AND PUSH2 0x155C PUSH2 0xCE2 JUMP JUMPDEST PUSH20 0xFFFFFFFFFFFFFFFFFFFFFFFFFFFFFFFFFFFFFFFF AND EQ PUSH2 0x15B2 JUMPI PUSH1 0x40 MLOAD PUSH32 0x8C379A000000000000000000000000000000000000000000000000000000000 DUP2 MSTORE PUSH1 0x4 ADD PUSH2 0x15A9 SWAP1 PUSH2 0x289D JUMP JUMPDEST PUSH1 0x40 MLOAD DUP1 SWAP2 SUB SWAP1 REVERT JUMPDEST JUMP JUMPDEST PUSH1 0x0 DUP1 PUSH1 0x0 SWAP1 SLOAD SWAP1 PUSH2 0x100 EXP SWAP1 DIV PUSH20 0xFFFFFFFFFFFFFFFFFFFFFFFFFFFFFFFFFFFFFFFF AND SWAP1 POP DUP2 PUSH1 0x0 DUP1 PUSH2 0x100 EXP DUP2 SLOAD DUP2 PUSH20 0xFFFFFFFFFFFFFFFFFFFFFFFFFFFFFFFFFFFFFFFF MUL NOT AND SWAP1 DUP4 PUSH20 0xFFFFFFFFFFFFFFFFFFFFFFFFFFFFFFFFFFFFFFFF AND MUL OR SWAP1 SSTORE POP DUP2 PUSH20 0xFFFFFFFFFFFFFFFFFFFFFFFFFFFFFFFFFFFFFFFF AND DUP2 PUSH20 0xFFFFFFFFFFFFFFFFFFFFFFFFFFFFFFFFFFFFFFFF AND PUSH32 0x8BE0079C531659141344CD1FD0A4F28419497F9722A3DAAFE3B4186F6B6457E0 PUSH1 0x40 MLOAD PUSH1 0x40 MLOAD DUP1 SWAP2 SUB SWAP1 LOG3 POP POP JUMP JUMPDEST PUSH2 0x16FB DUP5 PUSH4 0x23B872DD PUSH1 0xE0 SHL DUP6 DUP6 DUP6 PUSH1 0x40 MLOAD PUSH1 0x24 ADD PUSH2 0x1699 SWAP4 SWAP3 SWAP2 SWAP1 PUSH2 0x28BD JUMP JUMPDEST PUSH1 0x40 MLOAD PUSH1 0x20 DUP2 DUP4 SUB SUB DUP2 MSTORE SWAP1 PUSH1 0x40 MSTORE SWAP1 PUSH28 0xFFFFFFFFFFFFFFFFFFFFFFFFFFFFFFFFFFFFFFFFFFFFFFFFFFFFFFFF NOT AND PUSH1 0x20 DUP3 ADD DUP1 MLOAD PUSH28 0xFFFFFFFFFFFFFFFFFFFFFFFFFFFFFFFFFFFFFFFFFFFFFFFFFFFFFFFF DUP4 DUP2 DUP4 AND OR DUP4 MSTORE POP POP POP POP PUSH2 0x1701 JUMP JUMPDEST POP POP POP POP JUMP JUMPDEST PUSH1 0x0 PUSH2 0x1763 DUP3 PUSH1 0x40 MLOAD DUP1 PUSH1 0x40 ADD PUSH1 0x40 MSTORE DUP1 PUSH1 0x20 DUP2 MSTORE PUSH1 0x20 ADD PUSH32 0x5361666545524332303A206C6F772D6C6576656C2063616C6C206661696C6564 DUP2 MSTORE POP DUP6 PUSH20 0xFFFFFFFFFFFFFFFFFFFFFFFFFFFFFFFFFFFFFFFF AND PUSH2 0x17D1 SWAP1 SWAP3 SWAP2 SWAP1 PUSH4 0xFFFFFFFF AND JUMP JUMPDEST SWAP1 POP PUSH1 0x0 DUP2 MLOAD EQ DUP1 PUSH2 0x1785 JUMPI POP DUP1 DUP1 PUSH1 0x20 ADD SWAP1 MLOAD DUP2 ADD SWAP1 PUSH2 0x1784 SWAP2 SWAP1 PUSH2 0x2552 JUMP JUMPDEST JUMPDEST PUSH2 0x17C4 JUMPI PUSH1 0x40 MLOAD PUSH32 0x8C379A000000000000000000000000000000000000000000000000000000000 DUP2 MSTORE PUSH1 0x4 ADD PUSH2 0x17BB SWAP1 PUSH2 0x2966 JUMP JUMPDEST PUSH1 0x40 MLOAD DUP1 SWAP2 SUB SWAP1 REVERT JUMPDEST POP POP POP JUMP JUMPDEST PUSH1 0x0 CALLER SWAP1 POP SWAP1 JUMP JUMPDEST PUSH1 0x60 PUSH2 0x17E0 DUP5 DUP5 PUSH1 0x0 DUP6 PUSH2 0x17E9 JUMP JUMPDEST SWAP1 POP SWAP4 SWAP3 POP POP POP JUMP JUMPDEST PUSH1 0x60 DUP3 SELFBALANCE LT ISZERO PUSH2 0x182E JUMPI PUSH1 0x40 MLOAD PUSH32 0x8C379A000000000000000000000000000000000000000000000000000000000 DUP2 MSTORE PUSH1 0x4 ADD PUSH2 0x1825 SWAP1 PUSH2 0x29F8 JUMP JUMPDEST PUSH1 0x40 MLOAD DUP1 SWAP2 SUB SWAP1 REVERT JUMPDEST PUSH1 0x0 DUP1 DUP7 PUSH20 0xFFFFFFFFFFFFFFFFFFFFFFFFFFFFFFFFFFFFFFFF AND DUP6 DUP8 PUSH1 0x40 MLOAD PUSH2 0x1857 SWAP2 SWAP1 PUSH2 0x2A5F JUMP JUMPDEST PUSH1 0x0 PUSH1 0x40 MLOAD DUP1 DUP4 SUB DUP2 DUP6 DUP8 GAS CALL SWAP3 POP POP POP RETURNDATASIZE DUP1 PUSH1 0x0 DUP2 EQ PUSH2 0x1894 JUMPI PUSH1 0x40 MLOAD SWAP2 POP PUSH1 0x1F NOT PUSH1 0x3F RETURNDATASIZE ADD AND DUP3 ADD PUSH1 0x40 MSTORE RETURNDATASIZE DUP3 MSTORE RETURNDATASIZE PUSH1 0x0 PUSH1 0x20 DUP5 ADD RETURNDATACOPY PUSH2 0x1899 JUMP JUMPDEST PUSH1 0x60 SWAP2 POP JUMPDEST POP SWAP2 POP SWAP2 POP PUSH2 0x18AA DUP8 DUP4 DUP4 DUP8 PUSH2 0x18B6 JUMP JUMPDEST SWAP3 POP POP POP SWAP5 SWAP4 POP POP POP POP JUMP JUMPDEST PUSH1 0x60 DUP4 ISZERO PUSH2 0x1918 JUMPI PUSH1 0x0 DUP4 MLOAD SUB PUSH2 0x1910 JUMPI PUSH2 0x18D0 DUP6 PUSH2 0x192B JUMP JUMPDEST PUSH2 0x190F JUMPI PUSH1 0x40 MLOAD PUSH32 0x8C379A000000000000000000000000000000000000000000000000000000000 DUP2 MSTORE PUSH1 0x4 ADD PUSH2 0x1906 SWAP1 PUSH2 0x2AC2 JUMP JUMPDEST PUSH1 0x40 MLOAD DUP1 SWAP2 SUB SWAP1 REVERT JUMPDEST JUMPDEST DUP3 SWAP1 POP PUSH2 0x1923 JUMP JUMPDEST PUSH2 0x1922 DUP4 DUP4 PUSH2 0x194E JUMP JUMPDEST JUMPDEST SWAP5 SWAP4 POP POP POP POP JUMP JUMPDEST PUSH1 0x0 DUP1 DUP3 PUSH20 0xFFFFFFFFFFFFFFFFFFFFFFFFFFFFFFFFFFFFFFFF AND EXTCODESIZE GT SWAP1 POP SWAP2 SWAP1 POP JUMP JUMPDEST PUSH1 0x0 DUP3 MLOAD GT ISZERO PUSH2 0x1961 JUMPI DUP2 MLOAD DUP1 DUP4 PUSH1 0x20 ADD REVERT JUMPDEST DUP1 PUSH1 0x40 MLOAD PUSH32 0x8C379A000000000000000000000000000000000000000000000000000000000 DUP2 MSTORE PUSH1 0x4 ADD PUSH2 0x1995 SWAP2 SWAP1 PUSH2 0x2AE2 JUMP JUMPDEST PUSH1 0x40 MLOAD DUP1 SWAP2 SUB SWAP1 REVERT JUMPDEST PUSH1 0x0 PUSH1 0x40 MLOAD SWAP1 POP SWAP1 JUMP JUMPDEST PUSH1 0x0 DUP1 REVERT JUMPDEST PUSH1 0x0 DUP1 REVERT JUMPDEST PUSH1 0x0 PUSH20 0xFFFFFFFFFFFFFFFFFFFFFFFFFFFFFFFFFFFFFFFF DUP3 AND SWAP1 POP SWAP2 SWAP1 POP JUMP JUMPDEST PUSH1 0x0 PUSH2 0x19DD DUP3 PUSH2 0x19B2 JUMP JUMPDEST SWAP1 POP SWAP2 SWAP1 POP JUMP JUMPDEST PUSH2 0x19ED DUP2 PUSH2 0x19D2 JUMP JUMPDEST DUP2 EQ PUSH2 0x19F8 JUMPI PUSH1 0x0 DUP1 REVERT JUMPDEST POP JUMP JUMPDEST PUSH1 0x0 DUP2 CALLDATALOAD SWAP1 POP PUSH2 0x1A0A DUP2 PUSH2 0x19E4 JUMP JUMPDEST SWAP3 SWAP2 POP POP JUMP JUMPDEST PUSH1 0x0 PUSH1 0x20 DUP3 DUP5 SUB SLT ISZERO PUSH2 0x1A26 JUMPI PUSH2 0x1A25 PUSH2 0x19A8 JUMP JUMPDEST JUMPDEST PUSH1 0x0 PUSH2 0x1A34 DUP5 DUP3 DUP6 ADD PUSH2 0x19FB JUMP JUMPDEST SWAP2 POP POP SWAP3 SWAP2 POP POP JUMP JUMPDEST PUSH1 0x0 DUP2 SWAP1 POP SWAP2 SWAP1 POP JUMP JUMPDEST PUSH2 0x1A50 DUP2 PUSH2 0x1A3D JUMP JUMPDEST DUP3 MSTORE POP POP JUMP JUMPDEST PUSH1 0x0 PUSH1 0x20 DUP3 ADD SWAP1 POP PUSH2 0x1A6B PUSH1 0x0 DUP4 ADD DUP5 PUSH2 0x1A47 JUMP JUMPDEST SWAP3 SWAP2 POP POP JUMP JUMPDEST PUSH1 0x0 DUP2 ISZERO ISZERO SWAP1 POP SWAP2 SWAP1 POP JUMP JUMPDEST PUSH2 0x1A86 DUP2 PUSH2 0x1A71 JUMP JUMPDEST DUP3 MSTORE POP POP JUMP JUMPDEST PUSH1 0x0 PUSH1 0x20 DUP3 ADD SWAP1 POP PUSH2 0x1AA1 PUSH1 0x0 DUP4 ADD DUP5 PUSH2 0x1A7D JUMP JUMPDEST SWAP3 SWAP2 POP POP JUMP JUMPDEST PUSH1 0x0 DUP1 REVERT JUMPDEST PUSH1 0x0 PUSH1 0x1F NOT PUSH1 0x1F DUP4 ADD AND SWAP1 POP SWAP2 SWAP1 POP JUMP JUMPDEST PUSH32 0x4E487B7100000000000000000000000000000000000000000000000000000000 PUSH1 0x0 MSTORE PUSH1 0x41 PUSH1 0x4 MSTORE PUSH1 0x24 PUSH1 0x0 REVERT JUMPDEST PUSH2 0x1AF5 DUP3 PUSH2 0x1AAC JUMP JUMPDEST DUP2 ADD DUP2 DUP2 LT PUSH8 0xFFFFFFFFFFFFFFFF DUP3 GT OR ISZERO PUSH2 0x1B14 JUMPI PUSH2 0x1B13 PUSH2 0x1ABD JUMP JUMPDEST JUMPDEST DUP1 PUSH1 0x40 MSTORE POP POP POP JUMP JUMPDEST PUSH1 0x0 PUSH2 0x1B27 PUSH2 0x199E JUMP JUMPDEST SWAP1 POP PUSH2 0x1B33 DUP3 DUP3 PUSH2 0x1AEC JUMP JUMPDEST SWAP2 SWAP1 POP JUMP JUMPDEST PUSH1 0x0 PUSH8 0xFFFFFFFFFFFFFFFF DUP3 GT ISZERO PUSH2 0x1B53 JUMPI PUSH2 0x1B52 PUSH2 0x1ABD JUMP JUMPDEST JUMPDEST PUSH1 0x20 DUP3 MUL SWAP1 POP PUSH1 0x20 DUP2 ADD SWAP1 POP SWAP2 SWAP1 POP JUMP JUMPDEST PUSH1 0x0 DUP1 REVERT JUMPDEST PUSH1 0x0 DUP1 REVERT JUMPDEST PUSH1 0x0 PUSH8 0xFFFFFFFFFFFFFFFF DUP3 GT ISZERO PUSH2 0x1B89 JUMPI PUSH2 0x1B88 PUSH2 0x1ABD JUMP JUMPDEST JUMPDEST PUSH2 0x1B92 DUP3 PUSH2 0x1AAC JUMP JUMPDEST SWAP1 POP PUSH1 0x20 DUP2 ADD SWAP1 POP SWAP2 SWAP1 POP JUMP JUMPDEST DUP3 DUP2 DUP4 CALLDATACOPY PUSH1 0x0 DUP4 DUP4 ADD MSTORE POP POP POP JUMP JUMPDEST PUSH1 0x0 PUSH2 0x1BC1 PUSH2 0x1BBC DUP5 PUSH2 0x1B6E JUMP JUMPDEST PUSH2 0x1B1D JUMP JUMPDEST SWAP1 POP DUP3 DUP2 MSTORE PUSH1 0x20 DUP2 ADD DUP5 DUP5 DUP5 ADD GT ISZERO PUSH2 0x1BDD JUMPI PUSH2 0x1BDC PUSH2 0x1B69 JUMP JUMPDEST JUMPDEST PUSH2 0x1BE8 DUP5 DUP3 DUP6 PUSH2 0x1B9F JUMP JUMPDEST POP SWAP4 SWAP3 POP POP POP JUMP JUMPDEST PUSH1 0x0 DUP3 PUSH1 0x1F DUP4 ADD SLT PUSH2 0x1C05 JUMPI PUSH2 0x1C04 PUSH2 0x1AA7 JUMP JUMPDEST JUMPDEST DUP2 CALLDATALOAD PUSH2 0x1C15 DUP5 DUP3 PUSH1 0x20 DUP7 ADD PUSH2 0x1BAE JUMP JUMPDEST SWAP2 POP POP SWAP3 SWAP2 POP POP JUMP JUMPDEST PUSH1 0x0 PUSH2 0x1C31 PUSH2 0x1C2C DUP5 PUSH2 0x1B38 JUMP JUMPDEST PUSH2 0x1B1D JUMP JUMPDEST SWAP1 POP DUP1 DUP4 DUP3 MSTORE PUSH1 0x20 DUP3 ADD SWAP1 POP PUSH1 0x20 DUP5 MUL DUP4 ADD DUP6 DUP2 GT ISZERO PUSH2 0x1C54 JUMPI PUSH2 0x1C53 PUSH2 0x1B64 JUMP JUMPDEST JUMPDEST DUP4 JUMPDEST DUP2 DUP2 LT ISZERO PUSH2 0x1C9B JUMPI DUP1 CALLDATALOAD PUSH8 0xFFFFFFFFFFFFFFFF DUP2 GT ISZERO PUSH2 0x1C79 JUMPI PUSH2 0x1C78 PUSH2 0x1AA7 JUMP JUMPDEST JUMPDEST DUP1 DUP7 ADD PUSH2 0x1C86 DUP10 DUP3 PUSH2 0x1BF0 JUMP JUMPDEST DUP6 MSTORE PUSH1 0x20 DUP6 ADD SWAP5 POP POP POP PUSH1 0x20 DUP2 ADD SWAP1 POP PUSH2 0x1C56 JUMP JUMPDEST POP POP POP SWAP4 SWAP3 POP POP POP JUMP JUMPDEST PUSH1 0x0 DUP3 PUSH1 0x1F DUP4 ADD SLT PUSH2 0x1CBA JUMPI PUSH2 0x1CB9 PUSH2 0x1AA7 JUMP JUMPDEST JUMPDEST DUP2 CALLDATALOAD PUSH2 0x1CCA DUP5 DUP3 PUSH1 0x20 DUP7 ADD PUSH2 0x1C1E JUMP JUMPDEST SWAP2 POP POP SWAP3 SWAP2 POP POP JUMP JUMPDEST PUSH1 0x0 PUSH8 0xFFFFFFFFFFFFFFFF DUP3 GT ISZERO PUSH2 0x1CEE JUMPI PUSH2 0x1CED PUSH2 0x1ABD JUMP JUMPDEST JUMPDEST PUSH1 0x20 DUP3 MUL SWAP1 POP PUSH1 0x20 DUP2 ADD SWAP1 POP SWAP2 SWAP1 POP JUMP JUMPDEST PUSH2 0x1D08 DUP2 PUSH2 0x1A3D JUMP JUMPDEST DUP2 EQ PUSH2 0x1D13 JUMPI PUSH1 0x0 DUP1 REVERT JUMPDEST POP JUMP JUMPDEST PUSH1 0x0 DUP2 CALLDATALOAD SWAP1 POP PUSH2 0x1D25 DUP2 PUSH2 0x1CFF JUMP JUMPDEST SWAP3 SWAP2 POP POP JUMP JUMPDEST PUSH1 0x0 PUSH2 0x1D3E PUSH2 0x1D39 DUP5 PUSH2 0x1CD3 JUMP JUMPDEST PUSH2 0x1B1D JUMP JUMPDEST SWAP1 POP DUP1 DUP4 DUP3 MSTORE PUSH1 0x20 DUP3 ADD SWAP1 POP PUSH1 0x20 DUP5 MUL DUP4 ADD DUP6 DUP2 GT ISZERO PUSH2 0x1D61 JUMPI PUSH2 0x1D60 PUSH2 0x1B64 JUMP JUMPDEST JUMPDEST DUP4 JUMPDEST DUP2 DUP2 LT ISZERO PUSH2 0x1D8A JUMPI DUP1 PUSH2 0x1D76 DUP9 DUP3 PUSH2 0x1D16 JUMP JUMPDEST DUP5 MSTORE PUSH1 0x20 DUP5 ADD SWAP4 POP POP PUSH1 0x20 DUP2 ADD SWAP1 POP PUSH2 0x1D63 JUMP JUMPDEST POP POP POP SWAP4 SWAP3 POP POP POP JUMP JUMPDEST PUSH1 0x0 DUP3 PUSH1 0x1F DUP4 ADD SLT PUSH2 0x1DA9 JUMPI PUSH2 0x1DA8 PUSH2 0x1AA7 JUMP JUMPDEST JUMPDEST DUP2 CALLDATALOAD PUSH2 0x1DB9 DUP5 DUP3 PUSH1 0x20 DUP7 ADD PUSH2 0x1D2B JUMP JUMPDEST SWAP2 POP POP SWAP3 SWAP2 POP POP JUMP JUMPDEST PUSH1 0x0 DUP1 PUSH1 0x0 PUSH1 0x60 DUP5 DUP7 SUB SLT ISZERO PUSH2 0x1DDB JUMPI PUSH2 0x1DDA PUSH2 0x19A8 JUMP JUMPDEST JUMPDEST PUSH1 0x0 DUP5 ADD CALLDATALOAD PUSH8 0xFFFFFFFFFFFFFFFF DUP2 GT ISZERO PUSH2 0x1DF9 JUMPI PUSH2 0x1DF8 PUSH2 0x19AD JUMP JUMPDEST JUMPDEST PUSH2 0x1E05 DUP7 DUP3 DUP8 ADD PUSH2 0x1CA5 JUMP JUMPDEST SWAP4 POP POP PUSH1 0x20 DUP5 ADD CALLDATALOAD PUSH8 0xFFFFFFFFFFFFFFFF DUP2 GT ISZERO PUSH2 0x1E26 JUMPI PUSH2 0x1E25 PUSH2 0x19AD JUMP JUMPDEST JUMPDEST PUSH2 0x1E32 DUP7 DUP3 DUP8 ADD PUSH2 0x1CA5 JUMP JUMPDEST SWAP3 POP POP PUSH1 0x40 DUP5 ADD CALLDATALOAD PUSH8 0xFFFFFFFFFFFFFFFF DUP2 GT ISZERO PUSH2 0x1E53 JUMPI PUSH2 0x1E52 PUSH2 0x19AD JUMP JUMPDEST JUMPDEST PUSH2 0x1E5F DUP7 DUP3 DUP8 ADD PUSH2 0x1D94 JUMP JUMPDEST SWAP2 POP POP SWAP3 POP SWAP3 POP SWAP3 JUMP JUMPDEST PUSH1 0x0 DUP2 SWAP1 POP SWAP2 SWAP1 POP JUMP JUMPDEST PUSH1 0x0 PUSH2 0x1E8E PUSH2 0x1E89 PUSH2 0x1E84 DUP5 PUSH2 0x19B2 JUMP JUMPDEST PUSH2 0x1E69 JUMP JUMPDEST PUSH2 0x19B2 JUMP JUMPDEST SWAP1 POP SWAP2 SWAP1 POP JUMP JUMPDEST PUSH1 0x0 PUSH2 0x1EA0 DUP3 PUSH2 0x1E73 JUMP JUMPDEST SWAP1 POP SWAP2 SWAP1 POP JUMP JUMPDEST PUSH1 0x0 PUSH2 0x1EB2 DUP3 PUSH2 0x1E95 JUMP JUMPDEST SWAP1 POP SWAP2 SWAP1 POP JUMP JUMPDEST PUSH2 0x1EC2 DUP2 PUSH2 0x1EA7 JUMP JUMPDEST DUP3 MSTORE POP POP JUMP JUMPDEST PUSH1 0x0 PUSH1 0x20 DUP3 ADD SWAP1 POP PUSH2 0x1EDD PUSH1 0x0 DUP4 ADD DUP5 PUSH2 0x1EB9 JUMP JUMPDEST SWAP3 SWAP2 POP POP JUMP JUMPDEST PUSH1 0x0 DUP1 PUSH1 0x0 PUSH1 0x60 DUP5 DUP7 SUB SLT ISZERO PUSH2 0x1EFC JUMPI PUSH2 0x1EFB PUSH2 0x19A8 JUMP JUMPDEST JUMPDEST PUSH1 0x0 DUP5 ADD CALLDATALOAD PUSH8 0xFFFFFFFFFFFFFFFF DUP2 GT ISZERO PUSH2 0x1F1A JUMPI PUSH2 0x1F19 PUSH2 0x19AD JUMP JUMPDEST JUMPDEST PUSH2 0x1F26 DUP7 DUP3 DUP8 ADD PUSH2 0x1BF0 JUMP JUMPDEST SWAP4 POP POP PUSH1 0x20 DUP5 ADD CALLDATALOAD PUSH8 0xFFFFFFFFFFFFFFFF DUP2 GT ISZERO PUSH2 0x1F47 JUMPI PUSH2 0x1F46 PUSH2 0x19AD JUMP JUMPDEST JUMPDEST PUSH2 0x1F53 DUP7 DUP3 DUP8 ADD PUSH2 0x1BF0 JUMP JUMPDEST SWAP3 POP POP PUSH1 0x40 PUSH2 0x1F64 DUP7 DUP3 DUP8 ADD PUSH2 0x1D16 JUMP JUMPDEST SWAP2 POP POP SWAP3 POP SWAP3 POP SWAP3 JUMP JUMPDEST PUSH1 0x0 DUP2 PUSH1 0x7 SIGNEXTEND SWAP1 POP SWAP2 SWAP1 POP JUMP JUMPDEST PUSH2 0x1F84 DUP2 PUSH2 0x1F6E JUMP JUMPDEST DUP3 MSTORE POP POP JUMP JUMPDEST PUSH1 0x0 PUSH1 0x20 DUP3 ADD SWAP1 POP PUSH2 0x1F9F PUSH1 0x0 DUP4 ADD DUP5 PUSH2 0x1F7B JUMP JUMPDEST SWAP3 SWAP2 POP POP JUMP JUMPDEST PUSH1 0x0 DUP1 PUSH1 0x40 DUP4 DUP6 SUB SLT ISZERO PUSH2 0x1FBC JUMPI PUSH2 0x1FBB PUSH2 0x19A8 JUMP JUMPDEST JUMPDEST PUSH1 0x0 PUSH2 0x1FCA DUP6 DUP3 DUP7 ADD PUSH2 0x19FB JUMP JUMPDEST SWAP3 POP POP PUSH1 0x20 PUSH2 0x1FDB DUP6 DUP3 DUP7 ADD PUSH2 0x1D16 JUMP JUMPDEST SWAP2 POP POP SWAP3 POP SWAP3 SWAP1 POP JUMP JUMPDEST PUSH2 0x1FEE DUP2 PUSH2 0x19D2 JUMP JUMPDEST DUP3 MSTORE POP POP JUMP JUMPDEST PUSH1 0x0 PUSH1 0x20 DUP3 ADD SWAP1 POP PUSH2 0x2009 PUSH1 0x0 DUP4 ADD DUP5 PUSH2 0x1FE5 JUMP JUMPDEST SWAP3 SWAP2 POP POP JUMP JUMPDEST PUSH1 0x0 PUSH1 0x20 DUP3 DUP5 SUB SLT ISZERO PUSH2 0x2025 JUMPI PUSH2 0x2024 PUSH2 0x19A8 JUMP JUMPDEST JUMPDEST PUSH1 0x0 PUSH2 0x2033 DUP5 DUP3 DUP6 ADD PUSH2 0x1D16 JUMP JUMPDEST SWAP2 POP POP SWAP3 SWAP2 POP POP JUMP JUMPDEST PUSH32 0x4E487B7100000000000000000000000000000000000000000000000000000000 PUSH1 0x0 MSTORE PUSH1 0x11 PUSH1 0x4 MSTORE PUSH1 0x24 PUSH1 0x0 REVERT JUMPDEST PUSH1 0x0 PUSH2 0x2076 DUP3 PUSH2 0x1A3D JUMP JUMPDEST SWAP2 POP PUSH2 0x2081 DUP4 PUSH2 0x1A3D JUMP JUMPDEST SWAP3 POP DUP3 DUP3 MUL PUSH2 0x208F DUP2 PUSH2 0x1A3D JUMP JUMPDEST SWAP2 POP DUP3 DUP3 DIV DUP5 EQ DUP4 ISZERO OR PUSH2 0x20A6 JUMPI PUSH2 0x20A5 PUSH2 0x203C JUMP JUMPDEST JUMPDEST POP SWAP3 SWAP2 POP POP JUMP JUMPDEST PUSH1 0x0 DUP3 DUP3 MSTORE PUSH1 0x20 DUP3 ADD SWAP1 POP SWAP3 SWAP2 POP POP JUMP JUMPDEST PUSH32 0x496E70757420617272617973206C656E677468206D69736D6174636800000000 PUSH1 0x0 DUP3 ADD MSTORE POP JUMP JUMPDEST PUSH1 0x0 PUSH2 0x20F4 PUSH1 0x1C DUP4 PUSH2 0x20AD JUMP JUMPDEST SWAP2 POP PUSH2 0x20FF DUP3 PUSH2 0x20BE JUMP JUMPDEST PUSH1 0x20 DUP3 ADD SWAP1 POP SWAP2 SWAP1 POP JUMP JUMPDEST PUSH1 0x0 PUSH1 0x20 DUP3 ADD SWAP1 POP DUP2 DUP2 SUB PUSH1 0x0 DUP4 ADD MSTORE PUSH2 0x2123 DUP2 PUSH2 0x20E7 JUMP JUMPDEST SWAP1 POP SWAP2 SWAP1 POP JUMP JUMPDEST PUSH32 0x4E487B7100000000000000000000000000000000000000000000000000000000 PUSH1 0x0 MSTORE PUSH1 0x32 PUSH1 0x4 MSTORE PUSH1 0x24 PUSH1 0x0 REVERT JUMPDEST PUSH1 0x0 PUSH2 0x2164 DUP3 PUSH2 0x1A3D JUMP JUMPDEST SWAP2 POP PUSH32 0xFFFFFFFFFFFFFFFFFFFFFFFFFFFFFFFFFFFFFFFFFFFFFFFFFFFFFFFFFFFFFFFF DUP3 SUB PUSH2 0x2196 JUMPI PUSH2 0x2195 PUSH2 0x203C JUMP JUMPDEST JUMPDEST PUSH1 0x1 DUP3 ADD SWAP1 POP SWAP2 SWAP1 POP JUMP JUMPDEST PUSH1 0x0 DUP2 MLOAD SWAP1 POP SWAP2 SWAP1 POP JUMP JUMPDEST PUSH1 0x0 JUMPDEST DUP4 DUP2 LT ISZERO PUSH2 0x21CA JUMPI DUP1 DUP3 ADD MLOAD DUP2 DUP5 ADD MSTORE PUSH1 0x20 DUP2 ADD SWAP1 POP PUSH2 0x21AF JUMP JUMPDEST PUSH1 0x0 DUP5 DUP5 ADD MSTORE POP POP POP POP JUMP JUMPDEST PUSH1 0x0 PUSH2 0x21E1 DUP3 PUSH2 0x21A1 JUMP JUMPDEST PUSH2 0x21EB DUP2 DUP6 PUSH2 0x20AD JUMP JUMPDEST SWAP4 POP PUSH2 0x21FB DUP2 DUP6 PUSH1 0x20 DUP7 ADD PUSH2 0x21AC JUMP JUMPDEST PUSH2 0x2204 DUP2 PUSH2 0x1AAC JUMP JUMPDEST DUP5 ADD SWAP2 POP POP SWAP3 SWAP2 POP POP JUMP JUMPDEST PUSH1 0x0 PUSH1 0x80 DUP3 ADD SWAP1 POP PUSH2 0x2224 PUSH1 0x0 DUP4 ADD DUP8 PUSH2 0x1FE5 JUMP JUMPDEST DUP2 DUP2 SUB PUSH1 0x20 DUP4 ADD MSTORE PUSH2 0x2236 DUP2 DUP7 PUSH2 0x21D6 JUMP JUMPDEST SWAP1 POP DUP2 DUP2 SUB PUSH1 0x40 DUP4 ADD MSTORE PUSH2 0x224A DUP2 DUP6 PUSH2 0x21D6 JUMP JUMPDEST SWAP1 POP PUSH2 0x2259 PUSH1 0x60 DUP4 ADD DUP5 PUSH2 0x1A47 JUMP JUMPDEST SWAP6 SWAP5 POP POP POP POP POP JUMP JUMPDEST PUSH2 0x226B DUP2 PUSH2 0x1F6E JUMP JUMPDEST DUP2 EQ PUSH2 0x2276 JUMPI PUSH1 0x0 DUP1 REVERT JUMPDEST POP JUMP JUMPDEST PUSH1 0x0 DUP2 MLOAD SWAP1 POP PUSH2 0x2288 DUP2 PUSH2 0x2262 JUMP JUMPDEST SWAP3 SWAP2 POP POP JUMP JUMPDEST PUSH1 0x0 PUSH1 0x20 DUP3 DUP5 SUB SLT ISZERO PUSH2 0x22A4 JUMPI PUSH2 0x22A3 PUSH2 0x19A8 JUMP JUMPDEST JUMPDEST PUSH1 0x0 PUSH2 0x22B2 DUP5 DUP3 DUP6 ADD PUSH2 0x2279 JUMP JUMPDEST SWAP2 POP POP SWAP3 SWAP2 POP POP JUMP JUMPDEST PUSH1 0x0 PUSH2 0x22C6 DUP3 PUSH2 0x1A3D JUMP JUMPDEST SWAP2 POP PUSH2 0x22D1 DUP4 PUSH2 0x1A3D JUMP JUMPDEST SWAP3 POP DUP3 DUP3 ADD SWAP1 POP DUP1 DUP3 GT ISZERO PUSH2 0x22E9 JUMPI PUSH2 0x22E8 PUSH2 0x203C JUMP JUMPDEST JUMPDEST SWAP3 SWAP2 POP POP JUMP JUMPDEST PUSH1 0x0 PUSH1 0x40 DUP3 ADD SWAP1 POP PUSH2 0x2304 PUSH1 0x0 DUP4 ADD DUP6 PUSH2 0x1FE5 JUMP JUMPDEST PUSH2 0x2311 PUSH1 0x20 DUP4 ADD DUP5 PUSH2 0x1A47 JUMP JUMPDEST SWAP4 SWAP3 POP POP POP JUMP JUMPDEST PUSH1 0x0 DUP2 SLOAD SWAP1 POP SWAP2 SWAP1 POP JUMP JUMPDEST PUSH1 0x0 DUP3 DUP3 MSTORE PUSH1 0x20 DUP3 ADD SWAP1 POP SWAP3 SWAP2 POP POP JUMP JUMPDEST PUSH1 0x0 DUP2 SWAP1 POP DUP2 PUSH1 0x0 MSTORE PUSH1 0x20 PUSH1 0x0 KECCAK256 SWAP1 POP SWAP2 SWAP1 POP JUMP JUMPDEST PUSH32 0x4E487B7100000000000000000000000000000000000000000000000000000000 PUSH1 0x0 MSTORE PUSH1 0x22 PUSH1 0x4 MSTORE PUSH1 0x24 PUSH1 0x0 REVERT JUMPDEST PUSH1 0x0 PUSH1 0x2 DUP3 DIV SWAP1 POP PUSH1 0x1 DUP3 AND DUP1 PUSH2 0x2390 JUMPI PUSH1 0x7F DUP3 AND SWAP2 POP JUMPDEST PUSH1 0x20 DUP3 LT DUP2 SUB PUSH2 0x23A3 JUMPI PUSH2 0x23A2 PUSH2 0x2349 JUMP JUMPDEST JUMPDEST POP SWAP2 SWAP1 POP JUMP JUMPDEST PUSH1 0x0 DUP3 DUP3 MSTORE PUSH1 0x20 DUP3 ADD SWAP1 POP SWAP3 SWAP2 POP POP JUMP JUMPDEST PUSH1 0x0 DUP2 SWAP1 POP DUP2 PUSH1 0x0 MSTORE PUSH1 0x20 PUSH1 0x0 KECCAK256 SWAP1 POP SWAP2 SWAP1 POP JUMP JUMPDEST PUSH1 0x0 DUP2 SLOAD PUSH2 0x23DC DUP2 PUSH2 0x2378 JUMP JUMPDEST PUSH2 0x23E6 DUP2 DUP7 PUSH2 0x23A9 JUMP JUMPDEST SWAP5 POP PUSH1 0x1 DUP3 AND PUSH1 0x0 DUP2 EQ PUSH2 0x2401 JUMPI PUSH1 0x1 DUP2 EQ PUSH2 0x2417 JUMPI PUSH2 0x244A JUMP JUMPDEST PUSH1 0xFF NOT DUP4 AND DUP7 MSTORE DUP2 ISZERO ISZERO PUSH1 0x20 MUL DUP7 ADD SWAP4 POP PUSH2 0x244A JUMP JUMPDEST PUSH2 0x2420 DUP6 PUSH2 0x23BA JUMP JUMPDEST PUSH1 0x0 JUMPDEST DUP4 DUP2 LT ISZERO PUSH2 0x2442 JUMPI DUP2 SLOAD DUP2 DUP10 ADD MSTORE PUSH1 0x1 DUP3 ADD SWAP2 POP PUSH1 0x20 DUP2 ADD SWAP1 POP PUSH2 0x2423 JUMP JUMPDEST DUP1 DUP9 ADD SWAP6 POP POP POP JUMPDEST POP POP POP SWAP3 SWAP2 POP POP JUMP JUMPDEST PUSH1 0x0 PUSH2 0x245F DUP4 DUP4 PUSH2 0x23CF JUMP JUMPDEST SWAP1 POP SWAP3 SWAP2 POP POP JUMP JUMPDEST PUSH1 0x0 PUSH1 0x1 DUP3 ADD SWAP1 POP SWAP2 SWAP1 POP JUMP JUMPDEST PUSH1 0x0 PUSH2 0x247F DUP3 PUSH2 0x2318 JUMP JUMPDEST PUSH2 0x2489 DUP2 DUP6 PUSH2 0x2323 JUMP JUMPDEST SWAP4 POP DUP4 PUSH1 0x20 DUP3 MUL DUP6 ADD PUSH2 0x249B DUP6 PUSH2 0x2334 JUMP JUMPDEST DUP1 PUSH1 0x0 JUMPDEST DUP6 DUP2 LT ISZERO PUSH2 0x24D6 JUMPI DUP5 DUP5 SUB DUP10 MSTORE DUP2 PUSH2 0x24B7 DUP6 DUP3 PUSH2 0x2453 JUMP JUMPDEST SWAP5 POP PUSH2 0x24C2 DUP4 PUSH2 0x2467 JUMP JUMPDEST SWAP3 POP PUSH1 0x20 DUP11 ADD SWAP10 POP POP PUSH1 0x1 DUP2 ADD SWAP1 POP PUSH2 0x249F JUMP JUMPDEST POP DUP3 SWAP8 POP DUP8 SWAP6 POP POP POP POP POP POP SWAP3 SWAP2 POP POP JUMP JUMPDEST PUSH1 0x0 PUSH1 0x60 DUP3 ADD SWAP1 POP PUSH2 0x24FD PUSH1 0x0 DUP4 ADD DUP7 PUSH2 0x1FE5 JUMP JUMPDEST PUSH2 0x250A PUSH1 0x20 DUP4 ADD DUP6 PUSH2 0x1A47 JUMP JUMPDEST DUP2 DUP2 SUB PUSH1 0x40 DUP4 ADD MSTORE PUSH2 0x251C DUP2 DUP5 PUSH2 0x2474 JUMP JUMPDEST SWAP1 POP SWAP5 SWAP4 POP POP POP POP JUMP JUMPDEST PUSH2 0x252F DUP2 PUSH2 0x1A71 JUMP JUMPDEST DUP2 EQ PUSH2 0x253A JUMPI PUSH1 0x0 DUP1 REVERT JUMPDEST POP JUMP JUMPDEST PUSH1 0x0 DUP2 MLOAD SWAP1 POP PUSH2 0x254C DUP2 PUSH2 0x2526 JUMP JUMPDEST SWAP3 SWAP2 POP POP JUMP JUMPDEST PUSH1 0x0 PUSH1 0x20 DUP3 DUP5 SUB SLT ISZERO PUSH2 0x2568 JUMPI PUSH2 0x2567 PUSH2 0x19A8 JUMP JUMPDEST JUMPDEST PUSH1 0x0 PUSH2 0x2576 DUP5 DUP3 DUP6 ADD PUSH2 0x253D JUMP JUMPDEST SWAP2 POP POP SWAP3 SWAP2 POP POP JUMP JUMPDEST PUSH32 0x4661696C656420746F20617070726F76652064656C6567617465206D6574686F PUSH1 0x0 DUP3 ADD MSTORE PUSH32 0x6400000000000000000000000000000000000000000000000000000000000000 PUSH1 0x20 DUP3 ADD MSTORE POP JUMP JUMPDEST PUSH1 0x0 PUSH2 0x25DB PUSH1 0x21 DUP4 PUSH2 0x20AD JUMP JUMPDEST SWAP2 POP PUSH2 0x25E6 DUP3 PUSH2 0x257F JUMP JUMPDEST PUSH1 0x40 DUP3 ADD SWAP1 POP SWAP2 SWAP1 POP JUMP JUMPDEST PUSH1 0x0 PUSH1 0x20 DUP3 ADD SWAP1 POP DUP2 DUP2 SUB PUSH1 0x0 DUP4 ADD MSTORE PUSH2 0x260A DUP2 PUSH2 0x25CE JUMP JUMPDEST SWAP1 POP SWAP2 SWAP1 POP JUMP JUMPDEST PUSH32 0x4E487B7100000000000000000000000000000000000000000000000000000000 PUSH1 0x0 MSTORE PUSH1 0x12 PUSH1 0x4 MSTORE PUSH1 0x24 PUSH1 0x0 REVERT JUMPDEST PUSH1 0x0 PUSH2 0x264B DUP3 PUSH2 0x1A3D JUMP JUMPDEST SWAP2 POP PUSH2 0x2656 DUP4 PUSH2 0x1A3D JUMP JUMPDEST SWAP3 POP DUP3 PUSH2 0x2666 JUMPI PUSH2 0x2665 PUSH2 0x2611 JUMP JUMPDEST JUMPDEST DUP3 DUP3 DIV SWAP1 POP SWAP3 SWAP2 POP POP JUMP JUMPDEST PUSH1 0x0 PUSH2 0x267C DUP3 PUSH2 0x1A3D JUMP JUMPDEST SWAP2 POP PUSH2 0x2687 DUP4 PUSH2 0x1A3D JUMP JUMPDEST SWAP3 POP DUP3 DUP3 SUB SWAP1 POP DUP2 DUP2 GT ISZERO PUSH2 0x269F JUMPI PUSH2 0x269E PUSH2 0x203C JUMP JUMPDEST JUMPDEST SWAP3 SWAP2 POP POP JUMP JUMPDEST PUSH1 0x0 DUP2 MLOAD SWAP1 POP PUSH2 0x26B4 DUP2 PUSH2 0x1CFF JUMP JUMPDEST SWAP3 SWAP2 POP POP JUMP JUMPDEST PUSH1 0x0 PUSH1 0x20 DUP3 DUP5 SUB SLT ISZERO PUSH2 0x26D0 JUMPI PUSH2 0x26CF PUSH2 0x19A8 JUMP JUMPDEST JUMPDEST PUSH1 0x0 PUSH2 0x26DE DUP5 DUP3 DUP6 ADD PUSH2 0x26A5 JUMP JUMPDEST SWAP2 POP POP SWAP3 SWAP2 POP POP JUMP JUMPDEST PUSH32 0x4F776E61626C653A206E6577206F776E657220697320746865207A65726F2061 PUSH1 0x0 DUP3 ADD MSTORE PUSH32 0x6464726573730000000000000000000000000000000000000000000000000000 PUSH1 0x20 DUP3 ADD MSTORE POP JUMP JUMPDEST PUSH1 0x0 PUSH2 0x2743 PUSH1 0x26 DUP4 PUSH2 0x20AD JUMP JUMPDEST SWAP2 POP PUSH2 0x274E DUP3 PUSH2 0x26E7 JUMP JUMPDEST PUSH1 0x40 DUP3 ADD SWAP1 POP SWAP2 SWAP1 POP JUMP JUMPDEST PUSH1 0x0 PUSH1 0x20 DUP3 ADD SWAP1 POP DUP2 DUP2 SUB PUSH1 0x0 DUP4 ADD MSTORE PUSH2 0x2772 DUP2 PUSH2 0x2736 JUMP JUMPDEST SWAP1 POP SWAP2 SWAP1 POP JUMP JUMPDEST PUSH32 0x5265656E7472616E637947756172643A207265656E7472616E742063616C6C00 PUSH1 0x0 DUP3 ADD MSTORE POP JUMP JUMPDEST PUSH1 0x0 PUSH2 0x27AF PUSH1 0x1F DUP4 PUSH2 0x20AD JUMP JUMPDEST SWAP2 POP PUSH2 0x27BA DUP3 PUSH2 0x2779 JUMP JUMPDEST PUSH1 0x20 DUP3 ADD SWAP1 POP SWAP2 SWAP1 POP JUMP JUMPDEST PUSH1 0x0 PUSH1 0x20 DUP3 ADD SWAP1 POP DUP2 DUP2 SUB PUSH1 0x0 DUP4 ADD MSTORE PUSH2 0x27DE DUP2 PUSH2 0x27A2 JUMP JUMPDEST SWAP1 POP SWAP2 SWAP1 POP JUMP JUMPDEST PUSH32 0x5061757361626C653A2070617573656400000000000000000000000000000000 PUSH1 0x0 DUP3 ADD MSTORE POP JUMP JUMPDEST PUSH1 0x0 PUSH2 0x281B PUSH1 0x10 DUP4 PUSH2 0x20AD JUMP JUMPDEST SWAP2 POP PUSH2 0x2826 DUP3 PUSH2 0x27E5 JUMP JUMPDEST PUSH1 0x20 DUP3 ADD SWAP1 POP SWAP2 SWAP1 POP JUMP JUMPDEST PUSH1 0x0 PUSH1 0x20 DUP3 ADD SWAP1 POP DUP2 DUP2 SUB PUSH1 0x0 DUP4 ADD MSTORE PUSH2 0x284A DUP2 PUSH2 0x280E JUMP JUMPDEST SWAP1 POP SWAP2 SWAP1 POP JUMP JUMPDEST PUSH32 0x4F776E61626C653A2063616C6C6572206973206E6F7420746865206F776E6572 PUSH1 0x0 DUP3 ADD MSTORE POP JUMP JUMPDEST PUSH1 0x0 PUSH2 0x2887 PUSH1 0x20 DUP4 PUSH2 0x20AD JUMP JUMPDEST SWAP2 POP PUSH2 0x2892 DUP3 PUSH2 0x2851 JUMP JUMPDEST PUSH1 0x20 DUP3 ADD SWAP1 POP SWAP2 SWAP1 POP JUMP JUMPDEST PUSH1 0x0 PUSH1 0x20 DUP3 ADD SWAP1 POP DUP2 DUP2 SUB PUSH1 0x0 DUP4 ADD MSTORE PUSH2 0x28B6 DUP2 PUSH2 0x287A JUMP JUMPDEST SWAP1 POP SWAP2 SWAP1 POP JUMP JUMPDEST PUSH1 0x0 PUSH1 0x60 DUP3 ADD SWAP1 POP PUSH2 0x28D2 PUSH1 0x0 DUP4 ADD DUP7 PUSH2 0x1FE5 JUMP JUMPDEST PUSH2 0x28DF PUSH1 0x20 DUP4 ADD DUP6 PUSH2 0x1FE5 JUMP JUMPDEST PUSH2 0x28EC PUSH1 0x40 DUP4 ADD DUP5 PUSH2 0x1A47 JUMP JUMPDEST SWAP5 SWAP4 POP POP POP POP JUMP JUMPDEST PUSH32 0x5361666545524332303A204552433230206F7065726174696F6E20646964206E PUSH1 0x0 DUP3 ADD MSTORE PUSH32 0x6F74207375636365656400000000000000000000000000000000000000000000 PUSH1 0x20 DUP3 ADD MSTORE POP JUMP JUMPDEST PUSH1 0x0 PUSH2 0x2950 PUSH1 0x2A DUP4 PUSH2 0x20AD JUMP JUMPDEST SWAP2 POP PUSH2 0x295B DUP3 PUSH2 0x28F4 JUMP JUMPDEST PUSH1 0x40 DUP3 ADD SWAP1 POP SWAP2 SWAP1 POP JUMP JUMPDEST PUSH1 0x0 PUSH1 0x20 DUP3 ADD SWAP1 POP DUP2 DUP2 SUB PUSH1 0x0 DUP4 ADD MSTORE PUSH2 0x297F DUP2 PUSH2 0x2943 JUMP JUMPDEST SWAP1 POP SWAP2 SWAP1 POP JUMP JUMPDEST PUSH32 0x416464726573733A20696E73756666696369656E742062616C616E636520666F PUSH1 0x0 DUP3 ADD MSTORE PUSH32 0x722063616C6C0000000000000000000000000000000000000000000000000000 PUSH1 0x20 DUP3 ADD MSTORE POP JUMP JUMPDEST PUSH1 0x0 PUSH2 0x29E2 PUSH1 0x26 DUP4 PUSH2 0x20AD JUMP JUMPDEST SWAP2 POP PUSH2 0x29ED DUP3 PUSH2 0x2986 JUMP JUMPDEST PUSH1 0x40 DUP3 ADD SWAP1 POP SWAP2 SWAP1 POP JUMP JUMPDEST PUSH1 0x0 PUSH1 0x20 DUP3 ADD SWAP1 POP DUP2 DUP2 SUB PUSH1 0x0 DUP4 ADD MSTORE PUSH2 0x2A11 DUP2 PUSH2 0x29D5 JUMP JUMPDEST SWAP1 POP SWAP2 SWAP1 POP JUMP JUMPDEST PUSH1 0x0 DUP2 MLOAD SWAP1 POP SWAP2 SWAP1 POP JUMP JUMPDEST PUSH1 0x0 DUP2 SWAP1 POP SWAP3 SWAP2 POP POP JUMP JUMPDEST PUSH1 0x0 PUSH2 0x2A39 DUP3 PUSH2 0x2A18 JUMP JUMPDEST PUSH2 0x2A43 DUP2 DUP6 PUSH2 0x2A23 JUMP JUMPDEST SWAP4 POP PUSH2 0x2A53 DUP2 DUP6 PUSH1 0x20 DUP7 ADD PUSH2 0x21AC JUMP JUMPDEST DUP1 DUP5 ADD SWAP2 POP POP SWAP3 SWAP2 POP POP JUMP JUMPDEST PUSH1 0x0 PUSH2 0x2A6B DUP3 DUP5 PUSH2 0x2A2E JUMP JUMPDEST SWAP2 POP DUP2 SWAP1 POP SWAP3 SWAP2 POP POP JUMP JUMPDEST PUSH32 0x416464726573733A2063616C6C20746F206E6F6E2D636F6E7472616374000000 PUSH1 0x0 DUP3 ADD MSTORE POP JUMP JUMPDEST PUSH1 0x0 PUSH2 0x2AAC PUSH1 0x1D DUP4 PUSH2 0x20AD JUMP JUMPDEST SWAP2 POP PUSH2 0x2AB7 DUP3 PUSH2 0x2A76 JUMP JUMPDEST PUSH1 0x20 DUP3 ADD SWAP1 POP SWAP2 SWAP1 POP JUMP JUMPDEST PUSH1 0x0 PUSH1 0x20 DUP3 ADD SWAP1 POP DUP2 DUP2 SUB PUSH1 0x0 DUP4 ADD MSTORE PUSH2 0x2ADB DUP2 PUSH2 0x2A9F JUMP JUMPDEST SWAP1 POP SWAP2 SWAP1 POP JUMP JUMPDEST PUSH1 0x0 PUSH1 0x20 DUP3 ADD SWAP1 POP DUP2 DUP2 SUB PUSH1 0x0 DUP4 ADD MSTORE PUSH2 0x2AFC DUP2 DUP5 PUSH2 0x21D6 JUMP JUMPDEST SWAP1 POP SWAP3 SWAP2 POP POP JUMP INVALID LOG2 PUSH5 0x6970667358 0x22 SLT KECCAK256 0xDD OR 0x5E PUSH19 0x649FC590C32E72BA343166CECEC776C9B550F6 0xF8 MSTORE 0xB8 MSTORE 0xCD SELFDESTRUCT 0xB2 SWAP9 PUSH30 0x64736F6C634300081200332F636F736D6F732E7374616B696E672E763162 PUSH6 0x7461312E4D73 PUSH8 0x426567696E526564 PUSH6 0x6C6567617465 "
		},
		"gasEstimates": {
			"creation": {
				"codeDepositCost": "2213200",
				"executionCost": "infinite",
				"totalCost": "infinite"
			},
			"external": {
				"approveRequiredMethods()": "infinite",
				"balanceOf(address)": "2886",
				"claim()": "infinite",
				"earned(address)": "infinite",
				"fund(uint256)": "infinite",
				"getRewardForDuration()": "infinite",
				"isUserApproved(address)": "3017",
				"lastTimeRewardApplicable()": "4651",
				"lastUpdateTime()": "2540",
				"owner()": "2589",
				"paused()": "2597",
				"periodFinish()": "2517",
				"recoverERC20(address,uint256)": "infinite",
				"redelegateTokens(string,string,uint256)": "infinite",
				"redelegateTokensMultiple(string[],string[],uint256[])": "infinite",
				"renounceOwnership()": "30465",
				"rewardPerToken()": "infinite",
				"rewardPerTokenStored()": "2495",
				"rewardRate()": "2540",
				"rewards(address)": "2860",
				"rewardsDuration()": "2519",
				"rewardsToken()": "infinite",
				"setRewardsDuration(uint256)": "infinite",
				"stakingToken()": "infinite",
				"totalSupplyLocked()": "2483",
				"transferOwnership(address)": "30854",
				"userRewardPerTokenPaid(address)": "2859"
			},
			"internal": {
				"_earned(address)": "infinite",
				"_lastTimeRewardApplicable()": "4256",
				"_rewardPerToken()": "infinite"
			}
		},
		"methodIdentifiers": {
			"approveRequiredMethods()": "c6e79b91",
			"balanceOf(address)": "70a08231",
			"claim()": "4e71d92d",
			"earned(address)": "008cc262",
			"fund(uint256)": "ca1d209d",
			"getRewardForDuration()": "1c1f78eb",
			"isUserApproved(address)": "529d6ccf",
			"lastTimeRewardApplicable()": "80faa57d",
			"lastUpdateTime()": "c8f33c91",
			"owner()": "8da5cb5b",
			"paused()": "5c975abb",
			"periodFinish()": "ebe2b12b",
			"recoverERC20(address,uint256)": "8980f11f",
			"redelegateTokens(string,string,uint256)": "880b0e43",
			"redelegateTokensMultiple(string[],string[],uint256[])": "6c11fe9b",
			"renounceOwnership()": "715018a6",
			"rewardPerToken()": "cd3daf9d",
			"rewardPerTokenStored()": "df136d65",
			"rewardRate()": "7b0a47ee",
			"rewards(address)": "0700037d",
			"rewardsDuration()": "386a9525",
			"rewardsToken()": "d1af0c7d",
			"setRewardsDuration(uint256)": "cc1a378f",
			"stakingToken()": "72f702f3",
			"totalSupplyLocked()": "58341922",
			"transferOwnership(address)": "f2fde38b",
			"userRewardPerTokenPaid(address)": "8b876347"
		}
	},
	"abi": [
		{
			"inputs": [
				{
					"internalType": "address",
					"name": "rewardsToken_",
					"type": "address"
				},
				{
					"internalType": "uint256",
					"name": "duration",
					"type": "uint256"
				}
			],
			"stateMutability": "nonpayable",
			"type": "constructor"
		},
		{
			"inputs": [],
			"name": "FailedToWithdrawStaking",
			"type": "error"
		},
		{
			"inputs": [],
			"name": "TooHighReward",
			"type": "error"
		},
		{
			"inputs": [],
			"name": "WaitToFinish",
			"type": "error"
		},
		{
			"inputs": [],
			"name": "ZeroAmount",
			"type": "error"
		},
		{
			"anonymous": false,
			"inputs": [
				{
					"indexed": true,
					"internalType": "address",
					"name": "account",
					"type": "address"
				},
				{
					"indexed": false,
					"internalType": "uint256",
					"name": "amount",
					"type": "uint256"
				}
			],
			"name": "CancelRedelegate",
			"type": "event"
		},
		{
			"anonymous": false,
			"inputs": [
				{
					"indexed": true,
					"internalType": "address",
					"name": "account",
					"type": "address"
				},
				{
					"indexed": false,
					"internalType": "uint256",
					"name": "amount",
					"type": "uint256"
				}
			],
			"name": "Claimed",
			"type": "event"
		},
		{
			"anonymous": false,
			"inputs": [
				{
					"indexed": false,
					"internalType": "uint256",
					"name": "amount",
					"type": "uint256"
				}
			],
			"name": "Funded",
			"type": "event"
		},
		{
			"anonymous": false,
			"inputs": [
				{
					"indexed": true,
					"internalType": "address",
					"name": "previousOwner",
					"type": "address"
				},
				{
					"indexed": true,
					"internalType": "address",
					"name": "newOwner",
					"type": "address"
				}
			],
			"name": "OwnershipTransferred",
			"type": "event"
		},
		{
			"anonymous": false,
			"inputs": [
				{
					"indexed": false,
					"internalType": "address",
					"name": "account",
					"type": "address"
				}
			],
			"name": "Paused",
			"type": "event"
		},
		{
			"anonymous": false,
			"inputs": [
				{
					"indexed": false,
					"internalType": "address",
					"name": "token",
					"type": "address"
				},
				{
					"indexed": false,
					"internalType": "uint256",
					"name": "amount",
					"type": "uint256"
				}
			],
			"name": "Recovered",
			"type": "event"
		},
		{
			"anonymous": false,
			"inputs": [
				{
					"indexed": true,
					"internalType": "address",
					"name": "account",
					"type": "address"
				},
				{
					"indexed": false,
					"internalType": "uint256",
					"name": "amount",
					"type": "uint256"
				}
			],
			"name": "Redelegate",
			"type": "event"
		},
		{
			"anonymous": false,
			"inputs": [
				{
					"indexed": false,
					"internalType": "uint256",
					"name": "duration",
					"type": "uint256"
				}
			],
			"name": "RewardsDurationUpdated",
			"type": "event"
		},
		{
			"anonymous": false,
			"inputs": [
				{
					"indexed": false,
					"internalType": "address",
					"name": "account",
					"type": "address"
				}
			],
			"name": "Unpaused",
			"type": "event"
		},
		{
			"inputs": [],
			"name": "approveRequiredMethods",
			"outputs": [],
			"stateMutability": "nonpayable",
			"type": "function"
		},
		{
			"inputs": [
				{
					"internalType": "address",
					"name": "account",
					"type": "address"
				}
			],
			"name": "balanceOf",
			"outputs": [
				{
					"internalType": "uint256",
					"name": "",
					"type": "uint256"
				}
			],
			"stateMutability": "view",
			"type": "function"
		},
		{
			"inputs": [],
			"name": "claim",
			"outputs": [],
			"stateMutability": "nonpayable",
			"type": "function"
		},
		{
			"inputs": [
				{
					"internalType": "address",
					"name": "account",
					"type": "address"
				}
			],
			"name": "earned",
			"outputs": [
				{
					"internalType": "uint256",
					"name": "",
					"type": "uint256"
				}
			],
			"stateMutability": "view",
			"type": "function"
		},
		{
			"inputs": [
				{
					"internalType": "uint256",
					"name": "reward",
					"type": "uint256"
				}
			],
			"name": "fund",
			"outputs": [],
			"stateMutability": "nonpayable",
			"type": "function"
		},
		{
			"inputs": [],
			"name": "getRewardForDuration",
			"outputs": [
				{
					"internalType": "uint256",
					"name": "",
					"type": "uint256"
				}
			],
			"stateMutability": "view",
			"type": "function"
		},
		{
			"inputs": [
				{
					"internalType": "address",
					"name": "_user",
					"type": "address"
				}
			],
			"name": "isUserApproved",
			"outputs": [
				{
					"internalType": "bool",
					"name": "",
					"type": "bool"
				}
			],
			"stateMutability": "view",
			"type": "function"
		},
		{
			"inputs": [],
			"name": "lastTimeRewardApplicable",
			"outputs": [
				{
					"internalType": "uint256",
					"name": "",
					"type": "uint256"
				}
			],
			"stateMutability": "view",
			"type": "function"
		},
		{
			"inputs": [],
			"name": "lastUpdateTime",
			"outputs": [
				{
					"internalType": "uint256",
					"name": "",
					"type": "uint256"
				}
			],
			"stateMutability": "view",
			"type": "function"
		},
		{
			"inputs": [],
			"name": "owner",
			"outputs": [
				{
					"internalType": "address",
					"name": "",
					"type": "address"
				}
			],
			"stateMutability": "view",
			"type": "function"
		},
		{
			"inputs": [],
			"name": "paused",
			"outputs": [
				{
					"internalType": "bool",
					"name": "",
					"type": "bool"
				}
			],
			"stateMutability": "view",
			"type": "function"
		},
		{
			"inputs": [],
			"name": "periodFinish",
			"outputs": [
				{
					"internalType": "uint256",
					"name": "",
					"type": "uint256"
				}
			],
			"stateMutability": "view",
			"type": "function"
		},
		{
			"inputs": [
				{
					"internalType": "address",
					"name": "tokenAddress",
					"type": "address"
				},
				{
					"internalType": "uint256",
					"name": "tokenAmount",
					"type": "uint256"
				}
			],
			"name": "recoverERC20",
			"outputs": [],
			"stateMutability": "nonpayable",
			"type": "function"
		},
		{
			"inputs": [
				{
					"internalType": "string",
					"name": "_srcValidatorAddr",
					"type": "string"
				},
				{
					"internalType": "string",
					"name": "_dstValidatorAddr",
					"type": "string"
				},
				{
					"internalType": "uint256",
					"name": "_amount",
					"type": "uint256"
				}
			],
			"name": "redelegateTokens",
			"outputs": [
				{
					"internalType": "int64",
					"name": "",
					"type": "int64"
				}
			],
			"stateMutability": "nonpayable",
			"type": "function"
		},
		{
			"inputs": [
				{
					"internalType": "string[]",
					"name": "_srcValidatorAddrs",
					"type": "string[]"
				},
				{
					"internalType": "string[]",
					"name": "_dstValidatorAddrs",
					"type": "string[]"
				},
				{
					"internalType": "uint256[]",
					"name": "_amounts",
					"type": "uint256[]"
				}
			],
			"name": "redelegateTokensMultiple",
			"outputs": [],
			"stateMutability": "nonpayable",
			"type": "function"
		},
		{
			"inputs": [],
			"name": "renounceOwnership",
			"outputs": [],
			"stateMutability": "nonpayable",
			"type": "function"
		},
		{
			"inputs": [],
			"name": "rewardPerToken",
			"outputs": [
				{
					"internalType": "uint256",
					"name": "",
					"type": "uint256"
				}
			],
			"stateMutability": "view",
			"type": "function"
		},
		{
			"inputs": [],
			"name": "rewardPerTokenStored",
			"outputs": [
				{
					"internalType": "uint256",
					"name": "",
					"type": "uint256"
				}
			],
			"stateMutability": "view",
			"type": "function"
		},
		{
			"inputs": [],
			"name": "rewardRate",
			"outputs": [
				{
					"internalType": "uint256",
					"name": "",
					"type": "uint256"
				}
			],
			"stateMutability": "view",
			"type": "function"
		},
		{
			"inputs": [
				{
					"internalType": "address",
					"name": "",
					"type": "address"
				}
			],
			"name": "rewards",
			"outputs": [
				{
					"internalType": "uint256",
					"name": "",
					"type": "uint256"
				}
			],
			"stateMutability": "view",
			"type": "function"
		},
		{
			"inputs": [],
			"name": "rewardsDuration",
			"outputs": [
				{
					"internalType": "uint256",
					"name": "",
					"type": "uint256"
				}
			],
			"stateMutability": "view",
			"type": "function"
		},
		{
			"inputs": [],
			"name": "rewardsToken",
			"outputs": [
				{
					"internalType": "contract IERC20",
					"name": "",
					"type": "address"
				}
			],
			"stateMutability": "view",
			"type": "function"
		},
		{
			"inputs": [
				{
					"internalType": "uint256",
					"name": "duration",
					"type": "uint256"
				}
			],
			"name": "setRewardsDuration",
			"outputs": [],
			"stateMutability": "nonpayable",
			"type": "function"
		},
		{
			"inputs": [],
			"name": "stakingToken",
			"outputs": [
				{
					"internalType": "contract IERC20",
					"name": "",
					"type": "address"
				}
			],
			"stateMutability": "view",
			"type": "function"
		},
		{
			"inputs": [],
			"name": "totalSupplyLocked",
			"outputs": [
				{
					"internalType": "uint256",
					"name": "",
					"type": "uint256"
				}
			],
			"stateMutability": "view",
			"type": "function"
		},
		{
			"inputs": [
				{
					"internalType": "address",
					"name": "newOwner",
					"type": "address"
				}
			],
			"name": "transferOwnership",
			"outputs": [],
			"stateMutability": "nonpayable",
			"type": "function"
		},
		{
			"inputs": [
				{
					"internalType": "address",
					"name": "",
					"type": "address"
				}
			],
			"name": "userRewardPerTokenPaid",
			"outputs": [
				{
					"internalType": "uint256",
					"name": "",
					"type": "uint256"
				}
			],
			"stateMutability": "view",
			"type": "function"
		}
	]
}